
Demo18_1ShowImage.elf:     file format elf32-littlearm

Sections:
Idx Name          Size      VMA       LMA       File off  Algn
  0 .isr_vector   00000188  08000000  08000000  00010000  2**0
                  CONTENTS, ALLOC, LOAD, READONLY, DATA
  1 .text         00004f6c  08000188  08000188  00010188  2**3
                  CONTENTS, ALLOC, LOAD, READONLY, CODE
  2 .rodata       000361fc  080050f4  080050f4  000150f4  2**2
                  CONTENTS, ALLOC, LOAD, READONLY, DATA
  3 .ARM.extab    00000000  0803b2f0  0803b2f0  0005000c  2**0
                  CONTENTS
  4 .ARM          00000008  0803b2f0  0803b2f0  0004b2f0  2**2
                  CONTENTS, ALLOC, LOAD, READONLY, DATA
  5 .preinit_array 00000000  0803b2f8  0803b2f8  0005000c  2**0
                  CONTENTS, ALLOC, LOAD, DATA
  6 .init_array   00000004  0803b2f8  0803b2f8  0004b2f8  2**2
                  CONTENTS, ALLOC, LOAD, DATA
  7 .fini_array   00000004  0803b2fc  0803b2fc  0004b2fc  2**2
                  CONTENTS, ALLOC, LOAD, DATA
  8 .data         0000000c  20000000  0803b300  00050000  2**2
                  CONTENTS, ALLOC, LOAD, DATA
  9 .ccmram       00000000  10000000  10000000  0005000c  2**0
                  CONTENTS
 10 .bss          000000d4  2000000c  2000000c  0005000c  2**2
                  ALLOC
 11 ._user_heap_stack 00000600  200000e0  200000e0  0005000c  2**0
                  ALLOC
 12 .ARM.attributes 00000030  00000000  00000000  0005000c  2**0
                  CONTENTS, READONLY
 13 .debug_info   000073b6  00000000  00000000  0005003c  2**0
                  CONTENTS, READONLY, DEBUGGING, OCTETS
 14 .debug_abbrev 00001842  00000000  00000000  000573f2  2**0
                  CONTENTS, READONLY, DEBUGGING, OCTETS
 15 .debug_aranges 000006e0  00000000  00000000  00058c38  2**3
                  CONTENTS, READONLY, DEBUGGING, OCTETS
 16 .debug_ranges 00000608  00000000  00000000  00059318  2**3
                  CONTENTS, READONLY, DEBUGGING, OCTETS
 17 .debug_macro  00020a52  00000000  00000000  00059920  2**0
                  CONTENTS, READONLY, DEBUGGING, OCTETS
 18 .debug_line   00009b08  00000000  00000000  0007a372  2**0
                  CONTENTS, READONLY, DEBUGGING, OCTETS
 19 .debug_str    000c3463  00000000  00000000  00083e7a  2**0
                  CONTENTS, READONLY, DEBUGGING, OCTETS
 20 .comment      00000050  00000000  00000000  001472dd  2**0
                  CONTENTS, READONLY
 21 .debug_frame  00001b10  00000000  00000000  00147330  2**2
                  CONTENTS, READONLY, DEBUGGING, OCTETS

Disassembly of section .text:

08000188 <__do_global_dtors_aux>:
 8000188:	b510      	push	{r4, lr}
 800018a:	4c05      	ldr	r4, [pc, #20]	; (80001a0 <__do_global_dtors_aux+0x18>)
 800018c:	7823      	ldrb	r3, [r4, #0]
 800018e:	b933      	cbnz	r3, 800019e <__do_global_dtors_aux+0x16>
 8000190:	4b04      	ldr	r3, [pc, #16]	; (80001a4 <__do_global_dtors_aux+0x1c>)
 8000192:	b113      	cbz	r3, 800019a <__do_global_dtors_aux+0x12>
 8000194:	4804      	ldr	r0, [pc, #16]	; (80001a8 <__do_global_dtors_aux+0x20>)
 8000196:	f3af 8000 	nop.w
 800019a:	2301      	movs	r3, #1
 800019c:	7023      	strb	r3, [r4, #0]
 800019e:	bd10      	pop	{r4, pc}
 80001a0:	2000000c 	.word	0x2000000c
 80001a4:	00000000 	.word	0x00000000
 80001a8:	080050dc 	.word	0x080050dc

080001ac <frame_dummy>:
 80001ac:	b508      	push	{r3, lr}
 80001ae:	4b03      	ldr	r3, [pc, #12]	; (80001bc <frame_dummy+0x10>)
 80001b0:	b11b      	cbz	r3, 80001ba <frame_dummy+0xe>
 80001b2:	4903      	ldr	r1, [pc, #12]	; (80001c0 <frame_dummy+0x14>)
 80001b4:	4803      	ldr	r0, [pc, #12]	; (80001c4 <frame_dummy+0x18>)
 80001b6:	f3af 8000 	nop.w
 80001ba:	bd08      	pop	{r3, pc}
 80001bc:	00000000 	.word	0x00000000
 80001c0:	20000010 	.word	0x20000010
 80001c4:	080050dc 	.word	0x080050dc

080001c8 <__aeabi_dmul>:
 80001c8:	b570      	push	{r4, r5, r6, lr}
 80001ca:	f04f 0cff 	mov.w	ip, #255	; 0xff
 80001ce:	f44c 6ce0 	orr.w	ip, ip, #1792	; 0x700
 80001d2:	ea1c 5411 	ands.w	r4, ip, r1, lsr #20
 80001d6:	bf1d      	ittte	ne
 80001d8:	ea1c 5513 	andsne.w	r5, ip, r3, lsr #20
 80001dc:	ea94 0f0c 	teqne	r4, ip
 80001e0:	ea95 0f0c 	teqne	r5, ip
 80001e4:	f000 f8de 	bleq	80003a4 <__aeabi_dmul+0x1dc>
 80001e8:	442c      	add	r4, r5
 80001ea:	ea81 0603 	eor.w	r6, r1, r3
 80001ee:	ea21 514c 	bic.w	r1, r1, ip, lsl #21
 80001f2:	ea23 534c 	bic.w	r3, r3, ip, lsl #21
 80001f6:	ea50 3501 	orrs.w	r5, r0, r1, lsl #12
 80001fa:	bf18      	it	ne
 80001fc:	ea52 3503 	orrsne.w	r5, r2, r3, lsl #12
 8000200:	f441 1180 	orr.w	r1, r1, #1048576	; 0x100000
 8000204:	f443 1380 	orr.w	r3, r3, #1048576	; 0x100000
 8000208:	d038      	beq.n	800027c <__aeabi_dmul+0xb4>
 800020a:	fba0 ce02 	umull	ip, lr, r0, r2
 800020e:	f04f 0500 	mov.w	r5, #0
 8000212:	fbe1 e502 	umlal	lr, r5, r1, r2
 8000216:	f006 4200 	and.w	r2, r6, #2147483648	; 0x80000000
 800021a:	fbe0 e503 	umlal	lr, r5, r0, r3
 800021e:	f04f 0600 	mov.w	r6, #0
 8000222:	fbe1 5603 	umlal	r5, r6, r1, r3
 8000226:	f09c 0f00 	teq	ip, #0
 800022a:	bf18      	it	ne
 800022c:	f04e 0e01 	orrne.w	lr, lr, #1
 8000230:	f1a4 04ff 	sub.w	r4, r4, #255	; 0xff
 8000234:	f5b6 7f00 	cmp.w	r6, #512	; 0x200
 8000238:	f564 7440 	sbc.w	r4, r4, #768	; 0x300
 800023c:	d204      	bcs.n	8000248 <__aeabi_dmul+0x80>
 800023e:	ea5f 0e4e 	movs.w	lr, lr, lsl #1
 8000242:	416d      	adcs	r5, r5
 8000244:	eb46 0606 	adc.w	r6, r6, r6
 8000248:	ea42 21c6 	orr.w	r1, r2, r6, lsl #11
 800024c:	ea41 5155 	orr.w	r1, r1, r5, lsr #21
 8000250:	ea4f 20c5 	mov.w	r0, r5, lsl #11
 8000254:	ea40 505e 	orr.w	r0, r0, lr, lsr #21
 8000258:	ea4f 2ece 	mov.w	lr, lr, lsl #11
 800025c:	f1b4 0cfd 	subs.w	ip, r4, #253	; 0xfd
 8000260:	bf88      	it	hi
 8000262:	f5bc 6fe0 	cmphi.w	ip, #1792	; 0x700
 8000266:	d81e      	bhi.n	80002a6 <__aeabi_dmul+0xde>
 8000268:	f1be 4f00 	cmp.w	lr, #2147483648	; 0x80000000
 800026c:	bf08      	it	eq
 800026e:	ea5f 0e50 	movseq.w	lr, r0, lsr #1
 8000272:	f150 0000 	adcs.w	r0, r0, #0
 8000276:	eb41 5104 	adc.w	r1, r1, r4, lsl #20
 800027a:	bd70      	pop	{r4, r5, r6, pc}
 800027c:	f006 4600 	and.w	r6, r6, #2147483648	; 0x80000000
 8000280:	ea46 0101 	orr.w	r1, r6, r1
 8000284:	ea40 0002 	orr.w	r0, r0, r2
 8000288:	ea81 0103 	eor.w	r1, r1, r3
 800028c:	ebb4 045c 	subs.w	r4, r4, ip, lsr #1
 8000290:	bfc2      	ittt	gt
 8000292:	ebd4 050c 	rsbsgt	r5, r4, ip
 8000296:	ea41 5104 	orrgt.w	r1, r1, r4, lsl #20
 800029a:	bd70      	popgt	{r4, r5, r6, pc}
 800029c:	f441 1180 	orr.w	r1, r1, #1048576	; 0x100000
 80002a0:	f04f 0e00 	mov.w	lr, #0
 80002a4:	3c01      	subs	r4, #1
 80002a6:	f300 80ab 	bgt.w	8000400 <__aeabi_dmul+0x238>
 80002aa:	f114 0f36 	cmn.w	r4, #54	; 0x36
 80002ae:	bfde      	ittt	le
 80002b0:	2000      	movle	r0, #0
 80002b2:	f001 4100 	andle.w	r1, r1, #2147483648	; 0x80000000
 80002b6:	bd70      	pople	{r4, r5, r6, pc}
 80002b8:	f1c4 0400 	rsb	r4, r4, #0
 80002bc:	3c20      	subs	r4, #32
 80002be:	da35      	bge.n	800032c <__aeabi_dmul+0x164>
 80002c0:	340c      	adds	r4, #12
 80002c2:	dc1b      	bgt.n	80002fc <__aeabi_dmul+0x134>
 80002c4:	f104 0414 	add.w	r4, r4, #20
 80002c8:	f1c4 0520 	rsb	r5, r4, #32
 80002cc:	fa00 f305 	lsl.w	r3, r0, r5
 80002d0:	fa20 f004 	lsr.w	r0, r0, r4
 80002d4:	fa01 f205 	lsl.w	r2, r1, r5
 80002d8:	ea40 0002 	orr.w	r0, r0, r2
 80002dc:	f001 4200 	and.w	r2, r1, #2147483648	; 0x80000000
 80002e0:	f021 4100 	bic.w	r1, r1, #2147483648	; 0x80000000
 80002e4:	eb10 70d3 	adds.w	r0, r0, r3, lsr #31
 80002e8:	fa21 f604 	lsr.w	r6, r1, r4
 80002ec:	eb42 0106 	adc.w	r1, r2, r6
 80002f0:	ea5e 0e43 	orrs.w	lr, lr, r3, lsl #1
 80002f4:	bf08      	it	eq
 80002f6:	ea20 70d3 	biceq.w	r0, r0, r3, lsr #31
 80002fa:	bd70      	pop	{r4, r5, r6, pc}
 80002fc:	f1c4 040c 	rsb	r4, r4, #12
 8000300:	f1c4 0520 	rsb	r5, r4, #32
 8000304:	fa00 f304 	lsl.w	r3, r0, r4
 8000308:	fa20 f005 	lsr.w	r0, r0, r5
 800030c:	fa01 f204 	lsl.w	r2, r1, r4
 8000310:	ea40 0002 	orr.w	r0, r0, r2
 8000314:	f001 4100 	and.w	r1, r1, #2147483648	; 0x80000000
 8000318:	eb10 70d3 	adds.w	r0, r0, r3, lsr #31
 800031c:	f141 0100 	adc.w	r1, r1, #0
 8000320:	ea5e 0e43 	orrs.w	lr, lr, r3, lsl #1
 8000324:	bf08      	it	eq
 8000326:	ea20 70d3 	biceq.w	r0, r0, r3, lsr #31
 800032a:	bd70      	pop	{r4, r5, r6, pc}
 800032c:	f1c4 0520 	rsb	r5, r4, #32
 8000330:	fa00 f205 	lsl.w	r2, r0, r5
 8000334:	ea4e 0e02 	orr.w	lr, lr, r2
 8000338:	fa20 f304 	lsr.w	r3, r0, r4
 800033c:	fa01 f205 	lsl.w	r2, r1, r5
 8000340:	ea43 0302 	orr.w	r3, r3, r2
 8000344:	fa21 f004 	lsr.w	r0, r1, r4
 8000348:	f001 4100 	and.w	r1, r1, #2147483648	; 0x80000000
 800034c:	fa21 f204 	lsr.w	r2, r1, r4
 8000350:	ea20 0002 	bic.w	r0, r0, r2
 8000354:	eb00 70d3 	add.w	r0, r0, r3, lsr #31
 8000358:	ea5e 0e43 	orrs.w	lr, lr, r3, lsl #1
 800035c:	bf08      	it	eq
 800035e:	ea20 70d3 	biceq.w	r0, r0, r3, lsr #31
 8000362:	bd70      	pop	{r4, r5, r6, pc}
 8000364:	f094 0f00 	teq	r4, #0
 8000368:	d10f      	bne.n	800038a <__aeabi_dmul+0x1c2>
 800036a:	f001 4600 	and.w	r6, r1, #2147483648	; 0x80000000
 800036e:	0040      	lsls	r0, r0, #1
 8000370:	eb41 0101 	adc.w	r1, r1, r1
 8000374:	f411 1f80 	tst.w	r1, #1048576	; 0x100000
 8000378:	bf08      	it	eq
 800037a:	3c01      	subeq	r4, #1
 800037c:	d0f7      	beq.n	800036e <__aeabi_dmul+0x1a6>
 800037e:	ea41 0106 	orr.w	r1, r1, r6
 8000382:	f095 0f00 	teq	r5, #0
 8000386:	bf18      	it	ne
 8000388:	4770      	bxne	lr
 800038a:	f003 4600 	and.w	r6, r3, #2147483648	; 0x80000000
 800038e:	0052      	lsls	r2, r2, #1
 8000390:	eb43 0303 	adc.w	r3, r3, r3
 8000394:	f413 1f80 	tst.w	r3, #1048576	; 0x100000
 8000398:	bf08      	it	eq
 800039a:	3d01      	subeq	r5, #1
 800039c:	d0f7      	beq.n	800038e <__aeabi_dmul+0x1c6>
 800039e:	ea43 0306 	orr.w	r3, r3, r6
 80003a2:	4770      	bx	lr
 80003a4:	ea94 0f0c 	teq	r4, ip
 80003a8:	ea0c 5513 	and.w	r5, ip, r3, lsr #20
 80003ac:	bf18      	it	ne
 80003ae:	ea95 0f0c 	teqne	r5, ip
 80003b2:	d00c      	beq.n	80003ce <__aeabi_dmul+0x206>
 80003b4:	ea50 0641 	orrs.w	r6, r0, r1, lsl #1
 80003b8:	bf18      	it	ne
 80003ba:	ea52 0643 	orrsne.w	r6, r2, r3, lsl #1
 80003be:	d1d1      	bne.n	8000364 <__aeabi_dmul+0x19c>
 80003c0:	ea81 0103 	eor.w	r1, r1, r3
 80003c4:	f001 4100 	and.w	r1, r1, #2147483648	; 0x80000000
 80003c8:	f04f 0000 	mov.w	r0, #0
 80003cc:	bd70      	pop	{r4, r5, r6, pc}
 80003ce:	ea50 0641 	orrs.w	r6, r0, r1, lsl #1
 80003d2:	bf06      	itte	eq
 80003d4:	4610      	moveq	r0, r2
 80003d6:	4619      	moveq	r1, r3
 80003d8:	ea52 0643 	orrsne.w	r6, r2, r3, lsl #1
 80003dc:	d019      	beq.n	8000412 <__aeabi_dmul+0x24a>
 80003de:	ea94 0f0c 	teq	r4, ip
 80003e2:	d102      	bne.n	80003ea <__aeabi_dmul+0x222>
 80003e4:	ea50 3601 	orrs.w	r6, r0, r1, lsl #12
 80003e8:	d113      	bne.n	8000412 <__aeabi_dmul+0x24a>
 80003ea:	ea95 0f0c 	teq	r5, ip
 80003ee:	d105      	bne.n	80003fc <__aeabi_dmul+0x234>
 80003f0:	ea52 3603 	orrs.w	r6, r2, r3, lsl #12
 80003f4:	bf1c      	itt	ne
 80003f6:	4610      	movne	r0, r2
 80003f8:	4619      	movne	r1, r3
 80003fa:	d10a      	bne.n	8000412 <__aeabi_dmul+0x24a>
 80003fc:	ea81 0103 	eor.w	r1, r1, r3
 8000400:	f001 4100 	and.w	r1, r1, #2147483648	; 0x80000000
 8000404:	f041 41fe 	orr.w	r1, r1, #2130706432	; 0x7f000000
 8000408:	f441 0170 	orr.w	r1, r1, #15728640	; 0xf00000
 800040c:	f04f 0000 	mov.w	r0, #0
 8000410:	bd70      	pop	{r4, r5, r6, pc}
 8000412:	f041 41fe 	orr.w	r1, r1, #2130706432	; 0x7f000000
 8000416:	f441 0178 	orr.w	r1, r1, #16252928	; 0xf80000
 800041a:	bd70      	pop	{r4, r5, r6, pc}

0800041c <__aeabi_drsub>:
 800041c:	f081 4100 	eor.w	r1, r1, #2147483648	; 0x80000000
 8000420:	e002      	b.n	8000428 <__adddf3>
 8000422:	bf00      	nop

08000424 <__aeabi_dsub>:
 8000424:	f083 4300 	eor.w	r3, r3, #2147483648	; 0x80000000

08000428 <__adddf3>:
 8000428:	b530      	push	{r4, r5, lr}
 800042a:	ea4f 0441 	mov.w	r4, r1, lsl #1
 800042e:	ea4f 0543 	mov.w	r5, r3, lsl #1
 8000432:	ea94 0f05 	teq	r4, r5
 8000436:	bf08      	it	eq
 8000438:	ea90 0f02 	teqeq	r0, r2
 800043c:	bf1f      	itttt	ne
 800043e:	ea54 0c00 	orrsne.w	ip, r4, r0
 8000442:	ea55 0c02 	orrsne.w	ip, r5, r2
 8000446:	ea7f 5c64 	mvnsne.w	ip, r4, asr #21
 800044a:	ea7f 5c65 	mvnsne.w	ip, r5, asr #21
 800044e:	f000 80e2 	beq.w	8000616 <__adddf3+0x1ee>
 8000452:	ea4f 5454 	mov.w	r4, r4, lsr #21
 8000456:	ebd4 5555 	rsbs	r5, r4, r5, lsr #21
 800045a:	bfb8      	it	lt
 800045c:	426d      	neglt	r5, r5
 800045e:	dd0c      	ble.n	800047a <__adddf3+0x52>
 8000460:	442c      	add	r4, r5
 8000462:	ea80 0202 	eor.w	r2, r0, r2
 8000466:	ea81 0303 	eor.w	r3, r1, r3
 800046a:	ea82 0000 	eor.w	r0, r2, r0
 800046e:	ea83 0101 	eor.w	r1, r3, r1
 8000472:	ea80 0202 	eor.w	r2, r0, r2
 8000476:	ea81 0303 	eor.w	r3, r1, r3
 800047a:	2d36      	cmp	r5, #54	; 0x36
 800047c:	bf88      	it	hi
 800047e:	bd30      	pophi	{r4, r5, pc}
 8000480:	f011 4f00 	tst.w	r1, #2147483648	; 0x80000000
 8000484:	ea4f 3101 	mov.w	r1, r1, lsl #12
 8000488:	f44f 1c80 	mov.w	ip, #1048576	; 0x100000
 800048c:	ea4c 3111 	orr.w	r1, ip, r1, lsr #12
 8000490:	d002      	beq.n	8000498 <__adddf3+0x70>
 8000492:	4240      	negs	r0, r0
 8000494:	eb61 0141 	sbc.w	r1, r1, r1, lsl #1
 8000498:	f013 4f00 	tst.w	r3, #2147483648	; 0x80000000
 800049c:	ea4f 3303 	mov.w	r3, r3, lsl #12
 80004a0:	ea4c 3313 	orr.w	r3, ip, r3, lsr #12
 80004a4:	d002      	beq.n	80004ac <__adddf3+0x84>
 80004a6:	4252      	negs	r2, r2
 80004a8:	eb63 0343 	sbc.w	r3, r3, r3, lsl #1
 80004ac:	ea94 0f05 	teq	r4, r5
 80004b0:	f000 80a7 	beq.w	8000602 <__adddf3+0x1da>
 80004b4:	f1a4 0401 	sub.w	r4, r4, #1
 80004b8:	f1d5 0e20 	rsbs	lr, r5, #32
 80004bc:	db0d      	blt.n	80004da <__adddf3+0xb2>
 80004be:	fa02 fc0e 	lsl.w	ip, r2, lr
 80004c2:	fa22 f205 	lsr.w	r2, r2, r5
 80004c6:	1880      	adds	r0, r0, r2
 80004c8:	f141 0100 	adc.w	r1, r1, #0
 80004cc:	fa03 f20e 	lsl.w	r2, r3, lr
 80004d0:	1880      	adds	r0, r0, r2
 80004d2:	fa43 f305 	asr.w	r3, r3, r5
 80004d6:	4159      	adcs	r1, r3
 80004d8:	e00e      	b.n	80004f8 <__adddf3+0xd0>
 80004da:	f1a5 0520 	sub.w	r5, r5, #32
 80004de:	f10e 0e20 	add.w	lr, lr, #32
 80004e2:	2a01      	cmp	r2, #1
 80004e4:	fa03 fc0e 	lsl.w	ip, r3, lr
 80004e8:	bf28      	it	cs
 80004ea:	f04c 0c02 	orrcs.w	ip, ip, #2
 80004ee:	fa43 f305 	asr.w	r3, r3, r5
 80004f2:	18c0      	adds	r0, r0, r3
 80004f4:	eb51 71e3 	adcs.w	r1, r1, r3, asr #31
 80004f8:	f001 4500 	and.w	r5, r1, #2147483648	; 0x80000000
 80004fc:	d507      	bpl.n	800050e <__adddf3+0xe6>
 80004fe:	f04f 0e00 	mov.w	lr, #0
 8000502:	f1dc 0c00 	rsbs	ip, ip, #0
 8000506:	eb7e 0000 	sbcs.w	r0, lr, r0
 800050a:	eb6e 0101 	sbc.w	r1, lr, r1
 800050e:	f5b1 1f80 	cmp.w	r1, #1048576	; 0x100000
 8000512:	d31b      	bcc.n	800054c <__adddf3+0x124>
 8000514:	f5b1 1f00 	cmp.w	r1, #2097152	; 0x200000
 8000518:	d30c      	bcc.n	8000534 <__adddf3+0x10c>
 800051a:	0849      	lsrs	r1, r1, #1
 800051c:	ea5f 0030 	movs.w	r0, r0, rrx
 8000520:	ea4f 0c3c 	mov.w	ip, ip, rrx
 8000524:	f104 0401 	add.w	r4, r4, #1
 8000528:	ea4f 5244 	mov.w	r2, r4, lsl #21
 800052c:	f512 0f80 	cmn.w	r2, #4194304	; 0x400000
 8000530:	f080 809a 	bcs.w	8000668 <__adddf3+0x240>
 8000534:	f1bc 4f00 	cmp.w	ip, #2147483648	; 0x80000000
 8000538:	bf08      	it	eq
 800053a:	ea5f 0c50 	movseq.w	ip, r0, lsr #1
 800053e:	f150 0000 	adcs.w	r0, r0, #0
 8000542:	eb41 5104 	adc.w	r1, r1, r4, lsl #20
 8000546:	ea41 0105 	orr.w	r1, r1, r5
 800054a:	bd30      	pop	{r4, r5, pc}
 800054c:	ea5f 0c4c 	movs.w	ip, ip, lsl #1
 8000550:	4140      	adcs	r0, r0
 8000552:	eb41 0101 	adc.w	r1, r1, r1
 8000556:	3c01      	subs	r4, #1
 8000558:	bf28      	it	cs
 800055a:	f5b1 1f80 	cmpcs.w	r1, #1048576	; 0x100000
 800055e:	d2e9      	bcs.n	8000534 <__adddf3+0x10c>
 8000560:	f091 0f00 	teq	r1, #0
 8000564:	bf04      	itt	eq
 8000566:	4601      	moveq	r1, r0
 8000568:	2000      	moveq	r0, #0
 800056a:	fab1 f381 	clz	r3, r1
 800056e:	bf08      	it	eq
 8000570:	3320      	addeq	r3, #32
 8000572:	f1a3 030b 	sub.w	r3, r3, #11
 8000576:	f1b3 0220 	subs.w	r2, r3, #32
 800057a:	da0c      	bge.n	8000596 <__adddf3+0x16e>
 800057c:	320c      	adds	r2, #12
 800057e:	dd08      	ble.n	8000592 <__adddf3+0x16a>
 8000580:	f102 0c14 	add.w	ip, r2, #20
 8000584:	f1c2 020c 	rsb	r2, r2, #12
 8000588:	fa01 f00c 	lsl.w	r0, r1, ip
 800058c:	fa21 f102 	lsr.w	r1, r1, r2
 8000590:	e00c      	b.n	80005ac <__adddf3+0x184>
 8000592:	f102 0214 	add.w	r2, r2, #20
 8000596:	bfd8      	it	le
 8000598:	f1c2 0c20 	rsble	ip, r2, #32
 800059c:	fa01 f102 	lsl.w	r1, r1, r2
 80005a0:	fa20 fc0c 	lsr.w	ip, r0, ip
 80005a4:	bfdc      	itt	le
 80005a6:	ea41 010c 	orrle.w	r1, r1, ip
 80005aa:	4090      	lslle	r0, r2
 80005ac:	1ae4      	subs	r4, r4, r3
 80005ae:	bfa2      	ittt	ge
 80005b0:	eb01 5104 	addge.w	r1, r1, r4, lsl #20
 80005b4:	4329      	orrge	r1, r5
 80005b6:	bd30      	popge	{r4, r5, pc}
 80005b8:	ea6f 0404 	mvn.w	r4, r4
 80005bc:	3c1f      	subs	r4, #31
 80005be:	da1c      	bge.n	80005fa <__adddf3+0x1d2>
 80005c0:	340c      	adds	r4, #12
 80005c2:	dc0e      	bgt.n	80005e2 <__adddf3+0x1ba>
 80005c4:	f104 0414 	add.w	r4, r4, #20
 80005c8:	f1c4 0220 	rsb	r2, r4, #32
 80005cc:	fa20 f004 	lsr.w	r0, r0, r4
 80005d0:	fa01 f302 	lsl.w	r3, r1, r2
 80005d4:	ea40 0003 	orr.w	r0, r0, r3
 80005d8:	fa21 f304 	lsr.w	r3, r1, r4
 80005dc:	ea45 0103 	orr.w	r1, r5, r3
 80005e0:	bd30      	pop	{r4, r5, pc}
 80005e2:	f1c4 040c 	rsb	r4, r4, #12
 80005e6:	f1c4 0220 	rsb	r2, r4, #32
 80005ea:	fa20 f002 	lsr.w	r0, r0, r2
 80005ee:	fa01 f304 	lsl.w	r3, r1, r4
 80005f2:	ea40 0003 	orr.w	r0, r0, r3
 80005f6:	4629      	mov	r1, r5
 80005f8:	bd30      	pop	{r4, r5, pc}
 80005fa:	fa21 f004 	lsr.w	r0, r1, r4
 80005fe:	4629      	mov	r1, r5
 8000600:	bd30      	pop	{r4, r5, pc}
 8000602:	f094 0f00 	teq	r4, #0
 8000606:	f483 1380 	eor.w	r3, r3, #1048576	; 0x100000
 800060a:	bf06      	itte	eq
 800060c:	f481 1180 	eoreq.w	r1, r1, #1048576	; 0x100000
 8000610:	3401      	addeq	r4, #1
 8000612:	3d01      	subne	r5, #1
 8000614:	e74e      	b.n	80004b4 <__adddf3+0x8c>
 8000616:	ea7f 5c64 	mvns.w	ip, r4, asr #21
 800061a:	bf18      	it	ne
 800061c:	ea7f 5c65 	mvnsne.w	ip, r5, asr #21
 8000620:	d029      	beq.n	8000676 <__adddf3+0x24e>
 8000622:	ea94 0f05 	teq	r4, r5
 8000626:	bf08      	it	eq
 8000628:	ea90 0f02 	teqeq	r0, r2
 800062c:	d005      	beq.n	800063a <__adddf3+0x212>
 800062e:	ea54 0c00 	orrs.w	ip, r4, r0
 8000632:	bf04      	itt	eq
 8000634:	4619      	moveq	r1, r3
 8000636:	4610      	moveq	r0, r2
 8000638:	bd30      	pop	{r4, r5, pc}
 800063a:	ea91 0f03 	teq	r1, r3
 800063e:	bf1e      	ittt	ne
 8000640:	2100      	movne	r1, #0
 8000642:	2000      	movne	r0, #0
 8000644:	bd30      	popne	{r4, r5, pc}
 8000646:	ea5f 5c54 	movs.w	ip, r4, lsr #21
 800064a:	d105      	bne.n	8000658 <__adddf3+0x230>
 800064c:	0040      	lsls	r0, r0, #1
 800064e:	4149      	adcs	r1, r1
 8000650:	bf28      	it	cs
 8000652:	f041 4100 	orrcs.w	r1, r1, #2147483648	; 0x80000000
 8000656:	bd30      	pop	{r4, r5, pc}
 8000658:	f514 0480 	adds.w	r4, r4, #4194304	; 0x400000
 800065c:	bf3c      	itt	cc
 800065e:	f501 1180 	addcc.w	r1, r1, #1048576	; 0x100000
 8000662:	bd30      	popcc	{r4, r5, pc}
 8000664:	f001 4500 	and.w	r5, r1, #2147483648	; 0x80000000
 8000668:	f045 41fe 	orr.w	r1, r5, #2130706432	; 0x7f000000
 800066c:	f441 0170 	orr.w	r1, r1, #15728640	; 0xf00000
 8000670:	f04f 0000 	mov.w	r0, #0
 8000674:	bd30      	pop	{r4, r5, pc}
 8000676:	ea7f 5c64 	mvns.w	ip, r4, asr #21
 800067a:	bf1a      	itte	ne
 800067c:	4619      	movne	r1, r3
 800067e:	4610      	movne	r0, r2
 8000680:	ea7f 5c65 	mvnseq.w	ip, r5, asr #21
 8000684:	bf1c      	itt	ne
 8000686:	460b      	movne	r3, r1
 8000688:	4602      	movne	r2, r0
 800068a:	ea50 3401 	orrs.w	r4, r0, r1, lsl #12
 800068e:	bf06      	itte	eq
 8000690:	ea52 3503 	orrseq.w	r5, r2, r3, lsl #12
 8000694:	ea91 0f03 	teqeq	r1, r3
 8000698:	f441 2100 	orrne.w	r1, r1, #524288	; 0x80000
 800069c:	bd30      	pop	{r4, r5, pc}
 800069e:	bf00      	nop

080006a0 <__aeabi_ui2d>:
 80006a0:	f090 0f00 	teq	r0, #0
 80006a4:	bf04      	itt	eq
 80006a6:	2100      	moveq	r1, #0
 80006a8:	4770      	bxeq	lr
 80006aa:	b530      	push	{r4, r5, lr}
 80006ac:	f44f 6480 	mov.w	r4, #1024	; 0x400
 80006b0:	f104 0432 	add.w	r4, r4, #50	; 0x32
 80006b4:	f04f 0500 	mov.w	r5, #0
 80006b8:	f04f 0100 	mov.w	r1, #0
 80006bc:	e750      	b.n	8000560 <__adddf3+0x138>
 80006be:	bf00      	nop

080006c0 <__aeabi_i2d>:
 80006c0:	f090 0f00 	teq	r0, #0
 80006c4:	bf04      	itt	eq
 80006c6:	2100      	moveq	r1, #0
 80006c8:	4770      	bxeq	lr
 80006ca:	b530      	push	{r4, r5, lr}
 80006cc:	f44f 6480 	mov.w	r4, #1024	; 0x400
 80006d0:	f104 0432 	add.w	r4, r4, #50	; 0x32
 80006d4:	f010 4500 	ands.w	r5, r0, #2147483648	; 0x80000000
 80006d8:	bf48      	it	mi
 80006da:	4240      	negmi	r0, r0
 80006dc:	f04f 0100 	mov.w	r1, #0
 80006e0:	e73e      	b.n	8000560 <__adddf3+0x138>
 80006e2:	bf00      	nop

080006e4 <__aeabi_f2d>:
 80006e4:	0042      	lsls	r2, r0, #1
 80006e6:	ea4f 01e2 	mov.w	r1, r2, asr #3
 80006ea:	ea4f 0131 	mov.w	r1, r1, rrx
 80006ee:	ea4f 7002 	mov.w	r0, r2, lsl #28
 80006f2:	bf1f      	itttt	ne
 80006f4:	f012 437f 	andsne.w	r3, r2, #4278190080	; 0xff000000
 80006f8:	f093 4f7f 	teqne	r3, #4278190080	; 0xff000000
 80006fc:	f081 5160 	eorne.w	r1, r1, #939524096	; 0x38000000
 8000700:	4770      	bxne	lr
 8000702:	f032 427f 	bics.w	r2, r2, #4278190080	; 0xff000000
 8000706:	bf08      	it	eq
 8000708:	4770      	bxeq	lr
 800070a:	f093 4f7f 	teq	r3, #4278190080	; 0xff000000
 800070e:	bf04      	itt	eq
 8000710:	f441 2100 	orreq.w	r1, r1, #524288	; 0x80000
 8000714:	4770      	bxeq	lr
 8000716:	b530      	push	{r4, r5, lr}
 8000718:	f44f 7460 	mov.w	r4, #896	; 0x380
 800071c:	f001 4500 	and.w	r5, r1, #2147483648	; 0x80000000
 8000720:	f021 4100 	bic.w	r1, r1, #2147483648	; 0x80000000
 8000724:	e71c      	b.n	8000560 <__adddf3+0x138>
 8000726:	bf00      	nop

08000728 <__aeabi_ul2d>:
 8000728:	ea50 0201 	orrs.w	r2, r0, r1
 800072c:	bf08      	it	eq
 800072e:	4770      	bxeq	lr
 8000730:	b530      	push	{r4, r5, lr}
 8000732:	f04f 0500 	mov.w	r5, #0
 8000736:	e00a      	b.n	800074e <__aeabi_l2d+0x16>

08000738 <__aeabi_l2d>:
 8000738:	ea50 0201 	orrs.w	r2, r0, r1
 800073c:	bf08      	it	eq
 800073e:	4770      	bxeq	lr
 8000740:	b530      	push	{r4, r5, lr}
 8000742:	f011 4500 	ands.w	r5, r1, #2147483648	; 0x80000000
 8000746:	d502      	bpl.n	800074e <__aeabi_l2d+0x16>
 8000748:	4240      	negs	r0, r0
 800074a:	eb61 0141 	sbc.w	r1, r1, r1, lsl #1
 800074e:	f44f 6480 	mov.w	r4, #1024	; 0x400
 8000752:	f104 0432 	add.w	r4, r4, #50	; 0x32
 8000756:	ea5f 5c91 	movs.w	ip, r1, lsr #22
 800075a:	f43f aed8 	beq.w	800050e <__adddf3+0xe6>
 800075e:	f04f 0203 	mov.w	r2, #3
 8000762:	ea5f 0cdc 	movs.w	ip, ip, lsr #3
 8000766:	bf18      	it	ne
 8000768:	3203      	addne	r2, #3
 800076a:	ea5f 0cdc 	movs.w	ip, ip, lsr #3
 800076e:	bf18      	it	ne
 8000770:	3203      	addne	r2, #3
 8000772:	eb02 02dc 	add.w	r2, r2, ip, lsr #3
 8000776:	f1c2 0320 	rsb	r3, r2, #32
 800077a:	fa00 fc03 	lsl.w	ip, r0, r3
 800077e:	fa20 f002 	lsr.w	r0, r0, r2
 8000782:	fa01 fe03 	lsl.w	lr, r1, r3
 8000786:	ea40 000e 	orr.w	r0, r0, lr
 800078a:	fa21 f102 	lsr.w	r1, r1, r2
 800078e:	4414      	add	r4, r2
 8000790:	e6bd      	b.n	800050e <__adddf3+0xe6>
 8000792:	bf00      	nop

08000794 <__aeabi_d2uiz>:
 8000794:	004a      	lsls	r2, r1, #1
 8000796:	d211      	bcs.n	80007bc <__aeabi_d2uiz+0x28>
 8000798:	f512 1200 	adds.w	r2, r2, #2097152	; 0x200000
 800079c:	d211      	bcs.n	80007c2 <__aeabi_d2uiz+0x2e>
 800079e:	d50d      	bpl.n	80007bc <__aeabi_d2uiz+0x28>
 80007a0:	f46f 7378 	mvn.w	r3, #992	; 0x3e0
 80007a4:	ebb3 5262 	subs.w	r2, r3, r2, asr #21
 80007a8:	d40e      	bmi.n	80007c8 <__aeabi_d2uiz+0x34>
 80007aa:	ea4f 23c1 	mov.w	r3, r1, lsl #11
 80007ae:	f043 4300 	orr.w	r3, r3, #2147483648	; 0x80000000
 80007b2:	ea43 5350 	orr.w	r3, r3, r0, lsr #21
 80007b6:	fa23 f002 	lsr.w	r0, r3, r2
 80007ba:	4770      	bx	lr
 80007bc:	f04f 0000 	mov.w	r0, #0
 80007c0:	4770      	bx	lr
 80007c2:	ea50 3001 	orrs.w	r0, r0, r1, lsl #12
 80007c6:	d102      	bne.n	80007ce <__aeabi_d2uiz+0x3a>
 80007c8:	f04f 30ff 	mov.w	r0, #4294967295
 80007cc:	4770      	bx	lr
 80007ce:	f04f 0000 	mov.w	r0, #0
 80007d2:	4770      	bx	lr

080007d4 <__aeabi_uldivmod>:
 80007d4:	b953      	cbnz	r3, 80007ec <__aeabi_uldivmod+0x18>
 80007d6:	b94a      	cbnz	r2, 80007ec <__aeabi_uldivmod+0x18>
 80007d8:	2900      	cmp	r1, #0
 80007da:	bf08      	it	eq
 80007dc:	2800      	cmpeq	r0, #0
 80007de:	bf1c      	itt	ne
 80007e0:	f04f 31ff 	movne.w	r1, #4294967295
 80007e4:	f04f 30ff 	movne.w	r0, #4294967295
 80007e8:	f000 b974 	b.w	8000ad4 <__aeabi_idiv0>
 80007ec:	f1ad 0c08 	sub.w	ip, sp, #8
 80007f0:	e96d ce04 	strd	ip, lr, [sp, #-16]!
 80007f4:	f000 f806 	bl	8000804 <__udivmoddi4>
 80007f8:	f8dd e004 	ldr.w	lr, [sp, #4]
 80007fc:	e9dd 2302 	ldrd	r2, r3, [sp, #8]
 8000800:	b004      	add	sp, #16
 8000802:	4770      	bx	lr

08000804 <__udivmoddi4>:
 8000804:	e92d 47f0 	stmdb	sp!, {r4, r5, r6, r7, r8, r9, sl, lr}
 8000808:	9d08      	ldr	r5, [sp, #32]
 800080a:	4604      	mov	r4, r0
 800080c:	468e      	mov	lr, r1
 800080e:	2b00      	cmp	r3, #0
 8000810:	d14d      	bne.n	80008ae <__udivmoddi4+0xaa>
 8000812:	428a      	cmp	r2, r1
 8000814:	4694      	mov	ip, r2
 8000816:	d969      	bls.n	80008ec <__udivmoddi4+0xe8>
 8000818:	fab2 f282 	clz	r2, r2
 800081c:	b152      	cbz	r2, 8000834 <__udivmoddi4+0x30>
 800081e:	fa01 f302 	lsl.w	r3, r1, r2
 8000822:	f1c2 0120 	rsb	r1, r2, #32
 8000826:	fa20 f101 	lsr.w	r1, r0, r1
 800082a:	fa0c fc02 	lsl.w	ip, ip, r2
 800082e:	ea41 0e03 	orr.w	lr, r1, r3
 8000832:	4094      	lsls	r4, r2
 8000834:	ea4f 481c 	mov.w	r8, ip, lsr #16
 8000838:	0c21      	lsrs	r1, r4, #16
 800083a:	fbbe f6f8 	udiv	r6, lr, r8
 800083e:	fa1f f78c 	uxth.w	r7, ip
 8000842:	fb08 e316 	mls	r3, r8, r6, lr
 8000846:	ea41 4303 	orr.w	r3, r1, r3, lsl #16
 800084a:	fb06 f107 	mul.w	r1, r6, r7
 800084e:	4299      	cmp	r1, r3
 8000850:	d90a      	bls.n	8000868 <__udivmoddi4+0x64>
 8000852:	eb1c 0303 	adds.w	r3, ip, r3
 8000856:	f106 30ff 	add.w	r0, r6, #4294967295
 800085a:	f080 811f 	bcs.w	8000a9c <__udivmoddi4+0x298>
 800085e:	4299      	cmp	r1, r3
 8000860:	f240 811c 	bls.w	8000a9c <__udivmoddi4+0x298>
 8000864:	3e02      	subs	r6, #2
 8000866:	4463      	add	r3, ip
 8000868:	1a5b      	subs	r3, r3, r1
 800086a:	b2a4      	uxth	r4, r4
 800086c:	fbb3 f0f8 	udiv	r0, r3, r8
 8000870:	fb08 3310 	mls	r3, r8, r0, r3
 8000874:	ea44 4403 	orr.w	r4, r4, r3, lsl #16
 8000878:	fb00 f707 	mul.w	r7, r0, r7
 800087c:	42a7      	cmp	r7, r4
 800087e:	d90a      	bls.n	8000896 <__udivmoddi4+0x92>
 8000880:	eb1c 0404 	adds.w	r4, ip, r4
 8000884:	f100 33ff 	add.w	r3, r0, #4294967295
 8000888:	f080 810a 	bcs.w	8000aa0 <__udivmoddi4+0x29c>
 800088c:	42a7      	cmp	r7, r4
 800088e:	f240 8107 	bls.w	8000aa0 <__udivmoddi4+0x29c>
 8000892:	4464      	add	r4, ip
 8000894:	3802      	subs	r0, #2
 8000896:	ea40 4006 	orr.w	r0, r0, r6, lsl #16
 800089a:	1be4      	subs	r4, r4, r7
 800089c:	2600      	movs	r6, #0
 800089e:	b11d      	cbz	r5, 80008a8 <__udivmoddi4+0xa4>
 80008a0:	40d4      	lsrs	r4, r2
 80008a2:	2300      	movs	r3, #0
 80008a4:	e9c5 4300 	strd	r4, r3, [r5]
 80008a8:	4631      	mov	r1, r6
 80008aa:	e8bd 87f0 	ldmia.w	sp!, {r4, r5, r6, r7, r8, r9, sl, pc}
 80008ae:	428b      	cmp	r3, r1
 80008b0:	d909      	bls.n	80008c6 <__udivmoddi4+0xc2>
 80008b2:	2d00      	cmp	r5, #0
 80008b4:	f000 80ef 	beq.w	8000a96 <__udivmoddi4+0x292>
 80008b8:	2600      	movs	r6, #0
 80008ba:	e9c5 0100 	strd	r0, r1, [r5]
 80008be:	4630      	mov	r0, r6
 80008c0:	4631      	mov	r1, r6
 80008c2:	e8bd 87f0 	ldmia.w	sp!, {r4, r5, r6, r7, r8, r9, sl, pc}
 80008c6:	fab3 f683 	clz	r6, r3
 80008ca:	2e00      	cmp	r6, #0
 80008cc:	d14a      	bne.n	8000964 <__udivmoddi4+0x160>
 80008ce:	428b      	cmp	r3, r1
 80008d0:	d302      	bcc.n	80008d8 <__udivmoddi4+0xd4>
 80008d2:	4282      	cmp	r2, r0
 80008d4:	f200 80f9 	bhi.w	8000aca <__udivmoddi4+0x2c6>
 80008d8:	1a84      	subs	r4, r0, r2
 80008da:	eb61 0303 	sbc.w	r3, r1, r3
 80008de:	2001      	movs	r0, #1
 80008e0:	469e      	mov	lr, r3
 80008e2:	2d00      	cmp	r5, #0
 80008e4:	d0e0      	beq.n	80008a8 <__udivmoddi4+0xa4>
 80008e6:	e9c5 4e00 	strd	r4, lr, [r5]
 80008ea:	e7dd      	b.n	80008a8 <__udivmoddi4+0xa4>
 80008ec:	b902      	cbnz	r2, 80008f0 <__udivmoddi4+0xec>
 80008ee:	deff      	udf	#255	; 0xff
 80008f0:	fab2 f282 	clz	r2, r2
 80008f4:	2a00      	cmp	r2, #0
 80008f6:	f040 8092 	bne.w	8000a1e <__udivmoddi4+0x21a>
 80008fa:	eba1 010c 	sub.w	r1, r1, ip
 80008fe:	ea4f 471c 	mov.w	r7, ip, lsr #16
 8000902:	fa1f fe8c 	uxth.w	lr, ip
 8000906:	2601      	movs	r6, #1
 8000908:	0c20      	lsrs	r0, r4, #16
 800090a:	fbb1 f3f7 	udiv	r3, r1, r7
 800090e:	fb07 1113 	mls	r1, r7, r3, r1
 8000912:	ea40 4101 	orr.w	r1, r0, r1, lsl #16
 8000916:	fb0e f003 	mul.w	r0, lr, r3
 800091a:	4288      	cmp	r0, r1
 800091c:	d908      	bls.n	8000930 <__udivmoddi4+0x12c>
 800091e:	eb1c 0101 	adds.w	r1, ip, r1
 8000922:	f103 38ff 	add.w	r8, r3, #4294967295
 8000926:	d202      	bcs.n	800092e <__udivmoddi4+0x12a>
 8000928:	4288      	cmp	r0, r1
 800092a:	f200 80cb 	bhi.w	8000ac4 <__udivmoddi4+0x2c0>
 800092e:	4643      	mov	r3, r8
 8000930:	1a09      	subs	r1, r1, r0
 8000932:	b2a4      	uxth	r4, r4
 8000934:	fbb1 f0f7 	udiv	r0, r1, r7
 8000938:	fb07 1110 	mls	r1, r7, r0, r1
 800093c:	ea44 4401 	orr.w	r4, r4, r1, lsl #16
 8000940:	fb0e fe00 	mul.w	lr, lr, r0
 8000944:	45a6      	cmp	lr, r4
 8000946:	d908      	bls.n	800095a <__udivmoddi4+0x156>
 8000948:	eb1c 0404 	adds.w	r4, ip, r4
 800094c:	f100 31ff 	add.w	r1, r0, #4294967295
 8000950:	d202      	bcs.n	8000958 <__udivmoddi4+0x154>
 8000952:	45a6      	cmp	lr, r4
 8000954:	f200 80bb 	bhi.w	8000ace <__udivmoddi4+0x2ca>
 8000958:	4608      	mov	r0, r1
 800095a:	eba4 040e 	sub.w	r4, r4, lr
 800095e:	ea40 4003 	orr.w	r0, r0, r3, lsl #16
 8000962:	e79c      	b.n	800089e <__udivmoddi4+0x9a>
 8000964:	f1c6 0720 	rsb	r7, r6, #32
 8000968:	40b3      	lsls	r3, r6
 800096a:	fa22 fc07 	lsr.w	ip, r2, r7
 800096e:	ea4c 0c03 	orr.w	ip, ip, r3
 8000972:	fa20 f407 	lsr.w	r4, r0, r7
 8000976:	fa01 f306 	lsl.w	r3, r1, r6
 800097a:	431c      	orrs	r4, r3
 800097c:	40f9      	lsrs	r1, r7
 800097e:	ea4f 491c 	mov.w	r9, ip, lsr #16
 8000982:	fa00 f306 	lsl.w	r3, r0, r6
 8000986:	fbb1 f8f9 	udiv	r8, r1, r9
 800098a:	0c20      	lsrs	r0, r4, #16
 800098c:	fa1f fe8c 	uxth.w	lr, ip
 8000990:	fb09 1118 	mls	r1, r9, r8, r1
 8000994:	ea40 4101 	orr.w	r1, r0, r1, lsl #16
 8000998:	fb08 f00e 	mul.w	r0, r8, lr
 800099c:	4288      	cmp	r0, r1
 800099e:	fa02 f206 	lsl.w	r2, r2, r6
 80009a2:	d90b      	bls.n	80009bc <__udivmoddi4+0x1b8>
 80009a4:	eb1c 0101 	adds.w	r1, ip, r1
 80009a8:	f108 3aff 	add.w	sl, r8, #4294967295
 80009ac:	f080 8088 	bcs.w	8000ac0 <__udivmoddi4+0x2bc>
 80009b0:	4288      	cmp	r0, r1
 80009b2:	f240 8085 	bls.w	8000ac0 <__udivmoddi4+0x2bc>
 80009b6:	f1a8 0802 	sub.w	r8, r8, #2
 80009ba:	4461      	add	r1, ip
 80009bc:	1a09      	subs	r1, r1, r0
 80009be:	b2a4      	uxth	r4, r4
 80009c0:	fbb1 f0f9 	udiv	r0, r1, r9
 80009c4:	fb09 1110 	mls	r1, r9, r0, r1
 80009c8:	ea44 4101 	orr.w	r1, r4, r1, lsl #16
 80009cc:	fb00 fe0e 	mul.w	lr, r0, lr
 80009d0:	458e      	cmp	lr, r1
 80009d2:	d908      	bls.n	80009e6 <__udivmoddi4+0x1e2>
 80009d4:	eb1c 0101 	adds.w	r1, ip, r1
 80009d8:	f100 34ff 	add.w	r4, r0, #4294967295
 80009dc:	d26c      	bcs.n	8000ab8 <__udivmoddi4+0x2b4>
 80009de:	458e      	cmp	lr, r1
 80009e0:	d96a      	bls.n	8000ab8 <__udivmoddi4+0x2b4>
 80009e2:	3802      	subs	r0, #2
 80009e4:	4461      	add	r1, ip
 80009e6:	ea40 4008 	orr.w	r0, r0, r8, lsl #16
 80009ea:	fba0 9402 	umull	r9, r4, r0, r2
 80009ee:	eba1 010e 	sub.w	r1, r1, lr
 80009f2:	42a1      	cmp	r1, r4
 80009f4:	46c8      	mov	r8, r9
 80009f6:	46a6      	mov	lr, r4
 80009f8:	d356      	bcc.n	8000aa8 <__udivmoddi4+0x2a4>
 80009fa:	d053      	beq.n	8000aa4 <__udivmoddi4+0x2a0>
 80009fc:	b15d      	cbz	r5, 8000a16 <__udivmoddi4+0x212>
 80009fe:	ebb3 0208 	subs.w	r2, r3, r8
 8000a02:	eb61 010e 	sbc.w	r1, r1, lr
 8000a06:	fa01 f707 	lsl.w	r7, r1, r7
 8000a0a:	fa22 f306 	lsr.w	r3, r2, r6
 8000a0e:	40f1      	lsrs	r1, r6
 8000a10:	431f      	orrs	r7, r3
 8000a12:	e9c5 7100 	strd	r7, r1, [r5]
 8000a16:	2600      	movs	r6, #0
 8000a18:	4631      	mov	r1, r6
 8000a1a:	e8bd 87f0 	ldmia.w	sp!, {r4, r5, r6, r7, r8, r9, sl, pc}
 8000a1e:	f1c2 0320 	rsb	r3, r2, #32
 8000a22:	40d8      	lsrs	r0, r3
 8000a24:	fa0c fc02 	lsl.w	ip, ip, r2
 8000a28:	fa21 f303 	lsr.w	r3, r1, r3
 8000a2c:	4091      	lsls	r1, r2
 8000a2e:	4301      	orrs	r1, r0
 8000a30:	ea4f 471c 	mov.w	r7, ip, lsr #16
 8000a34:	fa1f fe8c 	uxth.w	lr, ip
 8000a38:	fbb3 f0f7 	udiv	r0, r3, r7
 8000a3c:	fb07 3610 	mls	r6, r7, r0, r3
 8000a40:	0c0b      	lsrs	r3, r1, #16
 8000a42:	ea43 4306 	orr.w	r3, r3, r6, lsl #16
 8000a46:	fb00 f60e 	mul.w	r6, r0, lr
 8000a4a:	429e      	cmp	r6, r3
 8000a4c:	fa04 f402 	lsl.w	r4, r4, r2
 8000a50:	d908      	bls.n	8000a64 <__udivmoddi4+0x260>
 8000a52:	eb1c 0303 	adds.w	r3, ip, r3
 8000a56:	f100 38ff 	add.w	r8, r0, #4294967295
 8000a5a:	d22f      	bcs.n	8000abc <__udivmoddi4+0x2b8>
 8000a5c:	429e      	cmp	r6, r3
 8000a5e:	d92d      	bls.n	8000abc <__udivmoddi4+0x2b8>
 8000a60:	3802      	subs	r0, #2
 8000a62:	4463      	add	r3, ip
 8000a64:	1b9b      	subs	r3, r3, r6
 8000a66:	b289      	uxth	r1, r1
 8000a68:	fbb3 f6f7 	udiv	r6, r3, r7
 8000a6c:	fb07 3316 	mls	r3, r7, r6, r3
 8000a70:	ea41 4103 	orr.w	r1, r1, r3, lsl #16
 8000a74:	fb06 f30e 	mul.w	r3, r6, lr
 8000a78:	428b      	cmp	r3, r1
 8000a7a:	d908      	bls.n	8000a8e <__udivmoddi4+0x28a>
 8000a7c:	eb1c 0101 	adds.w	r1, ip, r1
 8000a80:	f106 38ff 	add.w	r8, r6, #4294967295
 8000a84:	d216      	bcs.n	8000ab4 <__udivmoddi4+0x2b0>
 8000a86:	428b      	cmp	r3, r1
 8000a88:	d914      	bls.n	8000ab4 <__udivmoddi4+0x2b0>
 8000a8a:	3e02      	subs	r6, #2
 8000a8c:	4461      	add	r1, ip
 8000a8e:	1ac9      	subs	r1, r1, r3
 8000a90:	ea46 4600 	orr.w	r6, r6, r0, lsl #16
 8000a94:	e738      	b.n	8000908 <__udivmoddi4+0x104>
 8000a96:	462e      	mov	r6, r5
 8000a98:	4628      	mov	r0, r5
 8000a9a:	e705      	b.n	80008a8 <__udivmoddi4+0xa4>
 8000a9c:	4606      	mov	r6, r0
 8000a9e:	e6e3      	b.n	8000868 <__udivmoddi4+0x64>
 8000aa0:	4618      	mov	r0, r3
 8000aa2:	e6f8      	b.n	8000896 <__udivmoddi4+0x92>
 8000aa4:	454b      	cmp	r3, r9
 8000aa6:	d2a9      	bcs.n	80009fc <__udivmoddi4+0x1f8>
 8000aa8:	ebb9 0802 	subs.w	r8, r9, r2
 8000aac:	eb64 0e0c 	sbc.w	lr, r4, ip
 8000ab0:	3801      	subs	r0, #1
 8000ab2:	e7a3      	b.n	80009fc <__udivmoddi4+0x1f8>
 8000ab4:	4646      	mov	r6, r8
 8000ab6:	e7ea      	b.n	8000a8e <__udivmoddi4+0x28a>
 8000ab8:	4620      	mov	r0, r4
 8000aba:	e794      	b.n	80009e6 <__udivmoddi4+0x1e2>
 8000abc:	4640      	mov	r0, r8
 8000abe:	e7d1      	b.n	8000a64 <__udivmoddi4+0x260>
 8000ac0:	46d0      	mov	r8, sl
 8000ac2:	e77b      	b.n	80009bc <__udivmoddi4+0x1b8>
 8000ac4:	3b02      	subs	r3, #2
 8000ac6:	4461      	add	r1, ip
 8000ac8:	e732      	b.n	8000930 <__udivmoddi4+0x12c>
 8000aca:	4630      	mov	r0, r6
 8000acc:	e709      	b.n	80008e2 <__udivmoddi4+0xde>
 8000ace:	4464      	add	r4, ip
 8000ad0:	3802      	subs	r0, #2
 8000ad2:	e742      	b.n	800095a <__udivmoddi4+0x156>

08000ad4 <__aeabi_idiv0>:
 8000ad4:	4770      	bx	lr
 8000ad6:	bf00      	nop

08000ad8 <MX_FSMC_Init>:

SRAM_HandleTypeDef hsram4;

/* FSMC initialization function */
void MX_FSMC_Init(void)
{
 8000ad8:	b580      	push	{r7, lr}
 8000ada:	b08e      	sub	sp, #56	; 0x38
 8000adc:	af00      	add	r7, sp, #0
  /* USER CODE BEGIN FSMC_Init 0 */

  /* USER CODE END FSMC_Init 0 */

  FSMC_NORSRAM_TimingTypeDef Timing = {0};
 8000ade:	f107 031c 	add.w	r3, r7, #28
 8000ae2:	2200      	movs	r2, #0
 8000ae4:	601a      	str	r2, [r3, #0]
 8000ae6:	605a      	str	r2, [r3, #4]
 8000ae8:	609a      	str	r2, [r3, #8]
 8000aea:	60da      	str	r2, [r3, #12]
 8000aec:	611a      	str	r2, [r3, #16]
 8000aee:	615a      	str	r2, [r3, #20]
 8000af0:	619a      	str	r2, [r3, #24]
  FSMC_NORSRAM_TimingTypeDef ExtTiming = {0};
 8000af2:	463b      	mov	r3, r7
 8000af4:	2200      	movs	r2, #0
 8000af6:	601a      	str	r2, [r3, #0]
 8000af8:	605a      	str	r2, [r3, #4]
 8000afa:	609a      	str	r2, [r3, #8]
 8000afc:	60da      	str	r2, [r3, #12]
 8000afe:	611a      	str	r2, [r3, #16]
 8000b00:	615a      	str	r2, [r3, #20]
 8000b02:	619a      	str	r2, [r3, #24]

  /* USER CODE END FSMC_Init 1 */

  /** Perform the SRAM4 memory initialization sequence
  */
  hsram4.Instance = FSMC_NORSRAM_DEVICE;
 8000b04:	4b2f      	ldr	r3, [pc, #188]	; (8000bc4 <MX_FSMC_Init+0xec>)
 8000b06:	f04f 4220 	mov.w	r2, #2684354560	; 0xa0000000
 8000b0a:	601a      	str	r2, [r3, #0]
  hsram4.Extended = FSMC_NORSRAM_EXTENDED_DEVICE;
 8000b0c:	4b2d      	ldr	r3, [pc, #180]	; (8000bc4 <MX_FSMC_Init+0xec>)
 8000b0e:	4a2e      	ldr	r2, [pc, #184]	; (8000bc8 <MX_FSMC_Init+0xf0>)
 8000b10:	605a      	str	r2, [r3, #4]
  /* hsram4.Init */
  hsram4.Init.NSBank = FSMC_NORSRAM_BANK4;
 8000b12:	4b2c      	ldr	r3, [pc, #176]	; (8000bc4 <MX_FSMC_Init+0xec>)
 8000b14:	2206      	movs	r2, #6
 8000b16:	609a      	str	r2, [r3, #8]
  hsram4.Init.DataAddressMux = FSMC_DATA_ADDRESS_MUX_DISABLE;
 8000b18:	4b2a      	ldr	r3, [pc, #168]	; (8000bc4 <MX_FSMC_Init+0xec>)
 8000b1a:	2200      	movs	r2, #0
 8000b1c:	60da      	str	r2, [r3, #12]
  hsram4.Init.MemoryType = FSMC_MEMORY_TYPE_SRAM;
 8000b1e:	4b29      	ldr	r3, [pc, #164]	; (8000bc4 <MX_FSMC_Init+0xec>)
 8000b20:	2200      	movs	r2, #0
 8000b22:	611a      	str	r2, [r3, #16]
  hsram4.Init.MemoryDataWidth = FSMC_NORSRAM_MEM_BUS_WIDTH_16;
 8000b24:	4b27      	ldr	r3, [pc, #156]	; (8000bc4 <MX_FSMC_Init+0xec>)
 8000b26:	2210      	movs	r2, #16
 8000b28:	615a      	str	r2, [r3, #20]
  hsram4.Init.BurstAccessMode = FSMC_BURST_ACCESS_MODE_DISABLE;
 8000b2a:	4b26      	ldr	r3, [pc, #152]	; (8000bc4 <MX_FSMC_Init+0xec>)
 8000b2c:	2200      	movs	r2, #0
 8000b2e:	619a      	str	r2, [r3, #24]
  hsram4.Init.WaitSignalPolarity = FSMC_WAIT_SIGNAL_POLARITY_LOW;
 8000b30:	4b24      	ldr	r3, [pc, #144]	; (8000bc4 <MX_FSMC_Init+0xec>)
 8000b32:	2200      	movs	r2, #0
 8000b34:	61da      	str	r2, [r3, #28]
  hsram4.Init.WrapMode = FSMC_WRAP_MODE_DISABLE;
 8000b36:	4b23      	ldr	r3, [pc, #140]	; (8000bc4 <MX_FSMC_Init+0xec>)
 8000b38:	2200      	movs	r2, #0
 8000b3a:	621a      	str	r2, [r3, #32]
  hsram4.Init.WaitSignalActive = FSMC_WAIT_TIMING_BEFORE_WS;
 8000b3c:	4b21      	ldr	r3, [pc, #132]	; (8000bc4 <MX_FSMC_Init+0xec>)
 8000b3e:	2200      	movs	r2, #0
 8000b40:	625a      	str	r2, [r3, #36]	; 0x24
  hsram4.Init.WriteOperation = FSMC_WRITE_OPERATION_ENABLE;
 8000b42:	4b20      	ldr	r3, [pc, #128]	; (8000bc4 <MX_FSMC_Init+0xec>)
 8000b44:	f44f 5280 	mov.w	r2, #4096	; 0x1000
 8000b48:	629a      	str	r2, [r3, #40]	; 0x28
  hsram4.Init.WaitSignal = FSMC_WAIT_SIGNAL_DISABLE;
 8000b4a:	4b1e      	ldr	r3, [pc, #120]	; (8000bc4 <MX_FSMC_Init+0xec>)
 8000b4c:	2200      	movs	r2, #0
 8000b4e:	62da      	str	r2, [r3, #44]	; 0x2c
  hsram4.Init.ExtendedMode = FSMC_EXTENDED_MODE_ENABLE;
 8000b50:	4b1c      	ldr	r3, [pc, #112]	; (8000bc4 <MX_FSMC_Init+0xec>)
 8000b52:	f44f 4280 	mov.w	r2, #16384	; 0x4000
 8000b56:	631a      	str	r2, [r3, #48]	; 0x30
  hsram4.Init.AsynchronousWait = FSMC_ASYNCHRONOUS_WAIT_DISABLE;
 8000b58:	4b1a      	ldr	r3, [pc, #104]	; (8000bc4 <MX_FSMC_Init+0xec>)
 8000b5a:	2200      	movs	r2, #0
 8000b5c:	635a      	str	r2, [r3, #52]	; 0x34
  hsram4.Init.WriteBurst = FSMC_WRITE_BURST_DISABLE;
 8000b5e:	4b19      	ldr	r3, [pc, #100]	; (8000bc4 <MX_FSMC_Init+0xec>)
 8000b60:	2200      	movs	r2, #0
 8000b62:	639a      	str	r2, [r3, #56]	; 0x38
  hsram4.Init.PageSize = FSMC_PAGE_SIZE_NONE;
 8000b64:	4b17      	ldr	r3, [pc, #92]	; (8000bc4 <MX_FSMC_Init+0xec>)
 8000b66:	2200      	movs	r2, #0
 8000b68:	645a      	str	r2, [r3, #68]	; 0x44
  /* Timing */
  Timing.AddressSetupTime = 2;
 8000b6a:	2302      	movs	r3, #2
 8000b6c:	61fb      	str	r3, [r7, #28]
  Timing.AddressHoldTime = 15;
 8000b6e:	230f      	movs	r3, #15
 8000b70:	623b      	str	r3, [r7, #32]
  Timing.DataSetupTime = 16;
 8000b72:	2310      	movs	r3, #16
 8000b74:	627b      	str	r3, [r7, #36]	; 0x24
  Timing.BusTurnAroundDuration = 0;
 8000b76:	2300      	movs	r3, #0
 8000b78:	62bb      	str	r3, [r7, #40]	; 0x28
  Timing.CLKDivision = 16;
 8000b7a:	2310      	movs	r3, #16
 8000b7c:	62fb      	str	r3, [r7, #44]	; 0x2c
  Timing.DataLatency = 17;
 8000b7e:	2311      	movs	r3, #17
 8000b80:	633b      	str	r3, [r7, #48]	; 0x30
  Timing.AccessMode = FSMC_ACCESS_MODE_A;
 8000b82:	2300      	movs	r3, #0
 8000b84:	637b      	str	r3, [r7, #52]	; 0x34
  /* ExtTiming */
  ExtTiming.AddressSetupTime = 4;
 8000b86:	2304      	movs	r3, #4
 8000b88:	603b      	str	r3, [r7, #0]
  ExtTiming.AddressHoldTime = 15;
 8000b8a:	230f      	movs	r3, #15
 8000b8c:	607b      	str	r3, [r7, #4]
  ExtTiming.DataSetupTime = 9;
 8000b8e:	2309      	movs	r3, #9
 8000b90:	60bb      	str	r3, [r7, #8]
  ExtTiming.BusTurnAroundDuration = 0;
 8000b92:	2300      	movs	r3, #0
 8000b94:	60fb      	str	r3, [r7, #12]
  ExtTiming.CLKDivision = 16;
 8000b96:	2310      	movs	r3, #16
 8000b98:	613b      	str	r3, [r7, #16]
  ExtTiming.DataLatency = 17;
 8000b9a:	2311      	movs	r3, #17
 8000b9c:	617b      	str	r3, [r7, #20]
  ExtTiming.AccessMode = FSMC_ACCESS_MODE_A;
 8000b9e:	2300      	movs	r3, #0
 8000ba0:	61bb      	str	r3, [r7, #24]

  if (HAL_SRAM_Init(&hsram4, &Timing, &ExtTiming) != HAL_OK)
 8000ba2:	463a      	mov	r2, r7
 8000ba4:	f107 031c 	add.w	r3, r7, #28
 8000ba8:	4619      	mov	r1, r3
 8000baa:	4806      	ldr	r0, [pc, #24]	; (8000bc4 <MX_FSMC_Init+0xec>)
 8000bac:	f004 f94a 	bl	8004e44 <HAL_SRAM_Init>
 8000bb0:	4603      	mov	r3, r0
 8000bb2:	2b00      	cmp	r3, #0
 8000bb4:	d001      	beq.n	8000bba <MX_FSMC_Init+0xe2>
  {
    Error_Handler( );
 8000bb6:	f000 f9eb 	bl	8000f90 <Error_Handler>
  }

  /* USER CODE BEGIN FSMC_Init 2 */

  /* USER CODE END FSMC_Init 2 */
}
 8000bba:	bf00      	nop
 8000bbc:	3738      	adds	r7, #56	; 0x38
 8000bbe:	46bd      	mov	sp, r7
 8000bc0:	bd80      	pop	{r7, pc}
 8000bc2:	bf00      	nop
 8000bc4:	20000028 	.word	0x20000028
 8000bc8:	a0000104 	.word	0xa0000104

08000bcc <HAL_FSMC_MspInit>:

static uint32_t FSMC_Initialized = 0;

static void HAL_FSMC_MspInit(void){
 8000bcc:	b580      	push	{r7, lr}
 8000bce:	b086      	sub	sp, #24
 8000bd0:	af00      	add	r7, sp, #0
  /* USER CODE BEGIN FSMC_MspInit 0 */

  /* USER CODE END FSMC_MspInit 0 */
  GPIO_InitTypeDef GPIO_InitStruct = {0};
 8000bd2:	1d3b      	adds	r3, r7, #4
 8000bd4:	2200      	movs	r2, #0
 8000bd6:	601a      	str	r2, [r3, #0]
 8000bd8:	605a      	str	r2, [r3, #4]
 8000bda:	609a      	str	r2, [r3, #8]
 8000bdc:	60da      	str	r2, [r3, #12]
 8000bde:	611a      	str	r2, [r3, #16]
  if (FSMC_Initialized) {
 8000be0:	4b2c      	ldr	r3, [pc, #176]	; (8000c94 <HAL_FSMC_MspInit+0xc8>)
 8000be2:	681b      	ldr	r3, [r3, #0]
 8000be4:	2b00      	cmp	r3, #0
 8000be6:	d151      	bne.n	8000c8c <HAL_FSMC_MspInit+0xc0>
    return;
  }
  FSMC_Initialized = 1;
 8000be8:	4b2a      	ldr	r3, [pc, #168]	; (8000c94 <HAL_FSMC_MspInit+0xc8>)
 8000bea:	2201      	movs	r2, #1
 8000bec:	601a      	str	r2, [r3, #0]

  /* Peripheral clock enable */
  __HAL_RCC_FSMC_CLK_ENABLE();
 8000bee:	2300      	movs	r3, #0
 8000bf0:	603b      	str	r3, [r7, #0]
 8000bf2:	4b29      	ldr	r3, [pc, #164]	; (8000c98 <HAL_FSMC_MspInit+0xcc>)
 8000bf4:	6b9b      	ldr	r3, [r3, #56]	; 0x38
 8000bf6:	4a28      	ldr	r2, [pc, #160]	; (8000c98 <HAL_FSMC_MspInit+0xcc>)
 8000bf8:	f043 0301 	orr.w	r3, r3, #1
 8000bfc:	6393      	str	r3, [r2, #56]	; 0x38
 8000bfe:	4b26      	ldr	r3, [pc, #152]	; (8000c98 <HAL_FSMC_MspInit+0xcc>)
 8000c00:	6b9b      	ldr	r3, [r3, #56]	; 0x38
 8000c02:	f003 0301 	and.w	r3, r3, #1
 8000c06:	603b      	str	r3, [r7, #0]
 8000c08:	683b      	ldr	r3, [r7, #0]
  PD4   ------> FSMC_NOE
  PD5   ------> FSMC_NWE
  PG12   ------> FSMC_NE4
  */
  /* GPIO_InitStruct */
  GPIO_InitStruct.Pin = GPIO_PIN_12;
 8000c0a:	f44f 5380 	mov.w	r3, #4096	; 0x1000
 8000c0e:	607b      	str	r3, [r7, #4]
  GPIO_InitStruct.Mode = GPIO_MODE_AF_PP;
 8000c10:	2302      	movs	r3, #2
 8000c12:	60bb      	str	r3, [r7, #8]
  GPIO_InitStruct.Pull = GPIO_NOPULL;
 8000c14:	2300      	movs	r3, #0
 8000c16:	60fb      	str	r3, [r7, #12]
  GPIO_InitStruct.Speed = GPIO_SPEED_FREQ_VERY_HIGH;
 8000c18:	2303      	movs	r3, #3
 8000c1a:	613b      	str	r3, [r7, #16]
  GPIO_InitStruct.Alternate = GPIO_AF12_FSMC;
 8000c1c:	230c      	movs	r3, #12
 8000c1e:	617b      	str	r3, [r7, #20]

  HAL_GPIO_Init(GPIOF, &GPIO_InitStruct);
 8000c20:	1d3b      	adds	r3, r7, #4
 8000c22:	4619      	mov	r1, r3
 8000c24:	481d      	ldr	r0, [pc, #116]	; (8000c9c <HAL_FSMC_MspInit+0xd0>)
 8000c26:	f003 faf3 	bl	8004210 <HAL_GPIO_Init>

  /* GPIO_InitStruct */
  GPIO_InitStruct.Pin = GPIO_PIN_7|GPIO_PIN_8|GPIO_PIN_9|GPIO_PIN_10
 8000c2a:	f64f 7380 	movw	r3, #65408	; 0xff80
 8000c2e:	607b      	str	r3, [r7, #4]
                          |GPIO_PIN_11|GPIO_PIN_12|GPIO_PIN_13|GPIO_PIN_14
                          |GPIO_PIN_15;
  GPIO_InitStruct.Mode = GPIO_MODE_AF_PP;
 8000c30:	2302      	movs	r3, #2
 8000c32:	60bb      	str	r3, [r7, #8]
  GPIO_InitStruct.Pull = GPIO_NOPULL;
 8000c34:	2300      	movs	r3, #0
 8000c36:	60fb      	str	r3, [r7, #12]
  GPIO_InitStruct.Speed = GPIO_SPEED_FREQ_VERY_HIGH;
 8000c38:	2303      	movs	r3, #3
 8000c3a:	613b      	str	r3, [r7, #16]
  GPIO_InitStruct.Alternate = GPIO_AF12_FSMC;
 8000c3c:	230c      	movs	r3, #12
 8000c3e:	617b      	str	r3, [r7, #20]

  HAL_GPIO_Init(GPIOE, &GPIO_InitStruct);
 8000c40:	1d3b      	adds	r3, r7, #4
 8000c42:	4619      	mov	r1, r3
 8000c44:	4816      	ldr	r0, [pc, #88]	; (8000ca0 <HAL_FSMC_MspInit+0xd4>)
 8000c46:	f003 fae3 	bl	8004210 <HAL_GPIO_Init>

  /* GPIO_InitStruct */
  GPIO_InitStruct.Pin = GPIO_PIN_8|GPIO_PIN_9|GPIO_PIN_10|GPIO_PIN_14
 8000c4a:	f24c 7333 	movw	r3, #50995	; 0xc733
 8000c4e:	607b      	str	r3, [r7, #4]
                          |GPIO_PIN_15|GPIO_PIN_0|GPIO_PIN_1|GPIO_PIN_4
                          |GPIO_PIN_5;
  GPIO_InitStruct.Mode = GPIO_MODE_AF_PP;
 8000c50:	2302      	movs	r3, #2
 8000c52:	60bb      	str	r3, [r7, #8]
  GPIO_InitStruct.Pull = GPIO_NOPULL;
 8000c54:	2300      	movs	r3, #0
 8000c56:	60fb      	str	r3, [r7, #12]
  GPIO_InitStruct.Speed = GPIO_SPEED_FREQ_VERY_HIGH;
 8000c58:	2303      	movs	r3, #3
 8000c5a:	613b      	str	r3, [r7, #16]
  GPIO_InitStruct.Alternate = GPIO_AF12_FSMC;
 8000c5c:	230c      	movs	r3, #12
 8000c5e:	617b      	str	r3, [r7, #20]

  HAL_GPIO_Init(GPIOD, &GPIO_InitStruct);
 8000c60:	1d3b      	adds	r3, r7, #4
 8000c62:	4619      	mov	r1, r3
 8000c64:	480f      	ldr	r0, [pc, #60]	; (8000ca4 <HAL_FSMC_MspInit+0xd8>)
 8000c66:	f003 fad3 	bl	8004210 <HAL_GPIO_Init>

  /* GPIO_InitStruct */
  GPIO_InitStruct.Pin = GPIO_PIN_12;
 8000c6a:	f44f 5380 	mov.w	r3, #4096	; 0x1000
 8000c6e:	607b      	str	r3, [r7, #4]
  GPIO_InitStruct.Mode = GPIO_MODE_AF_PP;
 8000c70:	2302      	movs	r3, #2
 8000c72:	60bb      	str	r3, [r7, #8]
  GPIO_InitStruct.Pull = GPIO_NOPULL;
 8000c74:	2300      	movs	r3, #0
 8000c76:	60fb      	str	r3, [r7, #12]
  GPIO_InitStruct.Speed = GPIO_SPEED_FREQ_VERY_HIGH;
 8000c78:	2303      	movs	r3, #3
 8000c7a:	613b      	str	r3, [r7, #16]
  GPIO_InitStruct.Alternate = GPIO_AF12_FSMC;
 8000c7c:	230c      	movs	r3, #12
 8000c7e:	617b      	str	r3, [r7, #20]

  HAL_GPIO_Init(GPIOG, &GPIO_InitStruct);
 8000c80:	1d3b      	adds	r3, r7, #4
 8000c82:	4619      	mov	r1, r3
 8000c84:	4808      	ldr	r0, [pc, #32]	; (8000ca8 <HAL_FSMC_MspInit+0xdc>)
 8000c86:	f003 fac3 	bl	8004210 <HAL_GPIO_Init>
 8000c8a:	e000      	b.n	8000c8e <HAL_FSMC_MspInit+0xc2>
    return;
 8000c8c:	bf00      	nop

  /* USER CODE BEGIN FSMC_MspInit 1 */

  /* USER CODE END FSMC_MspInit 1 */
}
 8000c8e:	3718      	adds	r7, #24
 8000c90:	46bd      	mov	sp, r7
 8000c92:	bd80      	pop	{r7, pc}
 8000c94:	20000078 	.word	0x20000078
 8000c98:	40023800 	.word	0x40023800
 8000c9c:	40021400 	.word	0x40021400
 8000ca0:	40021000 	.word	0x40021000
 8000ca4:	40020c00 	.word	0x40020c00
 8000ca8:	40021800 	.word	0x40021800

08000cac <HAL_SRAM_MspInit>:

void HAL_SRAM_MspInit(SRAM_HandleTypeDef* sramHandle){
 8000cac:	b580      	push	{r7, lr}
 8000cae:	b082      	sub	sp, #8
 8000cb0:	af00      	add	r7, sp, #0
 8000cb2:	6078      	str	r0, [r7, #4]
  /* USER CODE BEGIN SRAM_MspInit 0 */

  /* USER CODE END SRAM_MspInit 0 */
  HAL_FSMC_MspInit();
 8000cb4:	f7ff ff8a 	bl	8000bcc <HAL_FSMC_MspInit>
  /* USER CODE BEGIN SRAM_MspInit 1 */

  /* USER CODE END SRAM_MspInit 1 */
}
 8000cb8:	bf00      	nop
 8000cba:	3708      	adds	r7, #8
 8000cbc:	46bd      	mov	sp, r7
 8000cbe:	bd80      	pop	{r7, pc}

08000cc0 <MX_GPIO_Init>:
        * Output
        * EVENT_OUT
        * EXTI
*/
void MX_GPIO_Init(void)
{
 8000cc0:	b580      	push	{r7, lr}
 8000cc2:	b08c      	sub	sp, #48	; 0x30
 8000cc4:	af00      	add	r7, sp, #0

  GPIO_InitTypeDef GPIO_InitStruct = {0};
 8000cc6:	f107 031c 	add.w	r3, r7, #28
 8000cca:	2200      	movs	r2, #0
 8000ccc:	601a      	str	r2, [r3, #0]
 8000cce:	605a      	str	r2, [r3, #4]
 8000cd0:	609a      	str	r2, [r3, #8]
 8000cd2:	60da      	str	r2, [r3, #12]
 8000cd4:	611a      	str	r2, [r3, #16]

  /* GPIO Ports Clock Enable */
  __HAL_RCC_GPIOH_CLK_ENABLE();
 8000cd6:	2300      	movs	r3, #0
 8000cd8:	61bb      	str	r3, [r7, #24]
 8000cda:	4b3c      	ldr	r3, [pc, #240]	; (8000dcc <MX_GPIO_Init+0x10c>)
 8000cdc:	6b1b      	ldr	r3, [r3, #48]	; 0x30
 8000cde:	4a3b      	ldr	r2, [pc, #236]	; (8000dcc <MX_GPIO_Init+0x10c>)
 8000ce0:	f043 0380 	orr.w	r3, r3, #128	; 0x80
 8000ce4:	6313      	str	r3, [r2, #48]	; 0x30
 8000ce6:	4b39      	ldr	r3, [pc, #228]	; (8000dcc <MX_GPIO_Init+0x10c>)
 8000ce8:	6b1b      	ldr	r3, [r3, #48]	; 0x30
 8000cea:	f003 0380 	and.w	r3, r3, #128	; 0x80
 8000cee:	61bb      	str	r3, [r7, #24]
 8000cf0:	69bb      	ldr	r3, [r7, #24]
  __HAL_RCC_GPIOF_CLK_ENABLE();
 8000cf2:	2300      	movs	r3, #0
 8000cf4:	617b      	str	r3, [r7, #20]
 8000cf6:	4b35      	ldr	r3, [pc, #212]	; (8000dcc <MX_GPIO_Init+0x10c>)
 8000cf8:	6b1b      	ldr	r3, [r3, #48]	; 0x30
 8000cfa:	4a34      	ldr	r2, [pc, #208]	; (8000dcc <MX_GPIO_Init+0x10c>)
 8000cfc:	f043 0320 	orr.w	r3, r3, #32
 8000d00:	6313      	str	r3, [r2, #48]	; 0x30
 8000d02:	4b32      	ldr	r3, [pc, #200]	; (8000dcc <MX_GPIO_Init+0x10c>)
 8000d04:	6b1b      	ldr	r3, [r3, #48]	; 0x30
 8000d06:	f003 0320 	and.w	r3, r3, #32
 8000d0a:	617b      	str	r3, [r7, #20]
 8000d0c:	697b      	ldr	r3, [r7, #20]
  __HAL_RCC_GPIOE_CLK_ENABLE();
 8000d0e:	2300      	movs	r3, #0
 8000d10:	613b      	str	r3, [r7, #16]
 8000d12:	4b2e      	ldr	r3, [pc, #184]	; (8000dcc <MX_GPIO_Init+0x10c>)
 8000d14:	6b1b      	ldr	r3, [r3, #48]	; 0x30
 8000d16:	4a2d      	ldr	r2, [pc, #180]	; (8000dcc <MX_GPIO_Init+0x10c>)
 8000d18:	f043 0310 	orr.w	r3, r3, #16
 8000d1c:	6313      	str	r3, [r2, #48]	; 0x30
 8000d1e:	4b2b      	ldr	r3, [pc, #172]	; (8000dcc <MX_GPIO_Init+0x10c>)
 8000d20:	6b1b      	ldr	r3, [r3, #48]	; 0x30
 8000d22:	f003 0310 	and.w	r3, r3, #16
 8000d26:	613b      	str	r3, [r7, #16]
 8000d28:	693b      	ldr	r3, [r7, #16]
  __HAL_RCC_GPIOB_CLK_ENABLE();
 8000d2a:	2300      	movs	r3, #0
 8000d2c:	60fb      	str	r3, [r7, #12]
 8000d2e:	4b27      	ldr	r3, [pc, #156]	; (8000dcc <MX_GPIO_Init+0x10c>)
 8000d30:	6b1b      	ldr	r3, [r3, #48]	; 0x30
 8000d32:	4a26      	ldr	r2, [pc, #152]	; (8000dcc <MX_GPIO_Init+0x10c>)
 8000d34:	f043 0302 	orr.w	r3, r3, #2
 8000d38:	6313      	str	r3, [r2, #48]	; 0x30
 8000d3a:	4b24      	ldr	r3, [pc, #144]	; (8000dcc <MX_GPIO_Init+0x10c>)
 8000d3c:	6b1b      	ldr	r3, [r3, #48]	; 0x30
 8000d3e:	f003 0302 	and.w	r3, r3, #2
 8000d42:	60fb      	str	r3, [r7, #12]
 8000d44:	68fb      	ldr	r3, [r7, #12]
  __HAL_RCC_GPIOD_CLK_ENABLE();
 8000d46:	2300      	movs	r3, #0
 8000d48:	60bb      	str	r3, [r7, #8]
 8000d4a:	4b20      	ldr	r3, [pc, #128]	; (8000dcc <MX_GPIO_Init+0x10c>)
 8000d4c:	6b1b      	ldr	r3, [r3, #48]	; 0x30
 8000d4e:	4a1f      	ldr	r2, [pc, #124]	; (8000dcc <MX_GPIO_Init+0x10c>)
 8000d50:	f043 0308 	orr.w	r3, r3, #8
 8000d54:	6313      	str	r3, [r2, #48]	; 0x30
 8000d56:	4b1d      	ldr	r3, [pc, #116]	; (8000dcc <MX_GPIO_Init+0x10c>)
 8000d58:	6b1b      	ldr	r3, [r3, #48]	; 0x30
 8000d5a:	f003 0308 	and.w	r3, r3, #8
 8000d5e:	60bb      	str	r3, [r7, #8]
 8000d60:	68bb      	ldr	r3, [r7, #8]
  __HAL_RCC_GPIOA_CLK_ENABLE();
 8000d62:	2300      	movs	r3, #0
 8000d64:	607b      	str	r3, [r7, #4]
 8000d66:	4b19      	ldr	r3, [pc, #100]	; (8000dcc <MX_GPIO_Init+0x10c>)
 8000d68:	6b1b      	ldr	r3, [r3, #48]	; 0x30
 8000d6a:	4a18      	ldr	r2, [pc, #96]	; (8000dcc <MX_GPIO_Init+0x10c>)
 8000d6c:	f043 0301 	orr.w	r3, r3, #1
 8000d70:	6313      	str	r3, [r2, #48]	; 0x30
 8000d72:	4b16      	ldr	r3, [pc, #88]	; (8000dcc <MX_GPIO_Init+0x10c>)
 8000d74:	6b1b      	ldr	r3, [r3, #48]	; 0x30
 8000d76:	f003 0301 	and.w	r3, r3, #1
 8000d7a:	607b      	str	r3, [r7, #4]
 8000d7c:	687b      	ldr	r3, [r7, #4]
  __HAL_RCC_GPIOG_CLK_ENABLE();
 8000d7e:	2300      	movs	r3, #0
 8000d80:	603b      	str	r3, [r7, #0]
 8000d82:	4b12      	ldr	r3, [pc, #72]	; (8000dcc <MX_GPIO_Init+0x10c>)
 8000d84:	6b1b      	ldr	r3, [r3, #48]	; 0x30
 8000d86:	4a11      	ldr	r2, [pc, #68]	; (8000dcc <MX_GPIO_Init+0x10c>)
 8000d88:	f043 0340 	orr.w	r3, r3, #64	; 0x40
 8000d8c:	6313      	str	r3, [r2, #48]	; 0x30
 8000d8e:	4b0f      	ldr	r3, [pc, #60]	; (8000dcc <MX_GPIO_Init+0x10c>)
 8000d90:	6b1b      	ldr	r3, [r3, #48]	; 0x30
 8000d92:	f003 0340 	and.w	r3, r3, #64	; 0x40
 8000d96:	603b      	str	r3, [r7, #0]
 8000d98:	683b      	ldr	r3, [r7, #0]

  /*Configure GPIO pin Output Level */
  HAL_GPIO_WritePin(LCD_BL_GPIO_Port, LCD_BL_Pin, GPIO_PIN_RESET);
 8000d9a:	2200      	movs	r2, #0
 8000d9c:	f44f 4100 	mov.w	r1, #32768	; 0x8000
 8000da0:	480b      	ldr	r0, [pc, #44]	; (8000dd0 <MX_GPIO_Init+0x110>)
 8000da2:	f003 fbd1 	bl	8004548 <HAL_GPIO_WritePin>

  /*Configure GPIO pin : PtPin */
  GPIO_InitStruct.Pin = LCD_BL_Pin;
 8000da6:	f44f 4300 	mov.w	r3, #32768	; 0x8000
 8000daa:	61fb      	str	r3, [r7, #28]
  GPIO_InitStruct.Mode = GPIO_MODE_OUTPUT_PP;
 8000dac:	2301      	movs	r3, #1
 8000dae:	623b      	str	r3, [r7, #32]
  GPIO_InitStruct.Pull = GPIO_NOPULL;
 8000db0:	2300      	movs	r3, #0
 8000db2:	627b      	str	r3, [r7, #36]	; 0x24
  GPIO_InitStruct.Speed = GPIO_SPEED_FREQ_LOW;
 8000db4:	2300      	movs	r3, #0
 8000db6:	62bb      	str	r3, [r7, #40]	; 0x28
  HAL_GPIO_Init(LCD_BL_GPIO_Port, &GPIO_InitStruct);
 8000db8:	f107 031c 	add.w	r3, r7, #28
 8000dbc:	4619      	mov	r1, r3
 8000dbe:	4804      	ldr	r0, [pc, #16]	; (8000dd0 <MX_GPIO_Init+0x110>)
 8000dc0:	f003 fa26 	bl	8004210 <HAL_GPIO_Init>

}
 8000dc4:	bf00      	nop
 8000dc6:	3730      	adds	r7, #48	; 0x30
 8000dc8:	46bd      	mov	sp, r7
 8000dca:	bd80      	pop	{r7, pc}
 8000dcc:	40023800 	.word	0x40023800
 8000dd0:	40020400 	.word	0x40020400

08000dd4 <main>:

/**
  * @brief  The application entry point.
  * @retval int
  */
int main(void) {
 8000dd4:	b580      	push	{r7, lr}
 8000dd6:	b082      	sub	sp, #8
 8000dd8:	af02      	add	r7, sp, #8
    /* USER CODE END 1 */

    /* MCU Configuration--------------------------------------------------------*/

    /* Reset of all peripherals, Initializes the Flash interface and the Systick. */
    HAL_Init();
 8000dda:	f003 f89d 	bl	8003f18 <HAL_Init>
    /* USER CODE BEGIN Init */

    /* USER CODE END Init */

    /* Configure the system clock */
    SystemClock_Config();
 8000dde:	f000 f86d 	bl	8000ebc <SystemClock_Config>
    /* USER CODE BEGIN SysInit */

    /* USER CODE END SysInit */

    /* Initialize all configured peripherals */
    MX_GPIO_Init();
 8000de2:	f7ff ff6d 	bl	8000cc0 <MX_GPIO_Init>
    MX_FSMC_Init();
 8000de6:	f7ff fe77 	bl	8000ad8 <MX_FSMC_Init>
    /* USER CODE BEGIN 2 */
    lcd_init();
 8000dea:	f000 fd05 	bl	80017f8 <lcd_init>

    lcd_draw_picture(0, 0, 240, 320, image_bg_240_320);
 8000dee:	4b29      	ldr	r3, [pc, #164]	; (8000e94 <main+0xc0>)
 8000df0:	9300      	str	r3, [sp, #0]
 8000df2:	f44f 73a0 	mov.w	r3, #320	; 0x140
 8000df6:	22f0      	movs	r2, #240	; 0xf0
 8000df8:	2100      	movs	r1, #0
 8000dfa:	2000      	movs	r0, #0
 8000dfc:	f000 fea4 	bl	8001b48 <lcd_draw_picture>
    lcd_draw_picture(23, 72, 61, 62, image_IconClock);
 8000e00:	4b25      	ldr	r3, [pc, #148]	; (8000e98 <main+0xc4>)
 8000e02:	9300      	str	r3, [sp, #0]
 8000e04:	233e      	movs	r3, #62	; 0x3e
 8000e06:	223d      	movs	r2, #61	; 0x3d
 8000e08:	2148      	movs	r1, #72	; 0x48
 8000e0a:	2017      	movs	r0, #23
 8000e0c:	f000 fe9c 	bl	8001b48 <lcd_draw_picture>
    lcd_draw_picture(90, 72, 61, 62, image_IconUp);
 8000e10:	4b22      	ldr	r3, [pc, #136]	; (8000e9c <main+0xc8>)
 8000e12:	9300      	str	r3, [sp, #0]
 8000e14:	233e      	movs	r3, #62	; 0x3e
 8000e16:	223d      	movs	r2, #61	; 0x3d
 8000e18:	2148      	movs	r1, #72	; 0x48
 8000e1a:	205a      	movs	r0, #90	; 0x5a
 8000e1c:	f000 fe94 	bl	8001b48 <lcd_draw_picture>
    lcd_draw_picture(157, 72, 61, 62, image_IconComputer);
 8000e20:	4b1f      	ldr	r3, [pc, #124]	; (8000ea0 <main+0xcc>)
 8000e22:	9300      	str	r3, [sp, #0]
 8000e24:	233e      	movs	r3, #62	; 0x3e
 8000e26:	223d      	movs	r2, #61	; 0x3d
 8000e28:	2148      	movs	r1, #72	; 0x48
 8000e2a:	209d      	movs	r0, #157	; 0x9d
 8000e2c:	f000 fe8c 	bl	8001b48 <lcd_draw_picture>
    lcd_draw_picture(23, 134, 61, 62, image_IconLeft);
 8000e30:	4b1c      	ldr	r3, [pc, #112]	; (8000ea4 <main+0xd0>)
 8000e32:	9300      	str	r3, [sp, #0]
 8000e34:	233e      	movs	r3, #62	; 0x3e
 8000e36:	223d      	movs	r2, #61	; 0x3d
 8000e38:	2186      	movs	r1, #134	; 0x86
 8000e3a:	2017      	movs	r0, #23
 8000e3c:	f000 fe84 	bl	8001b48 <lcd_draw_picture>
    lcd_draw_picture(90, 134, 61, 62, image_IconDown);
 8000e40:	4b19      	ldr	r3, [pc, #100]	; (8000ea8 <main+0xd4>)
 8000e42:	9300      	str	r3, [sp, #0]
 8000e44:	233e      	movs	r3, #62	; 0x3e
 8000e46:	223d      	movs	r2, #61	; 0x3d
 8000e48:	2186      	movs	r1, #134	; 0x86
 8000e4a:	205a      	movs	r0, #90	; 0x5a
 8000e4c:	f000 fe7c 	bl	8001b48 <lcd_draw_picture>
    lcd_draw_picture(157, 134, 61, 62, image_IconRight);
 8000e50:	4b16      	ldr	r3, [pc, #88]	; (8000eac <main+0xd8>)
 8000e52:	9300      	str	r3, [sp, #0]
 8000e54:	233e      	movs	r3, #62	; 0x3e
 8000e56:	223d      	movs	r2, #61	; 0x3d
 8000e58:	2186      	movs	r1, #134	; 0x86
 8000e5a:	209d      	movs	r0, #157	; 0x9d
 8000e5c:	f000 fe74 	bl	8001b48 <lcd_draw_picture>
    lcd_draw_picture(23, 200, 61, 62, image_IconSound);
 8000e60:	4b13      	ldr	r3, [pc, #76]	; (8000eb0 <main+0xdc>)
 8000e62:	9300      	str	r3, [sp, #0]
 8000e64:	233e      	movs	r3, #62	; 0x3e
 8000e66:	223d      	movs	r2, #61	; 0x3d
 8000e68:	21c8      	movs	r1, #200	; 0xc8
 8000e6a:	2017      	movs	r0, #23
 8000e6c:	f000 fe6c 	bl	8001b48 <lcd_draw_picture>
    lcd_draw_picture(90, 200, 61, 62, image_IconUnlock);
 8000e70:	4b10      	ldr	r3, [pc, #64]	; (8000eb4 <main+0xe0>)
 8000e72:	9300      	str	r3, [sp, #0]
 8000e74:	233e      	movs	r3, #62	; 0x3e
 8000e76:	223d      	movs	r2, #61	; 0x3d
 8000e78:	21c8      	movs	r1, #200	; 0xc8
 8000e7a:	205a      	movs	r0, #90	; 0x5a
 8000e7c:	f000 fe64 	bl	8001b48 <lcd_draw_picture>
    lcd_draw_picture(157, 200, 61, 62, image_IconSave);
 8000e80:	4b0d      	ldr	r3, [pc, #52]	; (8000eb8 <main+0xe4>)
 8000e82:	9300      	str	r3, [sp, #0]
 8000e84:	233e      	movs	r3, #62	; 0x3e
 8000e86:	223d      	movs	r2, #61	; 0x3d
 8000e88:	21c8      	movs	r1, #200	; 0xc8
 8000e8a:	209d      	movs	r0, #157	; 0x9d
 8000e8c:	f000 fe5c 	bl	8001b48 <lcd_draw_picture>
    /* USER CODE END 2 */

    /* Infinite loop */
    /* USER CODE BEGIN WHILE */
    while (1) {
 8000e90:	e7fe      	b.n	8000e90 <main+0xbc>
 8000e92:	bf00      	nop
 8000e94:	080050f4 	.word	0x080050f4
 8000e98:	0802a8f4 	.word	0x0802a8f4
 8000e9c:	08039554 	.word	0x08039554
 8000ea0:	0802c680 	.word	0x0802c680
 8000ea4:	08030198 	.word	0x08030198
 8000ea8:	0802e40c 	.word	0x0802e40c
 8000eac:	08031f24 	.word	0x08031f24
 8000eb0:	08035a3c 	.word	0x08035a3c
 8000eb4:	080377c8 	.word	0x080377c8
 8000eb8:	08033cb0 	.word	0x08033cb0

08000ebc <SystemClock_Config>:

/**
  * @brief System Clock Configuration
  * @retval None
  */
void SystemClock_Config(void) {
 8000ebc:	b580      	push	{r7, lr}
 8000ebe:	b094      	sub	sp, #80	; 0x50
 8000ec0:	af00      	add	r7, sp, #0
    RCC_OscInitTypeDef RCC_OscInitStruct = {0};
 8000ec2:	f107 0320 	add.w	r3, r7, #32
 8000ec6:	2230      	movs	r2, #48	; 0x30
 8000ec8:	2100      	movs	r1, #0
 8000eca:	4618      	mov	r0, r3
 8000ecc:	f004 f8fe 	bl	80050cc <memset>
    RCC_ClkInitTypeDef RCC_ClkInitStruct = {0};
 8000ed0:	f107 030c 	add.w	r3, r7, #12
 8000ed4:	2200      	movs	r2, #0
 8000ed6:	601a      	str	r2, [r3, #0]
 8000ed8:	605a      	str	r2, [r3, #4]
 8000eda:	609a      	str	r2, [r3, #8]
 8000edc:	60da      	str	r2, [r3, #12]
 8000ede:	611a      	str	r2, [r3, #16]

    /** Configure the main internal regulator output voltage
    */
    __HAL_RCC_PWR_CLK_ENABLE();
 8000ee0:	2300      	movs	r3, #0
 8000ee2:	60bb      	str	r3, [r7, #8]
 8000ee4:	4b28      	ldr	r3, [pc, #160]	; (8000f88 <SystemClock_Config+0xcc>)
 8000ee6:	6c1b      	ldr	r3, [r3, #64]	; 0x40
 8000ee8:	4a27      	ldr	r2, [pc, #156]	; (8000f88 <SystemClock_Config+0xcc>)
 8000eea:	f043 5380 	orr.w	r3, r3, #268435456	; 0x10000000
 8000eee:	6413      	str	r3, [r2, #64]	; 0x40
 8000ef0:	4b25      	ldr	r3, [pc, #148]	; (8000f88 <SystemClock_Config+0xcc>)
 8000ef2:	6c1b      	ldr	r3, [r3, #64]	; 0x40
 8000ef4:	f003 5380 	and.w	r3, r3, #268435456	; 0x10000000
 8000ef8:	60bb      	str	r3, [r7, #8]
 8000efa:	68bb      	ldr	r3, [r7, #8]
    __HAL_PWR_VOLTAGESCALING_CONFIG(PWR_REGULATOR_VOLTAGE_SCALE1);
 8000efc:	2300      	movs	r3, #0
 8000efe:	607b      	str	r3, [r7, #4]
 8000f00:	4b22      	ldr	r3, [pc, #136]	; (8000f8c <SystemClock_Config+0xd0>)
 8000f02:	681b      	ldr	r3, [r3, #0]
 8000f04:	4a21      	ldr	r2, [pc, #132]	; (8000f8c <SystemClock_Config+0xd0>)
 8000f06:	f443 4380 	orr.w	r3, r3, #16384	; 0x4000
 8000f0a:	6013      	str	r3, [r2, #0]
 8000f0c:	4b1f      	ldr	r3, [pc, #124]	; (8000f8c <SystemClock_Config+0xd0>)
 8000f0e:	681b      	ldr	r3, [r3, #0]
 8000f10:	f403 4380 	and.w	r3, r3, #16384	; 0x4000
 8000f14:	607b      	str	r3, [r7, #4]
 8000f16:	687b      	ldr	r3, [r7, #4]

    /** Initializes the RCC Oscillators according to the specified parameters
    * in the RCC_OscInitTypeDef structure.
    */
    RCC_OscInitStruct.OscillatorType = RCC_OSCILLATORTYPE_HSE;
 8000f18:	2301      	movs	r3, #1
 8000f1a:	623b      	str	r3, [r7, #32]
    RCC_OscInitStruct.HSEState = RCC_HSE_ON;
 8000f1c:	f44f 3380 	mov.w	r3, #65536	; 0x10000
 8000f20:	627b      	str	r3, [r7, #36]	; 0x24
    RCC_OscInitStruct.PLL.PLLState = RCC_PLL_ON;
 8000f22:	2302      	movs	r3, #2
 8000f24:	63bb      	str	r3, [r7, #56]	; 0x38
    RCC_OscInitStruct.PLL.PLLSource = RCC_PLLSOURCE_HSE;
 8000f26:	f44f 0380 	mov.w	r3, #4194304	; 0x400000
 8000f2a:	63fb      	str	r3, [r7, #60]	; 0x3c
    RCC_OscInitStruct.PLL.PLLM = 4;
 8000f2c:	2304      	movs	r3, #4
 8000f2e:	643b      	str	r3, [r7, #64]	; 0x40
    RCC_OscInitStruct.PLL.PLLN = 168;
 8000f30:	23a8      	movs	r3, #168	; 0xa8
 8000f32:	647b      	str	r3, [r7, #68]	; 0x44
    RCC_OscInitStruct.PLL.PLLP = RCC_PLLP_DIV2;
 8000f34:	2302      	movs	r3, #2
 8000f36:	64bb      	str	r3, [r7, #72]	; 0x48
    RCC_OscInitStruct.PLL.PLLQ = 4;
 8000f38:	2304      	movs	r3, #4
 8000f3a:	64fb      	str	r3, [r7, #76]	; 0x4c
    if (HAL_RCC_OscConfig(&RCC_OscInitStruct) != HAL_OK) {
 8000f3c:	f107 0320 	add.w	r3, r7, #32
 8000f40:	4618      	mov	r0, r3
 8000f42:	f003 fb1b 	bl	800457c <HAL_RCC_OscConfig>
 8000f46:	4603      	mov	r3, r0
 8000f48:	2b00      	cmp	r3, #0
 8000f4a:	d001      	beq.n	8000f50 <SystemClock_Config+0x94>
        Error_Handler();
 8000f4c:	f000 f820 	bl	8000f90 <Error_Handler>
    }

    /** Initializes the CPU, AHB and APB buses clocks
    */
    RCC_ClkInitStruct.ClockType = RCC_CLOCKTYPE_HCLK | RCC_CLOCKTYPE_SYSCLK
 8000f50:	230f      	movs	r3, #15
 8000f52:	60fb      	str	r3, [r7, #12]
                                  | RCC_CLOCKTYPE_PCLK1 | RCC_CLOCKTYPE_PCLK2;
    RCC_ClkInitStruct.SYSCLKSource = RCC_SYSCLKSOURCE_PLLCLK;
 8000f54:	2302      	movs	r3, #2
 8000f56:	613b      	str	r3, [r7, #16]
    RCC_ClkInitStruct.AHBCLKDivider = RCC_SYSCLK_DIV1;
 8000f58:	2300      	movs	r3, #0
 8000f5a:	617b      	str	r3, [r7, #20]
    RCC_ClkInitStruct.APB1CLKDivider = RCC_HCLK_DIV4;
 8000f5c:	f44f 53a0 	mov.w	r3, #5120	; 0x1400
 8000f60:	61bb      	str	r3, [r7, #24]
    RCC_ClkInitStruct.APB2CLKDivider = RCC_HCLK_DIV2;
 8000f62:	f44f 5380 	mov.w	r3, #4096	; 0x1000
 8000f66:	61fb      	str	r3, [r7, #28]

    if (HAL_RCC_ClockConfig(&RCC_ClkInitStruct, FLASH_LATENCY_5) != HAL_OK) {
 8000f68:	f107 030c 	add.w	r3, r7, #12
 8000f6c:	2105      	movs	r1, #5
 8000f6e:	4618      	mov	r0, r3
 8000f70:	f003 fd7c 	bl	8004a6c <HAL_RCC_ClockConfig>
 8000f74:	4603      	mov	r3, r0
 8000f76:	2b00      	cmp	r3, #0
 8000f78:	d001      	beq.n	8000f7e <SystemClock_Config+0xc2>
        Error_Handler();
 8000f7a:	f000 f809 	bl	8000f90 <Error_Handler>
    }
}
 8000f7e:	bf00      	nop
 8000f80:	3750      	adds	r7, #80	; 0x50
 8000f82:	46bd      	mov	sp, r7
 8000f84:	bd80      	pop	{r7, pc}
 8000f86:	bf00      	nop
 8000f88:	40023800 	.word	0x40023800
 8000f8c:	40007000 	.word	0x40007000

08000f90 <Error_Handler>:

/**
  * @brief  This function is executed in case of error occurrence.
  * @retval None
  */
void Error_Handler(void) {
 8000f90:	b480      	push	{r7}
 8000f92:	af00      	add	r7, sp, #0
  \details Disables IRQ interrupts by setting the I-bit in the CPSR.
           Can only be executed in Privileged modes.
 */
__STATIC_FORCEINLINE void __disable_irq(void)
{
  __ASM volatile ("cpsid i" : : : "memory");
 8000f94:	b672      	cpsid	i
}
 8000f96:	bf00      	nop
    /* USER CODE BEGIN Error_Handler_Debug */
    /* User can add his own implementation to report the HAL error return state */
    __disable_irq();
    while (1) {
 8000f98:	e7fe      	b.n	8000f98 <Error_Handler+0x8>
	...

08000f9c <HAL_MspInit>:
/* USER CODE END 0 */
/**
  * Initializes the Global MSP.
  */
void HAL_MspInit(void)
{
 8000f9c:	b480      	push	{r7}
 8000f9e:	b083      	sub	sp, #12
 8000fa0:	af00      	add	r7, sp, #0
  /* USER CODE BEGIN MspInit 0 */

  /* USER CODE END MspInit 0 */

  __HAL_RCC_SYSCFG_CLK_ENABLE();
 8000fa2:	2300      	movs	r3, #0
 8000fa4:	607b      	str	r3, [r7, #4]
 8000fa6:	4b10      	ldr	r3, [pc, #64]	; (8000fe8 <HAL_MspInit+0x4c>)
 8000fa8:	6c5b      	ldr	r3, [r3, #68]	; 0x44
 8000faa:	4a0f      	ldr	r2, [pc, #60]	; (8000fe8 <HAL_MspInit+0x4c>)
 8000fac:	f443 4380 	orr.w	r3, r3, #16384	; 0x4000
 8000fb0:	6453      	str	r3, [r2, #68]	; 0x44
 8000fb2:	4b0d      	ldr	r3, [pc, #52]	; (8000fe8 <HAL_MspInit+0x4c>)
 8000fb4:	6c5b      	ldr	r3, [r3, #68]	; 0x44
 8000fb6:	f403 4380 	and.w	r3, r3, #16384	; 0x4000
 8000fba:	607b      	str	r3, [r7, #4]
 8000fbc:	687b      	ldr	r3, [r7, #4]
  __HAL_RCC_PWR_CLK_ENABLE();
 8000fbe:	2300      	movs	r3, #0
 8000fc0:	603b      	str	r3, [r7, #0]
 8000fc2:	4b09      	ldr	r3, [pc, #36]	; (8000fe8 <HAL_MspInit+0x4c>)
 8000fc4:	6c1b      	ldr	r3, [r3, #64]	; 0x40
 8000fc6:	4a08      	ldr	r2, [pc, #32]	; (8000fe8 <HAL_MspInit+0x4c>)
 8000fc8:	f043 5380 	orr.w	r3, r3, #268435456	; 0x10000000
 8000fcc:	6413      	str	r3, [r2, #64]	; 0x40
 8000fce:	4b06      	ldr	r3, [pc, #24]	; (8000fe8 <HAL_MspInit+0x4c>)
 8000fd0:	6c1b      	ldr	r3, [r3, #64]	; 0x40
 8000fd2:	f003 5380 	and.w	r3, r3, #268435456	; 0x10000000
 8000fd6:	603b      	str	r3, [r7, #0]
 8000fd8:	683b      	ldr	r3, [r7, #0]
  /* System interrupt init*/

  /* USER CODE BEGIN MspInit 1 */

  /* USER CODE END MspInit 1 */
}
 8000fda:	bf00      	nop
 8000fdc:	370c      	adds	r7, #12
 8000fde:	46bd      	mov	sp, r7
 8000fe0:	f85d 7b04 	ldr.w	r7, [sp], #4
 8000fe4:	4770      	bx	lr
 8000fe6:	bf00      	nop
 8000fe8:	40023800 	.word	0x40023800

08000fec <NMI_Handler>:
/******************************************************************************/
/**
  * @brief This function handles Non maskable interrupt.
  */
void NMI_Handler(void)
{
 8000fec:	b480      	push	{r7}
 8000fee:	af00      	add	r7, sp, #0
  /* USER CODE BEGIN NonMaskableInt_IRQn 0 */

  /* USER CODE END NonMaskableInt_IRQn 0 */
  /* USER CODE BEGIN NonMaskableInt_IRQn 1 */
  while (1)
 8000ff0:	e7fe      	b.n	8000ff0 <NMI_Handler+0x4>

08000ff2 <HardFault_Handler>:

/**
  * @brief This function handles Hard fault interrupt.
  */
void HardFault_Handler(void)
{
 8000ff2:	b480      	push	{r7}
 8000ff4:	af00      	add	r7, sp, #0
  /* USER CODE BEGIN HardFault_IRQn 0 */

  /* USER CODE END HardFault_IRQn 0 */
  while (1)
 8000ff6:	e7fe      	b.n	8000ff6 <HardFault_Handler+0x4>

08000ff8 <MemManage_Handler>:

/**
  * @brief This function handles Memory management fault.
  */
void MemManage_Handler(void)
{
 8000ff8:	b480      	push	{r7}
 8000ffa:	af00      	add	r7, sp, #0
  /* USER CODE BEGIN MemoryManagement_IRQn 0 */

  /* USER CODE END MemoryManagement_IRQn 0 */
  while (1)
 8000ffc:	e7fe      	b.n	8000ffc <MemManage_Handler+0x4>

08000ffe <BusFault_Handler>:

/**
  * @brief This function handles Pre-fetch fault, memory access fault.
  */
void BusFault_Handler(void)
{
 8000ffe:	b480      	push	{r7}
 8001000:	af00      	add	r7, sp, #0
  /* USER CODE BEGIN BusFault_IRQn 0 */

  /* USER CODE END BusFault_IRQn 0 */
  while (1)
 8001002:	e7fe      	b.n	8001002 <BusFault_Handler+0x4>

08001004 <UsageFault_Handler>:

/**
  * @brief This function handles Undefined instruction or illegal state.
  */
void UsageFault_Handler(void)
{
 8001004:	b480      	push	{r7}
 8001006:	af00      	add	r7, sp, #0
  /* USER CODE BEGIN UsageFault_IRQn 0 */

  /* USER CODE END UsageFault_IRQn 0 */
  while (1)
 8001008:	e7fe      	b.n	8001008 <UsageFault_Handler+0x4>

0800100a <SVC_Handler>:

/**
  * @brief This function handles System service call via SWI instruction.
  */
void SVC_Handler(void)
{
 800100a:	b480      	push	{r7}
 800100c:	af00      	add	r7, sp, #0

  /* USER CODE END SVCall_IRQn 0 */
  /* USER CODE BEGIN SVCall_IRQn 1 */

  /* USER CODE END SVCall_IRQn 1 */
}
 800100e:	bf00      	nop
 8001010:	46bd      	mov	sp, r7
 8001012:	f85d 7b04 	ldr.w	r7, [sp], #4
 8001016:	4770      	bx	lr

08001018 <DebugMon_Handler>:

/**
  * @brief This function handles Debug monitor.
  */
void DebugMon_Handler(void)
{
 8001018:	b480      	push	{r7}
 800101a:	af00      	add	r7, sp, #0

  /* USER CODE END DebugMonitor_IRQn 0 */
  /* USER CODE BEGIN DebugMonitor_IRQn 1 */

  /* USER CODE END DebugMonitor_IRQn 1 */
}
 800101c:	bf00      	nop
 800101e:	46bd      	mov	sp, r7
 8001020:	f85d 7b04 	ldr.w	r7, [sp], #4
 8001024:	4770      	bx	lr

08001026 <PendSV_Handler>:

/**
  * @brief This function handles Pendable request for system service.
  */
void PendSV_Handler(void)
{
 8001026:	b480      	push	{r7}
 8001028:	af00      	add	r7, sp, #0

  /* USER CODE END PendSV_IRQn 0 */
  /* USER CODE BEGIN PendSV_IRQn 1 */

  /* USER CODE END PendSV_IRQn 1 */
}
 800102a:	bf00      	nop
 800102c:	46bd      	mov	sp, r7
 800102e:	f85d 7b04 	ldr.w	r7, [sp], #4
 8001032:	4770      	bx	lr

08001034 <SysTick_Handler>:

/**
  * @brief This function handles System tick timer.
  */
void SysTick_Handler(void)
{
 8001034:	b580      	push	{r7, lr}
 8001036:	af00      	add	r7, sp, #0
  /* USER CODE BEGIN SysTick_IRQn 0 */

  /* USER CODE END SysTick_IRQn 0 */
  HAL_IncTick();
 8001038:	f002 ffc0 	bl	8003fbc <HAL_IncTick>
  /* USER CODE BEGIN SysTick_IRQn 1 */

  /* USER CODE END SysTick_IRQn 1 */
}
 800103c:	bf00      	nop
 800103e:	bd80      	pop	{r7, pc}

08001040 <SystemInit>:
  *         configuration.
  * @param  None
  * @retval None
  */
void SystemInit(void)
{
 8001040:	b480      	push	{r7}
 8001042:	af00      	add	r7, sp, #0
  /* FPU settings ------------------------------------------------------------*/
  #if (__FPU_PRESENT == 1) && (__FPU_USED == 1)
    SCB->CPACR |= ((3UL << 10*2)|(3UL << 11*2));  /* set CP10 and CP11 Full Access */
 8001044:	4b06      	ldr	r3, [pc, #24]	; (8001060 <SystemInit+0x20>)
 8001046:	f8d3 3088 	ldr.w	r3, [r3, #136]	; 0x88
 800104a:	4a05      	ldr	r2, [pc, #20]	; (8001060 <SystemInit+0x20>)
 800104c:	f443 0370 	orr.w	r3, r3, #15728640	; 0xf00000
 8001050:	f8c2 3088 	str.w	r3, [r2, #136]	; 0x88

  /* Configure the Vector Table location -------------------------------------*/
#if defined(USER_VECT_TAB_ADDRESS)
  SCB->VTOR = VECT_TAB_BASE_ADDRESS | VECT_TAB_OFFSET; /* Vector Table Relocation in Internal SRAM */
#endif /* USER_VECT_TAB_ADDRESS */
}
 8001054:	bf00      	nop
 8001056:	46bd      	mov	sp, r7
 8001058:	f85d 7b04 	ldr.w	r7, [sp], #4
 800105c:	4770      	bx	lr
 800105e:	bf00      	nop
 8001060:	e000ed00 	.word	0xe000ed00

08001064 <Reset_Handler>:

    .section  .text.Reset_Handler
  .weak  Reset_Handler
  .type  Reset_Handler, %function
Reset_Handler:  
  ldr   sp, =_estack     /* set stack pointer */
 8001064:	f8df d034 	ldr.w	sp, [pc, #52]	; 800109c <LoopFillZerobss+0x12>

/* Copy the data segment initializers from flash to SRAM */  
  ldr r0, =_sdata
 8001068:	480d      	ldr	r0, [pc, #52]	; (80010a0 <LoopFillZerobss+0x16>)
  ldr r1, =_edata
 800106a:	490e      	ldr	r1, [pc, #56]	; (80010a4 <LoopFillZerobss+0x1a>)
  ldr r2, =_sidata
 800106c:	4a0e      	ldr	r2, [pc, #56]	; (80010a8 <LoopFillZerobss+0x1e>)
  movs r3, #0
 800106e:	2300      	movs	r3, #0
  b LoopCopyDataInit
 8001070:	e002      	b.n	8001078 <LoopCopyDataInit>

08001072 <CopyDataInit>:

CopyDataInit:
  ldr r4, [r2, r3]
 8001072:	58d4      	ldr	r4, [r2, r3]
  str r4, [r0, r3]
 8001074:	50c4      	str	r4, [r0, r3]
  adds r3, r3, #4
 8001076:	3304      	adds	r3, #4

08001078 <LoopCopyDataInit>:

LoopCopyDataInit:
  adds r4, r0, r3
 8001078:	18c4      	adds	r4, r0, r3
  cmp r4, r1
 800107a:	428c      	cmp	r4, r1
  bcc CopyDataInit
 800107c:	d3f9      	bcc.n	8001072 <CopyDataInit>
  
/* Zero fill the bss segment. */
  ldr r2, =_sbss
 800107e:	4a0b      	ldr	r2, [pc, #44]	; (80010ac <LoopFillZerobss+0x22>)
  ldr r4, =_ebss
 8001080:	4c0b      	ldr	r4, [pc, #44]	; (80010b0 <LoopFillZerobss+0x26>)
  movs r3, #0
 8001082:	2300      	movs	r3, #0
  b LoopFillZerobss
 8001084:	e001      	b.n	800108a <LoopFillZerobss>

08001086 <FillZerobss>:

FillZerobss:
  str  r3, [r2]
 8001086:	6013      	str	r3, [r2, #0]
  adds r2, r2, #4
 8001088:	3204      	adds	r2, #4

0800108a <LoopFillZerobss>:

LoopFillZerobss:
  cmp r2, r4
 800108a:	42a2      	cmp	r2, r4
  bcc FillZerobss
 800108c:	d3fb      	bcc.n	8001086 <FillZerobss>

/* Call the clock system initialization function.*/
  bl  SystemInit   
 800108e:	f7ff ffd7 	bl	8001040 <SystemInit>
/* Call static constructors */
    bl __libc_init_array
 8001092:	f003 fff7 	bl	8005084 <__libc_init_array>
/* Call the application's entry point.*/
  bl  main
 8001096:	f7ff fe9d 	bl	8000dd4 <main>
  bx  lr    
 800109a:	4770      	bx	lr
  ldr   sp, =_estack     /* set stack pointer */
 800109c:	20020000 	.word	0x20020000
  ldr r0, =_sdata
 80010a0:	20000000 	.word	0x20000000
  ldr r1, =_edata
 80010a4:	2000000c 	.word	0x2000000c
  ldr r2, =_sidata
 80010a8:	0803b300 	.word	0x0803b300
  ldr r2, =_sbss
 80010ac:	2000000c 	.word	0x2000000c
  ldr r4, =_ebss
 80010b0:	200000e0 	.word	0x200000e0

080010b4 <ADC_IRQHandler>:
 * @retval None       
*/
    .section  .text.Default_Handler,"ax",%progbits
Default_Handler:
Infinite_Loop:
  b  Infinite_Loop
 80010b4:	e7fe      	b.n	80010b4 <ADC_IRQHandler>
	...

080010b8 <lcd_wr_data>:
 * @brief       LCD写数据
 * @param       data: 要写入的数据
 * @retval      无
 */
void lcd_wr_data(volatile uint16_t data)
{
 80010b8:	b480      	push	{r7}
 80010ba:	b083      	sub	sp, #12
 80010bc:	af00      	add	r7, sp, #0
 80010be:	4603      	mov	r3, r0
 80010c0:	80fb      	strh	r3, [r7, #6]
    data = data;            /* 使用-O2优化的时候,必须插入的延时 */
 80010c2:	88fb      	ldrh	r3, [r7, #6]
 80010c4:	b29b      	uxth	r3, r3
 80010c6:	80fb      	strh	r3, [r7, #6]
    LCD->LCD_RAM = data;
 80010c8:	4b04      	ldr	r3, [pc, #16]	; (80010dc <lcd_wr_data+0x24>)
 80010ca:	88fa      	ldrh	r2, [r7, #6]
 80010cc:	b292      	uxth	r2, r2
 80010ce:	805a      	strh	r2, [r3, #2]
}
 80010d0:	bf00      	nop
 80010d2:	370c      	adds	r7, #12
 80010d4:	46bd      	mov	sp, r7
 80010d6:	f85d 7b04 	ldr.w	r7, [sp], #4
 80010da:	4770      	bx	lr
 80010dc:	6c00007e 	.word	0x6c00007e

080010e0 <lcd_wr_regno>:
 * @brief       LCD写寄存器编号/地址函数
 * @param       regno: 寄存器编号/地址
 * @retval      无
 */
void lcd_wr_regno(volatile uint16_t regno)
{
 80010e0:	b480      	push	{r7}
 80010e2:	b083      	sub	sp, #12
 80010e4:	af00      	add	r7, sp, #0
 80010e6:	4603      	mov	r3, r0
 80010e8:	80fb      	strh	r3, [r7, #6]
    regno = regno;          /* 使用-O2优化的时候,必须插入的延时 */
 80010ea:	88fb      	ldrh	r3, [r7, #6]
 80010ec:	b29b      	uxth	r3, r3
 80010ee:	80fb      	strh	r3, [r7, #6]
    LCD->LCD_REG = regno;   /* 写入要写的寄存器序号 */
 80010f0:	4b04      	ldr	r3, [pc, #16]	; (8001104 <lcd_wr_regno+0x24>)
 80010f2:	88fa      	ldrh	r2, [r7, #6]
 80010f4:	b292      	uxth	r2, r2
 80010f6:	801a      	strh	r2, [r3, #0]
}
 80010f8:	bf00      	nop
 80010fa:	370c      	adds	r7, #12
 80010fc:	46bd      	mov	sp, r7
 80010fe:	f85d 7b04 	ldr.w	r7, [sp], #4
 8001102:	4770      	bx	lr
 8001104:	6c00007e 	.word	0x6c00007e

08001108 <lcd_write_reg>:
 * @param       regno:寄存器编号/地址
 * @param       data:要写入的数据
 * @retval      无
 */
void lcd_write_reg(uint16_t regno, uint16_t data)
{
 8001108:	b480      	push	{r7}
 800110a:	b083      	sub	sp, #12
 800110c:	af00      	add	r7, sp, #0
 800110e:	4603      	mov	r3, r0
 8001110:	460a      	mov	r2, r1
 8001112:	80fb      	strh	r3, [r7, #6]
 8001114:	4613      	mov	r3, r2
 8001116:	80bb      	strh	r3, [r7, #4]
    LCD->LCD_REG = regno;   /* 写入要写的寄存器序号 */
 8001118:	4a05      	ldr	r2, [pc, #20]	; (8001130 <lcd_write_reg+0x28>)
 800111a:	88fb      	ldrh	r3, [r7, #6]
 800111c:	8013      	strh	r3, [r2, #0]
    LCD->LCD_RAM = data;    /* 写入数据 */
 800111e:	4a04      	ldr	r2, [pc, #16]	; (8001130 <lcd_write_reg+0x28>)
 8001120:	88bb      	ldrh	r3, [r7, #4]
 8001122:	8053      	strh	r3, [r2, #2]
}
 8001124:	bf00      	nop
 8001126:	370c      	adds	r7, #12
 8001128:	46bd      	mov	sp, r7
 800112a:	f85d 7b04 	ldr.w	r7, [sp], #4
 800112e:	4770      	bx	lr
 8001130:	6c00007e 	.word	0x6c00007e

08001134 <lcd_rd_data>:
 * @brief       LCD读数据
 * @param       无
 * @retval      读取到的数据
 */
static uint16_t lcd_rd_data(void)
{
 8001134:	b480      	push	{r7}
 8001136:	b083      	sub	sp, #12
 8001138:	af00      	add	r7, sp, #0
    volatile uint16_t ram;  /* 防止被优化 */
    ram = LCD->LCD_RAM;
 800113a:	4b06      	ldr	r3, [pc, #24]	; (8001154 <lcd_rd_data+0x20>)
 800113c:	885b      	ldrh	r3, [r3, #2]
 800113e:	b29b      	uxth	r3, r3
 8001140:	80fb      	strh	r3, [r7, #6]
    return ram;
 8001142:	88fb      	ldrh	r3, [r7, #6]
 8001144:	b29b      	uxth	r3, r3
}
 8001146:	4618      	mov	r0, r3
 8001148:	370c      	adds	r7, #12
 800114a:	46bd      	mov	sp, r7
 800114c:	f85d 7b04 	ldr.w	r7, [sp], #4
 8001150:	4770      	bx	lr
 8001152:	bf00      	nop
 8001154:	6c00007e 	.word	0x6c00007e

08001158 <lcd_write_ram_prepare>:
 * @brief       准备写GRAM
 * @param       无
 * @retval      无
 */
void lcd_write_ram_prepare(void)
{
 8001158:	b480      	push	{r7}
 800115a:	af00      	add	r7, sp, #0
    LCD->LCD_REG = lcddev.wramcmd;
 800115c:	4b04      	ldr	r3, [pc, #16]	; (8001170 <lcd_write_ram_prepare+0x18>)
 800115e:	4a05      	ldr	r2, [pc, #20]	; (8001174 <lcd_write_ram_prepare+0x1c>)
 8001160:	8912      	ldrh	r2, [r2, #8]
 8001162:	801a      	strh	r2, [r3, #0]
}
 8001164:	bf00      	nop
 8001166:	46bd      	mov	sp, r7
 8001168:	f85d 7b04 	ldr.w	r7, [sp], #4
 800116c:	4770      	bx	lr
 800116e:	bf00      	nop
 8001170:	6c00007e 	.word	0x6c00007e
 8001174:	200000cc 	.word	0x200000cc

08001178 <lcd_set_cursor>:
 * @brief       设置光标位置(对RGB屏无效)
 * @param       x,y: 坐标
 * @retval      无
 */
void lcd_set_cursor(uint16_t x, uint16_t y)
{
 8001178:	b580      	push	{r7, lr}
 800117a:	b082      	sub	sp, #8
 800117c:	af00      	add	r7, sp, #0
 800117e:	4603      	mov	r3, r0
 8001180:	460a      	mov	r2, r1
 8001182:	80fb      	strh	r3, [r7, #6]
 8001184:	4613      	mov	r3, r2
 8001186:	80bb      	strh	r3, [r7, #4]
    if (lcddev.id == 0x1963)
 8001188:	4b65      	ldr	r3, [pc, #404]	; (8001320 <lcd_set_cursor+0x1a8>)
 800118a:	889b      	ldrh	r3, [r3, #4]
 800118c:	f641 1263 	movw	r2, #6499	; 0x1963
 8001190:	4293      	cmp	r3, r2
 8001192:	d167      	bne.n	8001264 <lcd_set_cursor+0xec>
    {
        if (lcddev.dir == 0)    /* 竖屏模式, x坐标需要变换 */
 8001194:	4b62      	ldr	r3, [pc, #392]	; (8001320 <lcd_set_cursor+0x1a8>)
 8001196:	799b      	ldrb	r3, [r3, #6]
 8001198:	2b00      	cmp	r3, #0
 800119a:	d11e      	bne.n	80011da <lcd_set_cursor+0x62>
        {
            x = lcddev.width - 1 - x;
 800119c:	4b60      	ldr	r3, [pc, #384]	; (8001320 <lcd_set_cursor+0x1a8>)
 800119e:	881a      	ldrh	r2, [r3, #0]
 80011a0:	88fb      	ldrh	r3, [r7, #6]
 80011a2:	1ad3      	subs	r3, r2, r3
 80011a4:	b29b      	uxth	r3, r3
 80011a6:	3b01      	subs	r3, #1
 80011a8:	80fb      	strh	r3, [r7, #6]
            lcd_wr_regno(lcddev.setxcmd);
 80011aa:	4b5d      	ldr	r3, [pc, #372]	; (8001320 <lcd_set_cursor+0x1a8>)
 80011ac:	895b      	ldrh	r3, [r3, #10]
 80011ae:	4618      	mov	r0, r3
 80011b0:	f7ff ff96 	bl	80010e0 <lcd_wr_regno>
            lcd_wr_data(0);
 80011b4:	2000      	movs	r0, #0
 80011b6:	f7ff ff7f 	bl	80010b8 <lcd_wr_data>
            lcd_wr_data(0);
 80011ba:	2000      	movs	r0, #0
 80011bc:	f7ff ff7c 	bl	80010b8 <lcd_wr_data>
            lcd_wr_data(x >> 8);
 80011c0:	88fb      	ldrh	r3, [r7, #6]
 80011c2:	0a1b      	lsrs	r3, r3, #8
 80011c4:	b29b      	uxth	r3, r3
 80011c6:	4618      	mov	r0, r3
 80011c8:	f7ff ff76 	bl	80010b8 <lcd_wr_data>
            lcd_wr_data(x & 0xFF);
 80011cc:	88fb      	ldrh	r3, [r7, #6]
 80011ce:	b2db      	uxtb	r3, r3
 80011d0:	b29b      	uxth	r3, r3
 80011d2:	4618      	mov	r0, r3
 80011d4:	f7ff ff70 	bl	80010b8 <lcd_wr_data>
 80011d8:	e021      	b.n	800121e <lcd_set_cursor+0xa6>
        }
        else                    /* 横屏模式 */
        {
            lcd_wr_regno(lcddev.setxcmd);
 80011da:	4b51      	ldr	r3, [pc, #324]	; (8001320 <lcd_set_cursor+0x1a8>)
 80011dc:	895b      	ldrh	r3, [r3, #10]
 80011de:	4618      	mov	r0, r3
 80011e0:	f7ff ff7e 	bl	80010e0 <lcd_wr_regno>
            lcd_wr_data(x >> 8);
 80011e4:	88fb      	ldrh	r3, [r7, #6]
 80011e6:	0a1b      	lsrs	r3, r3, #8
 80011e8:	b29b      	uxth	r3, r3
 80011ea:	4618      	mov	r0, r3
 80011ec:	f7ff ff64 	bl	80010b8 <lcd_wr_data>
            lcd_wr_data(x & 0xFF);
 80011f0:	88fb      	ldrh	r3, [r7, #6]
 80011f2:	b2db      	uxtb	r3, r3
 80011f4:	b29b      	uxth	r3, r3
 80011f6:	4618      	mov	r0, r3
 80011f8:	f7ff ff5e 	bl	80010b8 <lcd_wr_data>
            lcd_wr_data((lcddev.width - 1) >> 8);
 80011fc:	4b48      	ldr	r3, [pc, #288]	; (8001320 <lcd_set_cursor+0x1a8>)
 80011fe:	881b      	ldrh	r3, [r3, #0]
 8001200:	3b01      	subs	r3, #1
 8001202:	121b      	asrs	r3, r3, #8
 8001204:	b29b      	uxth	r3, r3
 8001206:	4618      	mov	r0, r3
 8001208:	f7ff ff56 	bl	80010b8 <lcd_wr_data>
            lcd_wr_data((lcddev.width - 1) & 0xFF);
 800120c:	4b44      	ldr	r3, [pc, #272]	; (8001320 <lcd_set_cursor+0x1a8>)
 800120e:	881b      	ldrh	r3, [r3, #0]
 8001210:	3b01      	subs	r3, #1
 8001212:	b29b      	uxth	r3, r3
 8001214:	b2db      	uxtb	r3, r3
 8001216:	b29b      	uxth	r3, r3
 8001218:	4618      	mov	r0, r3
 800121a:	f7ff ff4d 	bl	80010b8 <lcd_wr_data>
        }

        lcd_wr_regno(lcddev.setycmd);
 800121e:	4b40      	ldr	r3, [pc, #256]	; (8001320 <lcd_set_cursor+0x1a8>)
 8001220:	899b      	ldrh	r3, [r3, #12]
 8001222:	4618      	mov	r0, r3
 8001224:	f7ff ff5c 	bl	80010e0 <lcd_wr_regno>
        lcd_wr_data(y >> 8);
 8001228:	88bb      	ldrh	r3, [r7, #4]
 800122a:	0a1b      	lsrs	r3, r3, #8
 800122c:	b29b      	uxth	r3, r3
 800122e:	4618      	mov	r0, r3
 8001230:	f7ff ff42 	bl	80010b8 <lcd_wr_data>
        lcd_wr_data(y & 0xFF);
 8001234:	88bb      	ldrh	r3, [r7, #4]
 8001236:	b2db      	uxtb	r3, r3
 8001238:	b29b      	uxth	r3, r3
 800123a:	4618      	mov	r0, r3
 800123c:	f7ff ff3c 	bl	80010b8 <lcd_wr_data>
        lcd_wr_data((lcddev.height - 1) >> 8);
 8001240:	4b37      	ldr	r3, [pc, #220]	; (8001320 <lcd_set_cursor+0x1a8>)
 8001242:	885b      	ldrh	r3, [r3, #2]
 8001244:	3b01      	subs	r3, #1
 8001246:	121b      	asrs	r3, r3, #8
 8001248:	b29b      	uxth	r3, r3
 800124a:	4618      	mov	r0, r3
 800124c:	f7ff ff34 	bl	80010b8 <lcd_wr_data>
        lcd_wr_data((lcddev.height - 1) & 0xFF);
 8001250:	4b33      	ldr	r3, [pc, #204]	; (8001320 <lcd_set_cursor+0x1a8>)
 8001252:	885b      	ldrh	r3, [r3, #2]
 8001254:	3b01      	subs	r3, #1
 8001256:	b29b      	uxth	r3, r3
 8001258:	b2db      	uxtb	r3, r3
 800125a:	b29b      	uxth	r3, r3
 800125c:	4618      	mov	r0, r3
 800125e:	f7ff ff2b 	bl	80010b8 <lcd_wr_data>
        lcd_wr_data(x & 0xFF);
        lcd_wr_regno(lcddev.setycmd);
        lcd_wr_data(y >> 8);
        lcd_wr_data(y & 0xFF);
    }
}
 8001262:	e058      	b.n	8001316 <lcd_set_cursor+0x19e>
    else if (lcddev.id == 0x5510)
 8001264:	4b2e      	ldr	r3, [pc, #184]	; (8001320 <lcd_set_cursor+0x1a8>)
 8001266:	889b      	ldrh	r3, [r3, #4]
 8001268:	f245 5210 	movw	r2, #21776	; 0x5510
 800126c:	4293      	cmp	r3, r2
 800126e:	d130      	bne.n	80012d2 <lcd_set_cursor+0x15a>
        lcd_wr_regno(lcddev.setxcmd);
 8001270:	4b2b      	ldr	r3, [pc, #172]	; (8001320 <lcd_set_cursor+0x1a8>)
 8001272:	895b      	ldrh	r3, [r3, #10]
 8001274:	4618      	mov	r0, r3
 8001276:	f7ff ff33 	bl	80010e0 <lcd_wr_regno>
        lcd_wr_data(x >> 8);
 800127a:	88fb      	ldrh	r3, [r7, #6]
 800127c:	0a1b      	lsrs	r3, r3, #8
 800127e:	b29b      	uxth	r3, r3
 8001280:	4618      	mov	r0, r3
 8001282:	f7ff ff19 	bl	80010b8 <lcd_wr_data>
        lcd_wr_regno(lcddev.setxcmd + 1);
 8001286:	4b26      	ldr	r3, [pc, #152]	; (8001320 <lcd_set_cursor+0x1a8>)
 8001288:	895b      	ldrh	r3, [r3, #10]
 800128a:	3301      	adds	r3, #1
 800128c:	b29b      	uxth	r3, r3
 800128e:	4618      	mov	r0, r3
 8001290:	f7ff ff26 	bl	80010e0 <lcd_wr_regno>
        lcd_wr_data(x & 0xFF);
 8001294:	88fb      	ldrh	r3, [r7, #6]
 8001296:	b2db      	uxtb	r3, r3
 8001298:	b29b      	uxth	r3, r3
 800129a:	4618      	mov	r0, r3
 800129c:	f7ff ff0c 	bl	80010b8 <lcd_wr_data>
        lcd_wr_regno(lcddev.setycmd);
 80012a0:	4b1f      	ldr	r3, [pc, #124]	; (8001320 <lcd_set_cursor+0x1a8>)
 80012a2:	899b      	ldrh	r3, [r3, #12]
 80012a4:	4618      	mov	r0, r3
 80012a6:	f7ff ff1b 	bl	80010e0 <lcd_wr_regno>
        lcd_wr_data(y >> 8);
 80012aa:	88bb      	ldrh	r3, [r7, #4]
 80012ac:	0a1b      	lsrs	r3, r3, #8
 80012ae:	b29b      	uxth	r3, r3
 80012b0:	4618      	mov	r0, r3
 80012b2:	f7ff ff01 	bl	80010b8 <lcd_wr_data>
        lcd_wr_regno(lcddev.setycmd + 1);
 80012b6:	4b1a      	ldr	r3, [pc, #104]	; (8001320 <lcd_set_cursor+0x1a8>)
 80012b8:	899b      	ldrh	r3, [r3, #12]
 80012ba:	3301      	adds	r3, #1
 80012bc:	b29b      	uxth	r3, r3
 80012be:	4618      	mov	r0, r3
 80012c0:	f7ff ff0e 	bl	80010e0 <lcd_wr_regno>
        lcd_wr_data(y & 0xFF);
 80012c4:	88bb      	ldrh	r3, [r7, #4]
 80012c6:	b2db      	uxtb	r3, r3
 80012c8:	b29b      	uxth	r3, r3
 80012ca:	4618      	mov	r0, r3
 80012cc:	f7ff fef4 	bl	80010b8 <lcd_wr_data>
}
 80012d0:	e021      	b.n	8001316 <lcd_set_cursor+0x19e>
        lcd_wr_regno(lcddev.setxcmd);
 80012d2:	4b13      	ldr	r3, [pc, #76]	; (8001320 <lcd_set_cursor+0x1a8>)
 80012d4:	895b      	ldrh	r3, [r3, #10]
 80012d6:	4618      	mov	r0, r3
 80012d8:	f7ff ff02 	bl	80010e0 <lcd_wr_regno>
        lcd_wr_data(x >> 8);
 80012dc:	88fb      	ldrh	r3, [r7, #6]
 80012de:	0a1b      	lsrs	r3, r3, #8
 80012e0:	b29b      	uxth	r3, r3
 80012e2:	4618      	mov	r0, r3
 80012e4:	f7ff fee8 	bl	80010b8 <lcd_wr_data>
        lcd_wr_data(x & 0xFF);
 80012e8:	88fb      	ldrh	r3, [r7, #6]
 80012ea:	b2db      	uxtb	r3, r3
 80012ec:	b29b      	uxth	r3, r3
 80012ee:	4618      	mov	r0, r3
 80012f0:	f7ff fee2 	bl	80010b8 <lcd_wr_data>
        lcd_wr_regno(lcddev.setycmd);
 80012f4:	4b0a      	ldr	r3, [pc, #40]	; (8001320 <lcd_set_cursor+0x1a8>)
 80012f6:	899b      	ldrh	r3, [r3, #12]
 80012f8:	4618      	mov	r0, r3
 80012fa:	f7ff fef1 	bl	80010e0 <lcd_wr_regno>
        lcd_wr_data(y >> 8);
 80012fe:	88bb      	ldrh	r3, [r7, #4]
 8001300:	0a1b      	lsrs	r3, r3, #8
 8001302:	b29b      	uxth	r3, r3
 8001304:	4618      	mov	r0, r3
 8001306:	f7ff fed7 	bl	80010b8 <lcd_wr_data>
        lcd_wr_data(y & 0xFF);
 800130a:	88bb      	ldrh	r3, [r7, #4]
 800130c:	b2db      	uxtb	r3, r3
 800130e:	b29b      	uxth	r3, r3
 8001310:	4618      	mov	r0, r3
 8001312:	f7ff fed1 	bl	80010b8 <lcd_wr_data>
}
 8001316:	bf00      	nop
 8001318:	3708      	adds	r7, #8
 800131a:	46bd      	mov	sp, r7
 800131c:	bd80      	pop	{r7, pc}
 800131e:	bf00      	nop
 8001320:	200000cc 	.word	0x200000cc

08001324 <lcd_scan_dir>:
 *
 * @param       dir:0~7,代表8个方向(具体定义见lcd.h)
 * @retval      无
 */
void lcd_scan_dir(uint8_t dir)
{
 8001324:	b580      	push	{r7, lr}
 8001326:	b084      	sub	sp, #16
 8001328:	af00      	add	r7, sp, #0
 800132a:	4603      	mov	r3, r0
 800132c:	71fb      	strb	r3, [r7, #7]
    uint16_t regval = 0;
 800132e:	2300      	movs	r3, #0
 8001330:	81fb      	strh	r3, [r7, #14]
    uint16_t dirreg = 0;
 8001332:	2300      	movs	r3, #0
 8001334:	81bb      	strh	r3, [r7, #12]
    uint16_t temp;

    /* 横屏时，对1963不改变扫描方向！竖屏时1963改变方向(这里仅用于1963的特殊处理,对其他驱动IC无效) */
    if ((lcddev.dir == 1 && lcddev.id != 0x1963) || (lcddev.dir == 0 && lcddev.id == 0x1963))
 8001336:	4b9a      	ldr	r3, [pc, #616]	; (80015a0 <lcd_scan_dir+0x27c>)
 8001338:	799b      	ldrb	r3, [r3, #6]
 800133a:	2b01      	cmp	r3, #1
 800133c:	d105      	bne.n	800134a <lcd_scan_dir+0x26>
 800133e:	4b98      	ldr	r3, [pc, #608]	; (80015a0 <lcd_scan_dir+0x27c>)
 8001340:	889b      	ldrh	r3, [r3, #4]
 8001342:	f641 1263 	movw	r2, #6499	; 0x1963
 8001346:	4293      	cmp	r3, r2
 8001348:	d109      	bne.n	800135e <lcd_scan_dir+0x3a>
 800134a:	4b95      	ldr	r3, [pc, #596]	; (80015a0 <lcd_scan_dir+0x27c>)
 800134c:	799b      	ldrb	r3, [r3, #6]
 800134e:	2b00      	cmp	r3, #0
 8001350:	d134      	bne.n	80013bc <lcd_scan_dir+0x98>
 8001352:	4b93      	ldr	r3, [pc, #588]	; (80015a0 <lcd_scan_dir+0x27c>)
 8001354:	889b      	ldrh	r3, [r3, #4]
 8001356:	f641 1263 	movw	r2, #6499	; 0x1963
 800135a:	4293      	cmp	r3, r2
 800135c:	d12e      	bne.n	80013bc <lcd_scan_dir+0x98>
    {
        switch (dir)   /* 方向转换 */
 800135e:	79fb      	ldrb	r3, [r7, #7]
 8001360:	2b07      	cmp	r3, #7
 8001362:	d82c      	bhi.n	80013be <lcd_scan_dir+0x9a>
 8001364:	a201      	add	r2, pc, #4	; (adr r2, 800136c <lcd_scan_dir+0x48>)
 8001366:	f852 f023 	ldr.w	pc, [r2, r3, lsl #2]
 800136a:	bf00      	nop
 800136c:	0800138d 	.word	0x0800138d
 8001370:	08001393 	.word	0x08001393
 8001374:	08001399 	.word	0x08001399
 8001378:	0800139f 	.word	0x0800139f
 800137c:	080013a5 	.word	0x080013a5
 8001380:	080013ab 	.word	0x080013ab
 8001384:	080013b1 	.word	0x080013b1
 8001388:	080013b7 	.word	0x080013b7
        {
            case 0:
                dir = 6;
 800138c:	2306      	movs	r3, #6
 800138e:	71fb      	strb	r3, [r7, #7]
                break;
 8001390:	e015      	b.n	80013be <lcd_scan_dir+0x9a>

            case 1:
                dir = 7;
 8001392:	2307      	movs	r3, #7
 8001394:	71fb      	strb	r3, [r7, #7]
                break;
 8001396:	e012      	b.n	80013be <lcd_scan_dir+0x9a>

            case 2:
                dir = 4;
 8001398:	2304      	movs	r3, #4
 800139a:	71fb      	strb	r3, [r7, #7]
                break;
 800139c:	e00f      	b.n	80013be <lcd_scan_dir+0x9a>

            case 3:
                dir = 5;
 800139e:	2305      	movs	r3, #5
 80013a0:	71fb      	strb	r3, [r7, #7]
                break;
 80013a2:	e00c      	b.n	80013be <lcd_scan_dir+0x9a>

            case 4:
                dir = 1;
 80013a4:	2301      	movs	r3, #1
 80013a6:	71fb      	strb	r3, [r7, #7]
                break;
 80013a8:	e009      	b.n	80013be <lcd_scan_dir+0x9a>

            case 5:
                dir = 0;
 80013aa:	2300      	movs	r3, #0
 80013ac:	71fb      	strb	r3, [r7, #7]
                break;
 80013ae:	e006      	b.n	80013be <lcd_scan_dir+0x9a>

            case 6:
                dir = 3;
 80013b0:	2303      	movs	r3, #3
 80013b2:	71fb      	strb	r3, [r7, #7]
                break;
 80013b4:	e003      	b.n	80013be <lcd_scan_dir+0x9a>

            case 7:
                dir = 2;
 80013b6:	2302      	movs	r3, #2
 80013b8:	71fb      	strb	r3, [r7, #7]
                break;
 80013ba:	e000      	b.n	80013be <lcd_scan_dir+0x9a>
        }
    }
 80013bc:	bf00      	nop


    /* 根据扫描方式 设置 0x36/0x3600 寄存器 bit 5,6,7 位的值 */
    switch (dir)
 80013be:	79fb      	ldrb	r3, [r7, #7]
 80013c0:	2b07      	cmp	r3, #7
 80013c2:	d836      	bhi.n	8001432 <lcd_scan_dir+0x10e>
 80013c4:	a201      	add	r2, pc, #4	; (adr r2, 80013cc <lcd_scan_dir+0xa8>)
 80013c6:	f852 f023 	ldr.w	pc, [r2, r3, lsl #2]
 80013ca:	bf00      	nop
 80013cc:	08001433 	.word	0x08001433
 80013d0:	080013ed 	.word	0x080013ed
 80013d4:	080013f7 	.word	0x080013f7
 80013d8:	08001401 	.word	0x08001401
 80013dc:	0800140b 	.word	0x0800140b
 80013e0:	08001415 	.word	0x08001415
 80013e4:	0800141f 	.word	0x0800141f
 80013e8:	08001429 	.word	0x08001429
        case L2R_U2D:/* 从左到右,从上到下 */
            regval |= (0 << 7) | (0 << 6) | (0 << 5);
            break;

        case L2R_D2U:/* 从左到右,从下到上 */
            regval |= (1 << 7) | (0 << 6) | (0 << 5);
 80013ec:	89fb      	ldrh	r3, [r7, #14]
 80013ee:	f043 0380 	orr.w	r3, r3, #128	; 0x80
 80013f2:	81fb      	strh	r3, [r7, #14]
            break;
 80013f4:	e01d      	b.n	8001432 <lcd_scan_dir+0x10e>

        case R2L_U2D:/* 从右到左,从上到下 */
            regval |= (0 << 7) | (1 << 6) | (0 << 5);
 80013f6:	89fb      	ldrh	r3, [r7, #14]
 80013f8:	f043 0340 	orr.w	r3, r3, #64	; 0x40
 80013fc:	81fb      	strh	r3, [r7, #14]
            break;
 80013fe:	e018      	b.n	8001432 <lcd_scan_dir+0x10e>

        case R2L_D2U:/* 从右到左,从下到上 */
            regval |= (1 << 7) | (1 << 6) | (0 << 5);
 8001400:	89fb      	ldrh	r3, [r7, #14]
 8001402:	f043 03c0 	orr.w	r3, r3, #192	; 0xc0
 8001406:	81fb      	strh	r3, [r7, #14]
            break;
 8001408:	e013      	b.n	8001432 <lcd_scan_dir+0x10e>

        case U2D_L2R:/* 从上到下,从左到右 */
            regval |= (0 << 7) | (0 << 6) | (1 << 5);
 800140a:	89fb      	ldrh	r3, [r7, #14]
 800140c:	f043 0320 	orr.w	r3, r3, #32
 8001410:	81fb      	strh	r3, [r7, #14]
            break;
 8001412:	e00e      	b.n	8001432 <lcd_scan_dir+0x10e>

        case U2D_R2L:/* 从上到下,从右到左 */
            regval |= (0 << 7) | (1 << 6) | (1 << 5);
 8001414:	89fb      	ldrh	r3, [r7, #14]
 8001416:	f043 0360 	orr.w	r3, r3, #96	; 0x60
 800141a:	81fb      	strh	r3, [r7, #14]
            break;
 800141c:	e009      	b.n	8001432 <lcd_scan_dir+0x10e>

        case D2U_L2R:/* 从下到上,从左到右 */
            regval |= (1 << 7) | (0 << 6) | (1 << 5);
 800141e:	89fb      	ldrh	r3, [r7, #14]
 8001420:	f043 03a0 	orr.w	r3, r3, #160	; 0xa0
 8001424:	81fb      	strh	r3, [r7, #14]
            break;
 8001426:	e004      	b.n	8001432 <lcd_scan_dir+0x10e>

        case D2U_R2L:/* 从下到上,从右到左 */
            regval |= (1 << 7) | (1 << 6) | (1 << 5);
 8001428:	89fb      	ldrh	r3, [r7, #14]
 800142a:	f043 03e0 	orr.w	r3, r3, #224	; 0xe0
 800142e:	81fb      	strh	r3, [r7, #14]
            break;
 8001430:	bf00      	nop
    }

    dirreg = 0x36;  /* 对绝大部分驱动IC, 由0x36寄存器控制 */
 8001432:	2336      	movs	r3, #54	; 0x36
 8001434:	81bb      	strh	r3, [r7, #12]

    if (lcddev.id == 0x5510)
 8001436:	4b5a      	ldr	r3, [pc, #360]	; (80015a0 <lcd_scan_dir+0x27c>)
 8001438:	889b      	ldrh	r3, [r3, #4]
 800143a:	f245 5210 	movw	r2, #21776	; 0x5510
 800143e:	4293      	cmp	r3, r2
 8001440:	d102      	bne.n	8001448 <lcd_scan_dir+0x124>
    {
        dirreg = 0x3600;    /* 对于5510, 和其他驱动ic的寄存器有差异 */
 8001442:	f44f 5358 	mov.w	r3, #13824	; 0x3600
 8001446:	81bb      	strh	r3, [r7, #12]
    }

     /* 9341 & 7789 要设置BGR位 */
    if (lcddev.id == 0x9341 || lcddev.id == 0x7789)
 8001448:	4b55      	ldr	r3, [pc, #340]	; (80015a0 <lcd_scan_dir+0x27c>)
 800144a:	889b      	ldrh	r3, [r3, #4]
 800144c:	f249 3241 	movw	r2, #37697	; 0x9341
 8001450:	4293      	cmp	r3, r2
 8001452:	d005      	beq.n	8001460 <lcd_scan_dir+0x13c>
 8001454:	4b52      	ldr	r3, [pc, #328]	; (80015a0 <lcd_scan_dir+0x27c>)
 8001456:	889b      	ldrh	r3, [r3, #4]
 8001458:	f247 7289 	movw	r2, #30601	; 0x7789
 800145c:	4293      	cmp	r3, r2
 800145e:	d103      	bne.n	8001468 <lcd_scan_dir+0x144>
    {
        regval |= 0x08;
 8001460:	89fb      	ldrh	r3, [r7, #14]
 8001462:	f043 0308 	orr.w	r3, r3, #8
 8001466:	81fb      	strh	r3, [r7, #14]
    }

    lcd_write_reg(dirreg, regval);
 8001468:	89fa      	ldrh	r2, [r7, #14]
 800146a:	89bb      	ldrh	r3, [r7, #12]
 800146c:	4611      	mov	r1, r2
 800146e:	4618      	mov	r0, r3
 8001470:	f7ff fe4a 	bl	8001108 <lcd_write_reg>

    if (lcddev.id != 0x1963)                    /* 1963不做坐标处理 */
 8001474:	4b4a      	ldr	r3, [pc, #296]	; (80015a0 <lcd_scan_dir+0x27c>)
 8001476:	889b      	ldrh	r3, [r3, #4]
 8001478:	f641 1263 	movw	r2, #6499	; 0x1963
 800147c:	4293      	cmp	r3, r2
 800147e:	d025      	beq.n	80014cc <lcd_scan_dir+0x1a8>
    {
        if (regval & 0x20)
 8001480:	89fb      	ldrh	r3, [r7, #14]
 8001482:	f003 0320 	and.w	r3, r3, #32
 8001486:	2b00      	cmp	r3, #0
 8001488:	d010      	beq.n	80014ac <lcd_scan_dir+0x188>
        {
            if (lcddev.width < lcddev.height)   /* 交换X,Y */
 800148a:	4b45      	ldr	r3, [pc, #276]	; (80015a0 <lcd_scan_dir+0x27c>)
 800148c:	881a      	ldrh	r2, [r3, #0]
 800148e:	4b44      	ldr	r3, [pc, #272]	; (80015a0 <lcd_scan_dir+0x27c>)
 8001490:	885b      	ldrh	r3, [r3, #2]
 8001492:	429a      	cmp	r2, r3
 8001494:	d21a      	bcs.n	80014cc <lcd_scan_dir+0x1a8>
            {
                temp = lcddev.width;
 8001496:	4b42      	ldr	r3, [pc, #264]	; (80015a0 <lcd_scan_dir+0x27c>)
 8001498:	881b      	ldrh	r3, [r3, #0]
 800149a:	817b      	strh	r3, [r7, #10]
                lcddev.width = lcddev.height;
 800149c:	4b40      	ldr	r3, [pc, #256]	; (80015a0 <lcd_scan_dir+0x27c>)
 800149e:	885a      	ldrh	r2, [r3, #2]
 80014a0:	4b3f      	ldr	r3, [pc, #252]	; (80015a0 <lcd_scan_dir+0x27c>)
 80014a2:	801a      	strh	r2, [r3, #0]
                lcddev.height = temp;
 80014a4:	4a3e      	ldr	r2, [pc, #248]	; (80015a0 <lcd_scan_dir+0x27c>)
 80014a6:	897b      	ldrh	r3, [r7, #10]
 80014a8:	8053      	strh	r3, [r2, #2]
 80014aa:	e00f      	b.n	80014cc <lcd_scan_dir+0x1a8>
            }
        }
        else
        {
            if (lcddev.width > lcddev.height)   /* 交换X,Y */
 80014ac:	4b3c      	ldr	r3, [pc, #240]	; (80015a0 <lcd_scan_dir+0x27c>)
 80014ae:	881a      	ldrh	r2, [r3, #0]
 80014b0:	4b3b      	ldr	r3, [pc, #236]	; (80015a0 <lcd_scan_dir+0x27c>)
 80014b2:	885b      	ldrh	r3, [r3, #2]
 80014b4:	429a      	cmp	r2, r3
 80014b6:	d909      	bls.n	80014cc <lcd_scan_dir+0x1a8>
            {
                temp = lcddev.width;
 80014b8:	4b39      	ldr	r3, [pc, #228]	; (80015a0 <lcd_scan_dir+0x27c>)
 80014ba:	881b      	ldrh	r3, [r3, #0]
 80014bc:	817b      	strh	r3, [r7, #10]
                lcddev.width = lcddev.height;
 80014be:	4b38      	ldr	r3, [pc, #224]	; (80015a0 <lcd_scan_dir+0x27c>)
 80014c0:	885a      	ldrh	r2, [r3, #2]
 80014c2:	4b37      	ldr	r3, [pc, #220]	; (80015a0 <lcd_scan_dir+0x27c>)
 80014c4:	801a      	strh	r2, [r3, #0]
                lcddev.height = temp;
 80014c6:	4a36      	ldr	r2, [pc, #216]	; (80015a0 <lcd_scan_dir+0x27c>)
 80014c8:	897b      	ldrh	r3, [r7, #10]
 80014ca:	8053      	strh	r3, [r2, #2]
            }
        }
    }

    /* 设置显示区域(开窗)大小 */
    if (lcddev.id == 0x5510)
 80014cc:	4b34      	ldr	r3, [pc, #208]	; (80015a0 <lcd_scan_dir+0x27c>)
 80014ce:	889b      	ldrh	r3, [r3, #4]
 80014d0:	f245 5210 	movw	r2, #21776	; 0x5510
 80014d4:	4293      	cmp	r3, r2
 80014d6:	d165      	bne.n	80015a4 <lcd_scan_dir+0x280>
    {
        lcd_wr_regno(lcddev.setxcmd);
 80014d8:	4b31      	ldr	r3, [pc, #196]	; (80015a0 <lcd_scan_dir+0x27c>)
 80014da:	895b      	ldrh	r3, [r3, #10]
 80014dc:	4618      	mov	r0, r3
 80014de:	f7ff fdff 	bl	80010e0 <lcd_wr_regno>
        lcd_wr_data(0);
 80014e2:	2000      	movs	r0, #0
 80014e4:	f7ff fde8 	bl	80010b8 <lcd_wr_data>
        lcd_wr_regno(lcddev.setxcmd + 1);
 80014e8:	4b2d      	ldr	r3, [pc, #180]	; (80015a0 <lcd_scan_dir+0x27c>)
 80014ea:	895b      	ldrh	r3, [r3, #10]
 80014ec:	3301      	adds	r3, #1
 80014ee:	b29b      	uxth	r3, r3
 80014f0:	4618      	mov	r0, r3
 80014f2:	f7ff fdf5 	bl	80010e0 <lcd_wr_regno>
        lcd_wr_data(0);
 80014f6:	2000      	movs	r0, #0
 80014f8:	f7ff fdde 	bl	80010b8 <lcd_wr_data>
        lcd_wr_regno(lcddev.setxcmd + 2);
 80014fc:	4b28      	ldr	r3, [pc, #160]	; (80015a0 <lcd_scan_dir+0x27c>)
 80014fe:	895b      	ldrh	r3, [r3, #10]
 8001500:	3302      	adds	r3, #2
 8001502:	b29b      	uxth	r3, r3
 8001504:	4618      	mov	r0, r3
 8001506:	f7ff fdeb 	bl	80010e0 <lcd_wr_regno>
        lcd_wr_data((lcddev.width - 1) >> 8);
 800150a:	4b25      	ldr	r3, [pc, #148]	; (80015a0 <lcd_scan_dir+0x27c>)
 800150c:	881b      	ldrh	r3, [r3, #0]
 800150e:	3b01      	subs	r3, #1
 8001510:	121b      	asrs	r3, r3, #8
 8001512:	b29b      	uxth	r3, r3
 8001514:	4618      	mov	r0, r3
 8001516:	f7ff fdcf 	bl	80010b8 <lcd_wr_data>
        lcd_wr_regno(lcddev.setxcmd + 3);
 800151a:	4b21      	ldr	r3, [pc, #132]	; (80015a0 <lcd_scan_dir+0x27c>)
 800151c:	895b      	ldrh	r3, [r3, #10]
 800151e:	3303      	adds	r3, #3
 8001520:	b29b      	uxth	r3, r3
 8001522:	4618      	mov	r0, r3
 8001524:	f7ff fddc 	bl	80010e0 <lcd_wr_regno>
        lcd_wr_data((lcddev.width - 1) & 0xFF);
 8001528:	4b1d      	ldr	r3, [pc, #116]	; (80015a0 <lcd_scan_dir+0x27c>)
 800152a:	881b      	ldrh	r3, [r3, #0]
 800152c:	3b01      	subs	r3, #1
 800152e:	b29b      	uxth	r3, r3
 8001530:	b2db      	uxtb	r3, r3
 8001532:	b29b      	uxth	r3, r3
 8001534:	4618      	mov	r0, r3
 8001536:	f7ff fdbf 	bl	80010b8 <lcd_wr_data>
        lcd_wr_regno(lcddev.setycmd);
 800153a:	4b19      	ldr	r3, [pc, #100]	; (80015a0 <lcd_scan_dir+0x27c>)
 800153c:	899b      	ldrh	r3, [r3, #12]
 800153e:	4618      	mov	r0, r3
 8001540:	f7ff fdce 	bl	80010e0 <lcd_wr_regno>
        lcd_wr_data(0);
 8001544:	2000      	movs	r0, #0
 8001546:	f7ff fdb7 	bl	80010b8 <lcd_wr_data>
        lcd_wr_regno(lcddev.setycmd + 1);
 800154a:	4b15      	ldr	r3, [pc, #84]	; (80015a0 <lcd_scan_dir+0x27c>)
 800154c:	899b      	ldrh	r3, [r3, #12]
 800154e:	3301      	adds	r3, #1
 8001550:	b29b      	uxth	r3, r3
 8001552:	4618      	mov	r0, r3
 8001554:	f7ff fdc4 	bl	80010e0 <lcd_wr_regno>
        lcd_wr_data(0);
 8001558:	2000      	movs	r0, #0
 800155a:	f7ff fdad 	bl	80010b8 <lcd_wr_data>
        lcd_wr_regno(lcddev.setycmd + 2);
 800155e:	4b10      	ldr	r3, [pc, #64]	; (80015a0 <lcd_scan_dir+0x27c>)
 8001560:	899b      	ldrh	r3, [r3, #12]
 8001562:	3302      	adds	r3, #2
 8001564:	b29b      	uxth	r3, r3
 8001566:	4618      	mov	r0, r3
 8001568:	f7ff fdba 	bl	80010e0 <lcd_wr_regno>
        lcd_wr_data((lcddev.height - 1) >> 8);
 800156c:	4b0c      	ldr	r3, [pc, #48]	; (80015a0 <lcd_scan_dir+0x27c>)
 800156e:	885b      	ldrh	r3, [r3, #2]
 8001570:	3b01      	subs	r3, #1
 8001572:	121b      	asrs	r3, r3, #8
 8001574:	b29b      	uxth	r3, r3
 8001576:	4618      	mov	r0, r3
 8001578:	f7ff fd9e 	bl	80010b8 <lcd_wr_data>
        lcd_wr_regno(lcddev.setycmd + 3);
 800157c:	4b08      	ldr	r3, [pc, #32]	; (80015a0 <lcd_scan_dir+0x27c>)
 800157e:	899b      	ldrh	r3, [r3, #12]
 8001580:	3303      	adds	r3, #3
 8001582:	b29b      	uxth	r3, r3
 8001584:	4618      	mov	r0, r3
 8001586:	f7ff fdab 	bl	80010e0 <lcd_wr_regno>
        lcd_wr_data((lcddev.height - 1) & 0xFF);
 800158a:	4b05      	ldr	r3, [pc, #20]	; (80015a0 <lcd_scan_dir+0x27c>)
 800158c:	885b      	ldrh	r3, [r3, #2]
 800158e:	3b01      	subs	r3, #1
 8001590:	b29b      	uxth	r3, r3
 8001592:	b2db      	uxtb	r3, r3
 8001594:	b29b      	uxth	r3, r3
 8001596:	4618      	mov	r0, r3
 8001598:	f7ff fd8e 	bl	80010b8 <lcd_wr_data>
        lcd_wr_data(0);
        lcd_wr_data(0);
        lcd_wr_data((lcddev.height - 1) >> 8);
        lcd_wr_data((lcddev.height - 1) & 0xFF);
    }
}
 800159c:	e03a      	b.n	8001614 <lcd_scan_dir+0x2f0>
 800159e:	bf00      	nop
 80015a0:	200000cc 	.word	0x200000cc
        lcd_wr_regno(lcddev.setxcmd);
 80015a4:	4b1d      	ldr	r3, [pc, #116]	; (800161c <lcd_scan_dir+0x2f8>)
 80015a6:	895b      	ldrh	r3, [r3, #10]
 80015a8:	4618      	mov	r0, r3
 80015aa:	f7ff fd99 	bl	80010e0 <lcd_wr_regno>
        lcd_wr_data(0);
 80015ae:	2000      	movs	r0, #0
 80015b0:	f7ff fd82 	bl	80010b8 <lcd_wr_data>
        lcd_wr_data(0);
 80015b4:	2000      	movs	r0, #0
 80015b6:	f7ff fd7f 	bl	80010b8 <lcd_wr_data>
        lcd_wr_data((lcddev.width - 1) >> 8);
 80015ba:	4b18      	ldr	r3, [pc, #96]	; (800161c <lcd_scan_dir+0x2f8>)
 80015bc:	881b      	ldrh	r3, [r3, #0]
 80015be:	3b01      	subs	r3, #1
 80015c0:	121b      	asrs	r3, r3, #8
 80015c2:	b29b      	uxth	r3, r3
 80015c4:	4618      	mov	r0, r3
 80015c6:	f7ff fd77 	bl	80010b8 <lcd_wr_data>
        lcd_wr_data((lcddev.width - 1) & 0xFF);
 80015ca:	4b14      	ldr	r3, [pc, #80]	; (800161c <lcd_scan_dir+0x2f8>)
 80015cc:	881b      	ldrh	r3, [r3, #0]
 80015ce:	3b01      	subs	r3, #1
 80015d0:	b29b      	uxth	r3, r3
 80015d2:	b2db      	uxtb	r3, r3
 80015d4:	b29b      	uxth	r3, r3
 80015d6:	4618      	mov	r0, r3
 80015d8:	f7ff fd6e 	bl	80010b8 <lcd_wr_data>
        lcd_wr_regno(lcddev.setycmd);
 80015dc:	4b0f      	ldr	r3, [pc, #60]	; (800161c <lcd_scan_dir+0x2f8>)
 80015de:	899b      	ldrh	r3, [r3, #12]
 80015e0:	4618      	mov	r0, r3
 80015e2:	f7ff fd7d 	bl	80010e0 <lcd_wr_regno>
        lcd_wr_data(0);
 80015e6:	2000      	movs	r0, #0
 80015e8:	f7ff fd66 	bl	80010b8 <lcd_wr_data>
        lcd_wr_data(0);
 80015ec:	2000      	movs	r0, #0
 80015ee:	f7ff fd63 	bl	80010b8 <lcd_wr_data>
        lcd_wr_data((lcddev.height - 1) >> 8);
 80015f2:	4b0a      	ldr	r3, [pc, #40]	; (800161c <lcd_scan_dir+0x2f8>)
 80015f4:	885b      	ldrh	r3, [r3, #2]
 80015f6:	3b01      	subs	r3, #1
 80015f8:	121b      	asrs	r3, r3, #8
 80015fa:	b29b      	uxth	r3, r3
 80015fc:	4618      	mov	r0, r3
 80015fe:	f7ff fd5b 	bl	80010b8 <lcd_wr_data>
        lcd_wr_data((lcddev.height - 1) & 0xFF);
 8001602:	4b06      	ldr	r3, [pc, #24]	; (800161c <lcd_scan_dir+0x2f8>)
 8001604:	885b      	ldrh	r3, [r3, #2]
 8001606:	3b01      	subs	r3, #1
 8001608:	b29b      	uxth	r3, r3
 800160a:	b2db      	uxtb	r3, r3
 800160c:	b29b      	uxth	r3, r3
 800160e:	4618      	mov	r0, r3
 8001610:	f7ff fd52 	bl	80010b8 <lcd_wr_data>
}
 8001614:	bf00      	nop
 8001616:	3710      	adds	r7, #16
 8001618:	46bd      	mov	sp, r7
 800161a:	bd80      	pop	{r7, pc}
 800161c:	200000cc 	.word	0x200000cc

08001620 <lcd_ssd_backlight_set>:
 * @brief       SSD1963背光亮度设置函数
 * @param       pwm: 背光等级,0~100.越大越亮.
 * @retval      无
 */
void lcd_ssd_backlight_set(uint8_t pwm)
{
 8001620:	b580      	push	{r7, lr}
 8001622:	b082      	sub	sp, #8
 8001624:	af00      	add	r7, sp, #0
 8001626:	4603      	mov	r3, r0
 8001628:	71fb      	strb	r3, [r7, #7]
    lcd_wr_regno(0xBE);         /* 配置PWM输出 */
 800162a:	20be      	movs	r0, #190	; 0xbe
 800162c:	f7ff fd58 	bl	80010e0 <lcd_wr_regno>
    lcd_wr_data(0x05);          /* 1设置PWM频率 */
 8001630:	2005      	movs	r0, #5
 8001632:	f7ff fd41 	bl	80010b8 <lcd_wr_data>
    lcd_wr_data(pwm * 2.55);    /* 2设置PWM占空比 */
 8001636:	79fb      	ldrb	r3, [r7, #7]
 8001638:	4618      	mov	r0, r3
 800163a:	f7ff f841 	bl	80006c0 <__aeabi_i2d>
 800163e:	a310      	add	r3, pc, #64	; (adr r3, 8001680 <lcd_ssd_backlight_set+0x60>)
 8001640:	e9d3 2300 	ldrd	r2, r3, [r3]
 8001644:	f7fe fdc0 	bl	80001c8 <__aeabi_dmul>
 8001648:	4602      	mov	r2, r0
 800164a:	460b      	mov	r3, r1
 800164c:	4610      	mov	r0, r2
 800164e:	4619      	mov	r1, r3
 8001650:	f7ff f8a0 	bl	8000794 <__aeabi_d2uiz>
 8001654:	4603      	mov	r3, r0
 8001656:	b29b      	uxth	r3, r3
 8001658:	4618      	mov	r0, r3
 800165a:	f7ff fd2d 	bl	80010b8 <lcd_wr_data>
    lcd_wr_data(0x01);          /* 3设置C */
 800165e:	2001      	movs	r0, #1
 8001660:	f7ff fd2a 	bl	80010b8 <lcd_wr_data>
    lcd_wr_data(0xFF);          /* 4设置D */
 8001664:	20ff      	movs	r0, #255	; 0xff
 8001666:	f7ff fd27 	bl	80010b8 <lcd_wr_data>
    lcd_wr_data(0x00);          /* 5设置E */
 800166a:	2000      	movs	r0, #0
 800166c:	f7ff fd24 	bl	80010b8 <lcd_wr_data>
    lcd_wr_data(0x00);          /* 6设置F */
 8001670:	2000      	movs	r0, #0
 8001672:	f7ff fd21 	bl	80010b8 <lcd_wr_data>
}
 8001676:	bf00      	nop
 8001678:	3708      	adds	r7, #8
 800167a:	46bd      	mov	sp, r7
 800167c:	bd80      	pop	{r7, pc}
 800167e:	bf00      	nop
 8001680:	66666666 	.word	0x66666666
 8001684:	40046666 	.word	0x40046666

08001688 <lcd_display_dir>:
 * @brief       设置LCD显示方向
 * @param       dir:0,竖屏; 1,横屏
 * @retval      无
 */
void lcd_display_dir(uint8_t dir)
{
 8001688:	b580      	push	{r7, lr}
 800168a:	b082      	sub	sp, #8
 800168c:	af00      	add	r7, sp, #0
 800168e:	4603      	mov	r3, r0
 8001690:	71fb      	strb	r3, [r7, #7]
    lcddev.dir = dir;   /* 竖屏/横屏 */
 8001692:	4a58      	ldr	r2, [pc, #352]	; (80017f4 <lcd_display_dir+0x16c>)
 8001694:	79fb      	ldrb	r3, [r7, #7]
 8001696:	7193      	strb	r3, [r2, #6]

    if (dir == 0)       /* 竖屏 */
 8001698:	79fb      	ldrb	r3, [r7, #7]
 800169a:	2b00      	cmp	r3, #0
 800169c:	d151      	bne.n	8001742 <lcd_display_dir+0xba>
    {
        lcddev.width = 240;
 800169e:	4b55      	ldr	r3, [pc, #340]	; (80017f4 <lcd_display_dir+0x16c>)
 80016a0:	22f0      	movs	r2, #240	; 0xf0
 80016a2:	801a      	strh	r2, [r3, #0]
        lcddev.height = 320;
 80016a4:	4b53      	ldr	r3, [pc, #332]	; (80017f4 <lcd_display_dir+0x16c>)
 80016a6:	f44f 72a0 	mov.w	r2, #320	; 0x140
 80016aa:	805a      	strh	r2, [r3, #2]

        if (lcddev.id == 0x5510)
 80016ac:	4b51      	ldr	r3, [pc, #324]	; (80017f4 <lcd_display_dir+0x16c>)
 80016ae:	889b      	ldrh	r3, [r3, #4]
 80016b0:	f245 5210 	movw	r2, #21776	; 0x5510
 80016b4:	4293      	cmp	r3, r2
 80016b6:	d114      	bne.n	80016e2 <lcd_display_dir+0x5a>
        {
            lcddev.wramcmd = 0x2C00;
 80016b8:	4b4e      	ldr	r3, [pc, #312]	; (80017f4 <lcd_display_dir+0x16c>)
 80016ba:	f44f 5230 	mov.w	r2, #11264	; 0x2c00
 80016be:	811a      	strh	r2, [r3, #8]
            lcddev.setxcmd = 0x2A00;
 80016c0:	4b4c      	ldr	r3, [pc, #304]	; (80017f4 <lcd_display_dir+0x16c>)
 80016c2:	f44f 5228 	mov.w	r2, #10752	; 0x2a00
 80016c6:	815a      	strh	r2, [r3, #10]
            lcddev.setycmd = 0x2B00;
 80016c8:	4b4a      	ldr	r3, [pc, #296]	; (80017f4 <lcd_display_dir+0x16c>)
 80016ca:	f44f 522c 	mov.w	r2, #11008	; 0x2b00
 80016ce:	819a      	strh	r2, [r3, #12]
            lcddev.width = 480;
 80016d0:	4b48      	ldr	r3, [pc, #288]	; (80017f4 <lcd_display_dir+0x16c>)
 80016d2:	f44f 72f0 	mov.w	r2, #480	; 0x1e0
 80016d6:	801a      	strh	r2, [r3, #0]
            lcddev.height = 800;
 80016d8:	4b46      	ldr	r3, [pc, #280]	; (80017f4 <lcd_display_dir+0x16c>)
 80016da:	f44f 7248 	mov.w	r2, #800	; 0x320
 80016de:	805a      	strh	r2, [r3, #2]
 80016e0:	e020      	b.n	8001724 <lcd_display_dir+0x9c>
        }
        else if (lcddev.id == 0x1963)
 80016e2:	4b44      	ldr	r3, [pc, #272]	; (80017f4 <lcd_display_dir+0x16c>)
 80016e4:	889b      	ldrh	r3, [r3, #4]
 80016e6:	f641 1263 	movw	r2, #6499	; 0x1963
 80016ea:	4293      	cmp	r3, r2
 80016ec:	d111      	bne.n	8001712 <lcd_display_dir+0x8a>
        {
            lcddev.wramcmd = 0x2C;  /* 设置写入GRAM的指令 */
 80016ee:	4b41      	ldr	r3, [pc, #260]	; (80017f4 <lcd_display_dir+0x16c>)
 80016f0:	222c      	movs	r2, #44	; 0x2c
 80016f2:	811a      	strh	r2, [r3, #8]
            lcddev.setxcmd = 0x2B;  /* 设置写X坐标指令 */
 80016f4:	4b3f      	ldr	r3, [pc, #252]	; (80017f4 <lcd_display_dir+0x16c>)
 80016f6:	222b      	movs	r2, #43	; 0x2b
 80016f8:	815a      	strh	r2, [r3, #10]
            lcddev.setycmd = 0x2A;  /* 设置写Y坐标指令 */
 80016fa:	4b3e      	ldr	r3, [pc, #248]	; (80017f4 <lcd_display_dir+0x16c>)
 80016fc:	222a      	movs	r2, #42	; 0x2a
 80016fe:	819a      	strh	r2, [r3, #12]
            lcddev.width = 480;     /* 设置宽度480 */
 8001700:	4b3c      	ldr	r3, [pc, #240]	; (80017f4 <lcd_display_dir+0x16c>)
 8001702:	f44f 72f0 	mov.w	r2, #480	; 0x1e0
 8001706:	801a      	strh	r2, [r3, #0]
            lcddev.height = 800;    /* 设置高度800 */
 8001708:	4b3a      	ldr	r3, [pc, #232]	; (80017f4 <lcd_display_dir+0x16c>)
 800170a:	f44f 7248 	mov.w	r2, #800	; 0x320
 800170e:	805a      	strh	r2, [r3, #2]
 8001710:	e008      	b.n	8001724 <lcd_display_dir+0x9c>
        }
        else   /* 其他IC, 包括: 9341 / 5310 / 7789等IC */
        {
            lcddev.wramcmd = 0x2C;
 8001712:	4b38      	ldr	r3, [pc, #224]	; (80017f4 <lcd_display_dir+0x16c>)
 8001714:	222c      	movs	r2, #44	; 0x2c
 8001716:	811a      	strh	r2, [r3, #8]
            lcddev.setxcmd = 0x2A;
 8001718:	4b36      	ldr	r3, [pc, #216]	; (80017f4 <lcd_display_dir+0x16c>)
 800171a:	222a      	movs	r2, #42	; 0x2a
 800171c:	815a      	strh	r2, [r3, #10]
            lcddev.setycmd = 0x2B;
 800171e:	4b35      	ldr	r3, [pc, #212]	; (80017f4 <lcd_display_dir+0x16c>)
 8001720:	222b      	movs	r2, #43	; 0x2b
 8001722:	819a      	strh	r2, [r3, #12]
        }

        if (lcddev.id == 0x5310)    /* 如果是5310 则表示是 320*480分辨率 */
 8001724:	4b33      	ldr	r3, [pc, #204]	; (80017f4 <lcd_display_dir+0x16c>)
 8001726:	889b      	ldrh	r3, [r3, #4]
 8001728:	f245 3210 	movw	r2, #21264	; 0x5310
 800172c:	4293      	cmp	r3, r2
 800172e:	d159      	bne.n	80017e4 <lcd_display_dir+0x15c>
        {
            lcddev.width = 320;
 8001730:	4b30      	ldr	r3, [pc, #192]	; (80017f4 <lcd_display_dir+0x16c>)
 8001732:	f44f 72a0 	mov.w	r2, #320	; 0x140
 8001736:	801a      	strh	r2, [r3, #0]
            lcddev.height = 480;
 8001738:	4b2e      	ldr	r3, [pc, #184]	; (80017f4 <lcd_display_dir+0x16c>)
 800173a:	f44f 72f0 	mov.w	r2, #480	; 0x1e0
 800173e:	805a      	strh	r2, [r3, #2]
 8001740:	e050      	b.n	80017e4 <lcd_display_dir+0x15c>
        }         
    }/*dir = 0*/
    else        /* 横屏 */
    {
        lcddev.width = 320;         /* 默认宽度 */
 8001742:	4b2c      	ldr	r3, [pc, #176]	; (80017f4 <lcd_display_dir+0x16c>)
 8001744:	f44f 72a0 	mov.w	r2, #320	; 0x140
 8001748:	801a      	strh	r2, [r3, #0]
        lcddev.height = 240;        /* 默认高度 */
 800174a:	4b2a      	ldr	r3, [pc, #168]	; (80017f4 <lcd_display_dir+0x16c>)
 800174c:	22f0      	movs	r2, #240	; 0xf0
 800174e:	805a      	strh	r2, [r3, #2]

        if (lcddev.id == 0x5510)
 8001750:	4b28      	ldr	r3, [pc, #160]	; (80017f4 <lcd_display_dir+0x16c>)
 8001752:	889b      	ldrh	r3, [r3, #4]
 8001754:	f245 5210 	movw	r2, #21776	; 0x5510
 8001758:	4293      	cmp	r3, r2
 800175a:	d114      	bne.n	8001786 <lcd_display_dir+0xfe>
        {
            lcddev.wramcmd = 0x2C00;
 800175c:	4b25      	ldr	r3, [pc, #148]	; (80017f4 <lcd_display_dir+0x16c>)
 800175e:	f44f 5230 	mov.w	r2, #11264	; 0x2c00
 8001762:	811a      	strh	r2, [r3, #8]
            lcddev.setxcmd = 0x2A00;
 8001764:	4b23      	ldr	r3, [pc, #140]	; (80017f4 <lcd_display_dir+0x16c>)
 8001766:	f44f 5228 	mov.w	r2, #10752	; 0x2a00
 800176a:	815a      	strh	r2, [r3, #10]
            lcddev.setycmd = 0x2B00;
 800176c:	4b21      	ldr	r3, [pc, #132]	; (80017f4 <lcd_display_dir+0x16c>)
 800176e:	f44f 522c 	mov.w	r2, #11008	; 0x2b00
 8001772:	819a      	strh	r2, [r3, #12]
            lcddev.width = 800;
 8001774:	4b1f      	ldr	r3, [pc, #124]	; (80017f4 <lcd_display_dir+0x16c>)
 8001776:	f44f 7248 	mov.w	r2, #800	; 0x320
 800177a:	801a      	strh	r2, [r3, #0]
            lcddev.height = 480;
 800177c:	4b1d      	ldr	r3, [pc, #116]	; (80017f4 <lcd_display_dir+0x16c>)
 800177e:	f44f 72f0 	mov.w	r2, #480	; 0x1e0
 8001782:	805a      	strh	r2, [r3, #2]
 8001784:	e020      	b.n	80017c8 <lcd_display_dir+0x140>
        }
        else if (lcddev.id == 0x1963)
 8001786:	4b1b      	ldr	r3, [pc, #108]	; (80017f4 <lcd_display_dir+0x16c>)
 8001788:	889b      	ldrh	r3, [r3, #4]
 800178a:	f641 1263 	movw	r2, #6499	; 0x1963
 800178e:	4293      	cmp	r3, r2
 8001790:	d111      	bne.n	80017b6 <lcd_display_dir+0x12e>
        {
            lcddev.wramcmd = 0x2C;  /* 设置写入GRAM的指令 */
 8001792:	4b18      	ldr	r3, [pc, #96]	; (80017f4 <lcd_display_dir+0x16c>)
 8001794:	222c      	movs	r2, #44	; 0x2c
 8001796:	811a      	strh	r2, [r3, #8]
            lcddev.setxcmd = 0x2A;  /* 设置写X坐标指令 */
 8001798:	4b16      	ldr	r3, [pc, #88]	; (80017f4 <lcd_display_dir+0x16c>)
 800179a:	222a      	movs	r2, #42	; 0x2a
 800179c:	815a      	strh	r2, [r3, #10]
            lcddev.setycmd = 0x2B;  /* 设置写Y坐标指令 */
 800179e:	4b15      	ldr	r3, [pc, #84]	; (80017f4 <lcd_display_dir+0x16c>)
 80017a0:	222b      	movs	r2, #43	; 0x2b
 80017a2:	819a      	strh	r2, [r3, #12]
            lcddev.width = 800;     /* 设置宽度800 */
 80017a4:	4b13      	ldr	r3, [pc, #76]	; (80017f4 <lcd_display_dir+0x16c>)
 80017a6:	f44f 7248 	mov.w	r2, #800	; 0x320
 80017aa:	801a      	strh	r2, [r3, #0]
            lcddev.height = 480;    /* 设置高度480 */
 80017ac:	4b11      	ldr	r3, [pc, #68]	; (80017f4 <lcd_display_dir+0x16c>)
 80017ae:	f44f 72f0 	mov.w	r2, #480	; 0x1e0
 80017b2:	805a      	strh	r2, [r3, #2]
 80017b4:	e008      	b.n	80017c8 <lcd_display_dir+0x140>
        }
        else   /* 其他IC, 包括:9341/5310/7789等IC */
        {
            lcddev.wramcmd = 0x2C;
 80017b6:	4b0f      	ldr	r3, [pc, #60]	; (80017f4 <lcd_display_dir+0x16c>)
 80017b8:	222c      	movs	r2, #44	; 0x2c
 80017ba:	811a      	strh	r2, [r3, #8]
            lcddev.setxcmd = 0x2A;
 80017bc:	4b0d      	ldr	r3, [pc, #52]	; (80017f4 <lcd_display_dir+0x16c>)
 80017be:	222a      	movs	r2, #42	; 0x2a
 80017c0:	815a      	strh	r2, [r3, #10]
            lcddev.setycmd = 0x2B;
 80017c2:	4b0c      	ldr	r3, [pc, #48]	; (80017f4 <lcd_display_dir+0x16c>)
 80017c4:	222b      	movs	r2, #43	; 0x2b
 80017c6:	819a      	strh	r2, [r3, #12]
        }

        if (lcddev.id == 0x5310)
 80017c8:	4b0a      	ldr	r3, [pc, #40]	; (80017f4 <lcd_display_dir+0x16c>)
 80017ca:	889b      	ldrh	r3, [r3, #4]
 80017cc:	f245 3210 	movw	r2, #21264	; 0x5310
 80017d0:	4293      	cmp	r3, r2
 80017d2:	d107      	bne.n	80017e4 <lcd_display_dir+0x15c>
        {
            lcddev.width = 480;
 80017d4:	4b07      	ldr	r3, [pc, #28]	; (80017f4 <lcd_display_dir+0x16c>)
 80017d6:	f44f 72f0 	mov.w	r2, #480	; 0x1e0
 80017da:	801a      	strh	r2, [r3, #0]
            lcddev.height = 320;
 80017dc:	4b05      	ldr	r3, [pc, #20]	; (80017f4 <lcd_display_dir+0x16c>)
 80017de:	f44f 72a0 	mov.w	r2, #320	; 0x140
 80017e2:	805a      	strh	r2, [r3, #2]
        }
    }

    lcd_scan_dir(DFT_SCAN_DIR);     /* 默认扫描方向 */
 80017e4:	2000      	movs	r0, #0
 80017e6:	f7ff fd9d 	bl	8001324 <lcd_scan_dir>
}
 80017ea:	bf00      	nop
 80017ec:	3708      	adds	r7, #8
 80017ee:	46bd      	mov	sp, r7
 80017f0:	bd80      	pop	{r7, pc}
 80017f2:	bf00      	nop
 80017f4:	200000cc 	.word	0x200000cc

080017f8 <lcd_init>:
 *
 * @param       无
 * @retval      无
 */
void lcd_init(void)
{
 80017f8:	b580      	push	{r7, lr}
 80017fa:	b088      	sub	sp, #32
 80017fc:	af00      	add	r7, sp, #0
    FSMC_NORSRAM_TimingTypeDef fsmc_write_handle;


    /* 尝试9341 ID的读取 */
    lcd_wr_regno(0xD3);
 80017fe:	20d3      	movs	r0, #211	; 0xd3
 8001800:	f7ff fc6e 	bl	80010e0 <lcd_wr_regno>
    lcddev.id = lcd_rd_data();  /* dummy read */
 8001804:	f7ff fc96 	bl	8001134 <lcd_rd_data>
 8001808:	4603      	mov	r3, r0
 800180a:	461a      	mov	r2, r3
 800180c:	4b89      	ldr	r3, [pc, #548]	; (8001a34 <lcd_init+0x23c>)
 800180e:	809a      	strh	r2, [r3, #4]
    lcddev.id = lcd_rd_data();  /* 读到0x00 */
 8001810:	f7ff fc90 	bl	8001134 <lcd_rd_data>
 8001814:	4603      	mov	r3, r0
 8001816:	461a      	mov	r2, r3
 8001818:	4b86      	ldr	r3, [pc, #536]	; (8001a34 <lcd_init+0x23c>)
 800181a:	809a      	strh	r2, [r3, #4]
    lcddev.id = lcd_rd_data();  /* 读取93 */
 800181c:	f7ff fc8a 	bl	8001134 <lcd_rd_data>
 8001820:	4603      	mov	r3, r0
 8001822:	461a      	mov	r2, r3
 8001824:	4b83      	ldr	r3, [pc, #524]	; (8001a34 <lcd_init+0x23c>)
 8001826:	809a      	strh	r2, [r3, #4]
    lcddev.id <<= 8;
 8001828:	4b82      	ldr	r3, [pc, #520]	; (8001a34 <lcd_init+0x23c>)
 800182a:	889b      	ldrh	r3, [r3, #4]
 800182c:	021b      	lsls	r3, r3, #8
 800182e:	b29a      	uxth	r2, r3
 8001830:	4b80      	ldr	r3, [pc, #512]	; (8001a34 <lcd_init+0x23c>)
 8001832:	809a      	strh	r2, [r3, #4]
    lcddev.id |= lcd_rd_data(); /* 读取41 */
 8001834:	f7ff fc7e 	bl	8001134 <lcd_rd_data>
 8001838:	4603      	mov	r3, r0
 800183a:	461a      	mov	r2, r3
 800183c:	4b7d      	ldr	r3, [pc, #500]	; (8001a34 <lcd_init+0x23c>)
 800183e:	889b      	ldrh	r3, [r3, #4]
 8001840:	4313      	orrs	r3, r2
 8001842:	b29a      	uxth	r2, r3
 8001844:	4b7b      	ldr	r3, [pc, #492]	; (8001a34 <lcd_init+0x23c>)
 8001846:	809a      	strh	r2, [r3, #4]

    if (lcddev.id != 0x9341)    /* 不是 9341 , 尝试看看是不是 ST7789 */
 8001848:	4b7a      	ldr	r3, [pc, #488]	; (8001a34 <lcd_init+0x23c>)
 800184a:	889b      	ldrh	r3, [r3, #4]
 800184c:	f249 3241 	movw	r2, #37697	; 0x9341
 8001850:	4293      	cmp	r3, r2
 8001852:	f000 80ca 	beq.w	80019ea <lcd_init+0x1f2>
    {
        lcd_wr_regno(0x04);
 8001856:	2004      	movs	r0, #4
 8001858:	f7ff fc42 	bl	80010e0 <lcd_wr_regno>
        lcddev.id = lcd_rd_data();      /* dummy read */
 800185c:	f7ff fc6a 	bl	8001134 <lcd_rd_data>
 8001860:	4603      	mov	r3, r0
 8001862:	461a      	mov	r2, r3
 8001864:	4b73      	ldr	r3, [pc, #460]	; (8001a34 <lcd_init+0x23c>)
 8001866:	809a      	strh	r2, [r3, #4]
        lcddev.id = lcd_rd_data();      /* 读到0x85 */
 8001868:	f7ff fc64 	bl	8001134 <lcd_rd_data>
 800186c:	4603      	mov	r3, r0
 800186e:	461a      	mov	r2, r3
 8001870:	4b70      	ldr	r3, [pc, #448]	; (8001a34 <lcd_init+0x23c>)
 8001872:	809a      	strh	r2, [r3, #4]
        lcddev.id = lcd_rd_data();      /* 读取0x85 */
 8001874:	f7ff fc5e 	bl	8001134 <lcd_rd_data>
 8001878:	4603      	mov	r3, r0
 800187a:	461a      	mov	r2, r3
 800187c:	4b6d      	ldr	r3, [pc, #436]	; (8001a34 <lcd_init+0x23c>)
 800187e:	809a      	strh	r2, [r3, #4]
        lcddev.id <<= 8;
 8001880:	4b6c      	ldr	r3, [pc, #432]	; (8001a34 <lcd_init+0x23c>)
 8001882:	889b      	ldrh	r3, [r3, #4]
 8001884:	021b      	lsls	r3, r3, #8
 8001886:	b29a      	uxth	r2, r3
 8001888:	4b6a      	ldr	r3, [pc, #424]	; (8001a34 <lcd_init+0x23c>)
 800188a:	809a      	strh	r2, [r3, #4]
        lcddev.id |= lcd_rd_data();     /* 读取0x52 */
 800188c:	f7ff fc52 	bl	8001134 <lcd_rd_data>
 8001890:	4603      	mov	r3, r0
 8001892:	461a      	mov	r2, r3
 8001894:	4b67      	ldr	r3, [pc, #412]	; (8001a34 <lcd_init+0x23c>)
 8001896:	889b      	ldrh	r3, [r3, #4]
 8001898:	4313      	orrs	r3, r2
 800189a:	b29a      	uxth	r2, r3
 800189c:	4b65      	ldr	r3, [pc, #404]	; (8001a34 <lcd_init+0x23c>)
 800189e:	809a      	strh	r2, [r3, #4]
        
        if (lcddev.id == 0x8552)        /* 将8552的ID转换成7789 */
 80018a0:	4b64      	ldr	r3, [pc, #400]	; (8001a34 <lcd_init+0x23c>)
 80018a2:	889b      	ldrh	r3, [r3, #4]
 80018a4:	f248 5252 	movw	r2, #34130	; 0x8552
 80018a8:	4293      	cmp	r3, r2
 80018aa:	d103      	bne.n	80018b4 <lcd_init+0xbc>
        {
            lcddev.id = 0x7789;
 80018ac:	4b61      	ldr	r3, [pc, #388]	; (8001a34 <lcd_init+0x23c>)
 80018ae:	f247 7289 	movw	r2, #30601	; 0x7789
 80018b2:	809a      	strh	r2, [r3, #4]
        }

        if (lcddev.id != 0x7789)        /* 也不是ST7789, 尝试是不是 NT35310 */
 80018b4:	4b5f      	ldr	r3, [pc, #380]	; (8001a34 <lcd_init+0x23c>)
 80018b6:	889b      	ldrh	r3, [r3, #4]
 80018b8:	f247 7289 	movw	r2, #30601	; 0x7789
 80018bc:	4293      	cmp	r3, r2
 80018be:	f000 8094 	beq.w	80019ea <lcd_init+0x1f2>
        {
            lcd_wr_regno(0xD4);
 80018c2:	20d4      	movs	r0, #212	; 0xd4
 80018c4:	f7ff fc0c 	bl	80010e0 <lcd_wr_regno>
            lcddev.id = lcd_rd_data();  /* dummy read */
 80018c8:	f7ff fc34 	bl	8001134 <lcd_rd_data>
 80018cc:	4603      	mov	r3, r0
 80018ce:	461a      	mov	r2, r3
 80018d0:	4b58      	ldr	r3, [pc, #352]	; (8001a34 <lcd_init+0x23c>)
 80018d2:	809a      	strh	r2, [r3, #4]
            lcddev.id = lcd_rd_data();  /* 读回0x01 */
 80018d4:	f7ff fc2e 	bl	8001134 <lcd_rd_data>
 80018d8:	4603      	mov	r3, r0
 80018da:	461a      	mov	r2, r3
 80018dc:	4b55      	ldr	r3, [pc, #340]	; (8001a34 <lcd_init+0x23c>)
 80018de:	809a      	strh	r2, [r3, #4]
            lcddev.id = lcd_rd_data();  /* 读回0x53 */
 80018e0:	f7ff fc28 	bl	8001134 <lcd_rd_data>
 80018e4:	4603      	mov	r3, r0
 80018e6:	461a      	mov	r2, r3
 80018e8:	4b52      	ldr	r3, [pc, #328]	; (8001a34 <lcd_init+0x23c>)
 80018ea:	809a      	strh	r2, [r3, #4]
            lcddev.id <<= 8;
 80018ec:	4b51      	ldr	r3, [pc, #324]	; (8001a34 <lcd_init+0x23c>)
 80018ee:	889b      	ldrh	r3, [r3, #4]
 80018f0:	021b      	lsls	r3, r3, #8
 80018f2:	b29a      	uxth	r2, r3
 80018f4:	4b4f      	ldr	r3, [pc, #316]	; (8001a34 <lcd_init+0x23c>)
 80018f6:	809a      	strh	r2, [r3, #4]
            lcddev.id |= lcd_rd_data(); /* 这里读回0x10 */
 80018f8:	f7ff fc1c 	bl	8001134 <lcd_rd_data>
 80018fc:	4603      	mov	r3, r0
 80018fe:	461a      	mov	r2, r3
 8001900:	4b4c      	ldr	r3, [pc, #304]	; (8001a34 <lcd_init+0x23c>)
 8001902:	889b      	ldrh	r3, [r3, #4]
 8001904:	4313      	orrs	r3, r2
 8001906:	b29a      	uxth	r2, r3
 8001908:	4b4a      	ldr	r3, [pc, #296]	; (8001a34 <lcd_init+0x23c>)
 800190a:	809a      	strh	r2, [r3, #4]

            if (lcddev.id != 0x5310)    /* 也不是NT35310,尝试看看是不是NT35510 */
 800190c:	4b49      	ldr	r3, [pc, #292]	; (8001a34 <lcd_init+0x23c>)
 800190e:	889b      	ldrh	r3, [r3, #4]
 8001910:	f245 3210 	movw	r2, #21264	; 0x5310
 8001914:	4293      	cmp	r3, r2
 8001916:	d068      	beq.n	80019ea <lcd_init+0x1f2>
            {
                /* 发送密钥（厂家提供） */
                lcd_write_reg(0xF000, 0x0055);
 8001918:	2155      	movs	r1, #85	; 0x55
 800191a:	f44f 4070 	mov.w	r0, #61440	; 0xf000
 800191e:	f7ff fbf3 	bl	8001108 <lcd_write_reg>
                lcd_write_reg(0xF001, 0x00AA);
 8001922:	21aa      	movs	r1, #170	; 0xaa
 8001924:	f24f 0001 	movw	r0, #61441	; 0xf001
 8001928:	f7ff fbee 	bl	8001108 <lcd_write_reg>
                lcd_write_reg(0xF002, 0x0052);
 800192c:	2152      	movs	r1, #82	; 0x52
 800192e:	f24f 0002 	movw	r0, #61442	; 0xf002
 8001932:	f7ff fbe9 	bl	8001108 <lcd_write_reg>
                lcd_write_reg(0xF003, 0x0008);
 8001936:	2108      	movs	r1, #8
 8001938:	f24f 0003 	movw	r0, #61443	; 0xf003
 800193c:	f7ff fbe4 	bl	8001108 <lcd_write_reg>
                lcd_write_reg(0xF004, 0x0001);
 8001940:	2101      	movs	r1, #1
 8001942:	f24f 0004 	movw	r0, #61444	; 0xf004
 8001946:	f7ff fbdf 	bl	8001108 <lcd_write_reg>
                
                lcd_wr_regno(0xC500);       /* 读取ID低八位 */
 800194a:	f44f 4045 	mov.w	r0, #50432	; 0xc500
 800194e:	f7ff fbc7 	bl	80010e0 <lcd_wr_regno>
                lcddev.id = lcd_rd_data();  /* 读回0x80 */
 8001952:	f7ff fbef 	bl	8001134 <lcd_rd_data>
 8001956:	4603      	mov	r3, r0
 8001958:	461a      	mov	r2, r3
 800195a:	4b36      	ldr	r3, [pc, #216]	; (8001a34 <lcd_init+0x23c>)
 800195c:	809a      	strh	r2, [r3, #4]
                lcddev.id <<= 8;
 800195e:	4b35      	ldr	r3, [pc, #212]	; (8001a34 <lcd_init+0x23c>)
 8001960:	889b      	ldrh	r3, [r3, #4]
 8001962:	021b      	lsls	r3, r3, #8
 8001964:	b29a      	uxth	r2, r3
 8001966:	4b33      	ldr	r3, [pc, #204]	; (8001a34 <lcd_init+0x23c>)
 8001968:	809a      	strh	r2, [r3, #4]

                lcd_wr_regno(0xC501);       /* 读取ID高八位 */
 800196a:	f24c 5001 	movw	r0, #50433	; 0xc501
 800196e:	f7ff fbb7 	bl	80010e0 <lcd_wr_regno>
                lcddev.id |= lcd_rd_data(); /* 读回0x00 */
 8001972:	f7ff fbdf 	bl	8001134 <lcd_rd_data>
 8001976:	4603      	mov	r3, r0
 8001978:	461a      	mov	r2, r3
 800197a:	4b2e      	ldr	r3, [pc, #184]	; (8001a34 <lcd_init+0x23c>)
 800197c:	889b      	ldrh	r3, [r3, #4]
 800197e:	4313      	orrs	r3, r2
 8001980:	b29a      	uxth	r2, r3
 8001982:	4b2c      	ldr	r3, [pc, #176]	; (8001a34 <lcd_init+0x23c>)
 8001984:	809a      	strh	r2, [r3, #4]
                HAL_Delay(5);                /* 等待5ms, 因为0XC501指令对1963来说就是软件复位指令, 等待5ms让1963复位完成再操作 */
 8001986:	2005      	movs	r0, #5
 8001988:	f002 fb38 	bl	8003ffc <HAL_Delay>

                if (lcddev.id != 0x5510)        /* 也不是NT5510,尝试看看是不是SSD1963 */
 800198c:	4b29      	ldr	r3, [pc, #164]	; (8001a34 <lcd_init+0x23c>)
 800198e:	889b      	ldrh	r3, [r3, #4]
 8001990:	f245 5210 	movw	r2, #21776	; 0x5510
 8001994:	4293      	cmp	r3, r2
 8001996:	d028      	beq.n	80019ea <lcd_init+0x1f2>
                {
                    lcd_wr_regno(0xA1);
 8001998:	20a1      	movs	r0, #161	; 0xa1
 800199a:	f7ff fba1 	bl	80010e0 <lcd_wr_regno>
                    lcddev.id = lcd_rd_data();
 800199e:	f7ff fbc9 	bl	8001134 <lcd_rd_data>
 80019a2:	4603      	mov	r3, r0
 80019a4:	461a      	mov	r2, r3
 80019a6:	4b23      	ldr	r3, [pc, #140]	; (8001a34 <lcd_init+0x23c>)
 80019a8:	809a      	strh	r2, [r3, #4]
                    lcddev.id = lcd_rd_data();  /* 读回0x57 */
 80019aa:	f7ff fbc3 	bl	8001134 <lcd_rd_data>
 80019ae:	4603      	mov	r3, r0
 80019b0:	461a      	mov	r2, r3
 80019b2:	4b20      	ldr	r3, [pc, #128]	; (8001a34 <lcd_init+0x23c>)
 80019b4:	809a      	strh	r2, [r3, #4]
                    lcddev.id <<= 8;
 80019b6:	4b1f      	ldr	r3, [pc, #124]	; (8001a34 <lcd_init+0x23c>)
 80019b8:	889b      	ldrh	r3, [r3, #4]
 80019ba:	021b      	lsls	r3, r3, #8
 80019bc:	b29a      	uxth	r2, r3
 80019be:	4b1d      	ldr	r3, [pc, #116]	; (8001a34 <lcd_init+0x23c>)
 80019c0:	809a      	strh	r2, [r3, #4]
                    lcddev.id |= lcd_rd_data(); /* 读回0x61 */
 80019c2:	f7ff fbb7 	bl	8001134 <lcd_rd_data>
 80019c6:	4603      	mov	r3, r0
 80019c8:	461a      	mov	r2, r3
 80019ca:	4b1a      	ldr	r3, [pc, #104]	; (8001a34 <lcd_init+0x23c>)
 80019cc:	889b      	ldrh	r3, [r3, #4]
 80019ce:	4313      	orrs	r3, r2
 80019d0:	b29a      	uxth	r2, r3
 80019d2:	4b18      	ldr	r3, [pc, #96]	; (8001a34 <lcd_init+0x23c>)
 80019d4:	809a      	strh	r2, [r3, #4]

                    if (lcddev.id == 0x5761)lcddev.id = 0x1963; /* SSD1963读回的ID是5761H,为方便区分,我们强制设置为1963 */
 80019d6:	4b17      	ldr	r3, [pc, #92]	; (8001a34 <lcd_init+0x23c>)
 80019d8:	889b      	ldrh	r3, [r3, #4]
 80019da:	f245 7261 	movw	r2, #22369	; 0x5761
 80019de:	4293      	cmp	r3, r2
 80019e0:	d103      	bne.n	80019ea <lcd_init+0x1f2>
 80019e2:	4b14      	ldr	r3, [pc, #80]	; (8001a34 <lcd_init+0x23c>)
 80019e4:	f641 1263 	movw	r2, #6499	; 0x1963
 80019e8:	809a      	strh	r2, [r3, #4]
     * 里面(卡死在f_putc函数), 所以, 必须初始化串口1, 或者屏蔽掉下面
     * 这行 printf 语句 !!!!!!!
     */
    //printf("LCD ID:%x\r\n", lcddev.id); /* 打印LCD ID */

    if (lcddev.id == 0x7789)
 80019ea:	4b12      	ldr	r3, [pc, #72]	; (8001a34 <lcd_init+0x23c>)
 80019ec:	889b      	ldrh	r3, [r3, #4]
 80019ee:	f247 7289 	movw	r2, #30601	; 0x7789
 80019f2:	4293      	cmp	r3, r2
 80019f4:	d102      	bne.n	80019fc <lcd_init+0x204>
    {
        lcd_ex_st7789_reginit();        /* 执行ST7789初始化 */
 80019f6:	f000 f8ed 	bl	8001bd4 <lcd_ex_st7789_reginit>
 80019fa:	e028      	b.n	8001a4e <lcd_init+0x256>
    }
    else if (lcddev.id == 0x9341)
 80019fc:	4b0d      	ldr	r3, [pc, #52]	; (8001a34 <lcd_init+0x23c>)
 80019fe:	889b      	ldrh	r3, [r3, #4]
 8001a00:	f249 3241 	movw	r2, #37697	; 0x9341
 8001a04:	4293      	cmp	r3, r2
 8001a06:	d102      	bne.n	8001a0e <lcd_init+0x216>
    {
        lcd_ex_ili9341_reginit();       /* 执行ILI9341初始化 */
 8001a08:	f000 f9ba 	bl	8001d80 <lcd_ex_ili9341_reginit>
 8001a0c:	e01f      	b.n	8001a4e <lcd_init+0x256>
    }
    else if (lcddev.id == 0x5310)
 8001a0e:	4b09      	ldr	r3, [pc, #36]	; (8001a34 <lcd_init+0x23c>)
 8001a10:	889b      	ldrh	r3, [r3, #4]
 8001a12:	f245 3210 	movw	r2, #21264	; 0x5310
 8001a16:	4293      	cmp	r3, r2
 8001a18:	d102      	bne.n	8001a20 <lcd_init+0x228>
    {
        lcd_ex_nt35310_reginit();       /* 执行NT35310初始化 */
 8001a1a:	f000 fac9 	bl	8001fb0 <lcd_ex_nt35310_reginit>
 8001a1e:	e016      	b.n	8001a4e <lcd_init+0x256>
    }
    else if (lcddev.id == 0x5510)
 8001a20:	4b04      	ldr	r3, [pc, #16]	; (8001a34 <lcd_init+0x23c>)
 8001a22:	889b      	ldrh	r3, [r3, #4]
 8001a24:	f245 5210 	movw	r2, #21776	; 0x5510
 8001a28:	4293      	cmp	r3, r2
 8001a2a:	d105      	bne.n	8001a38 <lcd_init+0x240>
    {
        lcd_ex_nt35510_reginit();       /* 执行NT35510初始化 */
 8001a2c:	f001 fa3b 	bl	8002ea6 <lcd_ex_nt35510_reginit>
 8001a30:	e00d      	b.n	8001a4e <lcd_init+0x256>
 8001a32:	bf00      	nop
 8001a34:	200000cc 	.word	0x200000cc
    }
    else if (lcddev.id == 0x1963)
 8001a38:	4b29      	ldr	r3, [pc, #164]	; (8001ae0 <lcd_init+0x2e8>)
 8001a3a:	889b      	ldrh	r3, [r3, #4]
 8001a3c:	f641 1263 	movw	r2, #6499	; 0x1963
 8001a40:	4293      	cmp	r3, r2
 8001a42:	d104      	bne.n	8001a4e <lcd_init+0x256>
    {
        lcd_ex_ssd1963_reginit();       /* 执行SSD1963初始化 */
 8001a44:	f002 f9af 	bl	8003da6 <lcd_ex_ssd1963_reginit>
        lcd_ssd_backlight_set(100);     /* 背光设置为最亮 */
 8001a48:	2064      	movs	r0, #100	; 0x64
 8001a4a:	f7ff fde9 	bl	8001620 <lcd_ssd_backlight_set>
    }

    /* 初始化完成以后,提速 */
    if (lcddev.id == 0x9341 || lcddev.id == 0x1963 || lcddev.id == 0x7789)  /* 如果是这几个IC, 则设置WR时序为最快 */
 8001a4e:	4b24      	ldr	r3, [pc, #144]	; (8001ae0 <lcd_init+0x2e8>)
 8001a50:	889b      	ldrh	r3, [r3, #4]
 8001a52:	f249 3241 	movw	r2, #37697	; 0x9341
 8001a56:	4293      	cmp	r3, r2
 8001a58:	d00b      	beq.n	8001a72 <lcd_init+0x27a>
 8001a5a:	4b21      	ldr	r3, [pc, #132]	; (8001ae0 <lcd_init+0x2e8>)
 8001a5c:	889b      	ldrh	r3, [r3, #4]
 8001a5e:	f641 1263 	movw	r2, #6499	; 0x1963
 8001a62:	4293      	cmp	r3, r2
 8001a64:	d005      	beq.n	8001a72 <lcd_init+0x27a>
 8001a66:	4b1e      	ldr	r3, [pc, #120]	; (8001ae0 <lcd_init+0x2e8>)
 8001a68:	889b      	ldrh	r3, [r3, #4]
 8001a6a:	f247 7289 	movw	r2, #30601	; 0x7789
 8001a6e:	4293      	cmp	r3, r2
 8001a70:	d10c      	bne.n	8001a8c <lcd_init+0x294>
    {
        /* 重新配置写时序控制寄存器的时序 */
        fsmc_write_handle.AddressSetupTime = 3;
 8001a72:	2303      	movs	r3, #3
 8001a74:	607b      	str	r3, [r7, #4]
        fsmc_write_handle.DataSetupTime = 3;         
 8001a76:	2303      	movs	r3, #3
 8001a78:	60fb      	str	r3, [r7, #12]
        FSMC_NORSRAM_Extended_Timing_Init(g_sram_handle.Extended, &fsmc_write_handle, g_sram_handle.Init.NSBank, g_sram_handle.Init.ExtendedMode);
 8001a7a:	4b1a      	ldr	r3, [pc, #104]	; (8001ae4 <lcd_init+0x2ec>)
 8001a7c:	6858      	ldr	r0, [r3, #4]
 8001a7e:	4b19      	ldr	r3, [pc, #100]	; (8001ae4 <lcd_init+0x2ec>)
 8001a80:	689a      	ldr	r2, [r3, #8]
 8001a82:	4b18      	ldr	r3, [pc, #96]	; (8001ae4 <lcd_init+0x2ec>)
 8001a84:	6b1b      	ldr	r3, [r3, #48]	; 0x30
 8001a86:	1d39      	adds	r1, r7, #4
 8001a88:	f003 fac4 	bl	8005014 <FSMC_NORSRAM_Extended_Timing_Init>
    }

    if (lcddev.id == 0x5310 || lcddev.id == 0x5510)  /* 如果是这几个IC, 则设置WR时序为最快 */
 8001a8c:	4b14      	ldr	r3, [pc, #80]	; (8001ae0 <lcd_init+0x2e8>)
 8001a8e:	889b      	ldrh	r3, [r3, #4]
 8001a90:	f245 3210 	movw	r2, #21264	; 0x5310
 8001a94:	4293      	cmp	r3, r2
 8001a96:	d005      	beq.n	8001aa4 <lcd_init+0x2ac>
 8001a98:	4b11      	ldr	r3, [pc, #68]	; (8001ae0 <lcd_init+0x2e8>)
 8001a9a:	889b      	ldrh	r3, [r3, #4]
 8001a9c:	f245 5210 	movw	r2, #21776	; 0x5510
 8001aa0:	4293      	cmp	r3, r2
 8001aa2:	d10c      	bne.n	8001abe <lcd_init+0x2c6>
    {
        /* 重新配置写时序控制寄存器的时序 */
        fsmc_write_handle.AddressSetupTime = 2;
 8001aa4:	2302      	movs	r3, #2
 8001aa6:	607b      	str	r3, [r7, #4]
        fsmc_write_handle.DataSetupTime = 2;
 8001aa8:	2302      	movs	r3, #2
 8001aaa:	60fb      	str	r3, [r7, #12]
        FSMC_NORSRAM_Extended_Timing_Init(g_sram_handle.Extended, &fsmc_write_handle, g_sram_handle.Init.NSBank, g_sram_handle.Init.ExtendedMode);
 8001aac:	4b0d      	ldr	r3, [pc, #52]	; (8001ae4 <lcd_init+0x2ec>)
 8001aae:	6858      	ldr	r0, [r3, #4]
 8001ab0:	4b0c      	ldr	r3, [pc, #48]	; (8001ae4 <lcd_init+0x2ec>)
 8001ab2:	689a      	ldr	r2, [r3, #8]
 8001ab4:	4b0b      	ldr	r3, [pc, #44]	; (8001ae4 <lcd_init+0x2ec>)
 8001ab6:	6b1b      	ldr	r3, [r3, #48]	; 0x30
 8001ab8:	1d39      	adds	r1, r7, #4
 8001aba:	f003 faab 	bl	8005014 <FSMC_NORSRAM_Extended_Timing_Init>
    }

    lcd_display_dir(0); /* 默认为竖屏 */
 8001abe:	2000      	movs	r0, #0
 8001ac0:	f7ff fde2 	bl	8001688 <lcd_display_dir>
    LCD_BL(1);          /* 点亮背光 */
 8001ac4:	2201      	movs	r2, #1
 8001ac6:	f44f 4100 	mov.w	r1, #32768	; 0x8000
 8001aca:	4807      	ldr	r0, [pc, #28]	; (8001ae8 <lcd_init+0x2f0>)
 8001acc:	f002 fd3c 	bl	8004548 <HAL_GPIO_WritePin>
    lcd_clear(WHITE);
 8001ad0:	f64f 70ff 	movw	r0, #65535	; 0xffff
 8001ad4:	f000 f80a 	bl	8001aec <lcd_clear>
}
 8001ad8:	bf00      	nop
 8001ada:	3720      	adds	r7, #32
 8001adc:	46bd      	mov	sp, r7
 8001ade:	bd80      	pop	{r7, pc}
 8001ae0:	200000cc 	.word	0x200000cc
 8001ae4:	2000007c 	.word	0x2000007c
 8001ae8:	40020400 	.word	0x40020400

08001aec <lcd_clear>:
 * @brief       清屏函数
 * @param       color: 要清屏的颜色
 * @retval      无
 */
void lcd_clear(uint16_t color)
{
 8001aec:	b580      	push	{r7, lr}
 8001aee:	b084      	sub	sp, #16
 8001af0:	af00      	add	r7, sp, #0
 8001af2:	4603      	mov	r3, r0
 8001af4:	80fb      	strh	r3, [r7, #6]
    uint32_t index = 0;
 8001af6:	2300      	movs	r3, #0
 8001af8:	60fb      	str	r3, [r7, #12]
    uint32_t totalpoint = lcddev.width;
 8001afa:	4b11      	ldr	r3, [pc, #68]	; (8001b40 <lcd_clear+0x54>)
 8001afc:	881b      	ldrh	r3, [r3, #0]
 8001afe:	60bb      	str	r3, [r7, #8]

    totalpoint *= lcddev.height;    /* 得到总点数 */
 8001b00:	4b0f      	ldr	r3, [pc, #60]	; (8001b40 <lcd_clear+0x54>)
 8001b02:	885b      	ldrh	r3, [r3, #2]
 8001b04:	461a      	mov	r2, r3
 8001b06:	68bb      	ldr	r3, [r7, #8]
 8001b08:	fb02 f303 	mul.w	r3, r2, r3
 8001b0c:	60bb      	str	r3, [r7, #8]
    lcd_set_cursor(0x00, 0x0000);   /* 设置光标位置 */
 8001b0e:	2100      	movs	r1, #0
 8001b10:	2000      	movs	r0, #0
 8001b12:	f7ff fb31 	bl	8001178 <lcd_set_cursor>
    lcd_write_ram_prepare();        /* 开始写入GRAM */
 8001b16:	f7ff fb1f 	bl	8001158 <lcd_write_ram_prepare>

    for (index = 0; index < totalpoint; index++)
 8001b1a:	2300      	movs	r3, #0
 8001b1c:	60fb      	str	r3, [r7, #12]
 8001b1e:	e005      	b.n	8001b2c <lcd_clear+0x40>
    {
        LCD->LCD_RAM = color;
 8001b20:	4a08      	ldr	r2, [pc, #32]	; (8001b44 <lcd_clear+0x58>)
 8001b22:	88fb      	ldrh	r3, [r7, #6]
 8001b24:	8053      	strh	r3, [r2, #2]
    for (index = 0; index < totalpoint; index++)
 8001b26:	68fb      	ldr	r3, [r7, #12]
 8001b28:	3301      	adds	r3, #1
 8001b2a:	60fb      	str	r3, [r7, #12]
 8001b2c:	68fa      	ldr	r2, [r7, #12]
 8001b2e:	68bb      	ldr	r3, [r7, #8]
 8001b30:	429a      	cmp	r2, r3
 8001b32:	d3f5      	bcc.n	8001b20 <lcd_clear+0x34>
    }
}
 8001b34:	bf00      	nop
 8001b36:	bf00      	nop
 8001b38:	3710      	adds	r7, #16
 8001b3a:	46bd      	mov	sp, r7
 8001b3c:	bd80      	pop	{r7, pc}
 8001b3e:	bf00      	nop
 8001b40:	200000cc 	.word	0x200000cc
 8001b44:	6c00007e 	.word	0x6c00007e

08001b48 <lcd_draw_picture>:
 * @param w 宽像素数
 * @param h 高像素数
 * @param color 要填充的颜色数组首地址
 */
void lcd_draw_picture(uint16_t x, uint16_t y, uint16_t w, uint16_t h, uint16_t *color)
{
 8001b48:	b590      	push	{r4, r7, lr}
 8001b4a:	b085      	sub	sp, #20
 8001b4c:	af00      	add	r7, sp, #0
 8001b4e:	4604      	mov	r4, r0
 8001b50:	4608      	mov	r0, r1
 8001b52:	4611      	mov	r1, r2
 8001b54:	461a      	mov	r2, r3
 8001b56:	4623      	mov	r3, r4
 8001b58:	80fb      	strh	r3, [r7, #6]
 8001b5a:	4603      	mov	r3, r0
 8001b5c:	80bb      	strh	r3, [r7, #4]
 8001b5e:	460b      	mov	r3, r1
 8001b60:	807b      	strh	r3, [r7, #2]
 8001b62:	4613      	mov	r3, r2
 8001b64:	803b      	strh	r3, [r7, #0]
    uint16_t height, width;
    uint16_t i, j;

    width = w;            /* 得到填充的宽度 */
 8001b66:	887b      	ldrh	r3, [r7, #2]
 8001b68:	817b      	strh	r3, [r7, #10]
    height = h;           /* 高度 */
 8001b6a:	883b      	ldrh	r3, [r7, #0]
 8001b6c:	813b      	strh	r3, [r7, #8]

    for (i = 0; i < height; i++)
 8001b6e:	2300      	movs	r3, #0
 8001b70:	81fb      	strh	r3, [r7, #14]
 8001b72:	e023      	b.n	8001bbc <lcd_draw_picture+0x74>
    {
        lcd_set_cursor(x, y + i); /* 设置光标位置 */
 8001b74:	88ba      	ldrh	r2, [r7, #4]
 8001b76:	89fb      	ldrh	r3, [r7, #14]
 8001b78:	4413      	add	r3, r2
 8001b7a:	b29a      	uxth	r2, r3
 8001b7c:	88fb      	ldrh	r3, [r7, #6]
 8001b7e:	4611      	mov	r1, r2
 8001b80:	4618      	mov	r0, r3
 8001b82:	f7ff faf9 	bl	8001178 <lcd_set_cursor>
        lcd_write_ram_prepare();    /* 开始写入GRAM */
 8001b86:	f7ff fae7 	bl	8001158 <lcd_write_ram_prepare>

        for (j = 0; j < width; j++)
 8001b8a:	2300      	movs	r3, #0
 8001b8c:	81bb      	strh	r3, [r7, #12]
 8001b8e:	e00e      	b.n	8001bae <lcd_draw_picture+0x66>
        {
            LCD->LCD_RAM = color[i * width + j]; /* 写入数据 */
 8001b90:	89fb      	ldrh	r3, [r7, #14]
 8001b92:	897a      	ldrh	r2, [r7, #10]
 8001b94:	fb03 f202 	mul.w	r2, r3, r2
 8001b98:	89bb      	ldrh	r3, [r7, #12]
 8001b9a:	4413      	add	r3, r2
 8001b9c:	005b      	lsls	r3, r3, #1
 8001b9e:	6a3a      	ldr	r2, [r7, #32]
 8001ba0:	4413      	add	r3, r2
 8001ba2:	4a0b      	ldr	r2, [pc, #44]	; (8001bd0 <lcd_draw_picture+0x88>)
 8001ba4:	881b      	ldrh	r3, [r3, #0]
 8001ba6:	8053      	strh	r3, [r2, #2]
        for (j = 0; j < width; j++)
 8001ba8:	89bb      	ldrh	r3, [r7, #12]
 8001baa:	3301      	adds	r3, #1
 8001bac:	81bb      	strh	r3, [r7, #12]
 8001bae:	89ba      	ldrh	r2, [r7, #12]
 8001bb0:	897b      	ldrh	r3, [r7, #10]
 8001bb2:	429a      	cmp	r2, r3
 8001bb4:	d3ec      	bcc.n	8001b90 <lcd_draw_picture+0x48>
    for (i = 0; i < height; i++)
 8001bb6:	89fb      	ldrh	r3, [r7, #14]
 8001bb8:	3301      	adds	r3, #1
 8001bba:	81fb      	strh	r3, [r7, #14]
 8001bbc:	89fa      	ldrh	r2, [r7, #14]
 8001bbe:	893b      	ldrh	r3, [r7, #8]
 8001bc0:	429a      	cmp	r2, r3
 8001bc2:	d3d7      	bcc.n	8001b74 <lcd_draw_picture+0x2c>
        }
    }
}
 8001bc4:	bf00      	nop
 8001bc6:	bf00      	nop
 8001bc8:	3714      	adds	r7, #20
 8001bca:	46bd      	mov	sp, r7
 8001bcc:	bd90      	pop	{r4, r7, pc}
 8001bce:	bf00      	nop
 8001bd0:	6c00007e 	.word	0x6c00007e

08001bd4 <lcd_ex_st7789_reginit>:
 * @brief       ST7789 寄存器初始化代码
 * @param       无
 * @retval      无
 */
void lcd_ex_st7789_reginit(void)
{
 8001bd4:	b580      	push	{r7, lr}
 8001bd6:	af00      	add	r7, sp, #0
    lcd_wr_regno(0x11);
 8001bd8:	2011      	movs	r0, #17
 8001bda:	f7ff fa81 	bl	80010e0 <lcd_wr_regno>

    HAL_Delay(120);
 8001bde:	2078      	movs	r0, #120	; 0x78
 8001be0:	f002 fa0c 	bl	8003ffc <HAL_Delay>

    lcd_wr_regno(0x36);
 8001be4:	2036      	movs	r0, #54	; 0x36
 8001be6:	f7ff fa7b 	bl	80010e0 <lcd_wr_regno>
    lcd_wr_data(0x00);
 8001bea:	2000      	movs	r0, #0
 8001bec:	f7ff fa64 	bl	80010b8 <lcd_wr_data>

    lcd_wr_regno(0x3A);
 8001bf0:	203a      	movs	r0, #58	; 0x3a
 8001bf2:	f7ff fa75 	bl	80010e0 <lcd_wr_regno>
    lcd_wr_data(0x05);
 8001bf6:	2005      	movs	r0, #5
 8001bf8:	f7ff fa5e 	bl	80010b8 <lcd_wr_data>

    lcd_wr_regno(0xB2);
 8001bfc:	20b2      	movs	r0, #178	; 0xb2
 8001bfe:	f7ff fa6f 	bl	80010e0 <lcd_wr_regno>
    lcd_wr_data(0x0C);
 8001c02:	200c      	movs	r0, #12
 8001c04:	f7ff fa58 	bl	80010b8 <lcd_wr_data>
    lcd_wr_data(0x0C);
 8001c08:	200c      	movs	r0, #12
 8001c0a:	f7ff fa55 	bl	80010b8 <lcd_wr_data>
    lcd_wr_data(0x00);
 8001c0e:	2000      	movs	r0, #0
 8001c10:	f7ff fa52 	bl	80010b8 <lcd_wr_data>
    lcd_wr_data(0x33);
 8001c14:	2033      	movs	r0, #51	; 0x33
 8001c16:	f7ff fa4f 	bl	80010b8 <lcd_wr_data>
    lcd_wr_data(0x33);
 8001c1a:	2033      	movs	r0, #51	; 0x33
 8001c1c:	f7ff fa4c 	bl	80010b8 <lcd_wr_data>

    lcd_wr_regno(0xB7);
 8001c20:	20b7      	movs	r0, #183	; 0xb7
 8001c22:	f7ff fa5d 	bl	80010e0 <lcd_wr_regno>
    lcd_wr_data(0x35);
 8001c26:	2035      	movs	r0, #53	; 0x35
 8001c28:	f7ff fa46 	bl	80010b8 <lcd_wr_data>

    lcd_wr_regno(0xBB); /* vcom */
 8001c2c:	20bb      	movs	r0, #187	; 0xbb
 8001c2e:	f7ff fa57 	bl	80010e0 <lcd_wr_regno>
    lcd_wr_data(0x32);  /* 30 */
 8001c32:	2032      	movs	r0, #50	; 0x32
 8001c34:	f7ff fa40 	bl	80010b8 <lcd_wr_data>

    lcd_wr_regno(0xC0);
 8001c38:	20c0      	movs	r0, #192	; 0xc0
 8001c3a:	f7ff fa51 	bl	80010e0 <lcd_wr_regno>
    lcd_wr_data(0x0C);
 8001c3e:	200c      	movs	r0, #12
 8001c40:	f7ff fa3a 	bl	80010b8 <lcd_wr_data>

    lcd_wr_regno(0xC2);
 8001c44:	20c2      	movs	r0, #194	; 0xc2
 8001c46:	f7ff fa4b 	bl	80010e0 <lcd_wr_regno>
    lcd_wr_data(0x01);
 8001c4a:	2001      	movs	r0, #1
 8001c4c:	f7ff fa34 	bl	80010b8 <lcd_wr_data>

    lcd_wr_regno(0xC3); /* vrh */
 8001c50:	20c3      	movs	r0, #195	; 0xc3
 8001c52:	f7ff fa45 	bl	80010e0 <lcd_wr_regno>
    lcd_wr_data(0x10);  /* 17 0D */
 8001c56:	2010      	movs	r0, #16
 8001c58:	f7ff fa2e 	bl	80010b8 <lcd_wr_data>

    lcd_wr_regno(0xC4); /* vdv */
 8001c5c:	20c4      	movs	r0, #196	; 0xc4
 8001c5e:	f7ff fa3f 	bl	80010e0 <lcd_wr_regno>
    lcd_wr_data(0x20);  /* 20 */
 8001c62:	2020      	movs	r0, #32
 8001c64:	f7ff fa28 	bl	80010b8 <lcd_wr_data>

    lcd_wr_regno(0xC6);
 8001c68:	20c6      	movs	r0, #198	; 0xc6
 8001c6a:	f7ff fa39 	bl	80010e0 <lcd_wr_regno>
    lcd_wr_data(0x0f);
 8001c6e:	200f      	movs	r0, #15
 8001c70:	f7ff fa22 	bl	80010b8 <lcd_wr_data>

    lcd_wr_regno(0xD0);
 8001c74:	20d0      	movs	r0, #208	; 0xd0
 8001c76:	f7ff fa33 	bl	80010e0 <lcd_wr_regno>
    lcd_wr_data(0xA4);
 8001c7a:	20a4      	movs	r0, #164	; 0xa4
 8001c7c:	f7ff fa1c 	bl	80010b8 <lcd_wr_data>
    lcd_wr_data(0xA1);
 8001c80:	20a1      	movs	r0, #161	; 0xa1
 8001c82:	f7ff fa19 	bl	80010b8 <lcd_wr_data>

    lcd_wr_regno(0xE0); /* Set Gamma  */
 8001c86:	20e0      	movs	r0, #224	; 0xe0
 8001c88:	f7ff fa2a 	bl	80010e0 <lcd_wr_regno>
    lcd_wr_data(0xd0);
 8001c8c:	20d0      	movs	r0, #208	; 0xd0
 8001c8e:	f7ff fa13 	bl	80010b8 <lcd_wr_data>
    lcd_wr_data(0x00);
 8001c92:	2000      	movs	r0, #0
 8001c94:	f7ff fa10 	bl	80010b8 <lcd_wr_data>
    lcd_wr_data(0x02);
 8001c98:	2002      	movs	r0, #2
 8001c9a:	f7ff fa0d 	bl	80010b8 <lcd_wr_data>
    lcd_wr_data(0x07);
 8001c9e:	2007      	movs	r0, #7
 8001ca0:	f7ff fa0a 	bl	80010b8 <lcd_wr_data>
    lcd_wr_data(0x0a);
 8001ca4:	200a      	movs	r0, #10
 8001ca6:	f7ff fa07 	bl	80010b8 <lcd_wr_data>
    lcd_wr_data(0x28);
 8001caa:	2028      	movs	r0, #40	; 0x28
 8001cac:	f7ff fa04 	bl	80010b8 <lcd_wr_data>
    lcd_wr_data(0x32);
 8001cb0:	2032      	movs	r0, #50	; 0x32
 8001cb2:	f7ff fa01 	bl	80010b8 <lcd_wr_data>
    lcd_wr_data(0x44);
 8001cb6:	2044      	movs	r0, #68	; 0x44
 8001cb8:	f7ff f9fe 	bl	80010b8 <lcd_wr_data>
    lcd_wr_data(0x42);
 8001cbc:	2042      	movs	r0, #66	; 0x42
 8001cbe:	f7ff f9fb 	bl	80010b8 <lcd_wr_data>
    lcd_wr_data(0x06);
 8001cc2:	2006      	movs	r0, #6
 8001cc4:	f7ff f9f8 	bl	80010b8 <lcd_wr_data>
    lcd_wr_data(0x0e);
 8001cc8:	200e      	movs	r0, #14
 8001cca:	f7ff f9f5 	bl	80010b8 <lcd_wr_data>
    lcd_wr_data(0x12);
 8001cce:	2012      	movs	r0, #18
 8001cd0:	f7ff f9f2 	bl	80010b8 <lcd_wr_data>
    lcd_wr_data(0x14);
 8001cd4:	2014      	movs	r0, #20
 8001cd6:	f7ff f9ef 	bl	80010b8 <lcd_wr_data>
    lcd_wr_data(0x17);
 8001cda:	2017      	movs	r0, #23
 8001cdc:	f7ff f9ec 	bl	80010b8 <lcd_wr_data>


    lcd_wr_regno(0xE1);  /* Set Gamma */
 8001ce0:	20e1      	movs	r0, #225	; 0xe1
 8001ce2:	f7ff f9fd 	bl	80010e0 <lcd_wr_regno>
    lcd_wr_data(0xd0);
 8001ce6:	20d0      	movs	r0, #208	; 0xd0
 8001ce8:	f7ff f9e6 	bl	80010b8 <lcd_wr_data>
    lcd_wr_data(0x00);
 8001cec:	2000      	movs	r0, #0
 8001cee:	f7ff f9e3 	bl	80010b8 <lcd_wr_data>
    lcd_wr_data(0x02);
 8001cf2:	2002      	movs	r0, #2
 8001cf4:	f7ff f9e0 	bl	80010b8 <lcd_wr_data>
    lcd_wr_data(0x07);
 8001cf8:	2007      	movs	r0, #7
 8001cfa:	f7ff f9dd 	bl	80010b8 <lcd_wr_data>
    lcd_wr_data(0x0a);
 8001cfe:	200a      	movs	r0, #10
 8001d00:	f7ff f9da 	bl	80010b8 <lcd_wr_data>
    lcd_wr_data(0x28);
 8001d04:	2028      	movs	r0, #40	; 0x28
 8001d06:	f7ff f9d7 	bl	80010b8 <lcd_wr_data>
    lcd_wr_data(0x31);
 8001d0a:	2031      	movs	r0, #49	; 0x31
 8001d0c:	f7ff f9d4 	bl	80010b8 <lcd_wr_data>
    lcd_wr_data(0x54);
 8001d10:	2054      	movs	r0, #84	; 0x54
 8001d12:	f7ff f9d1 	bl	80010b8 <lcd_wr_data>
    lcd_wr_data(0x47);
 8001d16:	2047      	movs	r0, #71	; 0x47
 8001d18:	f7ff f9ce 	bl	80010b8 <lcd_wr_data>
    lcd_wr_data(0x0e);
 8001d1c:	200e      	movs	r0, #14
 8001d1e:	f7ff f9cb 	bl	80010b8 <lcd_wr_data>
    lcd_wr_data(0x1c);
 8001d22:	201c      	movs	r0, #28
 8001d24:	f7ff f9c8 	bl	80010b8 <lcd_wr_data>
    lcd_wr_data(0x17);
 8001d28:	2017      	movs	r0, #23
 8001d2a:	f7ff f9c5 	bl	80010b8 <lcd_wr_data>
    lcd_wr_data(0x1b);
 8001d2e:	201b      	movs	r0, #27
 8001d30:	f7ff f9c2 	bl	80010b8 <lcd_wr_data>
    lcd_wr_data(0x1e);
 8001d34:	201e      	movs	r0, #30
 8001d36:	f7ff f9bf 	bl	80010b8 <lcd_wr_data>


    lcd_wr_regno(0x2A);
 8001d3a:	202a      	movs	r0, #42	; 0x2a
 8001d3c:	f7ff f9d0 	bl	80010e0 <lcd_wr_regno>
    lcd_wr_data(0x00);
 8001d40:	2000      	movs	r0, #0
 8001d42:	f7ff f9b9 	bl	80010b8 <lcd_wr_data>
    lcd_wr_data(0x00);
 8001d46:	2000      	movs	r0, #0
 8001d48:	f7ff f9b6 	bl	80010b8 <lcd_wr_data>
    lcd_wr_data(0x00);
 8001d4c:	2000      	movs	r0, #0
 8001d4e:	f7ff f9b3 	bl	80010b8 <lcd_wr_data>
    lcd_wr_data(0xef);
 8001d52:	20ef      	movs	r0, #239	; 0xef
 8001d54:	f7ff f9b0 	bl	80010b8 <lcd_wr_data>

    lcd_wr_regno(0x2B);
 8001d58:	202b      	movs	r0, #43	; 0x2b
 8001d5a:	f7ff f9c1 	bl	80010e0 <lcd_wr_regno>
    lcd_wr_data(0x00);
 8001d5e:	2000      	movs	r0, #0
 8001d60:	f7ff f9aa 	bl	80010b8 <lcd_wr_data>
    lcd_wr_data(0x00);
 8001d64:	2000      	movs	r0, #0
 8001d66:	f7ff f9a7 	bl	80010b8 <lcd_wr_data>
    lcd_wr_data(0x01);
 8001d6a:	2001      	movs	r0, #1
 8001d6c:	f7ff f9a4 	bl	80010b8 <lcd_wr_data>
    lcd_wr_data(0x3f);
 8001d70:	203f      	movs	r0, #63	; 0x3f
 8001d72:	f7ff f9a1 	bl	80010b8 <lcd_wr_data>

    lcd_wr_regno(0x29); /* display on */
 8001d76:	2029      	movs	r0, #41	; 0x29
 8001d78:	f7ff f9b2 	bl	80010e0 <lcd_wr_regno>
}
 8001d7c:	bf00      	nop
 8001d7e:	bd80      	pop	{r7, pc}

08001d80 <lcd_ex_ili9341_reginit>:
 * @brief       ILI9341寄存器初始化代码
 * @param       无
 * @retval      无
 */
void lcd_ex_ili9341_reginit(void)
{
 8001d80:	b580      	push	{r7, lr}
 8001d82:	af00      	add	r7, sp, #0
    lcd_wr_regno(0xCF);
 8001d84:	20cf      	movs	r0, #207	; 0xcf
 8001d86:	f7ff f9ab 	bl	80010e0 <lcd_wr_regno>
    lcd_wr_data(0x00);
 8001d8a:	2000      	movs	r0, #0
 8001d8c:	f7ff f994 	bl	80010b8 <lcd_wr_data>
    lcd_wr_data(0xC1);
 8001d90:	20c1      	movs	r0, #193	; 0xc1
 8001d92:	f7ff f991 	bl	80010b8 <lcd_wr_data>
    lcd_wr_data(0x30);
 8001d96:	2030      	movs	r0, #48	; 0x30
 8001d98:	f7ff f98e 	bl	80010b8 <lcd_wr_data>
    lcd_wr_regno(0xED);
 8001d9c:	20ed      	movs	r0, #237	; 0xed
 8001d9e:	f7ff f99f 	bl	80010e0 <lcd_wr_regno>
    lcd_wr_data(0x64);
 8001da2:	2064      	movs	r0, #100	; 0x64
 8001da4:	f7ff f988 	bl	80010b8 <lcd_wr_data>
    lcd_wr_data(0x03);
 8001da8:	2003      	movs	r0, #3
 8001daa:	f7ff f985 	bl	80010b8 <lcd_wr_data>
    lcd_wr_data(0x12);
 8001dae:	2012      	movs	r0, #18
 8001db0:	f7ff f982 	bl	80010b8 <lcd_wr_data>
    lcd_wr_data(0x81);
 8001db4:	2081      	movs	r0, #129	; 0x81
 8001db6:	f7ff f97f 	bl	80010b8 <lcd_wr_data>
    lcd_wr_regno(0xE8);
 8001dba:	20e8      	movs	r0, #232	; 0xe8
 8001dbc:	f7ff f990 	bl	80010e0 <lcd_wr_regno>
    lcd_wr_data(0x85);
 8001dc0:	2085      	movs	r0, #133	; 0x85
 8001dc2:	f7ff f979 	bl	80010b8 <lcd_wr_data>
    lcd_wr_data(0x10);
 8001dc6:	2010      	movs	r0, #16
 8001dc8:	f7ff f976 	bl	80010b8 <lcd_wr_data>
    lcd_wr_data(0x7A);
 8001dcc:	207a      	movs	r0, #122	; 0x7a
 8001dce:	f7ff f973 	bl	80010b8 <lcd_wr_data>
    lcd_wr_regno(0xCB);
 8001dd2:	20cb      	movs	r0, #203	; 0xcb
 8001dd4:	f7ff f984 	bl	80010e0 <lcd_wr_regno>
    lcd_wr_data(0x39);
 8001dd8:	2039      	movs	r0, #57	; 0x39
 8001dda:	f7ff f96d 	bl	80010b8 <lcd_wr_data>
    lcd_wr_data(0x2C);
 8001dde:	202c      	movs	r0, #44	; 0x2c
 8001de0:	f7ff f96a 	bl	80010b8 <lcd_wr_data>
    lcd_wr_data(0x00);
 8001de4:	2000      	movs	r0, #0
 8001de6:	f7ff f967 	bl	80010b8 <lcd_wr_data>
    lcd_wr_data(0x34);
 8001dea:	2034      	movs	r0, #52	; 0x34
 8001dec:	f7ff f964 	bl	80010b8 <lcd_wr_data>
    lcd_wr_data(0x02);
 8001df0:	2002      	movs	r0, #2
 8001df2:	f7ff f961 	bl	80010b8 <lcd_wr_data>
    lcd_wr_regno(0xF7);
 8001df6:	20f7      	movs	r0, #247	; 0xf7
 8001df8:	f7ff f972 	bl	80010e0 <lcd_wr_regno>
    lcd_wr_data(0x20);
 8001dfc:	2020      	movs	r0, #32
 8001dfe:	f7ff f95b 	bl	80010b8 <lcd_wr_data>
    lcd_wr_regno(0xEA);
 8001e02:	20ea      	movs	r0, #234	; 0xea
 8001e04:	f7ff f96c 	bl	80010e0 <lcd_wr_regno>
    lcd_wr_data(0x00);
 8001e08:	2000      	movs	r0, #0
 8001e0a:	f7ff f955 	bl	80010b8 <lcd_wr_data>
    lcd_wr_data(0x00);
 8001e0e:	2000      	movs	r0, #0
 8001e10:	f7ff f952 	bl	80010b8 <lcd_wr_data>
    lcd_wr_regno(0xC0); /* Power control */
 8001e14:	20c0      	movs	r0, #192	; 0xc0
 8001e16:	f7ff f963 	bl	80010e0 <lcd_wr_regno>
    lcd_wr_data(0x1B);  /* VRH[5:0] */
 8001e1a:	201b      	movs	r0, #27
 8001e1c:	f7ff f94c 	bl	80010b8 <lcd_wr_data>
    lcd_wr_regno(0xC1); /* Power control */
 8001e20:	20c1      	movs	r0, #193	; 0xc1
 8001e22:	f7ff f95d 	bl	80010e0 <lcd_wr_regno>
    lcd_wr_data(0x01);  /* SAP[2:0];BT[3:0] */
 8001e26:	2001      	movs	r0, #1
 8001e28:	f7ff f946 	bl	80010b8 <lcd_wr_data>
    lcd_wr_regno(0xC5); /* VCM control */
 8001e2c:	20c5      	movs	r0, #197	; 0xc5
 8001e2e:	f7ff f957 	bl	80010e0 <lcd_wr_regno>
    lcd_wr_data(0x30);  /* 3F */
 8001e32:	2030      	movs	r0, #48	; 0x30
 8001e34:	f7ff f940 	bl	80010b8 <lcd_wr_data>
    lcd_wr_data(0x30);  /* 3C */
 8001e38:	2030      	movs	r0, #48	; 0x30
 8001e3a:	f7ff f93d 	bl	80010b8 <lcd_wr_data>
    lcd_wr_regno(0xC7); /* VCM control2 */
 8001e3e:	20c7      	movs	r0, #199	; 0xc7
 8001e40:	f7ff f94e 	bl	80010e0 <lcd_wr_regno>
    lcd_wr_data(0xB7);
 8001e44:	20b7      	movs	r0, #183	; 0xb7
 8001e46:	f7ff f937 	bl	80010b8 <lcd_wr_data>
    lcd_wr_regno(0x36); /*  Memory Access Control */
 8001e4a:	2036      	movs	r0, #54	; 0x36
 8001e4c:	f7ff f948 	bl	80010e0 <lcd_wr_regno>
    lcd_wr_data(0x48);
 8001e50:	2048      	movs	r0, #72	; 0x48
 8001e52:	f7ff f931 	bl	80010b8 <lcd_wr_data>
    lcd_wr_regno(0x3A);
 8001e56:	203a      	movs	r0, #58	; 0x3a
 8001e58:	f7ff f942 	bl	80010e0 <lcd_wr_regno>
    lcd_wr_data(0x55);
 8001e5c:	2055      	movs	r0, #85	; 0x55
 8001e5e:	f7ff f92b 	bl	80010b8 <lcd_wr_data>
    lcd_wr_regno(0xB1);
 8001e62:	20b1      	movs	r0, #177	; 0xb1
 8001e64:	f7ff f93c 	bl	80010e0 <lcd_wr_regno>
    lcd_wr_data(0x00);
 8001e68:	2000      	movs	r0, #0
 8001e6a:	f7ff f925 	bl	80010b8 <lcd_wr_data>
    lcd_wr_data(0x1A);
 8001e6e:	201a      	movs	r0, #26
 8001e70:	f7ff f922 	bl	80010b8 <lcd_wr_data>
    lcd_wr_regno(0xB6); /*  Display Function Control */
 8001e74:	20b6      	movs	r0, #182	; 0xb6
 8001e76:	f7ff f933 	bl	80010e0 <lcd_wr_regno>
    lcd_wr_data(0x0A);
 8001e7a:	200a      	movs	r0, #10
 8001e7c:	f7ff f91c 	bl	80010b8 <lcd_wr_data>
    lcd_wr_data(0xA2);
 8001e80:	20a2      	movs	r0, #162	; 0xa2
 8001e82:	f7ff f919 	bl	80010b8 <lcd_wr_data>
    lcd_wr_regno(0xF2); /*  3Gamma Function Disable */
 8001e86:	20f2      	movs	r0, #242	; 0xf2
 8001e88:	f7ff f92a 	bl	80010e0 <lcd_wr_regno>
    lcd_wr_data(0x00);
 8001e8c:	2000      	movs	r0, #0
 8001e8e:	f7ff f913 	bl	80010b8 <lcd_wr_data>
    lcd_wr_regno(0x26); /* Gamma curve selected */
 8001e92:	2026      	movs	r0, #38	; 0x26
 8001e94:	f7ff f924 	bl	80010e0 <lcd_wr_regno>
    lcd_wr_data(0x01);
 8001e98:	2001      	movs	r0, #1
 8001e9a:	f7ff f90d 	bl	80010b8 <lcd_wr_data>
    lcd_wr_regno(0xE0); /* Set Gamma */
 8001e9e:	20e0      	movs	r0, #224	; 0xe0
 8001ea0:	f7ff f91e 	bl	80010e0 <lcd_wr_regno>
    lcd_wr_data(0x0F);
 8001ea4:	200f      	movs	r0, #15
 8001ea6:	f7ff f907 	bl	80010b8 <lcd_wr_data>
    lcd_wr_data(0x2A);
 8001eaa:	202a      	movs	r0, #42	; 0x2a
 8001eac:	f7ff f904 	bl	80010b8 <lcd_wr_data>
    lcd_wr_data(0x28);
 8001eb0:	2028      	movs	r0, #40	; 0x28
 8001eb2:	f7ff f901 	bl	80010b8 <lcd_wr_data>
    lcd_wr_data(0x08);
 8001eb6:	2008      	movs	r0, #8
 8001eb8:	f7ff f8fe 	bl	80010b8 <lcd_wr_data>
    lcd_wr_data(0x0E);
 8001ebc:	200e      	movs	r0, #14
 8001ebe:	f7ff f8fb 	bl	80010b8 <lcd_wr_data>
    lcd_wr_data(0x08);
 8001ec2:	2008      	movs	r0, #8
 8001ec4:	f7ff f8f8 	bl	80010b8 <lcd_wr_data>
    lcd_wr_data(0x54);
 8001ec8:	2054      	movs	r0, #84	; 0x54
 8001eca:	f7ff f8f5 	bl	80010b8 <lcd_wr_data>
    lcd_wr_data(0xA9);
 8001ece:	20a9      	movs	r0, #169	; 0xa9
 8001ed0:	f7ff f8f2 	bl	80010b8 <lcd_wr_data>
    lcd_wr_data(0x43);
 8001ed4:	2043      	movs	r0, #67	; 0x43
 8001ed6:	f7ff f8ef 	bl	80010b8 <lcd_wr_data>
    lcd_wr_data(0x0A);
 8001eda:	200a      	movs	r0, #10
 8001edc:	f7ff f8ec 	bl	80010b8 <lcd_wr_data>
    lcd_wr_data(0x0F);
 8001ee0:	200f      	movs	r0, #15
 8001ee2:	f7ff f8e9 	bl	80010b8 <lcd_wr_data>
    lcd_wr_data(0x00);
 8001ee6:	2000      	movs	r0, #0
 8001ee8:	f7ff f8e6 	bl	80010b8 <lcd_wr_data>
    lcd_wr_data(0x00);
 8001eec:	2000      	movs	r0, #0
 8001eee:	f7ff f8e3 	bl	80010b8 <lcd_wr_data>
    lcd_wr_data(0x00);
 8001ef2:	2000      	movs	r0, #0
 8001ef4:	f7ff f8e0 	bl	80010b8 <lcd_wr_data>
    lcd_wr_data(0x00);
 8001ef8:	2000      	movs	r0, #0
 8001efa:	f7ff f8dd 	bl	80010b8 <lcd_wr_data>
    lcd_wr_regno(0xE1);    /* Set Gamma */
 8001efe:	20e1      	movs	r0, #225	; 0xe1
 8001f00:	f7ff f8ee 	bl	80010e0 <lcd_wr_regno>
    lcd_wr_data(0x00);
 8001f04:	2000      	movs	r0, #0
 8001f06:	f7ff f8d7 	bl	80010b8 <lcd_wr_data>
    lcd_wr_data(0x15);
 8001f0a:	2015      	movs	r0, #21
 8001f0c:	f7ff f8d4 	bl	80010b8 <lcd_wr_data>
    lcd_wr_data(0x17);
 8001f10:	2017      	movs	r0, #23
 8001f12:	f7ff f8d1 	bl	80010b8 <lcd_wr_data>
    lcd_wr_data(0x07);
 8001f16:	2007      	movs	r0, #7
 8001f18:	f7ff f8ce 	bl	80010b8 <lcd_wr_data>
    lcd_wr_data(0x11);
 8001f1c:	2011      	movs	r0, #17
 8001f1e:	f7ff f8cb 	bl	80010b8 <lcd_wr_data>
    lcd_wr_data(0x06);
 8001f22:	2006      	movs	r0, #6
 8001f24:	f7ff f8c8 	bl	80010b8 <lcd_wr_data>
    lcd_wr_data(0x2B);
 8001f28:	202b      	movs	r0, #43	; 0x2b
 8001f2a:	f7ff f8c5 	bl	80010b8 <lcd_wr_data>
    lcd_wr_data(0x56);
 8001f2e:	2056      	movs	r0, #86	; 0x56
 8001f30:	f7ff f8c2 	bl	80010b8 <lcd_wr_data>
    lcd_wr_data(0x3C);
 8001f34:	203c      	movs	r0, #60	; 0x3c
 8001f36:	f7ff f8bf 	bl	80010b8 <lcd_wr_data>
    lcd_wr_data(0x05);
 8001f3a:	2005      	movs	r0, #5
 8001f3c:	f7ff f8bc 	bl	80010b8 <lcd_wr_data>
    lcd_wr_data(0x10);
 8001f40:	2010      	movs	r0, #16
 8001f42:	f7ff f8b9 	bl	80010b8 <lcd_wr_data>
    lcd_wr_data(0x0F);
 8001f46:	200f      	movs	r0, #15
 8001f48:	f7ff f8b6 	bl	80010b8 <lcd_wr_data>
    lcd_wr_data(0x3F);
 8001f4c:	203f      	movs	r0, #63	; 0x3f
 8001f4e:	f7ff f8b3 	bl	80010b8 <lcd_wr_data>
    lcd_wr_data(0x3F);
 8001f52:	203f      	movs	r0, #63	; 0x3f
 8001f54:	f7ff f8b0 	bl	80010b8 <lcd_wr_data>
    lcd_wr_data(0x0F);
 8001f58:	200f      	movs	r0, #15
 8001f5a:	f7ff f8ad 	bl	80010b8 <lcd_wr_data>
    lcd_wr_regno(0x2B);
 8001f5e:	202b      	movs	r0, #43	; 0x2b
 8001f60:	f7ff f8be 	bl	80010e0 <lcd_wr_regno>
    lcd_wr_data(0x00);
 8001f64:	2000      	movs	r0, #0
 8001f66:	f7ff f8a7 	bl	80010b8 <lcd_wr_data>
    lcd_wr_data(0x00);
 8001f6a:	2000      	movs	r0, #0
 8001f6c:	f7ff f8a4 	bl	80010b8 <lcd_wr_data>
    lcd_wr_data(0x01);
 8001f70:	2001      	movs	r0, #1
 8001f72:	f7ff f8a1 	bl	80010b8 <lcd_wr_data>
    lcd_wr_data(0x3f);
 8001f76:	203f      	movs	r0, #63	; 0x3f
 8001f78:	f7ff f89e 	bl	80010b8 <lcd_wr_data>
    lcd_wr_regno(0x2A);
 8001f7c:	202a      	movs	r0, #42	; 0x2a
 8001f7e:	f7ff f8af 	bl	80010e0 <lcd_wr_regno>
    lcd_wr_data(0x00);
 8001f82:	2000      	movs	r0, #0
 8001f84:	f7ff f898 	bl	80010b8 <lcd_wr_data>
    lcd_wr_data(0x00);
 8001f88:	2000      	movs	r0, #0
 8001f8a:	f7ff f895 	bl	80010b8 <lcd_wr_data>
    lcd_wr_data(0x00);
 8001f8e:	2000      	movs	r0, #0
 8001f90:	f7ff f892 	bl	80010b8 <lcd_wr_data>
    lcd_wr_data(0xef);
 8001f94:	20ef      	movs	r0, #239	; 0xef
 8001f96:	f7ff f88f 	bl	80010b8 <lcd_wr_data>
    lcd_wr_regno(0x11); /* Exit Sleep */
 8001f9a:	2011      	movs	r0, #17
 8001f9c:	f7ff f8a0 	bl	80010e0 <lcd_wr_regno>
    HAL_Delay(120);
 8001fa0:	2078      	movs	r0, #120	; 0x78
 8001fa2:	f002 f82b 	bl	8003ffc <HAL_Delay>
    lcd_wr_regno(0x29); /* display on */
 8001fa6:	2029      	movs	r0, #41	; 0x29
 8001fa8:	f7ff f89a 	bl	80010e0 <lcd_wr_regno>
 }
 8001fac:	bf00      	nop
 8001fae:	bd80      	pop	{r7, pc}

08001fb0 <lcd_ex_nt35310_reginit>:
 * @brief       NT35310寄存器初始化代码
 * @param       无
 * @retval      无
 */
void lcd_ex_nt35310_reginit(void)
{
 8001fb0:	b580      	push	{r7, lr}
 8001fb2:	af00      	add	r7, sp, #0
    lcd_wr_regno(0xED);
 8001fb4:	20ed      	movs	r0, #237	; 0xed
 8001fb6:	f7ff f893 	bl	80010e0 <lcd_wr_regno>
    lcd_wr_data(0x01);
 8001fba:	2001      	movs	r0, #1
 8001fbc:	f7ff f87c 	bl	80010b8 <lcd_wr_data>
    lcd_wr_data(0xFE);
 8001fc0:	20fe      	movs	r0, #254	; 0xfe
 8001fc2:	f7ff f879 	bl	80010b8 <lcd_wr_data>

    lcd_wr_regno(0xEE);
 8001fc6:	20ee      	movs	r0, #238	; 0xee
 8001fc8:	f7ff f88a 	bl	80010e0 <lcd_wr_regno>
    lcd_wr_data(0xDE);
 8001fcc:	20de      	movs	r0, #222	; 0xde
 8001fce:	f7ff f873 	bl	80010b8 <lcd_wr_data>
    lcd_wr_data(0x21);
 8001fd2:	2021      	movs	r0, #33	; 0x21
 8001fd4:	f7ff f870 	bl	80010b8 <lcd_wr_data>

    lcd_wr_regno(0xF1);
 8001fd8:	20f1      	movs	r0, #241	; 0xf1
 8001fda:	f7ff f881 	bl	80010e0 <lcd_wr_regno>
    lcd_wr_data(0x01);
 8001fde:	2001      	movs	r0, #1
 8001fe0:	f7ff f86a 	bl	80010b8 <lcd_wr_data>
    lcd_wr_regno(0xDF);
 8001fe4:	20df      	movs	r0, #223	; 0xdf
 8001fe6:	f7ff f87b 	bl	80010e0 <lcd_wr_regno>
    lcd_wr_data(0x10);
 8001fea:	2010      	movs	r0, #16
 8001fec:	f7ff f864 	bl	80010b8 <lcd_wr_data>

    /* VCOMvoltage */
    lcd_wr_regno(0xC4);
 8001ff0:	20c4      	movs	r0, #196	; 0xc4
 8001ff2:	f7ff f875 	bl	80010e0 <lcd_wr_regno>
    lcd_wr_data(0x8F);  /* 5f */
 8001ff6:	208f      	movs	r0, #143	; 0x8f
 8001ff8:	f7ff f85e 	bl	80010b8 <lcd_wr_data>

    lcd_wr_regno(0xC6);
 8001ffc:	20c6      	movs	r0, #198	; 0xc6
 8001ffe:	f7ff f86f 	bl	80010e0 <lcd_wr_regno>
    lcd_wr_data(0x00);
 8002002:	2000      	movs	r0, #0
 8002004:	f7ff f858 	bl	80010b8 <lcd_wr_data>
    lcd_wr_data(0xE2);
 8002008:	20e2      	movs	r0, #226	; 0xe2
 800200a:	f7ff f855 	bl	80010b8 <lcd_wr_data>
    lcd_wr_data(0xE2);
 800200e:	20e2      	movs	r0, #226	; 0xe2
 8002010:	f7ff f852 	bl	80010b8 <lcd_wr_data>
    lcd_wr_data(0xE2);
 8002014:	20e2      	movs	r0, #226	; 0xe2
 8002016:	f7ff f84f 	bl	80010b8 <lcd_wr_data>
    lcd_wr_regno(0xBF);
 800201a:	20bf      	movs	r0, #191	; 0xbf
 800201c:	f7ff f860 	bl	80010e0 <lcd_wr_regno>
    lcd_wr_data(0xAA);
 8002020:	20aa      	movs	r0, #170	; 0xaa
 8002022:	f7ff f849 	bl	80010b8 <lcd_wr_data>

    lcd_wr_regno(0xB0);
 8002026:	20b0      	movs	r0, #176	; 0xb0
 8002028:	f7ff f85a 	bl	80010e0 <lcd_wr_regno>
    lcd_wr_data(0x0D);
 800202c:	200d      	movs	r0, #13
 800202e:	f7ff f843 	bl	80010b8 <lcd_wr_data>
    lcd_wr_data(0x00);
 8002032:	2000      	movs	r0, #0
 8002034:	f7ff f840 	bl	80010b8 <lcd_wr_data>
    lcd_wr_data(0x0D);
 8002038:	200d      	movs	r0, #13
 800203a:	f7ff f83d 	bl	80010b8 <lcd_wr_data>
    lcd_wr_data(0x00);
 800203e:	2000      	movs	r0, #0
 8002040:	f7ff f83a 	bl	80010b8 <lcd_wr_data>
    lcd_wr_data(0x11);
 8002044:	2011      	movs	r0, #17
 8002046:	f7ff f837 	bl	80010b8 <lcd_wr_data>
    lcd_wr_data(0x00);
 800204a:	2000      	movs	r0, #0
 800204c:	f7ff f834 	bl	80010b8 <lcd_wr_data>
    lcd_wr_data(0x19);
 8002050:	2019      	movs	r0, #25
 8002052:	f7ff f831 	bl	80010b8 <lcd_wr_data>
    lcd_wr_data(0x00);
 8002056:	2000      	movs	r0, #0
 8002058:	f7ff f82e 	bl	80010b8 <lcd_wr_data>
    lcd_wr_data(0x21);
 800205c:	2021      	movs	r0, #33	; 0x21
 800205e:	f7ff f82b 	bl	80010b8 <lcd_wr_data>
    lcd_wr_data(0x00);
 8002062:	2000      	movs	r0, #0
 8002064:	f7ff f828 	bl	80010b8 <lcd_wr_data>
    lcd_wr_data(0x2D);
 8002068:	202d      	movs	r0, #45	; 0x2d
 800206a:	f7ff f825 	bl	80010b8 <lcd_wr_data>
    lcd_wr_data(0x00);
 800206e:	2000      	movs	r0, #0
 8002070:	f7ff f822 	bl	80010b8 <lcd_wr_data>
    lcd_wr_data(0x3D);
 8002074:	203d      	movs	r0, #61	; 0x3d
 8002076:	f7ff f81f 	bl	80010b8 <lcd_wr_data>
    lcd_wr_data(0x00);
 800207a:	2000      	movs	r0, #0
 800207c:	f7ff f81c 	bl	80010b8 <lcd_wr_data>
    lcd_wr_data(0x5D);
 8002080:	205d      	movs	r0, #93	; 0x5d
 8002082:	f7ff f819 	bl	80010b8 <lcd_wr_data>
    lcd_wr_data(0x00);
 8002086:	2000      	movs	r0, #0
 8002088:	f7ff f816 	bl	80010b8 <lcd_wr_data>
    lcd_wr_data(0x5D);
 800208c:	205d      	movs	r0, #93	; 0x5d
 800208e:	f7ff f813 	bl	80010b8 <lcd_wr_data>
    lcd_wr_data(0x00);
 8002092:	2000      	movs	r0, #0
 8002094:	f7ff f810 	bl	80010b8 <lcd_wr_data>

    lcd_wr_regno(0xB1);
 8002098:	20b1      	movs	r0, #177	; 0xb1
 800209a:	f7ff f821 	bl	80010e0 <lcd_wr_regno>
    lcd_wr_data(0x80);
 800209e:	2080      	movs	r0, #128	; 0x80
 80020a0:	f7ff f80a 	bl	80010b8 <lcd_wr_data>
    lcd_wr_data(0x00);
 80020a4:	2000      	movs	r0, #0
 80020a6:	f7ff f807 	bl	80010b8 <lcd_wr_data>
    lcd_wr_data(0x8B);
 80020aa:	208b      	movs	r0, #139	; 0x8b
 80020ac:	f7ff f804 	bl	80010b8 <lcd_wr_data>
    lcd_wr_data(0x00);
 80020b0:	2000      	movs	r0, #0
 80020b2:	f7ff f801 	bl	80010b8 <lcd_wr_data>
    lcd_wr_data(0x96);
 80020b6:	2096      	movs	r0, #150	; 0x96
 80020b8:	f7fe fffe 	bl	80010b8 <lcd_wr_data>
    lcd_wr_data(0x00);
 80020bc:	2000      	movs	r0, #0
 80020be:	f7fe fffb 	bl	80010b8 <lcd_wr_data>

    lcd_wr_regno(0xB2);
 80020c2:	20b2      	movs	r0, #178	; 0xb2
 80020c4:	f7ff f80c 	bl	80010e0 <lcd_wr_regno>
    lcd_wr_data(0x00);
 80020c8:	2000      	movs	r0, #0
 80020ca:	f7fe fff5 	bl	80010b8 <lcd_wr_data>
    lcd_wr_data(0x00);
 80020ce:	2000      	movs	r0, #0
 80020d0:	f7fe fff2 	bl	80010b8 <lcd_wr_data>
    lcd_wr_data(0x02);
 80020d4:	2002      	movs	r0, #2
 80020d6:	f7fe ffef 	bl	80010b8 <lcd_wr_data>
    lcd_wr_data(0x00);
 80020da:	2000      	movs	r0, #0
 80020dc:	f7fe ffec 	bl	80010b8 <lcd_wr_data>
    lcd_wr_data(0x03);
 80020e0:	2003      	movs	r0, #3
 80020e2:	f7fe ffe9 	bl	80010b8 <lcd_wr_data>
    lcd_wr_data(0x00);
 80020e6:	2000      	movs	r0, #0
 80020e8:	f7fe ffe6 	bl	80010b8 <lcd_wr_data>

    lcd_wr_regno(0xB3);
 80020ec:	20b3      	movs	r0, #179	; 0xb3
 80020ee:	f7fe fff7 	bl	80010e0 <lcd_wr_regno>
    lcd_wr_data(0x00);
 80020f2:	2000      	movs	r0, #0
 80020f4:	f7fe ffe0 	bl	80010b8 <lcd_wr_data>
    lcd_wr_data(0x00);
 80020f8:	2000      	movs	r0, #0
 80020fa:	f7fe ffdd 	bl	80010b8 <lcd_wr_data>
    lcd_wr_data(0x00);
 80020fe:	2000      	movs	r0, #0
 8002100:	f7fe ffda 	bl	80010b8 <lcd_wr_data>
    lcd_wr_data(0x00);
 8002104:	2000      	movs	r0, #0
 8002106:	f7fe ffd7 	bl	80010b8 <lcd_wr_data>
    lcd_wr_data(0x00);
 800210a:	2000      	movs	r0, #0
 800210c:	f7fe ffd4 	bl	80010b8 <lcd_wr_data>
    lcd_wr_data(0x00);
 8002110:	2000      	movs	r0, #0
 8002112:	f7fe ffd1 	bl	80010b8 <lcd_wr_data>
    lcd_wr_data(0x00);
 8002116:	2000      	movs	r0, #0
 8002118:	f7fe ffce 	bl	80010b8 <lcd_wr_data>
    lcd_wr_data(0x00);
 800211c:	2000      	movs	r0, #0
 800211e:	f7fe ffcb 	bl	80010b8 <lcd_wr_data>
    lcd_wr_data(0x00);
 8002122:	2000      	movs	r0, #0
 8002124:	f7fe ffc8 	bl	80010b8 <lcd_wr_data>
    lcd_wr_data(0x00);
 8002128:	2000      	movs	r0, #0
 800212a:	f7fe ffc5 	bl	80010b8 <lcd_wr_data>
    lcd_wr_data(0x00);
 800212e:	2000      	movs	r0, #0
 8002130:	f7fe ffc2 	bl	80010b8 <lcd_wr_data>
    lcd_wr_data(0x00);
 8002134:	2000      	movs	r0, #0
 8002136:	f7fe ffbf 	bl	80010b8 <lcd_wr_data>
    lcd_wr_data(0x00);
 800213a:	2000      	movs	r0, #0
 800213c:	f7fe ffbc 	bl	80010b8 <lcd_wr_data>
    lcd_wr_data(0x00);
 8002140:	2000      	movs	r0, #0
 8002142:	f7fe ffb9 	bl	80010b8 <lcd_wr_data>
    lcd_wr_data(0x00);
 8002146:	2000      	movs	r0, #0
 8002148:	f7fe ffb6 	bl	80010b8 <lcd_wr_data>
    lcd_wr_data(0x00);
 800214c:	2000      	movs	r0, #0
 800214e:	f7fe ffb3 	bl	80010b8 <lcd_wr_data>
    lcd_wr_data(0x00);
 8002152:	2000      	movs	r0, #0
 8002154:	f7fe ffb0 	bl	80010b8 <lcd_wr_data>
    lcd_wr_data(0x00);
 8002158:	2000      	movs	r0, #0
 800215a:	f7fe ffad 	bl	80010b8 <lcd_wr_data>
    lcd_wr_data(0x00);
 800215e:	2000      	movs	r0, #0
 8002160:	f7fe ffaa 	bl	80010b8 <lcd_wr_data>
    lcd_wr_data(0x00);
 8002164:	2000      	movs	r0, #0
 8002166:	f7fe ffa7 	bl	80010b8 <lcd_wr_data>
    lcd_wr_data(0x00);
 800216a:	2000      	movs	r0, #0
 800216c:	f7fe ffa4 	bl	80010b8 <lcd_wr_data>
    lcd_wr_data(0x00);
 8002170:	2000      	movs	r0, #0
 8002172:	f7fe ffa1 	bl	80010b8 <lcd_wr_data>
    lcd_wr_data(0x00);
 8002176:	2000      	movs	r0, #0
 8002178:	f7fe ff9e 	bl	80010b8 <lcd_wr_data>
    lcd_wr_data(0x00);
 800217c:	2000      	movs	r0, #0
 800217e:	f7fe ff9b 	bl	80010b8 <lcd_wr_data>

    lcd_wr_regno(0xB4);
 8002182:	20b4      	movs	r0, #180	; 0xb4
 8002184:	f7fe ffac 	bl	80010e0 <lcd_wr_regno>
    lcd_wr_data(0x8B);
 8002188:	208b      	movs	r0, #139	; 0x8b
 800218a:	f7fe ff95 	bl	80010b8 <lcd_wr_data>
    lcd_wr_data(0x00);
 800218e:	2000      	movs	r0, #0
 8002190:	f7fe ff92 	bl	80010b8 <lcd_wr_data>
    lcd_wr_data(0x96);
 8002194:	2096      	movs	r0, #150	; 0x96
 8002196:	f7fe ff8f 	bl	80010b8 <lcd_wr_data>
    lcd_wr_data(0x00);
 800219a:	2000      	movs	r0, #0
 800219c:	f7fe ff8c 	bl	80010b8 <lcd_wr_data>
    lcd_wr_data(0xA1);
 80021a0:	20a1      	movs	r0, #161	; 0xa1
 80021a2:	f7fe ff89 	bl	80010b8 <lcd_wr_data>
    lcd_wr_data(0x00);
 80021a6:	2000      	movs	r0, #0
 80021a8:	f7fe ff86 	bl	80010b8 <lcd_wr_data>

    lcd_wr_regno(0xB5);
 80021ac:	20b5      	movs	r0, #181	; 0xb5
 80021ae:	f7fe ff97 	bl	80010e0 <lcd_wr_regno>
    lcd_wr_data(0x02);
 80021b2:	2002      	movs	r0, #2
 80021b4:	f7fe ff80 	bl	80010b8 <lcd_wr_data>
    lcd_wr_data(0x00);
 80021b8:	2000      	movs	r0, #0
 80021ba:	f7fe ff7d 	bl	80010b8 <lcd_wr_data>
    lcd_wr_data(0x03);
 80021be:	2003      	movs	r0, #3
 80021c0:	f7fe ff7a 	bl	80010b8 <lcd_wr_data>
    lcd_wr_data(0x00);
 80021c4:	2000      	movs	r0, #0
 80021c6:	f7fe ff77 	bl	80010b8 <lcd_wr_data>
    lcd_wr_data(0x04);
 80021ca:	2004      	movs	r0, #4
 80021cc:	f7fe ff74 	bl	80010b8 <lcd_wr_data>
    lcd_wr_data(0x00);
 80021d0:	2000      	movs	r0, #0
 80021d2:	f7fe ff71 	bl	80010b8 <lcd_wr_data>

    lcd_wr_regno(0xB6);
 80021d6:	20b6      	movs	r0, #182	; 0xb6
 80021d8:	f7fe ff82 	bl	80010e0 <lcd_wr_regno>
    lcd_wr_data(0x00);
 80021dc:	2000      	movs	r0, #0
 80021de:	f7fe ff6b 	bl	80010b8 <lcd_wr_data>
    lcd_wr_data(0x00);
 80021e2:	2000      	movs	r0, #0
 80021e4:	f7fe ff68 	bl	80010b8 <lcd_wr_data>

    lcd_wr_regno(0xB7);
 80021e8:	20b7      	movs	r0, #183	; 0xb7
 80021ea:	f7fe ff79 	bl	80010e0 <lcd_wr_regno>
    lcd_wr_data(0x00);
 80021ee:	2000      	movs	r0, #0
 80021f0:	f7fe ff62 	bl	80010b8 <lcd_wr_data>
    lcd_wr_data(0x00);
 80021f4:	2000      	movs	r0, #0
 80021f6:	f7fe ff5f 	bl	80010b8 <lcd_wr_data>
    lcd_wr_data(0x3F);
 80021fa:	203f      	movs	r0, #63	; 0x3f
 80021fc:	f7fe ff5c 	bl	80010b8 <lcd_wr_data>
    lcd_wr_data(0x00);
 8002200:	2000      	movs	r0, #0
 8002202:	f7fe ff59 	bl	80010b8 <lcd_wr_data>
    lcd_wr_data(0x5E);
 8002206:	205e      	movs	r0, #94	; 0x5e
 8002208:	f7fe ff56 	bl	80010b8 <lcd_wr_data>
    lcd_wr_data(0x00);
 800220c:	2000      	movs	r0, #0
 800220e:	f7fe ff53 	bl	80010b8 <lcd_wr_data>
    lcd_wr_data(0x64);
 8002212:	2064      	movs	r0, #100	; 0x64
 8002214:	f7fe ff50 	bl	80010b8 <lcd_wr_data>
    lcd_wr_data(0x00);
 8002218:	2000      	movs	r0, #0
 800221a:	f7fe ff4d 	bl	80010b8 <lcd_wr_data>
    lcd_wr_data(0x8C);
 800221e:	208c      	movs	r0, #140	; 0x8c
 8002220:	f7fe ff4a 	bl	80010b8 <lcd_wr_data>
    lcd_wr_data(0x00);
 8002224:	2000      	movs	r0, #0
 8002226:	f7fe ff47 	bl	80010b8 <lcd_wr_data>
    lcd_wr_data(0xAC);
 800222a:	20ac      	movs	r0, #172	; 0xac
 800222c:	f7fe ff44 	bl	80010b8 <lcd_wr_data>
    lcd_wr_data(0x00);
 8002230:	2000      	movs	r0, #0
 8002232:	f7fe ff41 	bl	80010b8 <lcd_wr_data>
    lcd_wr_data(0xDC);
 8002236:	20dc      	movs	r0, #220	; 0xdc
 8002238:	f7fe ff3e 	bl	80010b8 <lcd_wr_data>
    lcd_wr_data(0x00);
 800223c:	2000      	movs	r0, #0
 800223e:	f7fe ff3b 	bl	80010b8 <lcd_wr_data>
    lcd_wr_data(0x70);
 8002242:	2070      	movs	r0, #112	; 0x70
 8002244:	f7fe ff38 	bl	80010b8 <lcd_wr_data>
    lcd_wr_data(0x00);
 8002248:	2000      	movs	r0, #0
 800224a:	f7fe ff35 	bl	80010b8 <lcd_wr_data>
    lcd_wr_data(0x90);
 800224e:	2090      	movs	r0, #144	; 0x90
 8002250:	f7fe ff32 	bl	80010b8 <lcd_wr_data>
    lcd_wr_data(0x00);
 8002254:	2000      	movs	r0, #0
 8002256:	f7fe ff2f 	bl	80010b8 <lcd_wr_data>
    lcd_wr_data(0xEB);
 800225a:	20eb      	movs	r0, #235	; 0xeb
 800225c:	f7fe ff2c 	bl	80010b8 <lcd_wr_data>
    lcd_wr_data(0x00);
 8002260:	2000      	movs	r0, #0
 8002262:	f7fe ff29 	bl	80010b8 <lcd_wr_data>
    lcd_wr_data(0xDC);
 8002266:	20dc      	movs	r0, #220	; 0xdc
 8002268:	f7fe ff26 	bl	80010b8 <lcd_wr_data>
    lcd_wr_data(0x00);
 800226c:	2000      	movs	r0, #0
 800226e:	f7fe ff23 	bl	80010b8 <lcd_wr_data>

    lcd_wr_regno(0xB8);
 8002272:	20b8      	movs	r0, #184	; 0xb8
 8002274:	f7fe ff34 	bl	80010e0 <lcd_wr_regno>
    lcd_wr_data(0x00);
 8002278:	2000      	movs	r0, #0
 800227a:	f7fe ff1d 	bl	80010b8 <lcd_wr_data>
    lcd_wr_data(0x00);
 800227e:	2000      	movs	r0, #0
 8002280:	f7fe ff1a 	bl	80010b8 <lcd_wr_data>
    lcd_wr_data(0x00);
 8002284:	2000      	movs	r0, #0
 8002286:	f7fe ff17 	bl	80010b8 <lcd_wr_data>
    lcd_wr_data(0x00);
 800228a:	2000      	movs	r0, #0
 800228c:	f7fe ff14 	bl	80010b8 <lcd_wr_data>
    lcd_wr_data(0x00);
 8002290:	2000      	movs	r0, #0
 8002292:	f7fe ff11 	bl	80010b8 <lcd_wr_data>
    lcd_wr_data(0x00);
 8002296:	2000      	movs	r0, #0
 8002298:	f7fe ff0e 	bl	80010b8 <lcd_wr_data>
    lcd_wr_data(0x00);
 800229c:	2000      	movs	r0, #0
 800229e:	f7fe ff0b 	bl	80010b8 <lcd_wr_data>
    lcd_wr_data(0x00);
 80022a2:	2000      	movs	r0, #0
 80022a4:	f7fe ff08 	bl	80010b8 <lcd_wr_data>

    lcd_wr_regno(0xBA);
 80022a8:	20ba      	movs	r0, #186	; 0xba
 80022aa:	f7fe ff19 	bl	80010e0 <lcd_wr_regno>
    lcd_wr_data(0x24);
 80022ae:	2024      	movs	r0, #36	; 0x24
 80022b0:	f7fe ff02 	bl	80010b8 <lcd_wr_data>
    lcd_wr_data(0x00);
 80022b4:	2000      	movs	r0, #0
 80022b6:	f7fe feff 	bl	80010b8 <lcd_wr_data>
    lcd_wr_data(0x00);
 80022ba:	2000      	movs	r0, #0
 80022bc:	f7fe fefc 	bl	80010b8 <lcd_wr_data>
    lcd_wr_data(0x00);
 80022c0:	2000      	movs	r0, #0
 80022c2:	f7fe fef9 	bl	80010b8 <lcd_wr_data>

    lcd_wr_regno(0xC1);
 80022c6:	20c1      	movs	r0, #193	; 0xc1
 80022c8:	f7fe ff0a 	bl	80010e0 <lcd_wr_regno>
    lcd_wr_data(0x20);
 80022cc:	2020      	movs	r0, #32
 80022ce:	f7fe fef3 	bl	80010b8 <lcd_wr_data>
    lcd_wr_data(0x00);
 80022d2:	2000      	movs	r0, #0
 80022d4:	f7fe fef0 	bl	80010b8 <lcd_wr_data>
    lcd_wr_data(0x54);
 80022d8:	2054      	movs	r0, #84	; 0x54
 80022da:	f7fe feed 	bl	80010b8 <lcd_wr_data>
    lcd_wr_data(0x00);
 80022de:	2000      	movs	r0, #0
 80022e0:	f7fe feea 	bl	80010b8 <lcd_wr_data>
    lcd_wr_data(0xFF);
 80022e4:	20ff      	movs	r0, #255	; 0xff
 80022e6:	f7fe fee7 	bl	80010b8 <lcd_wr_data>
    lcd_wr_data(0x00);
 80022ea:	2000      	movs	r0, #0
 80022ec:	f7fe fee4 	bl	80010b8 <lcd_wr_data>

    lcd_wr_regno(0xC2);
 80022f0:	20c2      	movs	r0, #194	; 0xc2
 80022f2:	f7fe fef5 	bl	80010e0 <lcd_wr_regno>
    lcd_wr_data(0x0A);
 80022f6:	200a      	movs	r0, #10
 80022f8:	f7fe fede 	bl	80010b8 <lcd_wr_data>
    lcd_wr_data(0x00);
 80022fc:	2000      	movs	r0, #0
 80022fe:	f7fe fedb 	bl	80010b8 <lcd_wr_data>
    lcd_wr_data(0x04);
 8002302:	2004      	movs	r0, #4
 8002304:	f7fe fed8 	bl	80010b8 <lcd_wr_data>
    lcd_wr_data(0x00);
 8002308:	2000      	movs	r0, #0
 800230a:	f7fe fed5 	bl	80010b8 <lcd_wr_data>

    lcd_wr_regno(0xC3);
 800230e:	20c3      	movs	r0, #195	; 0xc3
 8002310:	f7fe fee6 	bl	80010e0 <lcd_wr_regno>
    lcd_wr_data(0x3C);
 8002314:	203c      	movs	r0, #60	; 0x3c
 8002316:	f7fe fecf 	bl	80010b8 <lcd_wr_data>
    lcd_wr_data(0x00);
 800231a:	2000      	movs	r0, #0
 800231c:	f7fe fecc 	bl	80010b8 <lcd_wr_data>
    lcd_wr_data(0x3A);
 8002320:	203a      	movs	r0, #58	; 0x3a
 8002322:	f7fe fec9 	bl	80010b8 <lcd_wr_data>
    lcd_wr_data(0x00);
 8002326:	2000      	movs	r0, #0
 8002328:	f7fe fec6 	bl	80010b8 <lcd_wr_data>
    lcd_wr_data(0x39);
 800232c:	2039      	movs	r0, #57	; 0x39
 800232e:	f7fe fec3 	bl	80010b8 <lcd_wr_data>
    lcd_wr_data(0x00);
 8002332:	2000      	movs	r0, #0
 8002334:	f7fe fec0 	bl	80010b8 <lcd_wr_data>
    lcd_wr_data(0x37);
 8002338:	2037      	movs	r0, #55	; 0x37
 800233a:	f7fe febd 	bl	80010b8 <lcd_wr_data>
    lcd_wr_data(0x00);
 800233e:	2000      	movs	r0, #0
 8002340:	f7fe feba 	bl	80010b8 <lcd_wr_data>
    lcd_wr_data(0x3C);
 8002344:	203c      	movs	r0, #60	; 0x3c
 8002346:	f7fe feb7 	bl	80010b8 <lcd_wr_data>
    lcd_wr_data(0x00);
 800234a:	2000      	movs	r0, #0
 800234c:	f7fe feb4 	bl	80010b8 <lcd_wr_data>
    lcd_wr_data(0x36);
 8002350:	2036      	movs	r0, #54	; 0x36
 8002352:	f7fe feb1 	bl	80010b8 <lcd_wr_data>
    lcd_wr_data(0x00);
 8002356:	2000      	movs	r0, #0
 8002358:	f7fe feae 	bl	80010b8 <lcd_wr_data>
    lcd_wr_data(0x32);
 800235c:	2032      	movs	r0, #50	; 0x32
 800235e:	f7fe feab 	bl	80010b8 <lcd_wr_data>
    lcd_wr_data(0x00);
 8002362:	2000      	movs	r0, #0
 8002364:	f7fe fea8 	bl	80010b8 <lcd_wr_data>
    lcd_wr_data(0x2F);
 8002368:	202f      	movs	r0, #47	; 0x2f
 800236a:	f7fe fea5 	bl	80010b8 <lcd_wr_data>
    lcd_wr_data(0x00);
 800236e:	2000      	movs	r0, #0
 8002370:	f7fe fea2 	bl	80010b8 <lcd_wr_data>
    lcd_wr_data(0x2C);
 8002374:	202c      	movs	r0, #44	; 0x2c
 8002376:	f7fe fe9f 	bl	80010b8 <lcd_wr_data>
    lcd_wr_data(0x00);
 800237a:	2000      	movs	r0, #0
 800237c:	f7fe fe9c 	bl	80010b8 <lcd_wr_data>
    lcd_wr_data(0x29);
 8002380:	2029      	movs	r0, #41	; 0x29
 8002382:	f7fe fe99 	bl	80010b8 <lcd_wr_data>
    lcd_wr_data(0x00);
 8002386:	2000      	movs	r0, #0
 8002388:	f7fe fe96 	bl	80010b8 <lcd_wr_data>
    lcd_wr_data(0x26);
 800238c:	2026      	movs	r0, #38	; 0x26
 800238e:	f7fe fe93 	bl	80010b8 <lcd_wr_data>
    lcd_wr_data(0x00);
 8002392:	2000      	movs	r0, #0
 8002394:	f7fe fe90 	bl	80010b8 <lcd_wr_data>
    lcd_wr_data(0x24);
 8002398:	2024      	movs	r0, #36	; 0x24
 800239a:	f7fe fe8d 	bl	80010b8 <lcd_wr_data>
    lcd_wr_data(0x00);
 800239e:	2000      	movs	r0, #0
 80023a0:	f7fe fe8a 	bl	80010b8 <lcd_wr_data>
    lcd_wr_data(0x24);
 80023a4:	2024      	movs	r0, #36	; 0x24
 80023a6:	f7fe fe87 	bl	80010b8 <lcd_wr_data>
    lcd_wr_data(0x00);
 80023aa:	2000      	movs	r0, #0
 80023ac:	f7fe fe84 	bl	80010b8 <lcd_wr_data>
    lcd_wr_data(0x23);
 80023b0:	2023      	movs	r0, #35	; 0x23
 80023b2:	f7fe fe81 	bl	80010b8 <lcd_wr_data>
    lcd_wr_data(0x00);
 80023b6:	2000      	movs	r0, #0
 80023b8:	f7fe fe7e 	bl	80010b8 <lcd_wr_data>
    lcd_wr_data(0x3C);
 80023bc:	203c      	movs	r0, #60	; 0x3c
 80023be:	f7fe fe7b 	bl	80010b8 <lcd_wr_data>
    lcd_wr_data(0x00);
 80023c2:	2000      	movs	r0, #0
 80023c4:	f7fe fe78 	bl	80010b8 <lcd_wr_data>
    lcd_wr_data(0x36);
 80023c8:	2036      	movs	r0, #54	; 0x36
 80023ca:	f7fe fe75 	bl	80010b8 <lcd_wr_data>
    lcd_wr_data(0x00);
 80023ce:	2000      	movs	r0, #0
 80023d0:	f7fe fe72 	bl	80010b8 <lcd_wr_data>
    lcd_wr_data(0x32);
 80023d4:	2032      	movs	r0, #50	; 0x32
 80023d6:	f7fe fe6f 	bl	80010b8 <lcd_wr_data>
    lcd_wr_data(0x00);
 80023da:	2000      	movs	r0, #0
 80023dc:	f7fe fe6c 	bl	80010b8 <lcd_wr_data>
    lcd_wr_data(0x2F);
 80023e0:	202f      	movs	r0, #47	; 0x2f
 80023e2:	f7fe fe69 	bl	80010b8 <lcd_wr_data>
    lcd_wr_data(0x00);
 80023e6:	2000      	movs	r0, #0
 80023e8:	f7fe fe66 	bl	80010b8 <lcd_wr_data>
    lcd_wr_data(0x2C);
 80023ec:	202c      	movs	r0, #44	; 0x2c
 80023ee:	f7fe fe63 	bl	80010b8 <lcd_wr_data>
    lcd_wr_data(0x00);
 80023f2:	2000      	movs	r0, #0
 80023f4:	f7fe fe60 	bl	80010b8 <lcd_wr_data>
    lcd_wr_data(0x29);
 80023f8:	2029      	movs	r0, #41	; 0x29
 80023fa:	f7fe fe5d 	bl	80010b8 <lcd_wr_data>
    lcd_wr_data(0x00);
 80023fe:	2000      	movs	r0, #0
 8002400:	f7fe fe5a 	bl	80010b8 <lcd_wr_data>
    lcd_wr_data(0x26);
 8002404:	2026      	movs	r0, #38	; 0x26
 8002406:	f7fe fe57 	bl	80010b8 <lcd_wr_data>
    lcd_wr_data(0x00);
 800240a:	2000      	movs	r0, #0
 800240c:	f7fe fe54 	bl	80010b8 <lcd_wr_data>
    lcd_wr_data(0x24);
 8002410:	2024      	movs	r0, #36	; 0x24
 8002412:	f7fe fe51 	bl	80010b8 <lcd_wr_data>
    lcd_wr_data(0x00);
 8002416:	2000      	movs	r0, #0
 8002418:	f7fe fe4e 	bl	80010b8 <lcd_wr_data>
    lcd_wr_data(0x24);
 800241c:	2024      	movs	r0, #36	; 0x24
 800241e:	f7fe fe4b 	bl	80010b8 <lcd_wr_data>
    lcd_wr_data(0x00);
 8002422:	2000      	movs	r0, #0
 8002424:	f7fe fe48 	bl	80010b8 <lcd_wr_data>
    lcd_wr_data(0x23);
 8002428:	2023      	movs	r0, #35	; 0x23
 800242a:	f7fe fe45 	bl	80010b8 <lcd_wr_data>
    lcd_wr_data(0x00);
 800242e:	2000      	movs	r0, #0
 8002430:	f7fe fe42 	bl	80010b8 <lcd_wr_data>

    lcd_wr_regno(0xC4);
 8002434:	20c4      	movs	r0, #196	; 0xc4
 8002436:	f7fe fe53 	bl	80010e0 <lcd_wr_regno>
    lcd_wr_data(0x62);
 800243a:	2062      	movs	r0, #98	; 0x62
 800243c:	f7fe fe3c 	bl	80010b8 <lcd_wr_data>
    lcd_wr_data(0x00);
 8002440:	2000      	movs	r0, #0
 8002442:	f7fe fe39 	bl	80010b8 <lcd_wr_data>
    lcd_wr_data(0x05);
 8002446:	2005      	movs	r0, #5
 8002448:	f7fe fe36 	bl	80010b8 <lcd_wr_data>
    lcd_wr_data(0x00);
 800244c:	2000      	movs	r0, #0
 800244e:	f7fe fe33 	bl	80010b8 <lcd_wr_data>
    lcd_wr_data(0x84);
 8002452:	2084      	movs	r0, #132	; 0x84
 8002454:	f7fe fe30 	bl	80010b8 <lcd_wr_data>
    lcd_wr_data(0x00);
 8002458:	2000      	movs	r0, #0
 800245a:	f7fe fe2d 	bl	80010b8 <lcd_wr_data>
    lcd_wr_data(0xF0);
 800245e:	20f0      	movs	r0, #240	; 0xf0
 8002460:	f7fe fe2a 	bl	80010b8 <lcd_wr_data>
    lcd_wr_data(0x00);
 8002464:	2000      	movs	r0, #0
 8002466:	f7fe fe27 	bl	80010b8 <lcd_wr_data>
    lcd_wr_data(0x18);
 800246a:	2018      	movs	r0, #24
 800246c:	f7fe fe24 	bl	80010b8 <lcd_wr_data>
    lcd_wr_data(0x00);
 8002470:	2000      	movs	r0, #0
 8002472:	f7fe fe21 	bl	80010b8 <lcd_wr_data>
    lcd_wr_data(0xA4);
 8002476:	20a4      	movs	r0, #164	; 0xa4
 8002478:	f7fe fe1e 	bl	80010b8 <lcd_wr_data>
    lcd_wr_data(0x00);
 800247c:	2000      	movs	r0, #0
 800247e:	f7fe fe1b 	bl	80010b8 <lcd_wr_data>
    lcd_wr_data(0x18);
 8002482:	2018      	movs	r0, #24
 8002484:	f7fe fe18 	bl	80010b8 <lcd_wr_data>
    lcd_wr_data(0x00);
 8002488:	2000      	movs	r0, #0
 800248a:	f7fe fe15 	bl	80010b8 <lcd_wr_data>
    lcd_wr_data(0x50);
 800248e:	2050      	movs	r0, #80	; 0x50
 8002490:	f7fe fe12 	bl	80010b8 <lcd_wr_data>
    lcd_wr_data(0x00);
 8002494:	2000      	movs	r0, #0
 8002496:	f7fe fe0f 	bl	80010b8 <lcd_wr_data>
    lcd_wr_data(0x0C);
 800249a:	200c      	movs	r0, #12
 800249c:	f7fe fe0c 	bl	80010b8 <lcd_wr_data>
    lcd_wr_data(0x00);
 80024a0:	2000      	movs	r0, #0
 80024a2:	f7fe fe09 	bl	80010b8 <lcd_wr_data>
    lcd_wr_data(0x17);
 80024a6:	2017      	movs	r0, #23
 80024a8:	f7fe fe06 	bl	80010b8 <lcd_wr_data>
    lcd_wr_data(0x00);
 80024ac:	2000      	movs	r0, #0
 80024ae:	f7fe fe03 	bl	80010b8 <lcd_wr_data>
    lcd_wr_data(0x95);
 80024b2:	2095      	movs	r0, #149	; 0x95
 80024b4:	f7fe fe00 	bl	80010b8 <lcd_wr_data>
    lcd_wr_data(0x00);
 80024b8:	2000      	movs	r0, #0
 80024ba:	f7fe fdfd 	bl	80010b8 <lcd_wr_data>
    lcd_wr_data(0xF3);
 80024be:	20f3      	movs	r0, #243	; 0xf3
 80024c0:	f7fe fdfa 	bl	80010b8 <lcd_wr_data>
    lcd_wr_data(0x00);
 80024c4:	2000      	movs	r0, #0
 80024c6:	f7fe fdf7 	bl	80010b8 <lcd_wr_data>
    lcd_wr_data(0xE6);
 80024ca:	20e6      	movs	r0, #230	; 0xe6
 80024cc:	f7fe fdf4 	bl	80010b8 <lcd_wr_data>
    lcd_wr_data(0x00);
 80024d0:	2000      	movs	r0, #0
 80024d2:	f7fe fdf1 	bl	80010b8 <lcd_wr_data>

    lcd_wr_regno(0xC5);
 80024d6:	20c5      	movs	r0, #197	; 0xc5
 80024d8:	f7fe fe02 	bl	80010e0 <lcd_wr_regno>
    lcd_wr_data(0x32);
 80024dc:	2032      	movs	r0, #50	; 0x32
 80024de:	f7fe fdeb 	bl	80010b8 <lcd_wr_data>
    lcd_wr_data(0x00);
 80024e2:	2000      	movs	r0, #0
 80024e4:	f7fe fde8 	bl	80010b8 <lcd_wr_data>
    lcd_wr_data(0x44);
 80024e8:	2044      	movs	r0, #68	; 0x44
 80024ea:	f7fe fde5 	bl	80010b8 <lcd_wr_data>
    lcd_wr_data(0x00);
 80024ee:	2000      	movs	r0, #0
 80024f0:	f7fe fde2 	bl	80010b8 <lcd_wr_data>
    lcd_wr_data(0x65);
 80024f4:	2065      	movs	r0, #101	; 0x65
 80024f6:	f7fe fddf 	bl	80010b8 <lcd_wr_data>
    lcd_wr_data(0x00);
 80024fa:	2000      	movs	r0, #0
 80024fc:	f7fe fddc 	bl	80010b8 <lcd_wr_data>
    lcd_wr_data(0x76);
 8002500:	2076      	movs	r0, #118	; 0x76
 8002502:	f7fe fdd9 	bl	80010b8 <lcd_wr_data>
    lcd_wr_data(0x00);
 8002506:	2000      	movs	r0, #0
 8002508:	f7fe fdd6 	bl	80010b8 <lcd_wr_data>
    lcd_wr_data(0x88);
 800250c:	2088      	movs	r0, #136	; 0x88
 800250e:	f7fe fdd3 	bl	80010b8 <lcd_wr_data>
    lcd_wr_data(0x00);
 8002512:	2000      	movs	r0, #0
 8002514:	f7fe fdd0 	bl	80010b8 <lcd_wr_data>

    lcd_wr_regno(0xC6);
 8002518:	20c6      	movs	r0, #198	; 0xc6
 800251a:	f7fe fde1 	bl	80010e0 <lcd_wr_regno>
    lcd_wr_data(0x20);
 800251e:	2020      	movs	r0, #32
 8002520:	f7fe fdca 	bl	80010b8 <lcd_wr_data>
    lcd_wr_data(0x00);
 8002524:	2000      	movs	r0, #0
 8002526:	f7fe fdc7 	bl	80010b8 <lcd_wr_data>
    lcd_wr_data(0x17);
 800252a:	2017      	movs	r0, #23
 800252c:	f7fe fdc4 	bl	80010b8 <lcd_wr_data>
    lcd_wr_data(0x00);
 8002530:	2000      	movs	r0, #0
 8002532:	f7fe fdc1 	bl	80010b8 <lcd_wr_data>
    lcd_wr_data(0x01);
 8002536:	2001      	movs	r0, #1
 8002538:	f7fe fdbe 	bl	80010b8 <lcd_wr_data>
    lcd_wr_data(0x00);
 800253c:	2000      	movs	r0, #0
 800253e:	f7fe fdbb 	bl	80010b8 <lcd_wr_data>

    lcd_wr_regno(0xC7);
 8002542:	20c7      	movs	r0, #199	; 0xc7
 8002544:	f7fe fdcc 	bl	80010e0 <lcd_wr_regno>
    lcd_wr_data(0x00);
 8002548:	2000      	movs	r0, #0
 800254a:	f7fe fdb5 	bl	80010b8 <lcd_wr_data>
    lcd_wr_data(0x00);
 800254e:	2000      	movs	r0, #0
 8002550:	f7fe fdb2 	bl	80010b8 <lcd_wr_data>
    lcd_wr_data(0x00);
 8002554:	2000      	movs	r0, #0
 8002556:	f7fe fdaf 	bl	80010b8 <lcd_wr_data>
    lcd_wr_data(0x00);
 800255a:	2000      	movs	r0, #0
 800255c:	f7fe fdac 	bl	80010b8 <lcd_wr_data>

    lcd_wr_regno(0xC8);
 8002560:	20c8      	movs	r0, #200	; 0xc8
 8002562:	f7fe fdbd 	bl	80010e0 <lcd_wr_regno>
    lcd_wr_data(0x00);
 8002566:	2000      	movs	r0, #0
 8002568:	f7fe fda6 	bl	80010b8 <lcd_wr_data>
    lcd_wr_data(0x00);
 800256c:	2000      	movs	r0, #0
 800256e:	f7fe fda3 	bl	80010b8 <lcd_wr_data>
    lcd_wr_data(0x00);
 8002572:	2000      	movs	r0, #0
 8002574:	f7fe fda0 	bl	80010b8 <lcd_wr_data>
    lcd_wr_data(0x00);
 8002578:	2000      	movs	r0, #0
 800257a:	f7fe fd9d 	bl	80010b8 <lcd_wr_data>

    lcd_wr_regno(0xC9);
 800257e:	20c9      	movs	r0, #201	; 0xc9
 8002580:	f7fe fdae 	bl	80010e0 <lcd_wr_regno>
    lcd_wr_data(0x00);
 8002584:	2000      	movs	r0, #0
 8002586:	f7fe fd97 	bl	80010b8 <lcd_wr_data>
    lcd_wr_data(0x00);
 800258a:	2000      	movs	r0, #0
 800258c:	f7fe fd94 	bl	80010b8 <lcd_wr_data>
    lcd_wr_data(0x00);
 8002590:	2000      	movs	r0, #0
 8002592:	f7fe fd91 	bl	80010b8 <lcd_wr_data>
    lcd_wr_data(0x00);
 8002596:	2000      	movs	r0, #0
 8002598:	f7fe fd8e 	bl	80010b8 <lcd_wr_data>
    lcd_wr_data(0x00);
 800259c:	2000      	movs	r0, #0
 800259e:	f7fe fd8b 	bl	80010b8 <lcd_wr_data>
    lcd_wr_data(0x00);
 80025a2:	2000      	movs	r0, #0
 80025a4:	f7fe fd88 	bl	80010b8 <lcd_wr_data>
    lcd_wr_data(0x00);
 80025a8:	2000      	movs	r0, #0
 80025aa:	f7fe fd85 	bl	80010b8 <lcd_wr_data>
    lcd_wr_data(0x00);
 80025ae:	2000      	movs	r0, #0
 80025b0:	f7fe fd82 	bl	80010b8 <lcd_wr_data>
    lcd_wr_data(0x00);
 80025b4:	2000      	movs	r0, #0
 80025b6:	f7fe fd7f 	bl	80010b8 <lcd_wr_data>
    lcd_wr_data(0x00);
 80025ba:	2000      	movs	r0, #0
 80025bc:	f7fe fd7c 	bl	80010b8 <lcd_wr_data>
    lcd_wr_data(0x00);
 80025c0:	2000      	movs	r0, #0
 80025c2:	f7fe fd79 	bl	80010b8 <lcd_wr_data>
    lcd_wr_data(0x00);
 80025c6:	2000      	movs	r0, #0
 80025c8:	f7fe fd76 	bl	80010b8 <lcd_wr_data>
    lcd_wr_data(0x00);
 80025cc:	2000      	movs	r0, #0
 80025ce:	f7fe fd73 	bl	80010b8 <lcd_wr_data>
    lcd_wr_data(0x00);
 80025d2:	2000      	movs	r0, #0
 80025d4:	f7fe fd70 	bl	80010b8 <lcd_wr_data>
    lcd_wr_data(0x00);
 80025d8:	2000      	movs	r0, #0
 80025da:	f7fe fd6d 	bl	80010b8 <lcd_wr_data>
    lcd_wr_data(0x00);
 80025de:	2000      	movs	r0, #0
 80025e0:	f7fe fd6a 	bl	80010b8 <lcd_wr_data>

    lcd_wr_regno(0xE0);
 80025e4:	20e0      	movs	r0, #224	; 0xe0
 80025e6:	f7fe fd7b 	bl	80010e0 <lcd_wr_regno>
    lcd_wr_data(0x16);
 80025ea:	2016      	movs	r0, #22
 80025ec:	f7fe fd64 	bl	80010b8 <lcd_wr_data>
    lcd_wr_data(0x00);
 80025f0:	2000      	movs	r0, #0
 80025f2:	f7fe fd61 	bl	80010b8 <lcd_wr_data>
    lcd_wr_data(0x1C);
 80025f6:	201c      	movs	r0, #28
 80025f8:	f7fe fd5e 	bl	80010b8 <lcd_wr_data>
    lcd_wr_data(0x00);
 80025fc:	2000      	movs	r0, #0
 80025fe:	f7fe fd5b 	bl	80010b8 <lcd_wr_data>
    lcd_wr_data(0x21);
 8002602:	2021      	movs	r0, #33	; 0x21
 8002604:	f7fe fd58 	bl	80010b8 <lcd_wr_data>
    lcd_wr_data(0x00);
 8002608:	2000      	movs	r0, #0
 800260a:	f7fe fd55 	bl	80010b8 <lcd_wr_data>
    lcd_wr_data(0x36);
 800260e:	2036      	movs	r0, #54	; 0x36
 8002610:	f7fe fd52 	bl	80010b8 <lcd_wr_data>
    lcd_wr_data(0x00);
 8002614:	2000      	movs	r0, #0
 8002616:	f7fe fd4f 	bl	80010b8 <lcd_wr_data>
    lcd_wr_data(0x46);
 800261a:	2046      	movs	r0, #70	; 0x46
 800261c:	f7fe fd4c 	bl	80010b8 <lcd_wr_data>
    lcd_wr_data(0x00);
 8002620:	2000      	movs	r0, #0
 8002622:	f7fe fd49 	bl	80010b8 <lcd_wr_data>
    lcd_wr_data(0x52);
 8002626:	2052      	movs	r0, #82	; 0x52
 8002628:	f7fe fd46 	bl	80010b8 <lcd_wr_data>
    lcd_wr_data(0x00);
 800262c:	2000      	movs	r0, #0
 800262e:	f7fe fd43 	bl	80010b8 <lcd_wr_data>
    lcd_wr_data(0x64);
 8002632:	2064      	movs	r0, #100	; 0x64
 8002634:	f7fe fd40 	bl	80010b8 <lcd_wr_data>
    lcd_wr_data(0x00);
 8002638:	2000      	movs	r0, #0
 800263a:	f7fe fd3d 	bl	80010b8 <lcd_wr_data>
    lcd_wr_data(0x7A);
 800263e:	207a      	movs	r0, #122	; 0x7a
 8002640:	f7fe fd3a 	bl	80010b8 <lcd_wr_data>
    lcd_wr_data(0x00);
 8002644:	2000      	movs	r0, #0
 8002646:	f7fe fd37 	bl	80010b8 <lcd_wr_data>
    lcd_wr_data(0x8B);
 800264a:	208b      	movs	r0, #139	; 0x8b
 800264c:	f7fe fd34 	bl	80010b8 <lcd_wr_data>
    lcd_wr_data(0x00);
 8002650:	2000      	movs	r0, #0
 8002652:	f7fe fd31 	bl	80010b8 <lcd_wr_data>
    lcd_wr_data(0x99);
 8002656:	2099      	movs	r0, #153	; 0x99
 8002658:	f7fe fd2e 	bl	80010b8 <lcd_wr_data>
    lcd_wr_data(0x00);
 800265c:	2000      	movs	r0, #0
 800265e:	f7fe fd2b 	bl	80010b8 <lcd_wr_data>
    lcd_wr_data(0xA8);
 8002662:	20a8      	movs	r0, #168	; 0xa8
 8002664:	f7fe fd28 	bl	80010b8 <lcd_wr_data>
    lcd_wr_data(0x00);
 8002668:	2000      	movs	r0, #0
 800266a:	f7fe fd25 	bl	80010b8 <lcd_wr_data>
    lcd_wr_data(0xB9);
 800266e:	20b9      	movs	r0, #185	; 0xb9
 8002670:	f7fe fd22 	bl	80010b8 <lcd_wr_data>
    lcd_wr_data(0x00);
 8002674:	2000      	movs	r0, #0
 8002676:	f7fe fd1f 	bl	80010b8 <lcd_wr_data>
    lcd_wr_data(0xC4);
 800267a:	20c4      	movs	r0, #196	; 0xc4
 800267c:	f7fe fd1c 	bl	80010b8 <lcd_wr_data>
    lcd_wr_data(0x00);
 8002680:	2000      	movs	r0, #0
 8002682:	f7fe fd19 	bl	80010b8 <lcd_wr_data>
    lcd_wr_data(0xCA);
 8002686:	20ca      	movs	r0, #202	; 0xca
 8002688:	f7fe fd16 	bl	80010b8 <lcd_wr_data>
    lcd_wr_data(0x00);
 800268c:	2000      	movs	r0, #0
 800268e:	f7fe fd13 	bl	80010b8 <lcd_wr_data>
    lcd_wr_data(0xD2);
 8002692:	20d2      	movs	r0, #210	; 0xd2
 8002694:	f7fe fd10 	bl	80010b8 <lcd_wr_data>
    lcd_wr_data(0x00);
 8002698:	2000      	movs	r0, #0
 800269a:	f7fe fd0d 	bl	80010b8 <lcd_wr_data>
    lcd_wr_data(0xD9);
 800269e:	20d9      	movs	r0, #217	; 0xd9
 80026a0:	f7fe fd0a 	bl	80010b8 <lcd_wr_data>
    lcd_wr_data(0x00);
 80026a4:	2000      	movs	r0, #0
 80026a6:	f7fe fd07 	bl	80010b8 <lcd_wr_data>
    lcd_wr_data(0xE0);
 80026aa:	20e0      	movs	r0, #224	; 0xe0
 80026ac:	f7fe fd04 	bl	80010b8 <lcd_wr_data>
    lcd_wr_data(0x00);
 80026b0:	2000      	movs	r0, #0
 80026b2:	f7fe fd01 	bl	80010b8 <lcd_wr_data>
    lcd_wr_data(0xF3);
 80026b6:	20f3      	movs	r0, #243	; 0xf3
 80026b8:	f7fe fcfe 	bl	80010b8 <lcd_wr_data>
    lcd_wr_data(0x00);
 80026bc:	2000      	movs	r0, #0
 80026be:	f7fe fcfb 	bl	80010b8 <lcd_wr_data>

    lcd_wr_regno(0xE1);
 80026c2:	20e1      	movs	r0, #225	; 0xe1
 80026c4:	f7fe fd0c 	bl	80010e0 <lcd_wr_regno>
    lcd_wr_data(0x16);
 80026c8:	2016      	movs	r0, #22
 80026ca:	f7fe fcf5 	bl	80010b8 <lcd_wr_data>
    lcd_wr_data(0x00);
 80026ce:	2000      	movs	r0, #0
 80026d0:	f7fe fcf2 	bl	80010b8 <lcd_wr_data>
    lcd_wr_data(0x1C);
 80026d4:	201c      	movs	r0, #28
 80026d6:	f7fe fcef 	bl	80010b8 <lcd_wr_data>
    lcd_wr_data(0x00);
 80026da:	2000      	movs	r0, #0
 80026dc:	f7fe fcec 	bl	80010b8 <lcd_wr_data>
    lcd_wr_data(0x22);
 80026e0:	2022      	movs	r0, #34	; 0x22
 80026e2:	f7fe fce9 	bl	80010b8 <lcd_wr_data>
    lcd_wr_data(0x00);
 80026e6:	2000      	movs	r0, #0
 80026e8:	f7fe fce6 	bl	80010b8 <lcd_wr_data>
    lcd_wr_data(0x36);
 80026ec:	2036      	movs	r0, #54	; 0x36
 80026ee:	f7fe fce3 	bl	80010b8 <lcd_wr_data>
    lcd_wr_data(0x00);
 80026f2:	2000      	movs	r0, #0
 80026f4:	f7fe fce0 	bl	80010b8 <lcd_wr_data>
    lcd_wr_data(0x45);
 80026f8:	2045      	movs	r0, #69	; 0x45
 80026fa:	f7fe fcdd 	bl	80010b8 <lcd_wr_data>
    lcd_wr_data(0x00);
 80026fe:	2000      	movs	r0, #0
 8002700:	f7fe fcda 	bl	80010b8 <lcd_wr_data>
    lcd_wr_data(0x52);
 8002704:	2052      	movs	r0, #82	; 0x52
 8002706:	f7fe fcd7 	bl	80010b8 <lcd_wr_data>
    lcd_wr_data(0x00);
 800270a:	2000      	movs	r0, #0
 800270c:	f7fe fcd4 	bl	80010b8 <lcd_wr_data>
    lcd_wr_data(0x64);
 8002710:	2064      	movs	r0, #100	; 0x64
 8002712:	f7fe fcd1 	bl	80010b8 <lcd_wr_data>
    lcd_wr_data(0x00);
 8002716:	2000      	movs	r0, #0
 8002718:	f7fe fcce 	bl	80010b8 <lcd_wr_data>
    lcd_wr_data(0x7A);
 800271c:	207a      	movs	r0, #122	; 0x7a
 800271e:	f7fe fccb 	bl	80010b8 <lcd_wr_data>
    lcd_wr_data(0x00);
 8002722:	2000      	movs	r0, #0
 8002724:	f7fe fcc8 	bl	80010b8 <lcd_wr_data>
    lcd_wr_data(0x8B);
 8002728:	208b      	movs	r0, #139	; 0x8b
 800272a:	f7fe fcc5 	bl	80010b8 <lcd_wr_data>
    lcd_wr_data(0x00);
 800272e:	2000      	movs	r0, #0
 8002730:	f7fe fcc2 	bl	80010b8 <lcd_wr_data>
    lcd_wr_data(0x99);
 8002734:	2099      	movs	r0, #153	; 0x99
 8002736:	f7fe fcbf 	bl	80010b8 <lcd_wr_data>
    lcd_wr_data(0x00);
 800273a:	2000      	movs	r0, #0
 800273c:	f7fe fcbc 	bl	80010b8 <lcd_wr_data>
    lcd_wr_data(0xA8);
 8002740:	20a8      	movs	r0, #168	; 0xa8
 8002742:	f7fe fcb9 	bl	80010b8 <lcd_wr_data>
    lcd_wr_data(0x00);
 8002746:	2000      	movs	r0, #0
 8002748:	f7fe fcb6 	bl	80010b8 <lcd_wr_data>
    lcd_wr_data(0xB9);
 800274c:	20b9      	movs	r0, #185	; 0xb9
 800274e:	f7fe fcb3 	bl	80010b8 <lcd_wr_data>
    lcd_wr_data(0x00);
 8002752:	2000      	movs	r0, #0
 8002754:	f7fe fcb0 	bl	80010b8 <lcd_wr_data>
    lcd_wr_data(0xC4);
 8002758:	20c4      	movs	r0, #196	; 0xc4
 800275a:	f7fe fcad 	bl	80010b8 <lcd_wr_data>
    lcd_wr_data(0x00);
 800275e:	2000      	movs	r0, #0
 8002760:	f7fe fcaa 	bl	80010b8 <lcd_wr_data>
    lcd_wr_data(0xCA);
 8002764:	20ca      	movs	r0, #202	; 0xca
 8002766:	f7fe fca7 	bl	80010b8 <lcd_wr_data>
    lcd_wr_data(0x00);
 800276a:	2000      	movs	r0, #0
 800276c:	f7fe fca4 	bl	80010b8 <lcd_wr_data>
    lcd_wr_data(0xD2);
 8002770:	20d2      	movs	r0, #210	; 0xd2
 8002772:	f7fe fca1 	bl	80010b8 <lcd_wr_data>
    lcd_wr_data(0x00);
 8002776:	2000      	movs	r0, #0
 8002778:	f7fe fc9e 	bl	80010b8 <lcd_wr_data>
    lcd_wr_data(0xD8);
 800277c:	20d8      	movs	r0, #216	; 0xd8
 800277e:	f7fe fc9b 	bl	80010b8 <lcd_wr_data>
    lcd_wr_data(0x00);
 8002782:	2000      	movs	r0, #0
 8002784:	f7fe fc98 	bl	80010b8 <lcd_wr_data>
    lcd_wr_data(0xE0);
 8002788:	20e0      	movs	r0, #224	; 0xe0
 800278a:	f7fe fc95 	bl	80010b8 <lcd_wr_data>
    lcd_wr_data(0x00);
 800278e:	2000      	movs	r0, #0
 8002790:	f7fe fc92 	bl	80010b8 <lcd_wr_data>
    lcd_wr_data(0xF3);
 8002794:	20f3      	movs	r0, #243	; 0xf3
 8002796:	f7fe fc8f 	bl	80010b8 <lcd_wr_data>
    lcd_wr_data(0x00);
 800279a:	2000      	movs	r0, #0
 800279c:	f7fe fc8c 	bl	80010b8 <lcd_wr_data>

    lcd_wr_regno(0xE2);
 80027a0:	20e2      	movs	r0, #226	; 0xe2
 80027a2:	f7fe fc9d 	bl	80010e0 <lcd_wr_regno>
    lcd_wr_data(0x05);
 80027a6:	2005      	movs	r0, #5
 80027a8:	f7fe fc86 	bl	80010b8 <lcd_wr_data>
    lcd_wr_data(0x00);
 80027ac:	2000      	movs	r0, #0
 80027ae:	f7fe fc83 	bl	80010b8 <lcd_wr_data>
    lcd_wr_data(0x0B);
 80027b2:	200b      	movs	r0, #11
 80027b4:	f7fe fc80 	bl	80010b8 <lcd_wr_data>
    lcd_wr_data(0x00);
 80027b8:	2000      	movs	r0, #0
 80027ba:	f7fe fc7d 	bl	80010b8 <lcd_wr_data>
    lcd_wr_data(0x1B);
 80027be:	201b      	movs	r0, #27
 80027c0:	f7fe fc7a 	bl	80010b8 <lcd_wr_data>
    lcd_wr_data(0x00);
 80027c4:	2000      	movs	r0, #0
 80027c6:	f7fe fc77 	bl	80010b8 <lcd_wr_data>
    lcd_wr_data(0x34);
 80027ca:	2034      	movs	r0, #52	; 0x34
 80027cc:	f7fe fc74 	bl	80010b8 <lcd_wr_data>
    lcd_wr_data(0x00);
 80027d0:	2000      	movs	r0, #0
 80027d2:	f7fe fc71 	bl	80010b8 <lcd_wr_data>
    lcd_wr_data(0x44);
 80027d6:	2044      	movs	r0, #68	; 0x44
 80027d8:	f7fe fc6e 	bl	80010b8 <lcd_wr_data>
    lcd_wr_data(0x00);
 80027dc:	2000      	movs	r0, #0
 80027de:	f7fe fc6b 	bl	80010b8 <lcd_wr_data>
    lcd_wr_data(0x4F);
 80027e2:	204f      	movs	r0, #79	; 0x4f
 80027e4:	f7fe fc68 	bl	80010b8 <lcd_wr_data>
    lcd_wr_data(0x00);
 80027e8:	2000      	movs	r0, #0
 80027ea:	f7fe fc65 	bl	80010b8 <lcd_wr_data>
    lcd_wr_data(0x61);
 80027ee:	2061      	movs	r0, #97	; 0x61
 80027f0:	f7fe fc62 	bl	80010b8 <lcd_wr_data>
    lcd_wr_data(0x00);
 80027f4:	2000      	movs	r0, #0
 80027f6:	f7fe fc5f 	bl	80010b8 <lcd_wr_data>
    lcd_wr_data(0x79);
 80027fa:	2079      	movs	r0, #121	; 0x79
 80027fc:	f7fe fc5c 	bl	80010b8 <lcd_wr_data>
    lcd_wr_data(0x00);
 8002800:	2000      	movs	r0, #0
 8002802:	f7fe fc59 	bl	80010b8 <lcd_wr_data>
    lcd_wr_data(0x88);
 8002806:	2088      	movs	r0, #136	; 0x88
 8002808:	f7fe fc56 	bl	80010b8 <lcd_wr_data>
    lcd_wr_data(0x00);
 800280c:	2000      	movs	r0, #0
 800280e:	f7fe fc53 	bl	80010b8 <lcd_wr_data>
    lcd_wr_data(0x97);
 8002812:	2097      	movs	r0, #151	; 0x97
 8002814:	f7fe fc50 	bl	80010b8 <lcd_wr_data>
    lcd_wr_data(0x00);
 8002818:	2000      	movs	r0, #0
 800281a:	f7fe fc4d 	bl	80010b8 <lcd_wr_data>
    lcd_wr_data(0xA6);
 800281e:	20a6      	movs	r0, #166	; 0xa6
 8002820:	f7fe fc4a 	bl	80010b8 <lcd_wr_data>
    lcd_wr_data(0x00);
 8002824:	2000      	movs	r0, #0
 8002826:	f7fe fc47 	bl	80010b8 <lcd_wr_data>
    lcd_wr_data(0xB7);
 800282a:	20b7      	movs	r0, #183	; 0xb7
 800282c:	f7fe fc44 	bl	80010b8 <lcd_wr_data>
    lcd_wr_data(0x00);
 8002830:	2000      	movs	r0, #0
 8002832:	f7fe fc41 	bl	80010b8 <lcd_wr_data>
    lcd_wr_data(0xC2);
 8002836:	20c2      	movs	r0, #194	; 0xc2
 8002838:	f7fe fc3e 	bl	80010b8 <lcd_wr_data>
    lcd_wr_data(0x00);
 800283c:	2000      	movs	r0, #0
 800283e:	f7fe fc3b 	bl	80010b8 <lcd_wr_data>
    lcd_wr_data(0xC7);
 8002842:	20c7      	movs	r0, #199	; 0xc7
 8002844:	f7fe fc38 	bl	80010b8 <lcd_wr_data>
    lcd_wr_data(0x00);
 8002848:	2000      	movs	r0, #0
 800284a:	f7fe fc35 	bl	80010b8 <lcd_wr_data>
    lcd_wr_data(0xD1);
 800284e:	20d1      	movs	r0, #209	; 0xd1
 8002850:	f7fe fc32 	bl	80010b8 <lcd_wr_data>
    lcd_wr_data(0x00);
 8002854:	2000      	movs	r0, #0
 8002856:	f7fe fc2f 	bl	80010b8 <lcd_wr_data>
    lcd_wr_data(0xD6);
 800285a:	20d6      	movs	r0, #214	; 0xd6
 800285c:	f7fe fc2c 	bl	80010b8 <lcd_wr_data>
    lcd_wr_data(0x00);
 8002860:	2000      	movs	r0, #0
 8002862:	f7fe fc29 	bl	80010b8 <lcd_wr_data>
    lcd_wr_data(0xDD);
 8002866:	20dd      	movs	r0, #221	; 0xdd
 8002868:	f7fe fc26 	bl	80010b8 <lcd_wr_data>
    lcd_wr_data(0x00);
 800286c:	2000      	movs	r0, #0
 800286e:	f7fe fc23 	bl	80010b8 <lcd_wr_data>
    lcd_wr_data(0xF3);
 8002872:	20f3      	movs	r0, #243	; 0xf3
 8002874:	f7fe fc20 	bl	80010b8 <lcd_wr_data>
    lcd_wr_data(0x00);
 8002878:	2000      	movs	r0, #0
 800287a:	f7fe fc1d 	bl	80010b8 <lcd_wr_data>
    lcd_wr_regno(0xE3);
 800287e:	20e3      	movs	r0, #227	; 0xe3
 8002880:	f7fe fc2e 	bl	80010e0 <lcd_wr_regno>
    lcd_wr_data(0x05);
