
Demo16_2SD_FAT_USB.elf:     file format elf32-littlearm

Sections:
Idx Name          Size      VMA       LMA       File off  Algn
  0 .isr_vector   00000188  08000000  08000000  00010000  2**0
                  CONTENTS, ALLOC, LOAD, READONLY, DATA
  1 .text         00014254  08000190  08000190  00010190  2**4
                  CONTENTS, ALLOC, LOAD, READONLY, CODE
  2 .rodata       0002e148  080143e4  080143e4  000243e4  2**2
                  CONTENTS, ALLOC, LOAD, READONLY, DATA
  3 .ARM.extab    00000000  0804252c  0804252c  0006018c  2**0
                  CONTENTS
  4 .ARM          00000008  0804252c  0804252c  0005252c  2**2
                  CONTENTS, ALLOC, LOAD, READONLY, DATA
  5 .preinit_array 00000000  08042534  08042534  0006018c  2**0
                  CONTENTS, ALLOC, LOAD, DATA
  6 .init_array   00000004  08042534  08042534  00052534  2**2
                  CONTENTS, ALLOC, LOAD, DATA
  7 .fini_array   00000004  08042538  08042538  00052538  2**2
                  CONTENTS, ALLOC, LOAD, DATA
  8 .data         0000018c  20000000  0804253c  00060000  2**2
                  CONTENTS, ALLOC, LOAD, DATA
  9 .ccmram       00000000  10000000  10000000  0006018c  2**0
                  CONTENTS
 10 .bss          00001060  2000018c  2000018c  0006018c  2**2
                  ALLOC
 11 ._user_heap_stack 00000604  200011ec  200011ec  0006018c  2**0
                  ALLOC
 12 .ARM.attributes 00000030  00000000  00000000  0006018c  2**0
                  CONTENTS, READONLY
 13 .debug_info   0001e9d6  00000000  00000000  000601bc  2**0
                  CONTENTS, READONLY, DEBUGGING, OCTETS
 14 .debug_abbrev 000055f2  00000000  00000000  0007eb92  2**0
                  CONTENTS, READONLY, DEBUGGING, OCTETS
 15 .debug_aranges 00001878  00000000  00000000  00084188  2**3
                  CONTENTS, READONLY, DEBUGGING, OCTETS
 16 .debug_ranges 000015a8  00000000  00000000  00085a00  2**3
                  CONTENTS, READONLY, DEBUGGING, OCTETS
 17 .debug_macro  0002a555  00000000  00000000  00086fa8  2**0
                  CONTENTS, READONLY, DEBUGGING, OCTETS
 18 .debug_line   00029045  00000000  00000000  000b14fd  2**0
                  CONTENTS, READONLY, DEBUGGING, OCTETS
 19 .debug_str    000d6a6e  00000000  00000000  000da542  2**0
                  CONTENTS, READONLY, DEBUGGING, OCTETS
 20 .comment      00000050  00000000  00000000  001b0fb0  2**0
                  CONTENTS, READONLY
 21 .debug_frame  0000666c  00000000  00000000  001b1000  2**2
                  CONTENTS, READONLY, DEBUGGING, OCTETS

Disassembly of section .text:

08000190 <__do_global_dtors_aux>:
 8000190:	b510      	push	{r4, lr}
 8000192:	4c05      	ldr	r4, [pc, #20]	; (80001a8 <__do_global_dtors_aux+0x18>)
 8000194:	7823      	ldrb	r3, [r4, #0]
 8000196:	b933      	cbnz	r3, 80001a6 <__do_global_dtors_aux+0x16>
 8000198:	4b04      	ldr	r3, [pc, #16]	; (80001ac <__do_global_dtors_aux+0x1c>)
 800019a:	b113      	cbz	r3, 80001a2 <__do_global_dtors_aux+0x12>
 800019c:	4804      	ldr	r0, [pc, #16]	; (80001b0 <__do_global_dtors_aux+0x20>)
 800019e:	f3af 8000 	nop.w
 80001a2:	2301      	movs	r3, #1
 80001a4:	7023      	strb	r3, [r4, #0]
 80001a6:	bd10      	pop	{r4, pc}
 80001a8:	2000018c 	.word	0x2000018c
 80001ac:	00000000 	.word	0x00000000
 80001b0:	080143cc 	.word	0x080143cc

080001b4 <frame_dummy>:
 80001b4:	b508      	push	{r3, lr}
 80001b6:	4b03      	ldr	r3, [pc, #12]	; (80001c4 <frame_dummy+0x10>)
 80001b8:	b11b      	cbz	r3, 80001c2 <frame_dummy+0xe>
 80001ba:	4903      	ldr	r1, [pc, #12]	; (80001c8 <frame_dummy+0x14>)
 80001bc:	4803      	ldr	r0, [pc, #12]	; (80001cc <frame_dummy+0x18>)
 80001be:	f3af 8000 	nop.w
 80001c2:	bd08      	pop	{r3, pc}
 80001c4:	00000000 	.word	0x00000000
 80001c8:	20000190 	.word	0x20000190
 80001cc:	080143cc 	.word	0x080143cc

080001d0 <strlen>:
 80001d0:	4603      	mov	r3, r0
 80001d2:	f813 2b01 	ldrb.w	r2, [r3], #1
 80001d6:	2a00      	cmp	r2, #0
 80001d8:	d1fb      	bne.n	80001d2 <strlen+0x2>
 80001da:	1a18      	subs	r0, r3, r0
 80001dc:	3801      	subs	r0, #1
 80001de:	4770      	bx	lr

080001e0 <memchr>:
 80001e0:	f001 01ff 	and.w	r1, r1, #255	; 0xff
 80001e4:	2a10      	cmp	r2, #16
 80001e6:	db2b      	blt.n	8000240 <memchr+0x60>
 80001e8:	f010 0f07 	tst.w	r0, #7
 80001ec:	d008      	beq.n	8000200 <memchr+0x20>
 80001ee:	f810 3b01 	ldrb.w	r3, [r0], #1
 80001f2:	3a01      	subs	r2, #1
 80001f4:	428b      	cmp	r3, r1
 80001f6:	d02d      	beq.n	8000254 <memchr+0x74>
 80001f8:	f010 0f07 	tst.w	r0, #7
 80001fc:	b342      	cbz	r2, 8000250 <memchr+0x70>
 80001fe:	d1f6      	bne.n	80001ee <memchr+0xe>
 8000200:	b4f0      	push	{r4, r5, r6, r7}
 8000202:	ea41 2101 	orr.w	r1, r1, r1, lsl #8
 8000206:	ea41 4101 	orr.w	r1, r1, r1, lsl #16
 800020a:	f022 0407 	bic.w	r4, r2, #7
 800020e:	f07f 0700 	mvns.w	r7, #0
 8000212:	2300      	movs	r3, #0
 8000214:	e8f0 5602 	ldrd	r5, r6, [r0], #8
 8000218:	3c08      	subs	r4, #8
 800021a:	ea85 0501 	eor.w	r5, r5, r1
 800021e:	ea86 0601 	eor.w	r6, r6, r1
 8000222:	fa85 f547 	uadd8	r5, r5, r7
 8000226:	faa3 f587 	sel	r5, r3, r7
 800022a:	fa86 f647 	uadd8	r6, r6, r7
 800022e:	faa5 f687 	sel	r6, r5, r7
 8000232:	b98e      	cbnz	r6, 8000258 <memchr+0x78>
 8000234:	d1ee      	bne.n	8000214 <memchr+0x34>
 8000236:	bcf0      	pop	{r4, r5, r6, r7}
 8000238:	f001 01ff 	and.w	r1, r1, #255	; 0xff
 800023c:	f002 0207 	and.w	r2, r2, #7
 8000240:	b132      	cbz	r2, 8000250 <memchr+0x70>
 8000242:	f810 3b01 	ldrb.w	r3, [r0], #1
 8000246:	3a01      	subs	r2, #1
 8000248:	ea83 0301 	eor.w	r3, r3, r1
 800024c:	b113      	cbz	r3, 8000254 <memchr+0x74>
 800024e:	d1f8      	bne.n	8000242 <memchr+0x62>
 8000250:	2000      	movs	r0, #0
 8000252:	4770      	bx	lr
 8000254:	3801      	subs	r0, #1
 8000256:	4770      	bx	lr
 8000258:	2d00      	cmp	r5, #0
 800025a:	bf06      	itte	eq
 800025c:	4635      	moveq	r5, r6
 800025e:	3803      	subeq	r0, #3
 8000260:	3807      	subne	r0, #7
 8000262:	f015 0f01 	tst.w	r5, #1
 8000266:	d107      	bne.n	8000278 <memchr+0x98>
 8000268:	3001      	adds	r0, #1
 800026a:	f415 7f80 	tst.w	r5, #256	; 0x100
 800026e:	bf02      	ittt	eq
 8000270:	3001      	addeq	r0, #1
 8000272:	f415 3fc0 	tsteq.w	r5, #98304	; 0x18000
 8000276:	3001      	addeq	r0, #1
 8000278:	bcf0      	pop	{r4, r5, r6, r7}
 800027a:	3801      	subs	r0, #1
 800027c:	4770      	bx	lr
 800027e:	bf00      	nop

08000280 <__aeabi_dmul>:
 8000280:	b570      	push	{r4, r5, r6, lr}
 8000282:	f04f 0cff 	mov.w	ip, #255	; 0xff
 8000286:	f44c 6ce0 	orr.w	ip, ip, #1792	; 0x700
 800028a:	ea1c 5411 	ands.w	r4, ip, r1, lsr #20
 800028e:	bf1d      	ittte	ne
 8000290:	ea1c 5513 	andsne.w	r5, ip, r3, lsr #20
 8000294:	ea94 0f0c 	teqne	r4, ip
 8000298:	ea95 0f0c 	teqne	r5, ip
 800029c:	f000 f8de 	bleq	800045c <__aeabi_dmul+0x1dc>
 80002a0:	442c      	add	r4, r5
 80002a2:	ea81 0603 	eor.w	r6, r1, r3
 80002a6:	ea21 514c 	bic.w	r1, r1, ip, lsl #21
 80002aa:	ea23 534c 	bic.w	r3, r3, ip, lsl #21
 80002ae:	ea50 3501 	orrs.w	r5, r0, r1, lsl #12
 80002b2:	bf18      	it	ne
 80002b4:	ea52 3503 	orrsne.w	r5, r2, r3, lsl #12
 80002b8:	f441 1180 	orr.w	r1, r1, #1048576	; 0x100000
 80002bc:	f443 1380 	orr.w	r3, r3, #1048576	; 0x100000
 80002c0:	d038      	beq.n	8000334 <__aeabi_dmul+0xb4>
 80002c2:	fba0 ce02 	umull	ip, lr, r0, r2
 80002c6:	f04f 0500 	mov.w	r5, #0
 80002ca:	fbe1 e502 	umlal	lr, r5, r1, r2
 80002ce:	f006 4200 	and.w	r2, r6, #2147483648	; 0x80000000
 80002d2:	fbe0 e503 	umlal	lr, r5, r0, r3
 80002d6:	f04f 0600 	mov.w	r6, #0
 80002da:	fbe1 5603 	umlal	r5, r6, r1, r3
 80002de:	f09c 0f00 	teq	ip, #0
 80002e2:	bf18      	it	ne
 80002e4:	f04e 0e01 	orrne.w	lr, lr, #1
 80002e8:	f1a4 04ff 	sub.w	r4, r4, #255	; 0xff
 80002ec:	f5b6 7f00 	cmp.w	r6, #512	; 0x200
 80002f0:	f564 7440 	sbc.w	r4, r4, #768	; 0x300
 80002f4:	d204      	bcs.n	8000300 <__aeabi_dmul+0x80>
 80002f6:	ea5f 0e4e 	movs.w	lr, lr, lsl #1
 80002fa:	416d      	adcs	r5, r5
 80002fc:	eb46 0606 	adc.w	r6, r6, r6
 8000300:	ea42 21c6 	orr.w	r1, r2, r6, lsl #11
 8000304:	ea41 5155 	orr.w	r1, r1, r5, lsr #21
 8000308:	ea4f 20c5 	mov.w	r0, r5, lsl #11
 800030c:	ea40 505e 	orr.w	r0, r0, lr, lsr #21
 8000310:	ea4f 2ece 	mov.w	lr, lr, lsl #11
 8000314:	f1b4 0cfd 	subs.w	ip, r4, #253	; 0xfd
 8000318:	bf88      	it	hi
 800031a:	f5bc 6fe0 	cmphi.w	ip, #1792	; 0x700
 800031e:	d81e      	bhi.n	800035e <__aeabi_dmul+0xde>
 8000320:	f1be 4f00 	cmp.w	lr, #2147483648	; 0x80000000
 8000324:	bf08      	it	eq
 8000326:	ea5f 0e50 	movseq.w	lr, r0, lsr #1
 800032a:	f150 0000 	adcs.w	r0, r0, #0
 800032e:	eb41 5104 	adc.w	r1, r1, r4, lsl #20
 8000332:	bd70      	pop	{r4, r5, r6, pc}
 8000334:	f006 4600 	and.w	r6, r6, #2147483648	; 0x80000000
 8000338:	ea46 0101 	orr.w	r1, r6, r1
 800033c:	ea40 0002 	orr.w	r0, r0, r2
 8000340:	ea81 0103 	eor.w	r1, r1, r3
 8000344:	ebb4 045c 	subs.w	r4, r4, ip, lsr #1
 8000348:	bfc2      	ittt	gt
 800034a:	ebd4 050c 	rsbsgt	r5, r4, ip
 800034e:	ea41 5104 	orrgt.w	r1, r1, r4, lsl #20
 8000352:	bd70      	popgt	{r4, r5, r6, pc}
 8000354:	f441 1180 	orr.w	r1, r1, #1048576	; 0x100000
 8000358:	f04f 0e00 	mov.w	lr, #0
 800035c:	3c01      	subs	r4, #1
 800035e:	f300 80ab 	bgt.w	80004b8 <__aeabi_dmul+0x238>
 8000362:	f114 0f36 	cmn.w	r4, #54	; 0x36
 8000366:	bfde      	ittt	le
 8000368:	2000      	movle	r0, #0
 800036a:	f001 4100 	andle.w	r1, r1, #2147483648	; 0x80000000
 800036e:	bd70      	pople	{r4, r5, r6, pc}
 8000370:	f1c4 0400 	rsb	r4, r4, #0
 8000374:	3c20      	subs	r4, #32
 8000376:	da35      	bge.n	80003e4 <__aeabi_dmul+0x164>
 8000378:	340c      	adds	r4, #12
 800037a:	dc1b      	bgt.n	80003b4 <__aeabi_dmul+0x134>
 800037c:	f104 0414 	add.w	r4, r4, #20
 8000380:	f1c4 0520 	rsb	r5, r4, #32
 8000384:	fa00 f305 	lsl.w	r3, r0, r5
 8000388:	fa20 f004 	lsr.w	r0, r0, r4
 800038c:	fa01 f205 	lsl.w	r2, r1, r5
 8000390:	ea40 0002 	orr.w	r0, r0, r2
 8000394:	f001 4200 	and.w	r2, r1, #2147483648	; 0x80000000
 8000398:	f021 4100 	bic.w	r1, r1, #2147483648	; 0x80000000
 800039c:	eb10 70d3 	adds.w	r0, r0, r3, lsr #31
 80003a0:	fa21 f604 	lsr.w	r6, r1, r4
 80003a4:	eb42 0106 	adc.w	r1, r2, r6
 80003a8:	ea5e 0e43 	orrs.w	lr, lr, r3, lsl #1
 80003ac:	bf08      	it	eq
 80003ae:	ea20 70d3 	biceq.w	r0, r0, r3, lsr #31
 80003b2:	bd70      	pop	{r4, r5, r6, pc}
 80003b4:	f1c4 040c 	rsb	r4, r4, #12
 80003b8:	f1c4 0520 	rsb	r5, r4, #32
 80003bc:	fa00 f304 	lsl.w	r3, r0, r4
 80003c0:	fa20 f005 	lsr.w	r0, r0, r5
 80003c4:	fa01 f204 	lsl.w	r2, r1, r4
 80003c8:	ea40 0002 	orr.w	r0, r0, r2
 80003cc:	f001 4100 	and.w	r1, r1, #2147483648	; 0x80000000
 80003d0:	eb10 70d3 	adds.w	r0, r0, r3, lsr #31
 80003d4:	f141 0100 	adc.w	r1, r1, #0
 80003d8:	ea5e 0e43 	orrs.w	lr, lr, r3, lsl #1
 80003dc:	bf08      	it	eq
 80003de:	ea20 70d3 	biceq.w	r0, r0, r3, lsr #31
 80003e2:	bd70      	pop	{r4, r5, r6, pc}
 80003e4:	f1c4 0520 	rsb	r5, r4, #32
 80003e8:	fa00 f205 	lsl.w	r2, r0, r5
 80003ec:	ea4e 0e02 	orr.w	lr, lr, r2
 80003f0:	fa20 f304 	lsr.w	r3, r0, r4
 80003f4:	fa01 f205 	lsl.w	r2, r1, r5
 80003f8:	ea43 0302 	orr.w	r3, r3, r2
 80003fc:	fa21 f004 	lsr.w	r0, r1, r4
 8000400:	f001 4100 	and.w	r1, r1, #2147483648	; 0x80000000
 8000404:	fa21 f204 	lsr.w	r2, r1, r4
 8000408:	ea20 0002 	bic.w	r0, r0, r2
 800040c:	eb00 70d3 	add.w	r0, r0, r3, lsr #31
 8000410:	ea5e 0e43 	orrs.w	lr, lr, r3, lsl #1
 8000414:	bf08      	it	eq
 8000416:	ea20 70d3 	biceq.w	r0, r0, r3, lsr #31
 800041a:	bd70      	pop	{r4, r5, r6, pc}
 800041c:	f094 0f00 	teq	r4, #0
 8000420:	d10f      	bne.n	8000442 <__aeabi_dmul+0x1c2>
 8000422:	f001 4600 	and.w	r6, r1, #2147483648	; 0x80000000
 8000426:	0040      	lsls	r0, r0, #1
 8000428:	eb41 0101 	adc.w	r1, r1, r1
 800042c:	f411 1f80 	tst.w	r1, #1048576	; 0x100000
 8000430:	bf08      	it	eq
 8000432:	3c01      	subeq	r4, #1
 8000434:	d0f7      	beq.n	8000426 <__aeabi_dmul+0x1a6>
 8000436:	ea41 0106 	orr.w	r1, r1, r6
 800043a:	f095 0f00 	teq	r5, #0
 800043e:	bf18      	it	ne
 8000440:	4770      	bxne	lr
 8000442:	f003 4600 	and.w	r6, r3, #2147483648	; 0x80000000
 8000446:	0052      	lsls	r2, r2, #1
 8000448:	eb43 0303 	adc.w	r3, r3, r3
 800044c:	f413 1f80 	tst.w	r3, #1048576	; 0x100000
 8000450:	bf08      	it	eq
 8000452:	3d01      	subeq	r5, #1
 8000454:	d0f7      	beq.n	8000446 <__aeabi_dmul+0x1c6>
 8000456:	ea43 0306 	orr.w	r3, r3, r6
 800045a:	4770      	bx	lr
 800045c:	ea94 0f0c 	teq	r4, ip
 8000460:	ea0c 5513 	and.w	r5, ip, r3, lsr #20
 8000464:	bf18      	it	ne
 8000466:	ea95 0f0c 	teqne	r5, ip
 800046a:	d00c      	beq.n	8000486 <__aeabi_dmul+0x206>
 800046c:	ea50 0641 	orrs.w	r6, r0, r1, lsl #1
 8000470:	bf18      	it	ne
 8000472:	ea52 0643 	orrsne.w	r6, r2, r3, lsl #1
 8000476:	d1d1      	bne.n	800041c <__aeabi_dmul+0x19c>
 8000478:	ea81 0103 	eor.w	r1, r1, r3
 800047c:	f001 4100 	and.w	r1, r1, #2147483648	; 0x80000000
 8000480:	f04f 0000 	mov.w	r0, #0
 8000484:	bd70      	pop	{r4, r5, r6, pc}
 8000486:	ea50 0641 	orrs.w	r6, r0, r1, lsl #1
 800048a:	bf06      	itte	eq
 800048c:	4610      	moveq	r0, r2
 800048e:	4619      	moveq	r1, r3
 8000490:	ea52 0643 	orrsne.w	r6, r2, r3, lsl #1
 8000494:	d019      	beq.n	80004ca <__aeabi_dmul+0x24a>
 8000496:	ea94 0f0c 	teq	r4, ip
 800049a:	d102      	bne.n	80004a2 <__aeabi_dmul+0x222>
 800049c:	ea50 3601 	orrs.w	r6, r0, r1, lsl #12
 80004a0:	d113      	bne.n	80004ca <__aeabi_dmul+0x24a>
 80004a2:	ea95 0f0c 	teq	r5, ip
 80004a6:	d105      	bne.n	80004b4 <__aeabi_dmul+0x234>
 80004a8:	ea52 3603 	orrs.w	r6, r2, r3, lsl #12
 80004ac:	bf1c      	itt	ne
 80004ae:	4610      	movne	r0, r2
 80004b0:	4619      	movne	r1, r3
 80004b2:	d10a      	bne.n	80004ca <__aeabi_dmul+0x24a>
 80004b4:	ea81 0103 	eor.w	r1, r1, r3
 80004b8:	f001 4100 	and.w	r1, r1, #2147483648	; 0x80000000
 80004bc:	f041 41fe 	orr.w	r1, r1, #2130706432	; 0x7f000000
 80004c0:	f441 0170 	orr.w	r1, r1, #15728640	; 0xf00000
 80004c4:	f04f 0000 	mov.w	r0, #0
 80004c8:	bd70      	pop	{r4, r5, r6, pc}
 80004ca:	f041 41fe 	orr.w	r1, r1, #2130706432	; 0x7f000000
 80004ce:	f441 0178 	orr.w	r1, r1, #16252928	; 0xf80000
 80004d2:	bd70      	pop	{r4, r5, r6, pc}

080004d4 <__aeabi_drsub>:
 80004d4:	f081 4100 	eor.w	r1, r1, #2147483648	; 0x80000000
 80004d8:	e002      	b.n	80004e0 <__adddf3>
 80004da:	bf00      	nop

080004dc <__aeabi_dsub>:
 80004dc:	f083 4300 	eor.w	r3, r3, #2147483648	; 0x80000000

080004e0 <__adddf3>:
 80004e0:	b530      	push	{r4, r5, lr}
 80004e2:	ea4f 0441 	mov.w	r4, r1, lsl #1
 80004e6:	ea4f 0543 	mov.w	r5, r3, lsl #1
 80004ea:	ea94 0f05 	teq	r4, r5
 80004ee:	bf08      	it	eq
 80004f0:	ea90 0f02 	teqeq	r0, r2
 80004f4:	bf1f      	itttt	ne
 80004f6:	ea54 0c00 	orrsne.w	ip, r4, r0
 80004fa:	ea55 0c02 	orrsne.w	ip, r5, r2
 80004fe:	ea7f 5c64 	mvnsne.w	ip, r4, asr #21
 8000502:	ea7f 5c65 	mvnsne.w	ip, r5, asr #21
 8000506:	f000 80e2 	beq.w	80006ce <__adddf3+0x1ee>
 800050a:	ea4f 5454 	mov.w	r4, r4, lsr #21
 800050e:	ebd4 5555 	rsbs	r5, r4, r5, lsr #21
 8000512:	bfb8      	it	lt
 8000514:	426d      	neglt	r5, r5
 8000516:	dd0c      	ble.n	8000532 <__adddf3+0x52>
 8000518:	442c      	add	r4, r5
 800051a:	ea80 0202 	eor.w	r2, r0, r2
 800051e:	ea81 0303 	eor.w	r3, r1, r3
 8000522:	ea82 0000 	eor.w	r0, r2, r0
 8000526:	ea83 0101 	eor.w	r1, r3, r1
 800052a:	ea80 0202 	eor.w	r2, r0, r2
 800052e:	ea81 0303 	eor.w	r3, r1, r3
 8000532:	2d36      	cmp	r5, #54	; 0x36
 8000534:	bf88      	it	hi
 8000536:	bd30      	pophi	{r4, r5, pc}
 8000538:	f011 4f00 	tst.w	r1, #2147483648	; 0x80000000
 800053c:	ea4f 3101 	mov.w	r1, r1, lsl #12
 8000540:	f44f 1c80 	mov.w	ip, #1048576	; 0x100000
 8000544:	ea4c 3111 	orr.w	r1, ip, r1, lsr #12
 8000548:	d002      	beq.n	8000550 <__adddf3+0x70>
 800054a:	4240      	negs	r0, r0
 800054c:	eb61 0141 	sbc.w	r1, r1, r1, lsl #1
 8000550:	f013 4f00 	tst.w	r3, #2147483648	; 0x80000000
 8000554:	ea4f 3303 	mov.w	r3, r3, lsl #12
 8000558:	ea4c 3313 	orr.w	r3, ip, r3, lsr #12
 800055c:	d002      	beq.n	8000564 <__adddf3+0x84>
 800055e:	4252      	negs	r2, r2
 8000560:	eb63 0343 	sbc.w	r3, r3, r3, lsl #1
 8000564:	ea94 0f05 	teq	r4, r5
 8000568:	f000 80a7 	beq.w	80006ba <__adddf3+0x1da>
 800056c:	f1a4 0401 	sub.w	r4, r4, #1
 8000570:	f1d5 0e20 	rsbs	lr, r5, #32
 8000574:	db0d      	blt.n	8000592 <__adddf3+0xb2>
 8000576:	fa02 fc0e 	lsl.w	ip, r2, lr
 800057a:	fa22 f205 	lsr.w	r2, r2, r5
 800057e:	1880      	adds	r0, r0, r2
 8000580:	f141 0100 	adc.w	r1, r1, #0
 8000584:	fa03 f20e 	lsl.w	r2, r3, lr
 8000588:	1880      	adds	r0, r0, r2
 800058a:	fa43 f305 	asr.w	r3, r3, r5
 800058e:	4159      	adcs	r1, r3
 8000590:	e00e      	b.n	80005b0 <__adddf3+0xd0>
 8000592:	f1a5 0520 	sub.w	r5, r5, #32
 8000596:	f10e 0e20 	add.w	lr, lr, #32
 800059a:	2a01      	cmp	r2, #1
 800059c:	fa03 fc0e 	lsl.w	ip, r3, lr
 80005a0:	bf28      	it	cs
 80005a2:	f04c 0c02 	orrcs.w	ip, ip, #2
 80005a6:	fa43 f305 	asr.w	r3, r3, r5
 80005aa:	18c0      	adds	r0, r0, r3
 80005ac:	eb51 71e3 	adcs.w	r1, r1, r3, asr #31
 80005b0:	f001 4500 	and.w	r5, r1, #2147483648	; 0x80000000
 80005b4:	d507      	bpl.n	80005c6 <__adddf3+0xe6>
 80005b6:	f04f 0e00 	mov.w	lr, #0
 80005ba:	f1dc 0c00 	rsbs	ip, ip, #0
 80005be:	eb7e 0000 	sbcs.w	r0, lr, r0
 80005c2:	eb6e 0101 	sbc.w	r1, lr, r1
 80005c6:	f5b1 1f80 	cmp.w	r1, #1048576	; 0x100000
 80005ca:	d31b      	bcc.n	8000604 <__adddf3+0x124>
 80005cc:	f5b1 1f00 	cmp.w	r1, #2097152	; 0x200000
 80005d0:	d30c      	bcc.n	80005ec <__adddf3+0x10c>
 80005d2:	0849      	lsrs	r1, r1, #1
 80005d4:	ea5f 0030 	movs.w	r0, r0, rrx
 80005d8:	ea4f 0c3c 	mov.w	ip, ip, rrx
 80005dc:	f104 0401 	add.w	r4, r4, #1
 80005e0:	ea4f 5244 	mov.w	r2, r4, lsl #21
 80005e4:	f512 0f80 	cmn.w	r2, #4194304	; 0x400000
 80005e8:	f080 809a 	bcs.w	8000720 <__adddf3+0x240>
 80005ec:	f1bc 4f00 	cmp.w	ip, #2147483648	; 0x80000000
 80005f0:	bf08      	it	eq
 80005f2:	ea5f 0c50 	movseq.w	ip, r0, lsr #1
 80005f6:	f150 0000 	adcs.w	r0, r0, #0
 80005fa:	eb41 5104 	adc.w	r1, r1, r4, lsl #20
 80005fe:	ea41 0105 	orr.w	r1, r1, r5
 8000602:	bd30      	pop	{r4, r5, pc}
 8000604:	ea5f 0c4c 	movs.w	ip, ip, lsl #1
 8000608:	4140      	adcs	r0, r0
 800060a:	eb41 0101 	adc.w	r1, r1, r1
 800060e:	3c01      	subs	r4, #1
 8000610:	bf28      	it	cs
 8000612:	f5b1 1f80 	cmpcs.w	r1, #1048576	; 0x100000
 8000616:	d2e9      	bcs.n	80005ec <__adddf3+0x10c>
 8000618:	f091 0f00 	teq	r1, #0
 800061c:	bf04      	itt	eq
 800061e:	4601      	moveq	r1, r0
 8000620:	2000      	moveq	r0, #0
 8000622:	fab1 f381 	clz	r3, r1
 8000626:	bf08      	it	eq
 8000628:	3320      	addeq	r3, #32
 800062a:	f1a3 030b 	sub.w	r3, r3, #11
 800062e:	f1b3 0220 	subs.w	r2, r3, #32
 8000632:	da0c      	bge.n	800064e <__adddf3+0x16e>
 8000634:	320c      	adds	r2, #12
 8000636:	dd08      	ble.n	800064a <__adddf3+0x16a>
 8000638:	f102 0c14 	add.w	ip, r2, #20
 800063c:	f1c2 020c 	rsb	r2, r2, #12
 8000640:	fa01 f00c 	lsl.w	r0, r1, ip
 8000644:	fa21 f102 	lsr.w	r1, r1, r2
 8000648:	e00c      	b.n	8000664 <__adddf3+0x184>
 800064a:	f102 0214 	add.w	r2, r2, #20
 800064e:	bfd8      	it	le
 8000650:	f1c2 0c20 	rsble	ip, r2, #32
 8000654:	fa01 f102 	lsl.w	r1, r1, r2
 8000658:	fa20 fc0c 	lsr.w	ip, r0, ip
 800065c:	bfdc      	itt	le
 800065e:	ea41 010c 	orrle.w	r1, r1, ip
 8000662:	4090      	lslle	r0, r2
 8000664:	1ae4      	subs	r4, r4, r3
 8000666:	bfa2      	ittt	ge
 8000668:	eb01 5104 	addge.w	r1, r1, r4, lsl #20
 800066c:	4329      	orrge	r1, r5
 800066e:	bd30      	popge	{r4, r5, pc}
 8000670:	ea6f 0404 	mvn.w	r4, r4
 8000674:	3c1f      	subs	r4, #31
 8000676:	da1c      	bge.n	80006b2 <__adddf3+0x1d2>
 8000678:	340c      	adds	r4, #12
 800067a:	dc0e      	bgt.n	800069a <__adddf3+0x1ba>
 800067c:	f104 0414 	add.w	r4, r4, #20
 8000680:	f1c4 0220 	rsb	r2, r4, #32
 8000684:	fa20 f004 	lsr.w	r0, r0, r4
 8000688:	fa01 f302 	lsl.w	r3, r1, r2
 800068c:	ea40 0003 	orr.w	r0, r0, r3
 8000690:	fa21 f304 	lsr.w	r3, r1, r4
 8000694:	ea45 0103 	orr.w	r1, r5, r3
 8000698:	bd30      	pop	{r4, r5, pc}
 800069a:	f1c4 040c 	rsb	r4, r4, #12
 800069e:	f1c4 0220 	rsb	r2, r4, #32
 80006a2:	fa20 f002 	lsr.w	r0, r0, r2
 80006a6:	fa01 f304 	lsl.w	r3, r1, r4
 80006aa:	ea40 0003 	orr.w	r0, r0, r3
 80006ae:	4629      	mov	r1, r5
 80006b0:	bd30      	pop	{r4, r5, pc}
 80006b2:	fa21 f004 	lsr.w	r0, r1, r4
 80006b6:	4629      	mov	r1, r5
 80006b8:	bd30      	pop	{r4, r5, pc}
 80006ba:	f094 0f00 	teq	r4, #0
 80006be:	f483 1380 	eor.w	r3, r3, #1048576	; 0x100000
 80006c2:	bf06      	itte	eq
 80006c4:	f481 1180 	eoreq.w	r1, r1, #1048576	; 0x100000
 80006c8:	3401      	addeq	r4, #1
 80006ca:	3d01      	subne	r5, #1
 80006cc:	e74e      	b.n	800056c <__adddf3+0x8c>
 80006ce:	ea7f 5c64 	mvns.w	ip, r4, asr #21
 80006d2:	bf18      	it	ne
 80006d4:	ea7f 5c65 	mvnsne.w	ip, r5, asr #21
 80006d8:	d029      	beq.n	800072e <__adddf3+0x24e>
 80006da:	ea94 0f05 	teq	r4, r5
 80006de:	bf08      	it	eq
 80006e0:	ea90 0f02 	teqeq	r0, r2
 80006e4:	d005      	beq.n	80006f2 <__adddf3+0x212>
 80006e6:	ea54 0c00 	orrs.w	ip, r4, r0
 80006ea:	bf04      	itt	eq
 80006ec:	4619      	moveq	r1, r3
 80006ee:	4610      	moveq	r0, r2
 80006f0:	bd30      	pop	{r4, r5, pc}
 80006f2:	ea91 0f03 	teq	r1, r3
 80006f6:	bf1e      	ittt	ne
 80006f8:	2100      	movne	r1, #0
 80006fa:	2000      	movne	r0, #0
 80006fc:	bd30      	popne	{r4, r5, pc}
 80006fe:	ea5f 5c54 	movs.w	ip, r4, lsr #21
 8000702:	d105      	bne.n	8000710 <__adddf3+0x230>
 8000704:	0040      	lsls	r0, r0, #1
 8000706:	4149      	adcs	r1, r1
 8000708:	bf28      	it	cs
 800070a:	f041 4100 	orrcs.w	r1, r1, #2147483648	; 0x80000000
 800070e:	bd30      	pop	{r4, r5, pc}
 8000710:	f514 0480 	adds.w	r4, r4, #4194304	; 0x400000
 8000714:	bf3c      	itt	cc
 8000716:	f501 1180 	addcc.w	r1, r1, #1048576	; 0x100000
 800071a:	bd30      	popcc	{r4, r5, pc}
 800071c:	f001 4500 	and.w	r5, r1, #2147483648	; 0x80000000
 8000720:	f045 41fe 	orr.w	r1, r5, #2130706432	; 0x7f000000
 8000724:	f441 0170 	orr.w	r1, r1, #15728640	; 0xf00000
 8000728:	f04f 0000 	mov.w	r0, #0
 800072c:	bd30      	pop	{r4, r5, pc}
 800072e:	ea7f 5c64 	mvns.w	ip, r4, asr #21
 8000732:	bf1a      	itte	ne
 8000734:	4619      	movne	r1, r3
 8000736:	4610      	movne	r0, r2
 8000738:	ea7f 5c65 	mvnseq.w	ip, r5, asr #21
 800073c:	bf1c      	itt	ne
 800073e:	460b      	movne	r3, r1
 8000740:	4602      	movne	r2, r0
 8000742:	ea50 3401 	orrs.w	r4, r0, r1, lsl #12
 8000746:	bf06      	itte	eq
 8000748:	ea52 3503 	orrseq.w	r5, r2, r3, lsl #12
 800074c:	ea91 0f03 	teqeq	r1, r3
 8000750:	f441 2100 	orrne.w	r1, r1, #524288	; 0x80000
 8000754:	bd30      	pop	{r4, r5, pc}
 8000756:	bf00      	nop

08000758 <__aeabi_ui2d>:
 8000758:	f090 0f00 	teq	r0, #0
 800075c:	bf04      	itt	eq
 800075e:	2100      	moveq	r1, #0
 8000760:	4770      	bxeq	lr
 8000762:	b530      	push	{r4, r5, lr}
 8000764:	f44f 6480 	mov.w	r4, #1024	; 0x400
 8000768:	f104 0432 	add.w	r4, r4, #50	; 0x32
 800076c:	f04f 0500 	mov.w	r5, #0
 8000770:	f04f 0100 	mov.w	r1, #0
 8000774:	e750      	b.n	8000618 <__adddf3+0x138>
 8000776:	bf00      	nop

08000778 <__aeabi_i2d>:
 8000778:	f090 0f00 	teq	r0, #0
 800077c:	bf04      	itt	eq
 800077e:	2100      	moveq	r1, #0
 8000780:	4770      	bxeq	lr
 8000782:	b530      	push	{r4, r5, lr}
 8000784:	f44f 6480 	mov.w	r4, #1024	; 0x400
 8000788:	f104 0432 	add.w	r4, r4, #50	; 0x32
 800078c:	f010 4500 	ands.w	r5, r0, #2147483648	; 0x80000000
 8000790:	bf48      	it	mi
 8000792:	4240      	negmi	r0, r0
 8000794:	f04f 0100 	mov.w	r1, #0
 8000798:	e73e      	b.n	8000618 <__adddf3+0x138>
 800079a:	bf00      	nop

0800079c <__aeabi_f2d>:
 800079c:	0042      	lsls	r2, r0, #1
 800079e:	ea4f 01e2 	mov.w	r1, r2, asr #3
 80007a2:	ea4f 0131 	mov.w	r1, r1, rrx
 80007a6:	ea4f 7002 	mov.w	r0, r2, lsl #28
 80007aa:	bf1f      	itttt	ne
 80007ac:	f012 437f 	andsne.w	r3, r2, #4278190080	; 0xff000000
 80007b0:	f093 4f7f 	teqne	r3, #4278190080	; 0xff000000
 80007b4:	f081 5160 	eorne.w	r1, r1, #939524096	; 0x38000000
 80007b8:	4770      	bxne	lr
 80007ba:	f032 427f 	bics.w	r2, r2, #4278190080	; 0xff000000
 80007be:	bf08      	it	eq
 80007c0:	4770      	bxeq	lr
 80007c2:	f093 4f7f 	teq	r3, #4278190080	; 0xff000000
 80007c6:	bf04      	itt	eq
 80007c8:	f441 2100 	orreq.w	r1, r1, #524288	; 0x80000
 80007cc:	4770      	bxeq	lr
 80007ce:	b530      	push	{r4, r5, lr}
 80007d0:	f44f 7460 	mov.w	r4, #896	; 0x380
 80007d4:	f001 4500 	and.w	r5, r1, #2147483648	; 0x80000000
 80007d8:	f021 4100 	bic.w	r1, r1, #2147483648	; 0x80000000
 80007dc:	e71c      	b.n	8000618 <__adddf3+0x138>
 80007de:	bf00      	nop

080007e0 <__aeabi_ul2d>:
 80007e0:	ea50 0201 	orrs.w	r2, r0, r1
 80007e4:	bf08      	it	eq
 80007e6:	4770      	bxeq	lr
 80007e8:	b530      	push	{r4, r5, lr}
 80007ea:	f04f 0500 	mov.w	r5, #0
 80007ee:	e00a      	b.n	8000806 <__aeabi_l2d+0x16>

080007f0 <__aeabi_l2d>:
 80007f0:	ea50 0201 	orrs.w	r2, r0, r1
 80007f4:	bf08      	it	eq
 80007f6:	4770      	bxeq	lr
 80007f8:	b530      	push	{r4, r5, lr}
 80007fa:	f011 4500 	ands.w	r5, r1, #2147483648	; 0x80000000
 80007fe:	d502      	bpl.n	8000806 <__aeabi_l2d+0x16>
 8000800:	4240      	negs	r0, r0
 8000802:	eb61 0141 	sbc.w	r1, r1, r1, lsl #1
 8000806:	f44f 6480 	mov.w	r4, #1024	; 0x400
 800080a:	f104 0432 	add.w	r4, r4, #50	; 0x32
 800080e:	ea5f 5c91 	movs.w	ip, r1, lsr #22
 8000812:	f43f aed8 	beq.w	80005c6 <__adddf3+0xe6>
 8000816:	f04f 0203 	mov.w	r2, #3
 800081a:	ea5f 0cdc 	movs.w	ip, ip, lsr #3
 800081e:	bf18      	it	ne
 8000820:	3203      	addne	r2, #3
 8000822:	ea5f 0cdc 	movs.w	ip, ip, lsr #3
 8000826:	bf18      	it	ne
 8000828:	3203      	addne	r2, #3
 800082a:	eb02 02dc 	add.w	r2, r2, ip, lsr #3
 800082e:	f1c2 0320 	rsb	r3, r2, #32
 8000832:	fa00 fc03 	lsl.w	ip, r0, r3
 8000836:	fa20 f002 	lsr.w	r0, r0, r2
 800083a:	fa01 fe03 	lsl.w	lr, r1, r3
 800083e:	ea40 000e 	orr.w	r0, r0, lr
 8000842:	fa21 f102 	lsr.w	r1, r1, r2
 8000846:	4414      	add	r4, r2
 8000848:	e6bd      	b.n	80005c6 <__adddf3+0xe6>
 800084a:	bf00      	nop

0800084c <__aeabi_d2uiz>:
 800084c:	004a      	lsls	r2, r1, #1
 800084e:	d211      	bcs.n	8000874 <__aeabi_d2uiz+0x28>
 8000850:	f512 1200 	adds.w	r2, r2, #2097152	; 0x200000
 8000854:	d211      	bcs.n	800087a <__aeabi_d2uiz+0x2e>
 8000856:	d50d      	bpl.n	8000874 <__aeabi_d2uiz+0x28>
 8000858:	f46f 7378 	mvn.w	r3, #992	; 0x3e0
 800085c:	ebb3 5262 	subs.w	r2, r3, r2, asr #21
 8000860:	d40e      	bmi.n	8000880 <__aeabi_d2uiz+0x34>
 8000862:	ea4f 23c1 	mov.w	r3, r1, lsl #11
 8000866:	f043 4300 	orr.w	r3, r3, #2147483648	; 0x80000000
 800086a:	ea43 5350 	orr.w	r3, r3, r0, lsr #21
 800086e:	fa23 f002 	lsr.w	r0, r3, r2
 8000872:	4770      	bx	lr
 8000874:	f04f 0000 	mov.w	r0, #0
 8000878:	4770      	bx	lr
 800087a:	ea50 3001 	orrs.w	r0, r0, r1, lsl #12
 800087e:	d102      	bne.n	8000886 <__aeabi_d2uiz+0x3a>
 8000880:	f04f 30ff 	mov.w	r0, #4294967295
 8000884:	4770      	bx	lr
 8000886:	f04f 0000 	mov.w	r0, #0
 800088a:	4770      	bx	lr

0800088c <__aeabi_uldivmod>:
 800088c:	b953      	cbnz	r3, 80008a4 <__aeabi_uldivmod+0x18>
 800088e:	b94a      	cbnz	r2, 80008a4 <__aeabi_uldivmod+0x18>
 8000890:	2900      	cmp	r1, #0
 8000892:	bf08      	it	eq
 8000894:	2800      	cmpeq	r0, #0
 8000896:	bf1c      	itt	ne
 8000898:	f04f 31ff 	movne.w	r1, #4294967295
 800089c:	f04f 30ff 	movne.w	r0, #4294967295
 80008a0:	f000 b974 	b.w	8000b8c <__aeabi_idiv0>
 80008a4:	f1ad 0c08 	sub.w	ip, sp, #8
 80008a8:	e96d ce04 	strd	ip, lr, [sp, #-16]!
 80008ac:	f000 f806 	bl	80008bc <__udivmoddi4>
 80008b0:	f8dd e004 	ldr.w	lr, [sp, #4]
 80008b4:	e9dd 2302 	ldrd	r2, r3, [sp, #8]
 80008b8:	b004      	add	sp, #16
 80008ba:	4770      	bx	lr

080008bc <__udivmoddi4>:
 80008bc:	e92d 47f0 	stmdb	sp!, {r4, r5, r6, r7, r8, r9, sl, lr}
 80008c0:	9d08      	ldr	r5, [sp, #32]
 80008c2:	4604      	mov	r4, r0
 80008c4:	468e      	mov	lr, r1
 80008c6:	2b00      	cmp	r3, #0
 80008c8:	d14d      	bne.n	8000966 <__udivmoddi4+0xaa>
 80008ca:	428a      	cmp	r2, r1
 80008cc:	4694      	mov	ip, r2
 80008ce:	d969      	bls.n	80009a4 <__udivmoddi4+0xe8>
 80008d0:	fab2 f282 	clz	r2, r2
 80008d4:	b152      	cbz	r2, 80008ec <__udivmoddi4+0x30>
 80008d6:	fa01 f302 	lsl.w	r3, r1, r2
 80008da:	f1c2 0120 	rsb	r1, r2, #32
 80008de:	fa20 f101 	lsr.w	r1, r0, r1
 80008e2:	fa0c fc02 	lsl.w	ip, ip, r2
 80008e6:	ea41 0e03 	orr.w	lr, r1, r3
 80008ea:	4094      	lsls	r4, r2
 80008ec:	ea4f 481c 	mov.w	r8, ip, lsr #16
 80008f0:	0c21      	lsrs	r1, r4, #16
 80008f2:	fbbe f6f8 	udiv	r6, lr, r8
 80008f6:	fa1f f78c 	uxth.w	r7, ip
 80008fa:	fb08 e316 	mls	r3, r8, r6, lr
 80008fe:	ea41 4303 	orr.w	r3, r1, r3, lsl #16
 8000902:	fb06 f107 	mul.w	r1, r6, r7
 8000906:	4299      	cmp	r1, r3
 8000908:	d90a      	bls.n	8000920 <__udivmoddi4+0x64>
 800090a:	eb1c 0303 	adds.w	r3, ip, r3
 800090e:	f106 30ff 	add.w	r0, r6, #4294967295
 8000912:	f080 811f 	bcs.w	8000b54 <__udivmoddi4+0x298>
 8000916:	4299      	cmp	r1, r3
 8000918:	f240 811c 	bls.w	8000b54 <__udivmoddi4+0x298>
 800091c:	3e02      	subs	r6, #2
 800091e:	4463      	add	r3, ip
 8000920:	1a5b      	subs	r3, r3, r1
 8000922:	b2a4      	uxth	r4, r4
 8000924:	fbb3 f0f8 	udiv	r0, r3, r8
 8000928:	fb08 3310 	mls	r3, r8, r0, r3
 800092c:	ea44 4403 	orr.w	r4, r4, r3, lsl #16
 8000930:	fb00 f707 	mul.w	r7, r0, r7
 8000934:	42a7      	cmp	r7, r4
 8000936:	d90a      	bls.n	800094e <__udivmoddi4+0x92>
 8000938:	eb1c 0404 	adds.w	r4, ip, r4
 800093c:	f100 33ff 	add.w	r3, r0, #4294967295
 8000940:	f080 810a 	bcs.w	8000b58 <__udivmoddi4+0x29c>
 8000944:	42a7      	cmp	r7, r4
 8000946:	f240 8107 	bls.w	8000b58 <__udivmoddi4+0x29c>
 800094a:	4464      	add	r4, ip
 800094c:	3802      	subs	r0, #2
 800094e:	ea40 4006 	orr.w	r0, r0, r6, lsl #16
 8000952:	1be4      	subs	r4, r4, r7
 8000954:	2600      	movs	r6, #0
 8000956:	b11d      	cbz	r5, 8000960 <__udivmoddi4+0xa4>
 8000958:	40d4      	lsrs	r4, r2
 800095a:	2300      	movs	r3, #0
 800095c:	e9c5 4300 	strd	r4, r3, [r5]
 8000960:	4631      	mov	r1, r6
 8000962:	e8bd 87f0 	ldmia.w	sp!, {r4, r5, r6, r7, r8, r9, sl, pc}
 8000966:	428b      	cmp	r3, r1
 8000968:	d909      	bls.n	800097e <__udivmoddi4+0xc2>
 800096a:	2d00      	cmp	r5, #0
 800096c:	f000 80ef 	beq.w	8000b4e <__udivmoddi4+0x292>
 8000970:	2600      	movs	r6, #0
 8000972:	e9c5 0100 	strd	r0, r1, [r5]
 8000976:	4630      	mov	r0, r6
 8000978:	4631      	mov	r1, r6
 800097a:	e8bd 87f0 	ldmia.w	sp!, {r4, r5, r6, r7, r8, r9, sl, pc}
 800097e:	fab3 f683 	clz	r6, r3
 8000982:	2e00      	cmp	r6, #0
 8000984:	d14a      	bne.n	8000a1c <__udivmoddi4+0x160>
 8000986:	428b      	cmp	r3, r1
 8000988:	d302      	bcc.n	8000990 <__udivmoddi4+0xd4>
 800098a:	4282      	cmp	r2, r0
 800098c:	f200 80f9 	bhi.w	8000b82 <__udivmoddi4+0x2c6>
 8000990:	1a84      	subs	r4, r0, r2
 8000992:	eb61 0303 	sbc.w	r3, r1, r3
 8000996:	2001      	movs	r0, #1
 8000998:	469e      	mov	lr, r3
 800099a:	2d00      	cmp	r5, #0
 800099c:	d0e0      	beq.n	8000960 <__udivmoddi4+0xa4>
 800099e:	e9c5 4e00 	strd	r4, lr, [r5]
 80009a2:	e7dd      	b.n	8000960 <__udivmoddi4+0xa4>
 80009a4:	b902      	cbnz	r2, 80009a8 <__udivmoddi4+0xec>
 80009a6:	deff      	udf	#255	; 0xff
 80009a8:	fab2 f282 	clz	r2, r2
 80009ac:	2a00      	cmp	r2, #0
 80009ae:	f040 8092 	bne.w	8000ad6 <__udivmoddi4+0x21a>
 80009b2:	eba1 010c 	sub.w	r1, r1, ip
 80009b6:	ea4f 471c 	mov.w	r7, ip, lsr #16
 80009ba:	fa1f fe8c 	uxth.w	lr, ip
 80009be:	2601      	movs	r6, #1
 80009c0:	0c20      	lsrs	r0, r4, #16
 80009c2:	fbb1 f3f7 	udiv	r3, r1, r7
 80009c6:	fb07 1113 	mls	r1, r7, r3, r1
 80009ca:	ea40 4101 	orr.w	r1, r0, r1, lsl #16
 80009ce:	fb0e f003 	mul.w	r0, lr, r3
 80009d2:	4288      	cmp	r0, r1
 80009d4:	d908      	bls.n	80009e8 <__udivmoddi4+0x12c>
 80009d6:	eb1c 0101 	adds.w	r1, ip, r1
 80009da:	f103 38ff 	add.w	r8, r3, #4294967295
 80009de:	d202      	bcs.n	80009e6 <__udivmoddi4+0x12a>
 80009e0:	4288      	cmp	r0, r1
 80009e2:	f200 80cb 	bhi.w	8000b7c <__udivmoddi4+0x2c0>
 80009e6:	4643      	mov	r3, r8
 80009e8:	1a09      	subs	r1, r1, r0
 80009ea:	b2a4      	uxth	r4, r4
 80009ec:	fbb1 f0f7 	udiv	r0, r1, r7
 80009f0:	fb07 1110 	mls	r1, r7, r0, r1
 80009f4:	ea44 4401 	orr.w	r4, r4, r1, lsl #16
 80009f8:	fb0e fe00 	mul.w	lr, lr, r0
 80009fc:	45a6      	cmp	lr, r4
 80009fe:	d908      	bls.n	8000a12 <__udivmoddi4+0x156>
 8000a00:	eb1c 0404 	adds.w	r4, ip, r4
 8000a04:	f100 31ff 	add.w	r1, r0, #4294967295
 8000a08:	d202      	bcs.n	8000a10 <__udivmoddi4+0x154>
 8000a0a:	45a6      	cmp	lr, r4
 8000a0c:	f200 80bb 	bhi.w	8000b86 <__udivmoddi4+0x2ca>
 8000a10:	4608      	mov	r0, r1
 8000a12:	eba4 040e 	sub.w	r4, r4, lr
 8000a16:	ea40 4003 	orr.w	r0, r0, r3, lsl #16
 8000a1a:	e79c      	b.n	8000956 <__udivmoddi4+0x9a>
 8000a1c:	f1c6 0720 	rsb	r7, r6, #32
 8000a20:	40b3      	lsls	r3, r6
 8000a22:	fa22 fc07 	lsr.w	ip, r2, r7
 8000a26:	ea4c 0c03 	orr.w	ip, ip, r3
 8000a2a:	fa20 f407 	lsr.w	r4, r0, r7
 8000a2e:	fa01 f306 	lsl.w	r3, r1, r6
 8000a32:	431c      	orrs	r4, r3
 8000a34:	40f9      	lsrs	r1, r7
 8000a36:	ea4f 491c 	mov.w	r9, ip, lsr #16
 8000a3a:	fa00 f306 	lsl.w	r3, r0, r6
 8000a3e:	fbb1 f8f9 	udiv	r8, r1, r9
 8000a42:	0c20      	lsrs	r0, r4, #16
 8000a44:	fa1f fe8c 	uxth.w	lr, ip
 8000a48:	fb09 1118 	mls	r1, r9, r8, r1
 8000a4c:	ea40 4101 	orr.w	r1, r0, r1, lsl #16
 8000a50:	fb08 f00e 	mul.w	r0, r8, lr
 8000a54:	4288      	cmp	r0, r1
 8000a56:	fa02 f206 	lsl.w	r2, r2, r6
 8000a5a:	d90b      	bls.n	8000a74 <__udivmoddi4+0x1b8>
 8000a5c:	eb1c 0101 	adds.w	r1, ip, r1
 8000a60:	f108 3aff 	add.w	sl, r8, #4294967295
 8000a64:	f080 8088 	bcs.w	8000b78 <__udivmoddi4+0x2bc>
 8000a68:	4288      	cmp	r0, r1
 8000a6a:	f240 8085 	bls.w	8000b78 <__udivmoddi4+0x2bc>
 8000a6e:	f1a8 0802 	sub.w	r8, r8, #2
 8000a72:	4461      	add	r1, ip
 8000a74:	1a09      	subs	r1, r1, r0
 8000a76:	b2a4      	uxth	r4, r4
 8000a78:	fbb1 f0f9 	udiv	r0, r1, r9
 8000a7c:	fb09 1110 	mls	r1, r9, r0, r1
 8000a80:	ea44 4101 	orr.w	r1, r4, r1, lsl #16
 8000a84:	fb00 fe0e 	mul.w	lr, r0, lr
 8000a88:	458e      	cmp	lr, r1
 8000a8a:	d908      	bls.n	8000a9e <__udivmoddi4+0x1e2>
 8000a8c:	eb1c 0101 	adds.w	r1, ip, r1
 8000a90:	f100 34ff 	add.w	r4, r0, #4294967295
 8000a94:	d26c      	bcs.n	8000b70 <__udivmoddi4+0x2b4>
 8000a96:	458e      	cmp	lr, r1
 8000a98:	d96a      	bls.n	8000b70 <__udivmoddi4+0x2b4>
 8000a9a:	3802      	subs	r0, #2
 8000a9c:	4461      	add	r1, ip
 8000a9e:	ea40 4008 	orr.w	r0, r0, r8, lsl #16
 8000aa2:	fba0 9402 	umull	r9, r4, r0, r2
 8000aa6:	eba1 010e 	sub.w	r1, r1, lr
 8000aaa:	42a1      	cmp	r1, r4
 8000aac:	46c8      	mov	r8, r9
 8000aae:	46a6      	mov	lr, r4
 8000ab0:	d356      	bcc.n	8000b60 <__udivmoddi4+0x2a4>
 8000ab2:	d053      	beq.n	8000b5c <__udivmoddi4+0x2a0>
 8000ab4:	b15d      	cbz	r5, 8000ace <__udivmoddi4+0x212>
 8000ab6:	ebb3 0208 	subs.w	r2, r3, r8
 8000aba:	eb61 010e 	sbc.w	r1, r1, lr
 8000abe:	fa01 f707 	lsl.w	r7, r1, r7
 8000ac2:	fa22 f306 	lsr.w	r3, r2, r6
 8000ac6:	40f1      	lsrs	r1, r6
 8000ac8:	431f      	orrs	r7, r3
 8000aca:	e9c5 7100 	strd	r7, r1, [r5]
 8000ace:	2600      	movs	r6, #0
 8000ad0:	4631      	mov	r1, r6
 8000ad2:	e8bd 87f0 	ldmia.w	sp!, {r4, r5, r6, r7, r8, r9, sl, pc}
 8000ad6:	f1c2 0320 	rsb	r3, r2, #32
 8000ada:	40d8      	lsrs	r0, r3
 8000adc:	fa0c fc02 	lsl.w	ip, ip, r2
 8000ae0:	fa21 f303 	lsr.w	r3, r1, r3
 8000ae4:	4091      	lsls	r1, r2
 8000ae6:	4301      	orrs	r1, r0
 8000ae8:	ea4f 471c 	mov.w	r7, ip, lsr #16
 8000aec:	fa1f fe8c 	uxth.w	lr, ip
 8000af0:	fbb3 f0f7 	udiv	r0, r3, r7
 8000af4:	fb07 3610 	mls	r6, r7, r0, r3
 8000af8:	0c0b      	lsrs	r3, r1, #16
 8000afa:	ea43 4306 	orr.w	r3, r3, r6, lsl #16
 8000afe:	fb00 f60e 	mul.w	r6, r0, lr
 8000b02:	429e      	cmp	r6, r3
 8000b04:	fa04 f402 	lsl.w	r4, r4, r2
 8000b08:	d908      	bls.n	8000b1c <__udivmoddi4+0x260>
 8000b0a:	eb1c 0303 	adds.w	r3, ip, r3
 8000b0e:	f100 38ff 	add.w	r8, r0, #4294967295
 8000b12:	d22f      	bcs.n	8000b74 <__udivmoddi4+0x2b8>
 8000b14:	429e      	cmp	r6, r3
 8000b16:	d92d      	bls.n	8000b74 <__udivmoddi4+0x2b8>
 8000b18:	3802      	subs	r0, #2
 8000b1a:	4463      	add	r3, ip
 8000b1c:	1b9b      	subs	r3, r3, r6
 8000b1e:	b289      	uxth	r1, r1
 8000b20:	fbb3 f6f7 	udiv	r6, r3, r7
 8000b24:	fb07 3316 	mls	r3, r7, r6, r3
 8000b28:	ea41 4103 	orr.w	r1, r1, r3, lsl #16
 8000b2c:	fb06 f30e 	mul.w	r3, r6, lr
 8000b30:	428b      	cmp	r3, r1
 8000b32:	d908      	bls.n	8000b46 <__udivmoddi4+0x28a>
 8000b34:	eb1c 0101 	adds.w	r1, ip, r1
 8000b38:	f106 38ff 	add.w	r8, r6, #4294967295
 8000b3c:	d216      	bcs.n	8000b6c <__udivmoddi4+0x2b0>
 8000b3e:	428b      	cmp	r3, r1
 8000b40:	d914      	bls.n	8000b6c <__udivmoddi4+0x2b0>
 8000b42:	3e02      	subs	r6, #2
 8000b44:	4461      	add	r1, ip
 8000b46:	1ac9      	subs	r1, r1, r3
 8000b48:	ea46 4600 	orr.w	r6, r6, r0, lsl #16
 8000b4c:	e738      	b.n	80009c0 <__udivmoddi4+0x104>
 8000b4e:	462e      	mov	r6, r5
 8000b50:	4628      	mov	r0, r5
 8000b52:	e705      	b.n	8000960 <__udivmoddi4+0xa4>
 8000b54:	4606      	mov	r6, r0
 8000b56:	e6e3      	b.n	8000920 <__udivmoddi4+0x64>
 8000b58:	4618      	mov	r0, r3
 8000b5a:	e6f8      	b.n	800094e <__udivmoddi4+0x92>
 8000b5c:	454b      	cmp	r3, r9
 8000b5e:	d2a9      	bcs.n	8000ab4 <__udivmoddi4+0x1f8>
 8000b60:	ebb9 0802 	subs.w	r8, r9, r2
 8000b64:	eb64 0e0c 	sbc.w	lr, r4, ip
 8000b68:	3801      	subs	r0, #1
 8000b6a:	e7a3      	b.n	8000ab4 <__udivmoddi4+0x1f8>
 8000b6c:	4646      	mov	r6, r8
 8000b6e:	e7ea      	b.n	8000b46 <__udivmoddi4+0x28a>
 8000b70:	4620      	mov	r0, r4
 8000b72:	e794      	b.n	8000a9e <__udivmoddi4+0x1e2>
 8000b74:	4640      	mov	r0, r8
 8000b76:	e7d1      	b.n	8000b1c <__udivmoddi4+0x260>
 8000b78:	46d0      	mov	r8, sl
 8000b7a:	e77b      	b.n	8000a74 <__udivmoddi4+0x1b8>
 8000b7c:	3b02      	subs	r3, #2
 8000b7e:	4461      	add	r1, ip
 8000b80:	e732      	b.n	80009e8 <__udivmoddi4+0x12c>
 8000b82:	4630      	mov	r0, r6
 8000b84:	e709      	b.n	800099a <__udivmoddi4+0xde>
 8000b86:	4464      	add	r4, ip
 8000b88:	3802      	subs	r0, #2
 8000b8a:	e742      	b.n	8000a12 <__udivmoddi4+0x156>

08000b8c <__aeabi_idiv0>:
 8000b8c:	4770      	bx	lr
 8000b8e:	bf00      	nop

08000b90 <MX_FSMC_Init>:

SRAM_HandleTypeDef hsram4;

/* FSMC initialization function */
void MX_FSMC_Init(void)
{
 8000b90:	b580      	push	{r7, lr}
 8000b92:	b08e      	sub	sp, #56	; 0x38
 8000b94:	af00      	add	r7, sp, #0
  /* USER CODE BEGIN FSMC_Init 0 */

  /* USER CODE END FSMC_Init 0 */

  FSMC_NORSRAM_TimingTypeDef Timing = {0};
 8000b96:	f107 031c 	add.w	r3, r7, #28
 8000b9a:	2200      	movs	r2, #0
 8000b9c:	601a      	str	r2, [r3, #0]
 8000b9e:	605a      	str	r2, [r3, #4]
 8000ba0:	609a      	str	r2, [r3, #8]
 8000ba2:	60da      	str	r2, [r3, #12]
 8000ba4:	611a      	str	r2, [r3, #16]
 8000ba6:	615a      	str	r2, [r3, #20]
 8000ba8:	619a      	str	r2, [r3, #24]
  FSMC_NORSRAM_TimingTypeDef ExtTiming = {0};
 8000baa:	463b      	mov	r3, r7
 8000bac:	2200      	movs	r2, #0
 8000bae:	601a      	str	r2, [r3, #0]
 8000bb0:	605a      	str	r2, [r3, #4]
 8000bb2:	609a      	str	r2, [r3, #8]
 8000bb4:	60da      	str	r2, [r3, #12]
 8000bb6:	611a      	str	r2, [r3, #16]
 8000bb8:	615a      	str	r2, [r3, #20]
 8000bba:	619a      	str	r2, [r3, #24]

  /* USER CODE END FSMC_Init 1 */

  /** Perform the SRAM4 memory initialization sequence
  */
  hsram4.Instance = FSMC_NORSRAM_DEVICE;
 8000bbc:	4b2f      	ldr	r3, [pc, #188]	; (8000c7c <MX_FSMC_Init+0xec>)
 8000bbe:	f04f 4220 	mov.w	r2, #2684354560	; 0xa0000000
 8000bc2:	601a      	str	r2, [r3, #0]
  hsram4.Extended = FSMC_NORSRAM_EXTENDED_DEVICE;
 8000bc4:	4b2d      	ldr	r3, [pc, #180]	; (8000c7c <MX_FSMC_Init+0xec>)
 8000bc6:	4a2e      	ldr	r2, [pc, #184]	; (8000c80 <MX_FSMC_Init+0xf0>)
 8000bc8:	605a      	str	r2, [r3, #4]
  /* hsram4.Init */
  hsram4.Init.NSBank = FSMC_NORSRAM_BANK4;
 8000bca:	4b2c      	ldr	r3, [pc, #176]	; (8000c7c <MX_FSMC_Init+0xec>)
 8000bcc:	2206      	movs	r2, #6
 8000bce:	609a      	str	r2, [r3, #8]
  hsram4.Init.DataAddressMux = FSMC_DATA_ADDRESS_MUX_DISABLE;
 8000bd0:	4b2a      	ldr	r3, [pc, #168]	; (8000c7c <MX_FSMC_Init+0xec>)
 8000bd2:	2200      	movs	r2, #0
 8000bd4:	60da      	str	r2, [r3, #12]
  hsram4.Init.MemoryType = FSMC_MEMORY_TYPE_SRAM;
 8000bd6:	4b29      	ldr	r3, [pc, #164]	; (8000c7c <MX_FSMC_Init+0xec>)
 8000bd8:	2200      	movs	r2, #0
 8000bda:	611a      	str	r2, [r3, #16]
  hsram4.Init.MemoryDataWidth = FSMC_NORSRAM_MEM_BUS_WIDTH_16;
 8000bdc:	4b27      	ldr	r3, [pc, #156]	; (8000c7c <MX_FSMC_Init+0xec>)
 8000bde:	2210      	movs	r2, #16
 8000be0:	615a      	str	r2, [r3, #20]
  hsram4.Init.BurstAccessMode = FSMC_BURST_ACCESS_MODE_DISABLE;
 8000be2:	4b26      	ldr	r3, [pc, #152]	; (8000c7c <MX_FSMC_Init+0xec>)
 8000be4:	2200      	movs	r2, #0
 8000be6:	619a      	str	r2, [r3, #24]
  hsram4.Init.WaitSignalPolarity = FSMC_WAIT_SIGNAL_POLARITY_LOW;
 8000be8:	4b24      	ldr	r3, [pc, #144]	; (8000c7c <MX_FSMC_Init+0xec>)
 8000bea:	2200      	movs	r2, #0
 8000bec:	61da      	str	r2, [r3, #28]
  hsram4.Init.WrapMode = FSMC_WRAP_MODE_DISABLE;
 8000bee:	4b23      	ldr	r3, [pc, #140]	; (8000c7c <MX_FSMC_Init+0xec>)
 8000bf0:	2200      	movs	r2, #0
 8000bf2:	621a      	str	r2, [r3, #32]
  hsram4.Init.WaitSignalActive = FSMC_WAIT_TIMING_BEFORE_WS;
 8000bf4:	4b21      	ldr	r3, [pc, #132]	; (8000c7c <MX_FSMC_Init+0xec>)
 8000bf6:	2200      	movs	r2, #0
 8000bf8:	625a      	str	r2, [r3, #36]	; 0x24
  hsram4.Init.WriteOperation = FSMC_WRITE_OPERATION_ENABLE;
 8000bfa:	4b20      	ldr	r3, [pc, #128]	; (8000c7c <MX_FSMC_Init+0xec>)
 8000bfc:	f44f 5280 	mov.w	r2, #4096	; 0x1000
 8000c00:	629a      	str	r2, [r3, #40]	; 0x28
  hsram4.Init.WaitSignal = FSMC_WAIT_SIGNAL_DISABLE;
 8000c02:	4b1e      	ldr	r3, [pc, #120]	; (8000c7c <MX_FSMC_Init+0xec>)
 8000c04:	2200      	movs	r2, #0
 8000c06:	62da      	str	r2, [r3, #44]	; 0x2c
  hsram4.Init.ExtendedMode = FSMC_EXTENDED_MODE_ENABLE;
 8000c08:	4b1c      	ldr	r3, [pc, #112]	; (8000c7c <MX_FSMC_Init+0xec>)
 8000c0a:	f44f 4280 	mov.w	r2, #16384	; 0x4000
 8000c0e:	631a      	str	r2, [r3, #48]	; 0x30
  hsram4.Init.AsynchronousWait = FSMC_ASYNCHRONOUS_WAIT_DISABLE;
 8000c10:	4b1a      	ldr	r3, [pc, #104]	; (8000c7c <MX_FSMC_Init+0xec>)
 8000c12:	2200      	movs	r2, #0
 8000c14:	635a      	str	r2, [r3, #52]	; 0x34
  hsram4.Init.WriteBurst = FSMC_WRITE_BURST_DISABLE;
 8000c16:	4b19      	ldr	r3, [pc, #100]	; (8000c7c <MX_FSMC_Init+0xec>)
 8000c18:	2200      	movs	r2, #0
 8000c1a:	639a      	str	r2, [r3, #56]	; 0x38
  hsram4.Init.PageSize = FSMC_PAGE_SIZE_NONE;
 8000c1c:	4b17      	ldr	r3, [pc, #92]	; (8000c7c <MX_FSMC_Init+0xec>)
 8000c1e:	2200      	movs	r2, #0
 8000c20:	645a      	str	r2, [r3, #68]	; 0x44
  /* Timing */
  Timing.AddressSetupTime = 2;
 8000c22:	2302      	movs	r3, #2
 8000c24:	61fb      	str	r3, [r7, #28]
  Timing.AddressHoldTime = 15;
 8000c26:	230f      	movs	r3, #15
 8000c28:	623b      	str	r3, [r7, #32]
  Timing.DataSetupTime = 16;
 8000c2a:	2310      	movs	r3, #16
 8000c2c:	627b      	str	r3, [r7, #36]	; 0x24
  Timing.BusTurnAroundDuration = 0;
 8000c2e:	2300      	movs	r3, #0
 8000c30:	62bb      	str	r3, [r7, #40]	; 0x28
  Timing.CLKDivision = 16;
 8000c32:	2310      	movs	r3, #16
 8000c34:	62fb      	str	r3, [r7, #44]	; 0x2c
  Timing.DataLatency = 17;
 8000c36:	2311      	movs	r3, #17
 8000c38:	633b      	str	r3, [r7, #48]	; 0x30
  Timing.AccessMode = FSMC_ACCESS_MODE_A;
 8000c3a:	2300      	movs	r3, #0
 8000c3c:	637b      	str	r3, [r7, #52]	; 0x34
  /* ExtTiming */
  ExtTiming.AddressSetupTime = 4;
 8000c3e:	2304      	movs	r3, #4
 8000c40:	603b      	str	r3, [r7, #0]
  ExtTiming.AddressHoldTime = 15;
 8000c42:	230f      	movs	r3, #15
 8000c44:	607b      	str	r3, [r7, #4]
  ExtTiming.DataSetupTime = 9;
 8000c46:	2309      	movs	r3, #9
 8000c48:	60bb      	str	r3, [r7, #8]
  ExtTiming.BusTurnAroundDuration = 0;
 8000c4a:	2300      	movs	r3, #0
 8000c4c:	60fb      	str	r3, [r7, #12]
  ExtTiming.CLKDivision = 16;
 8000c4e:	2310      	movs	r3, #16
 8000c50:	613b      	str	r3, [r7, #16]
  ExtTiming.DataLatency = 17;
 8000c52:	2311      	movs	r3, #17
 8000c54:	617b      	str	r3, [r7, #20]
  ExtTiming.AccessMode = FSMC_ACCESS_MODE_A;
 8000c56:	2300      	movs	r3, #0
 8000c58:	61bb      	str	r3, [r7, #24]

  if (HAL_SRAM_Init(&hsram4, &Timing, &ExtTiming) != HAL_OK)
 8000c5a:	463a      	mov	r2, r7
 8000c5c:	f107 031c 	add.w	r3, r7, #28
 8000c60:	4619      	mov	r1, r3
 8000c62:	4806      	ldr	r0, [pc, #24]	; (8000c7c <MX_FSMC_Init+0xec>)
 8000c64:	f007 fff1 	bl	8008c4a <HAL_SRAM_Init>
 8000c68:	4603      	mov	r3, r0
 8000c6a:	2b00      	cmp	r3, #0
 8000c6c:	d001      	beq.n	8000c72 <MX_FSMC_Init+0xe2>
  {
    Error_Handler( );
 8000c6e:	f000 faeb 	bl	8001248 <Error_Handler>
  }

  /* USER CODE BEGIN FSMC_Init 2 */

  /* USER CODE END FSMC_Init 2 */
}
 8000c72:	bf00      	nop
 8000c74:	3738      	adds	r7, #56	; 0x38
 8000c76:	46bd      	mov	sp, r7
 8000c78:	bd80      	pop	{r7, pc}
 8000c7a:	bf00      	nop
 8000c7c:	200001a8 	.word	0x200001a8
 8000c80:	a0000104 	.word	0xa0000104

08000c84 <HAL_FSMC_MspInit>:

static uint32_t FSMC_Initialized = 0;

static void HAL_FSMC_MspInit(void){
 8000c84:	b580      	push	{r7, lr}
 8000c86:	b086      	sub	sp, #24
 8000c88:	af00      	add	r7, sp, #0
  /* USER CODE BEGIN FSMC_MspInit 0 */

  /* USER CODE END FSMC_MspInit 0 */
  GPIO_InitTypeDef GPIO_InitStruct = {0};
 8000c8a:	1d3b      	adds	r3, r7, #4
 8000c8c:	2200      	movs	r2, #0
 8000c8e:	601a      	str	r2, [r3, #0]
 8000c90:	605a      	str	r2, [r3, #4]
 8000c92:	609a      	str	r2, [r3, #8]
 8000c94:	60da      	str	r2, [r3, #12]
 8000c96:	611a      	str	r2, [r3, #16]
  if (FSMC_Initialized) {
 8000c98:	4b2c      	ldr	r3, [pc, #176]	; (8000d4c <HAL_FSMC_MspInit+0xc8>)
 8000c9a:	681b      	ldr	r3, [r3, #0]
 8000c9c:	2b00      	cmp	r3, #0
 8000c9e:	d151      	bne.n	8000d44 <HAL_FSMC_MspInit+0xc0>
    return;
  }
  FSMC_Initialized = 1;
 8000ca0:	4b2a      	ldr	r3, [pc, #168]	; (8000d4c <HAL_FSMC_MspInit+0xc8>)
 8000ca2:	2201      	movs	r2, #1
 8000ca4:	601a      	str	r2, [r3, #0]

  /* Peripheral clock enable */
  __HAL_RCC_FSMC_CLK_ENABLE();
 8000ca6:	2300      	movs	r3, #0
 8000ca8:	603b      	str	r3, [r7, #0]
 8000caa:	4b29      	ldr	r3, [pc, #164]	; (8000d50 <HAL_FSMC_MspInit+0xcc>)
 8000cac:	6b9b      	ldr	r3, [r3, #56]	; 0x38
 8000cae:	4a28      	ldr	r2, [pc, #160]	; (8000d50 <HAL_FSMC_MspInit+0xcc>)
 8000cb0:	f043 0301 	orr.w	r3, r3, #1
 8000cb4:	6393      	str	r3, [r2, #56]	; 0x38
 8000cb6:	4b26      	ldr	r3, [pc, #152]	; (8000d50 <HAL_FSMC_MspInit+0xcc>)
 8000cb8:	6b9b      	ldr	r3, [r3, #56]	; 0x38
 8000cba:	f003 0301 	and.w	r3, r3, #1
 8000cbe:	603b      	str	r3, [r7, #0]
 8000cc0:	683b      	ldr	r3, [r7, #0]
  PD4   ------> FSMC_NOE
  PD5   ------> FSMC_NWE
  PG12   ------> FSMC_NE4
  */
  /* GPIO_InitStruct */
  GPIO_InitStruct.Pin = GPIO_PIN_12;
 8000cc2:	f44f 5380 	mov.w	r3, #4096	; 0x1000
 8000cc6:	607b      	str	r3, [r7, #4]
  GPIO_InitStruct.Mode = GPIO_MODE_AF_PP;
 8000cc8:	2302      	movs	r3, #2
 8000cca:	60bb      	str	r3, [r7, #8]
  GPIO_InitStruct.Pull = GPIO_NOPULL;
 8000ccc:	2300      	movs	r3, #0
 8000cce:	60fb      	str	r3, [r7, #12]
  GPIO_InitStruct.Speed = GPIO_SPEED_FREQ_VERY_HIGH;
 8000cd0:	2303      	movs	r3, #3
 8000cd2:	613b      	str	r3, [r7, #16]
  GPIO_InitStruct.Alternate = GPIO_AF12_FSMC;
 8000cd4:	230c      	movs	r3, #12
 8000cd6:	617b      	str	r3, [r7, #20]

  HAL_GPIO_Init(GPIOF, &GPIO_InitStruct);
 8000cd8:	1d3b      	adds	r3, r7, #4
 8000cda:	4619      	mov	r1, r3
 8000cdc:	481d      	ldr	r0, [pc, #116]	; (8000d54 <HAL_FSMC_MspInit+0xd0>)
 8000cde:	f004 f961 	bl	8004fa4 <HAL_GPIO_Init>

  /* GPIO_InitStruct */
  GPIO_InitStruct.Pin = GPIO_PIN_7|GPIO_PIN_8|GPIO_PIN_9|GPIO_PIN_10
 8000ce2:	f64f 7380 	movw	r3, #65408	; 0xff80
 8000ce6:	607b      	str	r3, [r7, #4]
                          |GPIO_PIN_11|GPIO_PIN_12|GPIO_PIN_13|GPIO_PIN_14
                          |GPIO_PIN_15;
  GPIO_InitStruct.Mode = GPIO_MODE_AF_PP;
 8000ce8:	2302      	movs	r3, #2
 8000cea:	60bb      	str	r3, [r7, #8]
  GPIO_InitStruct.Pull = GPIO_NOPULL;
 8000cec:	2300      	movs	r3, #0
 8000cee:	60fb      	str	r3, [r7, #12]
  GPIO_InitStruct.Speed = GPIO_SPEED_FREQ_VERY_HIGH;
 8000cf0:	2303      	movs	r3, #3
 8000cf2:	613b      	str	r3, [r7, #16]
  GPIO_InitStruct.Alternate = GPIO_AF12_FSMC;
 8000cf4:	230c      	movs	r3, #12
 8000cf6:	617b      	str	r3, [r7, #20]

  HAL_GPIO_Init(GPIOE, &GPIO_InitStruct);
 8000cf8:	1d3b      	adds	r3, r7, #4
 8000cfa:	4619      	mov	r1, r3
 8000cfc:	4816      	ldr	r0, [pc, #88]	; (8000d58 <HAL_FSMC_MspInit+0xd4>)
 8000cfe:	f004 f951 	bl	8004fa4 <HAL_GPIO_Init>

  /* GPIO_InitStruct */
  GPIO_InitStruct.Pin = GPIO_PIN_8|GPIO_PIN_9|GPIO_PIN_10|GPIO_PIN_14
 8000d02:	f24c 7333 	movw	r3, #50995	; 0xc733
 8000d06:	607b      	str	r3, [r7, #4]
                          |GPIO_PIN_15|GPIO_PIN_0|GPIO_PIN_1|GPIO_PIN_4
                          |GPIO_PIN_5;
  GPIO_InitStruct.Mode = GPIO_MODE_AF_PP;
 8000d08:	2302      	movs	r3, #2
 8000d0a:	60bb      	str	r3, [r7, #8]
  GPIO_InitStruct.Pull = GPIO_NOPULL;
 8000d0c:	2300      	movs	r3, #0
 8000d0e:	60fb      	str	r3, [r7, #12]
  GPIO_InitStruct.Speed = GPIO_SPEED_FREQ_VERY_HIGH;
 8000d10:	2303      	movs	r3, #3
 8000d12:	613b      	str	r3, [r7, #16]
  GPIO_InitStruct.Alternate = GPIO_AF12_FSMC;
 8000d14:	230c      	movs	r3, #12
 8000d16:	617b      	str	r3, [r7, #20]

  HAL_GPIO_Init(GPIOD, &GPIO_InitStruct);
 8000d18:	1d3b      	adds	r3, r7, #4
 8000d1a:	4619      	mov	r1, r3
 8000d1c:	480f      	ldr	r0, [pc, #60]	; (8000d5c <HAL_FSMC_MspInit+0xd8>)
 8000d1e:	f004 f941 	bl	8004fa4 <HAL_GPIO_Init>

  /* GPIO_InitStruct */
  GPIO_InitStruct.Pin = GPIO_PIN_12;
 8000d22:	f44f 5380 	mov.w	r3, #4096	; 0x1000
 8000d26:	607b      	str	r3, [r7, #4]
  GPIO_InitStruct.Mode = GPIO_MODE_AF_PP;
 8000d28:	2302      	movs	r3, #2
 8000d2a:	60bb      	str	r3, [r7, #8]
  GPIO_InitStruct.Pull = GPIO_NOPULL;
 8000d2c:	2300      	movs	r3, #0
 8000d2e:	60fb      	str	r3, [r7, #12]
  GPIO_InitStruct.Speed = GPIO_SPEED_FREQ_VERY_HIGH;
 8000d30:	2303      	movs	r3, #3
 8000d32:	613b      	str	r3, [r7, #16]
  GPIO_InitStruct.Alternate = GPIO_AF12_FSMC;
 8000d34:	230c      	movs	r3, #12
 8000d36:	617b      	str	r3, [r7, #20]

  HAL_GPIO_Init(GPIOG, &GPIO_InitStruct);
 8000d38:	1d3b      	adds	r3, r7, #4
 8000d3a:	4619      	mov	r1, r3
 8000d3c:	4808      	ldr	r0, [pc, #32]	; (8000d60 <HAL_FSMC_MspInit+0xdc>)
 8000d3e:	f004 f931 	bl	8004fa4 <HAL_GPIO_Init>
 8000d42:	e000      	b.n	8000d46 <HAL_FSMC_MspInit+0xc2>
    return;
 8000d44:	bf00      	nop

  /* USER CODE BEGIN FSMC_MspInit 1 */

  /* USER CODE END FSMC_MspInit 1 */
}
 8000d46:	3718      	adds	r7, #24
 8000d48:	46bd      	mov	sp, r7
 8000d4a:	bd80      	pop	{r7, pc}
 8000d4c:	200001f8 	.word	0x200001f8
 8000d50:	40023800 	.word	0x40023800
 8000d54:	40021400 	.word	0x40021400
 8000d58:	40021000 	.word	0x40021000
 8000d5c:	40020c00 	.word	0x40020c00
 8000d60:	40021800 	.word	0x40021800

08000d64 <HAL_SRAM_MspInit>:

void HAL_SRAM_MspInit(SRAM_HandleTypeDef* sramHandle){
 8000d64:	b580      	push	{r7, lr}
 8000d66:	b082      	sub	sp, #8
 8000d68:	af00      	add	r7, sp, #0
 8000d6a:	6078      	str	r0, [r7, #4]
  /* USER CODE BEGIN SRAM_MspInit 0 */

  /* USER CODE END SRAM_MspInit 0 */
  HAL_FSMC_MspInit();
 8000d6c:	f7ff ff8a 	bl	8000c84 <HAL_FSMC_MspInit>
  /* USER CODE BEGIN SRAM_MspInit 1 */

  /* USER CODE END SRAM_MspInit 1 */
}
 8000d70:	bf00      	nop
 8000d72:	3708      	adds	r7, #8
 8000d74:	46bd      	mov	sp, r7
 8000d76:	bd80      	pop	{r7, pc}

08000d78 <MX_GPIO_Init>:
        * Output
        * EVENT_OUT
        * EXTI
*/
void MX_GPIO_Init(void)
{
 8000d78:	b580      	push	{r7, lr}
 8000d7a:	b08e      	sub	sp, #56	; 0x38
 8000d7c:	af00      	add	r7, sp, #0

  GPIO_InitTypeDef GPIO_InitStruct = {0};
 8000d7e:	f107 0324 	add.w	r3, r7, #36	; 0x24
 8000d82:	2200      	movs	r2, #0
 8000d84:	601a      	str	r2, [r3, #0]
 8000d86:	605a      	str	r2, [r3, #4]
 8000d88:	609a      	str	r2, [r3, #8]
 8000d8a:	60da      	str	r2, [r3, #12]
 8000d8c:	611a      	str	r2, [r3, #16]

  /* GPIO Ports Clock Enable */
  __HAL_RCC_GPIOE_CLK_ENABLE();
 8000d8e:	2300      	movs	r3, #0
 8000d90:	623b      	str	r3, [r7, #32]
 8000d92:	4b5a      	ldr	r3, [pc, #360]	; (8000efc <MX_GPIO_Init+0x184>)
 8000d94:	6b1b      	ldr	r3, [r3, #48]	; 0x30
 8000d96:	4a59      	ldr	r2, [pc, #356]	; (8000efc <MX_GPIO_Init+0x184>)
 8000d98:	f043 0310 	orr.w	r3, r3, #16
 8000d9c:	6313      	str	r3, [r2, #48]	; 0x30
 8000d9e:	4b57      	ldr	r3, [pc, #348]	; (8000efc <MX_GPIO_Init+0x184>)
 8000da0:	6b1b      	ldr	r3, [r3, #48]	; 0x30
 8000da2:	f003 0310 	and.w	r3, r3, #16
 8000da6:	623b      	str	r3, [r7, #32]
 8000da8:	6a3b      	ldr	r3, [r7, #32]
  __HAL_RCC_GPIOC_CLK_ENABLE();
 8000daa:	2300      	movs	r3, #0
 8000dac:	61fb      	str	r3, [r7, #28]
 8000dae:	4b53      	ldr	r3, [pc, #332]	; (8000efc <MX_GPIO_Init+0x184>)
 8000db0:	6b1b      	ldr	r3, [r3, #48]	; 0x30
 8000db2:	4a52      	ldr	r2, [pc, #328]	; (8000efc <MX_GPIO_Init+0x184>)
 8000db4:	f043 0304 	orr.w	r3, r3, #4
 8000db8:	6313      	str	r3, [r2, #48]	; 0x30
 8000dba:	4b50      	ldr	r3, [pc, #320]	; (8000efc <MX_GPIO_Init+0x184>)
 8000dbc:	6b1b      	ldr	r3, [r3, #48]	; 0x30
 8000dbe:	f003 0304 	and.w	r3, r3, #4
 8000dc2:	61fb      	str	r3, [r7, #28]
 8000dc4:	69fb      	ldr	r3, [r7, #28]
  __HAL_RCC_GPIOF_CLK_ENABLE();
 8000dc6:	2300      	movs	r3, #0
 8000dc8:	61bb      	str	r3, [r7, #24]
 8000dca:	4b4c      	ldr	r3, [pc, #304]	; (8000efc <MX_GPIO_Init+0x184>)
 8000dcc:	6b1b      	ldr	r3, [r3, #48]	; 0x30
 8000dce:	4a4b      	ldr	r2, [pc, #300]	; (8000efc <MX_GPIO_Init+0x184>)
 8000dd0:	f043 0320 	orr.w	r3, r3, #32
 8000dd4:	6313      	str	r3, [r2, #48]	; 0x30
 8000dd6:	4b49      	ldr	r3, [pc, #292]	; (8000efc <MX_GPIO_Init+0x184>)
 8000dd8:	6b1b      	ldr	r3, [r3, #48]	; 0x30
 8000dda:	f003 0320 	and.w	r3, r3, #32
 8000dde:	61bb      	str	r3, [r7, #24]
 8000de0:	69bb      	ldr	r3, [r7, #24]
  __HAL_RCC_GPIOH_CLK_ENABLE();
 8000de2:	2300      	movs	r3, #0
 8000de4:	617b      	str	r3, [r7, #20]
 8000de6:	4b45      	ldr	r3, [pc, #276]	; (8000efc <MX_GPIO_Init+0x184>)
 8000de8:	6b1b      	ldr	r3, [r3, #48]	; 0x30
 8000dea:	4a44      	ldr	r2, [pc, #272]	; (8000efc <MX_GPIO_Init+0x184>)
 8000dec:	f043 0380 	orr.w	r3, r3, #128	; 0x80
 8000df0:	6313      	str	r3, [r2, #48]	; 0x30
 8000df2:	4b42      	ldr	r3, [pc, #264]	; (8000efc <MX_GPIO_Init+0x184>)
 8000df4:	6b1b      	ldr	r3, [r3, #48]	; 0x30
 8000df6:	f003 0380 	and.w	r3, r3, #128	; 0x80
 8000dfa:	617b      	str	r3, [r7, #20]
 8000dfc:	697b      	ldr	r3, [r7, #20]
  __HAL_RCC_GPIOA_CLK_ENABLE();
 8000dfe:	2300      	movs	r3, #0
 8000e00:	613b      	str	r3, [r7, #16]
 8000e02:	4b3e      	ldr	r3, [pc, #248]	; (8000efc <MX_GPIO_Init+0x184>)
 8000e04:	6b1b      	ldr	r3, [r3, #48]	; 0x30
 8000e06:	4a3d      	ldr	r2, [pc, #244]	; (8000efc <MX_GPIO_Init+0x184>)
 8000e08:	f043 0301 	orr.w	r3, r3, #1
 8000e0c:	6313      	str	r3, [r2, #48]	; 0x30
 8000e0e:	4b3b      	ldr	r3, [pc, #236]	; (8000efc <MX_GPIO_Init+0x184>)
 8000e10:	6b1b      	ldr	r3, [r3, #48]	; 0x30
 8000e12:	f003 0301 	and.w	r3, r3, #1
 8000e16:	613b      	str	r3, [r7, #16]
 8000e18:	693b      	ldr	r3, [r7, #16]
  __HAL_RCC_GPIOB_CLK_ENABLE();
 8000e1a:	2300      	movs	r3, #0
 8000e1c:	60fb      	str	r3, [r7, #12]
 8000e1e:	4b37      	ldr	r3, [pc, #220]	; (8000efc <MX_GPIO_Init+0x184>)
 8000e20:	6b1b      	ldr	r3, [r3, #48]	; 0x30
 8000e22:	4a36      	ldr	r2, [pc, #216]	; (8000efc <MX_GPIO_Init+0x184>)
 8000e24:	f043 0302 	orr.w	r3, r3, #2
 8000e28:	6313      	str	r3, [r2, #48]	; 0x30
 8000e2a:	4b34      	ldr	r3, [pc, #208]	; (8000efc <MX_GPIO_Init+0x184>)
 8000e2c:	6b1b      	ldr	r3, [r3, #48]	; 0x30
 8000e2e:	f003 0302 	and.w	r3, r3, #2
 8000e32:	60fb      	str	r3, [r7, #12]
 8000e34:	68fb      	ldr	r3, [r7, #12]
  __HAL_RCC_GPIOD_CLK_ENABLE();
 8000e36:	2300      	movs	r3, #0
 8000e38:	60bb      	str	r3, [r7, #8]
 8000e3a:	4b30      	ldr	r3, [pc, #192]	; (8000efc <MX_GPIO_Init+0x184>)
 8000e3c:	6b1b      	ldr	r3, [r3, #48]	; 0x30
 8000e3e:	4a2f      	ldr	r2, [pc, #188]	; (8000efc <MX_GPIO_Init+0x184>)
 8000e40:	f043 0308 	orr.w	r3, r3, #8
 8000e44:	6313      	str	r3, [r2, #48]	; 0x30
 8000e46:	4b2d      	ldr	r3, [pc, #180]	; (8000efc <MX_GPIO_Init+0x184>)
 8000e48:	6b1b      	ldr	r3, [r3, #48]	; 0x30
 8000e4a:	f003 0308 	and.w	r3, r3, #8
 8000e4e:	60bb      	str	r3, [r7, #8]
 8000e50:	68bb      	ldr	r3, [r7, #8]
  __HAL_RCC_GPIOG_CLK_ENABLE();
 8000e52:	2300      	movs	r3, #0
 8000e54:	607b      	str	r3, [r7, #4]
 8000e56:	4b29      	ldr	r3, [pc, #164]	; (8000efc <MX_GPIO_Init+0x184>)
 8000e58:	6b1b      	ldr	r3, [r3, #48]	; 0x30
 8000e5a:	4a28      	ldr	r2, [pc, #160]	; (8000efc <MX_GPIO_Init+0x184>)
 8000e5c:	f043 0340 	orr.w	r3, r3, #64	; 0x40
 8000e60:	6313      	str	r3, [r2, #48]	; 0x30
 8000e62:	4b26      	ldr	r3, [pc, #152]	; (8000efc <MX_GPIO_Init+0x184>)
 8000e64:	6b1b      	ldr	r3, [r3, #48]	; 0x30
 8000e66:	f003 0340 	and.w	r3, r3, #64	; 0x40
 8000e6a:	607b      	str	r3, [r7, #4]
 8000e6c:	687b      	ldr	r3, [r7, #4]

  /*Configure GPIO pin Output Level */
  HAL_GPIO_WritePin(GPIOF, LED1_Pin|LED2_Pin, GPIO_PIN_SET);
 8000e6e:	2201      	movs	r2, #1
 8000e70:	f44f 61c0 	mov.w	r1, #1536	; 0x600
 8000e74:	4822      	ldr	r0, [pc, #136]	; (8000f00 <MX_GPIO_Init+0x188>)
 8000e76:	f004 fa49 	bl	800530c <HAL_GPIO_WritePin>

  /*Configure GPIO pin Output Level */
  HAL_GPIO_WritePin(LCD_BL_GPIO_Port, LCD_BL_Pin, GPIO_PIN_RESET);
 8000e7a:	2200      	movs	r2, #0
 8000e7c:	f44f 4100 	mov.w	r1, #32768	; 0x8000
 8000e80:	4820      	ldr	r0, [pc, #128]	; (8000f04 <MX_GPIO_Init+0x18c>)
 8000e82:	f004 fa43 	bl	800530c <HAL_GPIO_WritePin>

  /*Configure GPIO pins : PEPin PEPin PEPin */
  GPIO_InitStruct.Pin = KeyLeft_Pin|KeyDown_Pin|KeyRight_Pin;
 8000e86:	231c      	movs	r3, #28
 8000e88:	627b      	str	r3, [r7, #36]	; 0x24
  GPIO_InitStruct.Mode = GPIO_MODE_INPUT;
 8000e8a:	2300      	movs	r3, #0
 8000e8c:	62bb      	str	r3, [r7, #40]	; 0x28
  GPIO_InitStruct.Pull = GPIO_PULLUP;
 8000e8e:	2301      	movs	r3, #1
 8000e90:	62fb      	str	r3, [r7, #44]	; 0x2c
  HAL_GPIO_Init(GPIOE, &GPIO_InitStruct);
 8000e92:	f107 0324 	add.w	r3, r7, #36	; 0x24
 8000e96:	4619      	mov	r1, r3
 8000e98:	481b      	ldr	r0, [pc, #108]	; (8000f08 <MX_GPIO_Init+0x190>)
 8000e9a:	f004 f883 	bl	8004fa4 <HAL_GPIO_Init>

  /*Configure GPIO pins : PFPin PFPin */
  GPIO_InitStruct.Pin = LED1_Pin|LED2_Pin;
 8000e9e:	f44f 63c0 	mov.w	r3, #1536	; 0x600
 8000ea2:	627b      	str	r3, [r7, #36]	; 0x24
  GPIO_InitStruct.Mode = GPIO_MODE_OUTPUT_PP;
 8000ea4:	2301      	movs	r3, #1
 8000ea6:	62bb      	str	r3, [r7, #40]	; 0x28
  GPIO_InitStruct.Pull = GPIO_NOPULL;
 8000ea8:	2300      	movs	r3, #0
 8000eaa:	62fb      	str	r3, [r7, #44]	; 0x2c
  GPIO_InitStruct.Speed = GPIO_SPEED_FREQ_LOW;
 8000eac:	2300      	movs	r3, #0
 8000eae:	633b      	str	r3, [r7, #48]	; 0x30
  HAL_GPIO_Init(GPIOF, &GPIO_InitStruct);
 8000eb0:	f107 0324 	add.w	r3, r7, #36	; 0x24
 8000eb4:	4619      	mov	r1, r3
 8000eb6:	4812      	ldr	r0, [pc, #72]	; (8000f00 <MX_GPIO_Init+0x188>)
 8000eb8:	f004 f874 	bl	8004fa4 <HAL_GPIO_Init>

  /*Configure GPIO pin : PtPin */
  GPIO_InitStruct.Pin = KeyUp_Pin;
 8000ebc:	2301      	movs	r3, #1
 8000ebe:	627b      	str	r3, [r7, #36]	; 0x24
  GPIO_InitStruct.Mode = GPIO_MODE_INPUT;
 8000ec0:	2300      	movs	r3, #0
 8000ec2:	62bb      	str	r3, [r7, #40]	; 0x28
  GPIO_InitStruct.Pull = GPIO_PULLDOWN;
 8000ec4:	2302      	movs	r3, #2
 8000ec6:	62fb      	str	r3, [r7, #44]	; 0x2c
  HAL_GPIO_Init(KeyUp_GPIO_Port, &GPIO_InitStruct);
 8000ec8:	f107 0324 	add.w	r3, r7, #36	; 0x24
 8000ecc:	4619      	mov	r1, r3
 8000ece:	480f      	ldr	r0, [pc, #60]	; (8000f0c <MX_GPIO_Init+0x194>)
 8000ed0:	f004 f868 	bl	8004fa4 <HAL_GPIO_Init>

  /*Configure GPIO pin : PtPin */
  GPIO_InitStruct.Pin = LCD_BL_Pin;
 8000ed4:	f44f 4300 	mov.w	r3, #32768	; 0x8000
 8000ed8:	627b      	str	r3, [r7, #36]	; 0x24
  GPIO_InitStruct.Mode = GPIO_MODE_OUTPUT_PP;
 8000eda:	2301      	movs	r3, #1
 8000edc:	62bb      	str	r3, [r7, #40]	; 0x28
  GPIO_InitStruct.Pull = GPIO_NOPULL;
 8000ede:	2300      	movs	r3, #0
 8000ee0:	62fb      	str	r3, [r7, #44]	; 0x2c
  GPIO_InitStruct.Speed = GPIO_SPEED_FREQ_LOW;
 8000ee2:	2300      	movs	r3, #0
 8000ee4:	633b      	str	r3, [r7, #48]	; 0x30
  HAL_GPIO_Init(LCD_BL_GPIO_Port, &GPIO_InitStruct);
 8000ee6:	f107 0324 	add.w	r3, r7, #36	; 0x24
 8000eea:	4619      	mov	r1, r3
 8000eec:	4805      	ldr	r0, [pc, #20]	; (8000f04 <MX_GPIO_Init+0x18c>)
 8000eee:	f004 f859 	bl	8004fa4 <HAL_GPIO_Init>

}
 8000ef2:	bf00      	nop
 8000ef4:	3738      	adds	r7, #56	; 0x38
 8000ef6:	46bd      	mov	sp, r7
 8000ef8:	bd80      	pop	{r7, pc}
 8000efa:	bf00      	nop
 8000efc:	40023800 	.word	0x40023800
 8000f00:	40021400 	.word	0x40021400
 8000f04:	40020400 	.word	0x40020400
 8000f08:	40021000 	.word	0x40021000
 8000f0c:	40020000 	.word	0x40020000

08000f10 <main>:

/**
  * @brief  The application entry point.
  * @retval int
  */
int main(void) {
 8000f10:	b580      	push	{r7, lr}
 8000f12:	f6ad 0d18 	subw	sp, sp, #2072	; 0x818
 8000f16:	af02      	add	r7, sp, #8
    /* USER CODE END 1 */

    /* MCU Configuration--------------------------------------------------------*/

    /* Reset of all peripherals, Initializes the Flash interface and the Systick. */
    HAL_Init();
 8000f18:	f003 fe9c 	bl	8004c54 <HAL_Init>
    /* USER CODE BEGIN Init */

    /* USER CODE END Init */

    /* Configure the system clock */
    SystemClock_Config();
 8000f1c:	f000 f928 	bl	8001170 <SystemClock_Config>
    /* USER CODE BEGIN SysInit */

    /* USER CODE END SysInit */

    /* Initialize all configured peripherals */
    MX_GPIO_Init();
 8000f20:	f7ff ff2a 	bl	8000d78 <MX_GPIO_Init>
    MX_FSMC_Init();
 8000f24:	f7ff fe34 	bl	8000b90 <MX_FSMC_Init>
    MX_SDIO_SD_Init();
 8000f28:	f000 fa18 	bl	800135c <MX_SDIO_SD_Init>
    MX_USB_DEVICE_Init();
 8000f2c:	f012 f876 	bl	801301c <MX_USB_DEVICE_Init>
    MX_RTC_Init();
 8000f30:	f000 f990 	bl	8001254 <MX_RTC_Init>
    MX_FATFS_Init();
 8000f34:	f00a f96c 	bl	800b210 <MX_FATFS_Init>
    /* USER CODE BEGIN 2 */
    lcd_init();
 8000f38:	f001 f9d2 	bl	80022e0 <lcd_init>
    lcd_show_str(10, 10 + 0 * 15, 12, "Demo16_2: USB MSC for SD with FatFS", RED);
 8000f3c:	f44f 4378 	mov.w	r3, #63488	; 0xf800
 8000f40:	9300      	str	r3, [sp, #0]
 8000f42:	4b77      	ldr	r3, [pc, #476]	; (8001120 <main+0x210>)
 8000f44:	220c      	movs	r2, #12
 8000f46:	210a      	movs	r1, #10
 8000f48:	200a      	movs	r0, #10
 8000f4a:	f001 fc8d 	bl	8002868 <lcd_show_str>

    FRESULT res = f_mount(&SDFatFS, "0:", 1);
 8000f4e:	2201      	movs	r2, #1
 8000f50:	4974      	ldr	r1, [pc, #464]	; (8001124 <main+0x214>)
 8000f52:	4875      	ldr	r0, [pc, #468]	; (8001128 <main+0x218>)
 8000f54:	f010 f926 	bl	80111a4 <f_mount>
 8000f58:	4603      	mov	r3, r0
 8000f5a:	f887 380f 	strb.w	r3, [r7, #2063]	; 0x80f
    if (res == FR_OK) {
 8000f5e:	f897 380f 	ldrb.w	r3, [r7, #2063]	; 0x80f
 8000f62:	2b00      	cmp	r3, #0
 8000f64:	d109      	bne.n	8000f7a <main+0x6a>
        lcd_show_str(10, 10 + 1 * 15, 12, "FatFS is mounted, OK", RED);
 8000f66:	f44f 4378 	mov.w	r3, #63488	; 0xf800
 8000f6a:	9300      	str	r3, [sp, #0]
 8000f6c:	4b6f      	ldr	r3, [pc, #444]	; (800112c <main+0x21c>)
 8000f6e:	220c      	movs	r2, #12
 8000f70:	2119      	movs	r1, #25
 8000f72:	200a      	movs	r0, #10
 8000f74:	f001 fc78 	bl	8002868 <lcd_show_str>
 8000f78:	e008      	b.n	8000f8c <main+0x7c>
    } else {
        lcd_show_str(10, 10 + 1 * 15, 12, "No file system , to format", RED);
 8000f7a:	f44f 4378 	mov.w	r3, #63488	; 0xf800
 8000f7e:	9300      	str	r3, [sp, #0]
 8000f80:	4b6b      	ldr	r3, [pc, #428]	; (8001130 <main+0x220>)
 8000f82:	220c      	movs	r2, #12
 8000f84:	2119      	movs	r1, #25
 8000f86:	200a      	movs	r0, #10
 8000f88:	f001 fc6e 	bl	8002868 <lcd_show_str>
    }

    lcd_show_str(10, 10 + 3 * 15, 12, "[1]KeyUp   = Format SD card", RED);
 8000f8c:	f44f 4378 	mov.w	r3, #63488	; 0xf800
 8000f90:	9300      	str	r3, [sp, #0]
 8000f92:	4b68      	ldr	r3, [pc, #416]	; (8001134 <main+0x224>)
 8000f94:	220c      	movs	r2, #12
 8000f96:	2137      	movs	r1, #55	; 0x37
 8000f98:	200a      	movs	r0, #10
 8000f9a:	f001 fc65 	bl	8002868 <lcd_show_str>
    lcd_show_str(10, 10 + 4 * 15, 12, "[2]KeyLeft = List all entries", RED);
 8000f9e:	f44f 4378 	mov.w	r3, #63488	; 0xf800
 8000fa2:	9300      	str	r3, [sp, #0]
 8000fa4:	4b64      	ldr	r3, [pc, #400]	; (8001138 <main+0x228>)
 8000fa6:	220c      	movs	r2, #12
 8000fa8:	2146      	movs	r1, #70	; 0x46
 8000faa:	200a      	movs	r0, #10
 8000fac:	f001 fc5c 	bl	8002868 <lcd_show_str>
    lcd_show_str(10, 10 + 5 * 15, 12, "[3]KeyRight= Remove all entries", RED);
 8000fb0:	f44f 4378 	mov.w	r3, #63488	; 0xf800
 8000fb4:	9300      	str	r3, [sp, #0]
 8000fb6:	4b61      	ldr	r3, [pc, #388]	; (800113c <main+0x22c>)
 8000fb8:	220c      	movs	r2, #12
 8000fba:	2155      	movs	r1, #85	; 0x55
 8000fbc:	200a      	movs	r0, #10
 8000fbe:	f001 fc53 	bl	8002868 <lcd_show_str>
    lcd_show_str(10, 10 + 6 * 15, 12, "[4]KeyDown = Write files", RED);
 8000fc2:	f44f 4378 	mov.w	r3, #63488	; 0xf800
 8000fc6:	9300      	str	r3, [sp, #0]
 8000fc8:	4b5d      	ldr	r3, [pc, #372]	; (8001140 <main+0x230>)
 8000fca:	220c      	movs	r2, #12
 8000fcc:	2164      	movs	r1, #100	; 0x64
 8000fce:	200a      	movs	r0, #10
 8000fd0:	f001 fc4a 	bl	8002868 <lcd_show_str>
    /* USER CODE END 2 */

    /* Infinite loop */
    /* USER CODE BEGIN WHILE */
    while (1) {
        KEYS waitKey = ScanPressedKey(KEY_WAIT_ALWAYS);
 8000fd4:	2000      	movs	r0, #0
 8000fd6:	f000 fd5d 	bl	8001a94 <ScanPressedKey>
 8000fda:	4603      	mov	r3, r0
 8000fdc:	f887 380e 	strb.w	r3, [r7, #2062]	; 0x80e
        if (waitKey == KEY_UP) {
 8000fe0:	f897 380e 	ldrb.w	r3, [r7, #2062]	; 0x80e
 8000fe4:	2b03      	cmp	r3, #3
 8000fe6:	d13a      	bne.n	800105e <main+0x14e>
            lcd_fill(0, 10 + 7 * 15, 239, 319, WHITE);
 8000fe8:	f64f 73ff 	movw	r3, #65535	; 0xffff
 8000fec:	9300      	str	r3, [sp, #0]
 8000fee:	f240 133f 	movw	r3, #319	; 0x13f
 8000ff2:	22ef      	movs	r2, #239	; 0xef
 8000ff4:	2173      	movs	r1, #115	; 0x73
 8000ff6:	2000      	movs	r0, #0
 8000ff8:	f001 fb1a 	bl	8002630 <lcd_fill>
            lcd_show_str(10, 10 + 8 * 15, 12, "Formatting (10sec)...", RED);
 8000ffc:	f44f 4378 	mov.w	r3, #63488	; 0xf800
 8001000:	9300      	str	r3, [sp, #0]
 8001002:	4b50      	ldr	r3, [pc, #320]	; (8001144 <main+0x234>)
 8001004:	220c      	movs	r2, #12
 8001006:	2182      	movs	r1, #130	; 0x82
 8001008:	200a      	movs	r0, #10
 800100a:	f001 fc2d 	bl	8002868 <lcd_show_str>
            DWORD clusterSize = 0;
 800100e:	2300      	movs	r3, #0
 8001010:	f8c7 3808 	str.w	r3, [r7, #2056]	; 0x808
            BYTE workBuffer[4 * BLOCKSIZE];
            FRESULT res = f_mkfs("0:", FM_FAT32, clusterSize, workBuffer, 4 * BLOCKSIZE);
 8001014:	1d3b      	adds	r3, r7, #4
 8001016:	f44f 6200 	mov.w	r2, #2048	; 0x800
 800101a:	9200      	str	r2, [sp, #0]
 800101c:	f8d7 2808 	ldr.w	r2, [r7, #2056]	; 0x808
 8001020:	2102      	movs	r1, #2
 8001022:	4840      	ldr	r0, [pc, #256]	; (8001124 <main+0x214>)
 8001024:	f010 ffb8 	bl	8011f98 <f_mkfs>
 8001028:	4603      	mov	r3, r0
 800102a:	f887 3807 	strb.w	r3, [r7, #2055]	; 0x807
            if (res == FR_OK) {
 800102e:	f897 3807 	ldrb.w	r3, [r7, #2055]	; 0x807
 8001032:	2b00      	cmp	r3, #0
 8001034:	d109      	bne.n	800104a <main+0x13a>
                lcd_show_str(10, 10 + 9 * 15, 12, "Format OK, to reset", RED);
 8001036:	f44f 4378 	mov.w	r3, #63488	; 0xf800
 800103a:	9300      	str	r3, [sp, #0]
 800103c:	4b42      	ldr	r3, [pc, #264]	; (8001148 <main+0x238>)
 800103e:	220c      	movs	r2, #12
 8001040:	2191      	movs	r1, #145	; 0x91
 8001042:	200a      	movs	r0, #10
 8001044:	f001 fc10 	bl	8002868 <lcd_show_str>
 8001048:	e05a      	b.n	8001100 <main+0x1f0>
            } else {
                lcd_show_str(10, 10 + 9 * 15, 12, "Format fail, to reset", RED);
 800104a:	f44f 4378 	mov.w	r3, #63488	; 0xf800
 800104e:	9300      	str	r3, [sp, #0]
 8001050:	4b3e      	ldr	r3, [pc, #248]	; (800114c <main+0x23c>)
 8001052:	220c      	movs	r2, #12
 8001054:	2191      	movs	r1, #145	; 0x91
 8001056:	200a      	movs	r0, #10
 8001058:	f001 fc06 	bl	8002868 <lcd_show_str>
 800105c:	e050      	b.n	8001100 <main+0x1f0>
            }
        } else if (waitKey == KEY_LEFT) {
 800105e:	f897 380e 	ldrb.w	r3, [r7, #2062]	; 0x80e
 8001062:	2b01      	cmp	r3, #1
 8001064:	d10d      	bne.n	8001082 <main+0x172>
            lcd_fill(0, 10 + 7 * 15, 239, 319, WHITE);
 8001066:	f64f 73ff 	movw	r3, #65535	; 0xffff
 800106a:	9300      	str	r3, [sp, #0]
 800106c:	f240 133f 	movw	r3, #319	; 0x13f
 8001070:	22ef      	movs	r2, #239	; 0xef
 8001072:	2173      	movs	r1, #115	; 0x73
 8001074:	2000      	movs	r0, #0
 8001076:	f001 fadb 	bl	8002630 <lcd_fill>
            fatTest_ScanDir("0:/");
 800107a:	4835      	ldr	r0, [pc, #212]	; (8001150 <main+0x240>)
 800107c:	f000 fac4 	bl	8001608 <fatTest_ScanDir>
 8001080:	e03e      	b.n	8001100 <main+0x1f0>
        } else if (waitKey == KEY_RIGHT) {
 8001082:	f897 380e 	ldrb.w	r3, [r7, #2062]	; 0x80e
 8001086:	2b02      	cmp	r3, #2
 8001088:	d10c      	bne.n	80010a4 <main+0x194>
            lcd_fill(0, 10 + 7 * 15, 239, 319, WHITE);
 800108a:	f64f 73ff 	movw	r3, #65535	; 0xffff
 800108e:	9300      	str	r3, [sp, #0]
 8001090:	f240 133f 	movw	r3, #319	; 0x13f
 8001094:	22ef      	movs	r2, #239	; 0xef
 8001096:	2173      	movs	r1, #115	; 0x73
 8001098:	2000      	movs	r0, #0
 800109a:	f001 fac9 	bl	8002630 <lcd_fill>
            fatTest_RemoveAll();
 800109e:	f000 fc95 	bl	80019cc <fatTest_RemoveAll>
 80010a2:	e02d      	b.n	8001100 <main+0x1f0>
        } else if (waitKey == KEY_DOWN) {
 80010a4:	f897 380e 	ldrb.w	r3, [r7, #2062]	; 0x80e
 80010a8:	2b04      	cmp	r3, #4
 80010aa:	d129      	bne.n	8001100 <main+0x1f0>
            lcd_fill(0, 10 + 7 * 15, 239, 319, WHITE);
 80010ac:	f64f 73ff 	movw	r3, #65535	; 0xffff
 80010b0:	9300      	str	r3, [sp, #0]
 80010b2:	f240 133f 	movw	r3, #319	; 0x13f
 80010b6:	22ef      	movs	r2, #239	; 0xef
 80010b8:	2173      	movs	r1, #115	; 0x73
 80010ba:	2000      	movs	r0, #0
 80010bc:	f001 fab8 	bl	8002630 <lcd_fill>
            fatTest_WriteTXTFile("readme.txt", 2019, 10, 11);
 80010c0:	230b      	movs	r3, #11
 80010c2:	220a      	movs	r2, #10
 80010c4:	f240 71e3 	movw	r1, #2019	; 0x7e3
 80010c8:	4822      	ldr	r0, [pc, #136]	; (8001154 <main+0x244>)
 80010ca:	f000 fb59 	bl	8001780 <fatTest_WriteTXTFile>
            fatTest_WriteTXTFile("help.txt", 2020, 10, 11);
 80010ce:	230b      	movs	r3, #11
 80010d0:	220a      	movs	r2, #10
 80010d2:	f240 71e4 	movw	r1, #2020	; 0x7e4
 80010d6:	4820      	ldr	r0, [pc, #128]	; (8001158 <main+0x248>)
 80010d8:	f000 fb52 	bl	8001780 <fatTest_WriteTXTFile>
            fatTest_WriteBinFile("ADC2000.dat", 30, 1000);
 80010dc:	f44f 727a 	mov.w	r2, #1000	; 0x3e8
 80010e0:	211e      	movs	r1, #30
 80010e2:	481e      	ldr	r0, [pc, #120]	; (800115c <main+0x24c>)
 80010e4:	f000 fbba 	bl	800185c <fatTest_WriteBinFile>
            fatTest_WriteBinFile("ADC1000.dat", 100, 2000);
 80010e8:	f44f 62fa 	mov.w	r2, #2000	; 0x7d0
 80010ec:	2164      	movs	r1, #100	; 0x64
 80010ee:	481c      	ldr	r0, [pc, #112]	; (8001160 <main+0x250>)
 80010f0:	f000 fbb4 	bl	800185c <fatTest_WriteBinFile>
            f_mkdir("0:/SubDir");
 80010f4:	481b      	ldr	r0, [pc, #108]	; (8001164 <main+0x254>)
 80010f6:	f010 fe37 	bl	8011d68 <f_mkdir>
            f_mkdir("0:/Documents");
 80010fa:	481b      	ldr	r0, [pc, #108]	; (8001168 <main+0x258>)
 80010fc:	f010 fe34 	bl	8011d68 <f_mkdir>
        }
        lcd_show_str(10, 10 + 19 * 15, 12, "Reselect menu item or reset", RED);
 8001100:	f44f 4378 	mov.w	r3, #63488	; 0xf800
 8001104:	9300      	str	r3, [sp, #0]
 8001106:	4b19      	ldr	r3, [pc, #100]	; (800116c <main+0x25c>)
 8001108:	220c      	movs	r2, #12
 800110a:	f240 1127 	movw	r1, #295	; 0x127
 800110e:	200a      	movs	r0, #10
 8001110:	f001 fbaa 	bl	8002868 <lcd_show_str>
        HAL_Delay(500);
 8001114:	f44f 70fa 	mov.w	r0, #500	; 0x1f4
 8001118:	f003 fe0e 	bl	8004d38 <HAL_Delay>
    while (1) {
 800111c:	e75a      	b.n	8000fd4 <main+0xc4>
 800111e:	bf00      	nop
 8001120:	080143e4 	.word	0x080143e4
 8001124:	08014408 	.word	0x08014408
 8001128:	20000310 	.word	0x20000310
 800112c:	0801440c 	.word	0x0801440c
 8001130:	08014424 	.word	0x08014424
 8001134:	08014440 	.word	0x08014440
 8001138:	0801445c 	.word	0x0801445c
 800113c:	0801447c 	.word	0x0801447c
 8001140:	0801449c 	.word	0x0801449c
 8001144:	080144b8 	.word	0x080144b8
 8001148:	080144d0 	.word	0x080144d0
 800114c:	080144e4 	.word	0x080144e4
 8001150:	080144fc 	.word	0x080144fc
 8001154:	08014500 	.word	0x08014500
 8001158:	0801450c 	.word	0x0801450c
 800115c:	08014518 	.word	0x08014518
 8001160:	08014524 	.word	0x08014524
 8001164:	08014530 	.word	0x08014530
 8001168:	0801453c 	.word	0x0801453c
 800116c:	0801454c 	.word	0x0801454c

08001170 <SystemClock_Config>:

/**
  * @brief System Clock Configuration
  * @retval None
  */
void SystemClock_Config(void) {
 8001170:	b580      	push	{r7, lr}
 8001172:	b094      	sub	sp, #80	; 0x50
 8001174:	af00      	add	r7, sp, #0
    RCC_OscInitTypeDef RCC_OscInitStruct = {0};
 8001176:	f107 0320 	add.w	r3, r7, #32
 800117a:	2230      	movs	r2, #48	; 0x30
 800117c:	2100      	movs	r1, #0
 800117e:	4618      	mov	r0, r3
 8001180:	f012 fcae 	bl	8013ae0 <memset>
    RCC_ClkInitTypeDef RCC_ClkInitStruct = {0};
 8001184:	f107 030c 	add.w	r3, r7, #12
 8001188:	2200      	movs	r2, #0
 800118a:	601a      	str	r2, [r3, #0]
 800118c:	605a      	str	r2, [r3, #4]
 800118e:	609a      	str	r2, [r3, #8]
 8001190:	60da      	str	r2, [r3, #12]
 8001192:	611a      	str	r2, [r3, #16]

    /** Configure the main internal regulator output voltage
    */
    __HAL_RCC_PWR_CLK_ENABLE();
 8001194:	2300      	movs	r3, #0
 8001196:	60bb      	str	r3, [r7, #8]
 8001198:	4b29      	ldr	r3, [pc, #164]	; (8001240 <SystemClock_Config+0xd0>)
 800119a:	6c1b      	ldr	r3, [r3, #64]	; 0x40
 800119c:	4a28      	ldr	r2, [pc, #160]	; (8001240 <SystemClock_Config+0xd0>)
 800119e:	f043 5380 	orr.w	r3, r3, #268435456	; 0x10000000
 80011a2:	6413      	str	r3, [r2, #64]	; 0x40
 80011a4:	4b26      	ldr	r3, [pc, #152]	; (8001240 <SystemClock_Config+0xd0>)
 80011a6:	6c1b      	ldr	r3, [r3, #64]	; 0x40
 80011a8:	f003 5380 	and.w	r3, r3, #268435456	; 0x10000000
 80011ac:	60bb      	str	r3, [r7, #8]
 80011ae:	68bb      	ldr	r3, [r7, #8]
    __HAL_PWR_VOLTAGESCALING_CONFIG(PWR_REGULATOR_VOLTAGE_SCALE1);
 80011b0:	2300      	movs	r3, #0
 80011b2:	607b      	str	r3, [r7, #4]
 80011b4:	4b23      	ldr	r3, [pc, #140]	; (8001244 <SystemClock_Config+0xd4>)
 80011b6:	681b      	ldr	r3, [r3, #0]
 80011b8:	4a22      	ldr	r2, [pc, #136]	; (8001244 <SystemClock_Config+0xd4>)
 80011ba:	f443 4380 	orr.w	r3, r3, #16384	; 0x4000
 80011be:	6013      	str	r3, [r2, #0]
 80011c0:	4b20      	ldr	r3, [pc, #128]	; (8001244 <SystemClock_Config+0xd4>)
 80011c2:	681b      	ldr	r3, [r3, #0]
 80011c4:	f403 4380 	and.w	r3, r3, #16384	; 0x4000
 80011c8:	607b      	str	r3, [r7, #4]
 80011ca:	687b      	ldr	r3, [r7, #4]

    /** Initializes the RCC Oscillators according to the specified parameters
    * in the RCC_OscInitTypeDef structure.
    */
    RCC_OscInitStruct.OscillatorType = RCC_OSCILLATORTYPE_HSE | RCC_OSCILLATORTYPE_LSE;
 80011cc:	2305      	movs	r3, #5
 80011ce:	623b      	str	r3, [r7, #32]
    RCC_OscInitStruct.HSEState = RCC_HSE_ON;
 80011d0:	f44f 3380 	mov.w	r3, #65536	; 0x10000
 80011d4:	627b      	str	r3, [r7, #36]	; 0x24
    RCC_OscInitStruct.LSEState = RCC_LSE_ON;
 80011d6:	2301      	movs	r3, #1
 80011d8:	62bb      	str	r3, [r7, #40]	; 0x28
    RCC_OscInitStruct.PLL.PLLState = RCC_PLL_ON;
 80011da:	2302      	movs	r3, #2
 80011dc:	63bb      	str	r3, [r7, #56]	; 0x38
    RCC_OscInitStruct.PLL.PLLSource = RCC_PLLSOURCE_HSE;
 80011de:	f44f 0380 	mov.w	r3, #4194304	; 0x400000
 80011e2:	63fb      	str	r3, [r7, #60]	; 0x3c
    RCC_OscInitStruct.PLL.PLLM = 4;
 80011e4:	2304      	movs	r3, #4
 80011e6:	643b      	str	r3, [r7, #64]	; 0x40
    RCC_OscInitStruct.PLL.PLLN = 168;
 80011e8:	23a8      	movs	r3, #168	; 0xa8
 80011ea:	647b      	str	r3, [r7, #68]	; 0x44
    RCC_OscInitStruct.PLL.PLLP = RCC_PLLP_DIV2;
 80011ec:	2302      	movs	r3, #2
 80011ee:	64bb      	str	r3, [r7, #72]	; 0x48
    RCC_OscInitStruct.PLL.PLLQ = 7;
 80011f0:	2307      	movs	r3, #7
 80011f2:	64fb      	str	r3, [r7, #76]	; 0x4c
    if (HAL_RCC_OscConfig(&RCC_OscInitStruct) != HAL_OK) {
 80011f4:	f107 0320 	add.w	r3, r7, #32
 80011f8:	4618      	mov	r0, r3
 80011fa:	f005 fb4b 	bl	8006894 <HAL_RCC_OscConfig>
 80011fe:	4603      	mov	r3, r0
 8001200:	2b00      	cmp	r3, #0
 8001202:	d001      	beq.n	8001208 <SystemClock_Config+0x98>
        Error_Handler();
 8001204:	f000 f820 	bl	8001248 <Error_Handler>
    }

    /** Initializes the CPU, AHB and APB buses clocks
    */
    RCC_ClkInitStruct.ClockType = RCC_CLOCKTYPE_HCLK | RCC_CLOCKTYPE_SYSCLK
 8001208:	230f      	movs	r3, #15
 800120a:	60fb      	str	r3, [r7, #12]
                                  | RCC_CLOCKTYPE_PCLK1 | RCC_CLOCKTYPE_PCLK2;
    RCC_ClkInitStruct.SYSCLKSource = RCC_SYSCLKSOURCE_PLLCLK;
 800120c:	2302      	movs	r3, #2
 800120e:	613b      	str	r3, [r7, #16]
    RCC_ClkInitStruct.AHBCLKDivider = RCC_SYSCLK_DIV1;
 8001210:	2300      	movs	r3, #0
 8001212:	617b      	str	r3, [r7, #20]
    RCC_ClkInitStruct.APB1CLKDivider = RCC_HCLK_DIV4;
 8001214:	f44f 53a0 	mov.w	r3, #5120	; 0x1400
 8001218:	61bb      	str	r3, [r7, #24]
    RCC_ClkInitStruct.APB2CLKDivider = RCC_HCLK_DIV2;
 800121a:	f44f 5380 	mov.w	r3, #4096	; 0x1000
 800121e:	61fb      	str	r3, [r7, #28]

    if (HAL_RCC_ClockConfig(&RCC_ClkInitStruct, FLASH_LATENCY_5) != HAL_OK) {
 8001220:	f107 030c 	add.w	r3, r7, #12
 8001224:	2105      	movs	r1, #5
 8001226:	4618      	mov	r0, r3
 8001228:	f005 fdac 	bl	8006d84 <HAL_RCC_ClockConfig>
 800122c:	4603      	mov	r3, r0
 800122e:	2b00      	cmp	r3, #0
 8001230:	d001      	beq.n	8001236 <SystemClock_Config+0xc6>
        Error_Handler();
 8001232:	f000 f809 	bl	8001248 <Error_Handler>
    }
}
 8001236:	bf00      	nop
 8001238:	3750      	adds	r7, #80	; 0x50
 800123a:	46bd      	mov	sp, r7
 800123c:	bd80      	pop	{r7, pc}
 800123e:	bf00      	nop
 8001240:	40023800 	.word	0x40023800
 8001244:	40007000 	.word	0x40007000

08001248 <Error_Handler>:

/**
  * @brief  This function is executed in case of error occurrence.
  * @retval None
  */
void Error_Handler(void) {
 8001248:	b480      	push	{r7}
 800124a:	af00      	add	r7, sp, #0
  \details Disables IRQ interrupts by setting the I-bit in the CPSR.
           Can only be executed in Privileged modes.
 */
__STATIC_FORCEINLINE void __disable_irq(void)
{
  __ASM volatile ("cpsid i" : : : "memory");
 800124c:	b672      	cpsid	i
}
 800124e:	bf00      	nop
    /* USER CODE BEGIN Error_Handler_Debug */
    /* User can add his own implementation to report the HAL error return state */
    __disable_irq();
    while (1) {
 8001250:	e7fe      	b.n	8001250 <Error_Handler+0x8>
	...

08001254 <MX_RTC_Init>:

RTC_HandleTypeDef hrtc;

/* RTC init function */
void MX_RTC_Init(void)
{
 8001254:	b580      	push	{r7, lr}
 8001256:	b086      	sub	sp, #24
 8001258:	af00      	add	r7, sp, #0

  /* USER CODE BEGIN RTC_Init 0 */

  /* USER CODE END RTC_Init 0 */

  RTC_TimeTypeDef sTime = {0};
 800125a:	1d3b      	adds	r3, r7, #4
 800125c:	2200      	movs	r2, #0
 800125e:	601a      	str	r2, [r3, #0]
 8001260:	605a      	str	r2, [r3, #4]
 8001262:	609a      	str	r2, [r3, #8]
 8001264:	60da      	str	r2, [r3, #12]
 8001266:	611a      	str	r2, [r3, #16]
  RTC_DateTypeDef sDate = {0};
 8001268:	2300      	movs	r3, #0
 800126a:	603b      	str	r3, [r7, #0]

  /* USER CODE END RTC_Init 1 */

  /** Initialize RTC Only
  */
  hrtc.Instance = RTC;
 800126c:	4b24      	ldr	r3, [pc, #144]	; (8001300 <MX_RTC_Init+0xac>)
 800126e:	4a25      	ldr	r2, [pc, #148]	; (8001304 <MX_RTC_Init+0xb0>)
 8001270:	601a      	str	r2, [r3, #0]
  hrtc.Init.HourFormat = RTC_HOURFORMAT_24;
 8001272:	4b23      	ldr	r3, [pc, #140]	; (8001300 <MX_RTC_Init+0xac>)
 8001274:	2200      	movs	r2, #0
 8001276:	605a      	str	r2, [r3, #4]
  hrtc.Init.AsynchPrediv = 127;
 8001278:	4b21      	ldr	r3, [pc, #132]	; (8001300 <MX_RTC_Init+0xac>)
 800127a:	227f      	movs	r2, #127	; 0x7f
 800127c:	609a      	str	r2, [r3, #8]
  hrtc.Init.SynchPrediv = 255;
 800127e:	4b20      	ldr	r3, [pc, #128]	; (8001300 <MX_RTC_Init+0xac>)
 8001280:	22ff      	movs	r2, #255	; 0xff
 8001282:	60da      	str	r2, [r3, #12]
  hrtc.Init.OutPut = RTC_OUTPUT_DISABLE;
 8001284:	4b1e      	ldr	r3, [pc, #120]	; (8001300 <MX_RTC_Init+0xac>)
 8001286:	2200      	movs	r2, #0
 8001288:	611a      	str	r2, [r3, #16]
  hrtc.Init.OutPutPolarity = RTC_OUTPUT_POLARITY_HIGH;
 800128a:	4b1d      	ldr	r3, [pc, #116]	; (8001300 <MX_RTC_Init+0xac>)
 800128c:	2200      	movs	r2, #0
 800128e:	615a      	str	r2, [r3, #20]
  hrtc.Init.OutPutType = RTC_OUTPUT_TYPE_OPENDRAIN;
 8001290:	4b1b      	ldr	r3, [pc, #108]	; (8001300 <MX_RTC_Init+0xac>)
 8001292:	2200      	movs	r2, #0
 8001294:	619a      	str	r2, [r3, #24]
  if (HAL_RTC_Init(&hrtc) != HAL_OK)
 8001296:	481a      	ldr	r0, [pc, #104]	; (8001300 <MX_RTC_Init+0xac>)
 8001298:	f006 f84e 	bl	8007338 <HAL_RTC_Init>
 800129c:	4603      	mov	r3, r0
 800129e:	2b00      	cmp	r3, #0
 80012a0:	d001      	beq.n	80012a6 <MX_RTC_Init+0x52>
  {
    Error_Handler();
 80012a2:	f7ff ffd1 	bl	8001248 <Error_Handler>

  /* USER CODE END Check_RTC_BKUP */

  /** Initialize RTC and set the Time and Date
  */
  sTime.Hours = 18;
 80012a6:	2312      	movs	r3, #18
 80012a8:	713b      	strb	r3, [r7, #4]
  sTime.Minutes = 0;
 80012aa:	2300      	movs	r3, #0
 80012ac:	717b      	strb	r3, [r7, #5]
  sTime.Seconds = 0;
 80012ae:	2300      	movs	r3, #0
 80012b0:	71bb      	strb	r3, [r7, #6]
  sTime.DayLightSaving = RTC_DAYLIGHTSAVING_NONE;
 80012b2:	2300      	movs	r3, #0
 80012b4:	613b      	str	r3, [r7, #16]
  sTime.StoreOperation = RTC_STOREOPERATION_RESET;
 80012b6:	2300      	movs	r3, #0
 80012b8:	617b      	str	r3, [r7, #20]
  if (HAL_RTC_SetTime(&hrtc, &sTime, RTC_FORMAT_BIN) != HAL_OK)
 80012ba:	1d3b      	adds	r3, r7, #4
 80012bc:	2200      	movs	r2, #0
 80012be:	4619      	mov	r1, r3
 80012c0:	480f      	ldr	r0, [pc, #60]	; (8001300 <MX_RTC_Init+0xac>)
 80012c2:	f006 f8af 	bl	8007424 <HAL_RTC_SetTime>
 80012c6:	4603      	mov	r3, r0
 80012c8:	2b00      	cmp	r3, #0
 80012ca:	d001      	beq.n	80012d0 <MX_RTC_Init+0x7c>
  {
    Error_Handler();
 80012cc:	f7ff ffbc 	bl	8001248 <Error_Handler>
  }
  sDate.WeekDay = RTC_WEEKDAY_SATURDAY;
 80012d0:	2306      	movs	r3, #6
 80012d2:	703b      	strb	r3, [r7, #0]
  sDate.Month = RTC_MONTH_JANUARY;
 80012d4:	2301      	movs	r3, #1
 80012d6:	707b      	strb	r3, [r7, #1]
  sDate.Date = 25;
 80012d8:	2319      	movs	r3, #25
 80012da:	70bb      	strb	r3, [r7, #2]
  sDate.Year = 25;
 80012dc:	2319      	movs	r3, #25
 80012de:	70fb      	strb	r3, [r7, #3]

  if (HAL_RTC_SetDate(&hrtc, &sDate, RTC_FORMAT_BIN) != HAL_OK)
 80012e0:	463b      	mov	r3, r7
 80012e2:	2200      	movs	r2, #0
 80012e4:	4619      	mov	r1, r3
 80012e6:	4806      	ldr	r0, [pc, #24]	; (8001300 <MX_RTC_Init+0xac>)
 80012e8:	f006 f994 	bl	8007614 <HAL_RTC_SetDate>
 80012ec:	4603      	mov	r3, r0
 80012ee:	2b00      	cmp	r3, #0
 80012f0:	d001      	beq.n	80012f6 <MX_RTC_Init+0xa2>
  {
    Error_Handler();
 80012f2:	f7ff ffa9 	bl	8001248 <Error_Handler>
  }
  /* USER CODE BEGIN RTC_Init 2 */

  /* USER CODE END RTC_Init 2 */

}
 80012f6:	bf00      	nop
 80012f8:	3718      	adds	r7, #24
 80012fa:	46bd      	mov	sp, r7
 80012fc:	bd80      	pop	{r7, pc}
 80012fe:	bf00      	nop
 8001300:	200001fc 	.word	0x200001fc
 8001304:	40002800 	.word	0x40002800

08001308 <HAL_RTC_MspInit>:

void HAL_RTC_MspInit(RTC_HandleTypeDef* rtcHandle)
{
 8001308:	b580      	push	{r7, lr}
 800130a:	b086      	sub	sp, #24
 800130c:	af00      	add	r7, sp, #0
 800130e:	6078      	str	r0, [r7, #4]

  RCC_PeriphCLKInitTypeDef PeriphClkInitStruct = {0};
 8001310:	f107 0308 	add.w	r3, r7, #8
 8001314:	2200      	movs	r2, #0
 8001316:	601a      	str	r2, [r3, #0]
 8001318:	605a      	str	r2, [r3, #4]
 800131a:	609a      	str	r2, [r3, #8]
 800131c:	60da      	str	r2, [r3, #12]
  if(rtcHandle->Instance==RTC)
 800131e:	687b      	ldr	r3, [r7, #4]
 8001320:	681b      	ldr	r3, [r3, #0]
 8001322:	4a0c      	ldr	r2, [pc, #48]	; (8001354 <HAL_RTC_MspInit+0x4c>)
 8001324:	4293      	cmp	r3, r2
 8001326:	d111      	bne.n	800134c <HAL_RTC_MspInit+0x44>

  /* USER CODE END RTC_MspInit 0 */

  /** Initializes the peripherals clock
  */
    PeriphClkInitStruct.PeriphClockSelection = RCC_PERIPHCLK_RTC;
 8001328:	2302      	movs	r3, #2
 800132a:	60bb      	str	r3, [r7, #8]
    PeriphClkInitStruct.RTCClockSelection = RCC_RTCCLKSOURCE_LSE;
 800132c:	f44f 7380 	mov.w	r3, #256	; 0x100
 8001330:	617b      	str	r3, [r7, #20]
    if (HAL_RCCEx_PeriphCLKConfig(&PeriphClkInitStruct) != HAL_OK)
 8001332:	f107 0308 	add.w	r3, r7, #8
 8001336:	4618      	mov	r0, r3
 8001338:	f005 ff1c 	bl	8007174 <HAL_RCCEx_PeriphCLKConfig>
 800133c:	4603      	mov	r3, r0
 800133e:	2b00      	cmp	r3, #0
 8001340:	d001      	beq.n	8001346 <HAL_RTC_MspInit+0x3e>
    {
      Error_Handler();
 8001342:	f7ff ff81 	bl	8001248 <Error_Handler>
    }

    /* RTC clock enable */
    __HAL_RCC_RTC_ENABLE();
 8001346:	4b04      	ldr	r3, [pc, #16]	; (8001358 <HAL_RTC_MspInit+0x50>)
 8001348:	2201      	movs	r2, #1
 800134a:	601a      	str	r2, [r3, #0]
  /* USER CODE BEGIN RTC_MspInit 1 */

  /* USER CODE END RTC_MspInit 1 */
  }
}
 800134c:	bf00      	nop
 800134e:	3718      	adds	r7, #24
 8001350:	46bd      	mov	sp, r7
 8001352:	bd80      	pop	{r7, pc}
 8001354:	40002800 	.word	0x40002800
 8001358:	42470e3c 	.word	0x42470e3c

0800135c <MX_SDIO_SD_Init>:
SD_HandleTypeDef hsd;

/* SDIO init function */

void MX_SDIO_SD_Init(void)
{
 800135c:	b480      	push	{r7}
 800135e:	af00      	add	r7, sp, #0
  /* USER CODE END SDIO_Init 0 */

  /* USER CODE BEGIN SDIO_Init 1 */

  /* USER CODE END SDIO_Init 1 */
  hsd.Instance = SDIO;
 8001360:	4b0c      	ldr	r3, [pc, #48]	; (8001394 <MX_SDIO_SD_Init+0x38>)
 8001362:	4a0d      	ldr	r2, [pc, #52]	; (8001398 <MX_SDIO_SD_Init+0x3c>)
 8001364:	601a      	str	r2, [r3, #0]
  hsd.Init.ClockEdge = SDIO_CLOCK_EDGE_RISING;
 8001366:	4b0b      	ldr	r3, [pc, #44]	; (8001394 <MX_SDIO_SD_Init+0x38>)
 8001368:	2200      	movs	r2, #0
 800136a:	605a      	str	r2, [r3, #4]
  hsd.Init.ClockBypass = SDIO_CLOCK_BYPASS_DISABLE;
 800136c:	4b09      	ldr	r3, [pc, #36]	; (8001394 <MX_SDIO_SD_Init+0x38>)
 800136e:	2200      	movs	r2, #0
 8001370:	609a      	str	r2, [r3, #8]
  hsd.Init.ClockPowerSave = SDIO_CLOCK_POWER_SAVE_DISABLE;
 8001372:	4b08      	ldr	r3, [pc, #32]	; (8001394 <MX_SDIO_SD_Init+0x38>)
 8001374:	2200      	movs	r2, #0
 8001376:	60da      	str	r2, [r3, #12]
  hsd.Init.BusWide = SDIO_BUS_WIDE_1B;
 8001378:	4b06      	ldr	r3, [pc, #24]	; (8001394 <MX_SDIO_SD_Init+0x38>)
 800137a:	2200      	movs	r2, #0
 800137c:	611a      	str	r2, [r3, #16]
  hsd.Init.HardwareFlowControl = SDIO_HARDWARE_FLOW_CONTROL_DISABLE;
 800137e:	4b05      	ldr	r3, [pc, #20]	; (8001394 <MX_SDIO_SD_Init+0x38>)
 8001380:	2200      	movs	r2, #0
 8001382:	615a      	str	r2, [r3, #20]
  hsd.Init.ClockDiv = 4;
 8001384:	4b03      	ldr	r3, [pc, #12]	; (8001394 <MX_SDIO_SD_Init+0x38>)
 8001386:	2204      	movs	r2, #4
 8001388:	619a      	str	r2, [r3, #24]
  /* USER CODE BEGIN SDIO_Init 2 */

  /* USER CODE END SDIO_Init 2 */

}
 800138a:	bf00      	nop
 800138c:	46bd      	mov	sp, r7
 800138e:	f85d 7b04 	ldr.w	r7, [sp], #4
 8001392:	4770      	bx	lr
 8001394:	2000021c 	.word	0x2000021c
 8001398:	40012c00 	.word	0x40012c00

0800139c <HAL_SD_MspInit>:

void HAL_SD_MspInit(SD_HandleTypeDef* sdHandle)
{
 800139c:	b580      	push	{r7, lr}
 800139e:	b08a      	sub	sp, #40	; 0x28
 80013a0:	af00      	add	r7, sp, #0
 80013a2:	6078      	str	r0, [r7, #4]

  GPIO_InitTypeDef GPIO_InitStruct = {0};
 80013a4:	f107 0314 	add.w	r3, r7, #20
 80013a8:	2200      	movs	r2, #0
 80013aa:	601a      	str	r2, [r3, #0]
 80013ac:	605a      	str	r2, [r3, #4]
 80013ae:	609a      	str	r2, [r3, #8]
 80013b0:	60da      	str	r2, [r3, #12]
 80013b2:	611a      	str	r2, [r3, #16]
  if(sdHandle->Instance==SDIO)
 80013b4:	687b      	ldr	r3, [r7, #4]
 80013b6:	681b      	ldr	r3, [r3, #0]
 80013b8:	4a28      	ldr	r2, [pc, #160]	; (800145c <HAL_SD_MspInit+0xc0>)
 80013ba:	4293      	cmp	r3, r2
 80013bc:	d14a      	bne.n	8001454 <HAL_SD_MspInit+0xb8>
  {
  /* USER CODE BEGIN SDIO_MspInit 0 */

  /* USER CODE END SDIO_MspInit 0 */
    /* SDIO clock enable */
    __HAL_RCC_SDIO_CLK_ENABLE();
 80013be:	2300      	movs	r3, #0
 80013c0:	613b      	str	r3, [r7, #16]
 80013c2:	4b27      	ldr	r3, [pc, #156]	; (8001460 <HAL_SD_MspInit+0xc4>)
 80013c4:	6c5b      	ldr	r3, [r3, #68]	; 0x44
 80013c6:	4a26      	ldr	r2, [pc, #152]	; (8001460 <HAL_SD_MspInit+0xc4>)
 80013c8:	f443 6300 	orr.w	r3, r3, #2048	; 0x800
 80013cc:	6453      	str	r3, [r2, #68]	; 0x44
 80013ce:	4b24      	ldr	r3, [pc, #144]	; (8001460 <HAL_SD_MspInit+0xc4>)
 80013d0:	6c5b      	ldr	r3, [r3, #68]	; 0x44
 80013d2:	f403 6300 	and.w	r3, r3, #2048	; 0x800
 80013d6:	613b      	str	r3, [r7, #16]
 80013d8:	693b      	ldr	r3, [r7, #16]

    __HAL_RCC_GPIOC_CLK_ENABLE();
 80013da:	2300      	movs	r3, #0
 80013dc:	60fb      	str	r3, [r7, #12]
 80013de:	4b20      	ldr	r3, [pc, #128]	; (8001460 <HAL_SD_MspInit+0xc4>)
 80013e0:	6b1b      	ldr	r3, [r3, #48]	; 0x30
 80013e2:	4a1f      	ldr	r2, [pc, #124]	; (8001460 <HAL_SD_MspInit+0xc4>)
 80013e4:	f043 0304 	orr.w	r3, r3, #4
 80013e8:	6313      	str	r3, [r2, #48]	; 0x30
 80013ea:	4b1d      	ldr	r3, [pc, #116]	; (8001460 <HAL_SD_MspInit+0xc4>)
 80013ec:	6b1b      	ldr	r3, [r3, #48]	; 0x30
 80013ee:	f003 0304 	and.w	r3, r3, #4
 80013f2:	60fb      	str	r3, [r7, #12]
 80013f4:	68fb      	ldr	r3, [r7, #12]
    __HAL_RCC_GPIOD_CLK_ENABLE();
 80013f6:	2300      	movs	r3, #0
 80013f8:	60bb      	str	r3, [r7, #8]
 80013fa:	4b19      	ldr	r3, [pc, #100]	; (8001460 <HAL_SD_MspInit+0xc4>)
 80013fc:	6b1b      	ldr	r3, [r3, #48]	; 0x30
 80013fe:	4a18      	ldr	r2, [pc, #96]	; (8001460 <HAL_SD_MspInit+0xc4>)
 8001400:	f043 0308 	orr.w	r3, r3, #8
 8001404:	6313      	str	r3, [r2, #48]	; 0x30
 8001406:	4b16      	ldr	r3, [pc, #88]	; (8001460 <HAL_SD_MspInit+0xc4>)
 8001408:	6b1b      	ldr	r3, [r3, #48]	; 0x30
 800140a:	f003 0308 	and.w	r3, r3, #8
 800140e:	60bb      	str	r3, [r7, #8]
 8001410:	68bb      	ldr	r3, [r7, #8]
    PC10     ------> SDIO_D2
    PC11     ------> SDIO_D3
    PC12     ------> SDIO_CK
    PD2     ------> SDIO_CMD
    */
    GPIO_InitStruct.Pin = GPIO_PIN_8|GPIO_PIN_9|GPIO_PIN_10|GPIO_PIN_11
 8001412:	f44f 53f8 	mov.w	r3, #7936	; 0x1f00
 8001416:	617b      	str	r3, [r7, #20]
                          |GPIO_PIN_12;
    GPIO_InitStruct.Mode = GPIO_MODE_AF_PP;
 8001418:	2302      	movs	r3, #2
 800141a:	61bb      	str	r3, [r7, #24]
    GPIO_InitStruct.Pull = GPIO_NOPULL;
 800141c:	2300      	movs	r3, #0
 800141e:	61fb      	str	r3, [r7, #28]
    GPIO_InitStruct.Speed = GPIO_SPEED_FREQ_VERY_HIGH;
 8001420:	2303      	movs	r3, #3
 8001422:	623b      	str	r3, [r7, #32]
    GPIO_InitStruct.Alternate = GPIO_AF12_SDIO;
 8001424:	230c      	movs	r3, #12
 8001426:	627b      	str	r3, [r7, #36]	; 0x24
    HAL_GPIO_Init(GPIOC, &GPIO_InitStruct);
 8001428:	f107 0314 	add.w	r3, r7, #20
 800142c:	4619      	mov	r1, r3
 800142e:	480d      	ldr	r0, [pc, #52]	; (8001464 <HAL_SD_MspInit+0xc8>)
 8001430:	f003 fdb8 	bl	8004fa4 <HAL_GPIO_Init>

    GPIO_InitStruct.Pin = GPIO_PIN_2;
 8001434:	2304      	movs	r3, #4
 8001436:	617b      	str	r3, [r7, #20]
    GPIO_InitStruct.Mode = GPIO_MODE_AF_PP;
 8001438:	2302      	movs	r3, #2
 800143a:	61bb      	str	r3, [r7, #24]
    GPIO_InitStruct.Pull = GPIO_NOPULL;
 800143c:	2300      	movs	r3, #0
 800143e:	61fb      	str	r3, [r7, #28]
    GPIO_InitStruct.Speed = GPIO_SPEED_FREQ_VERY_HIGH;
 8001440:	2303      	movs	r3, #3
 8001442:	623b      	str	r3, [r7, #32]
    GPIO_InitStruct.Alternate = GPIO_AF12_SDIO;
 8001444:	230c      	movs	r3, #12
 8001446:	627b      	str	r3, [r7, #36]	; 0x24
    HAL_GPIO_Init(GPIOD, &GPIO_InitStruct);
 8001448:	f107 0314 	add.w	r3, r7, #20
 800144c:	4619      	mov	r1, r3
 800144e:	4806      	ldr	r0, [pc, #24]	; (8001468 <HAL_SD_MspInit+0xcc>)
 8001450:	f003 fda8 	bl	8004fa4 <HAL_GPIO_Init>

  /* USER CODE BEGIN SDIO_MspInit 1 */

  /* USER CODE END SDIO_MspInit 1 */
  }
}
 8001454:	bf00      	nop
 8001456:	3728      	adds	r7, #40	; 0x28
 8001458:	46bd      	mov	sp, r7
 800145a:	bd80      	pop	{r7, pc}
 800145c:	40012c00 	.word	0x40012c00
 8001460:	40023800 	.word	0x40023800
 8001464:	40020800 	.word	0x40020800
 8001468:	40020c00 	.word	0x40020c00

0800146c <HAL_MspInit>:
/* USER CODE END 0 */
/**
  * Initializes the Global MSP.
  */
void HAL_MspInit(void)
{
 800146c:	b480      	push	{r7}
 800146e:	b083      	sub	sp, #12
 8001470:	af00      	add	r7, sp, #0
  /* USER CODE BEGIN MspInit 0 */

  /* USER CODE END MspInit 0 */

  __HAL_RCC_SYSCFG_CLK_ENABLE();
 8001472:	2300      	movs	r3, #0
 8001474:	607b      	str	r3, [r7, #4]
 8001476:	4b10      	ldr	r3, [pc, #64]	; (80014b8 <HAL_MspInit+0x4c>)
 8001478:	6c5b      	ldr	r3, [r3, #68]	; 0x44
 800147a:	4a0f      	ldr	r2, [pc, #60]	; (80014b8 <HAL_MspInit+0x4c>)
 800147c:	f443 4380 	orr.w	r3, r3, #16384	; 0x4000
 8001480:	6453      	str	r3, [r2, #68]	; 0x44
 8001482:	4b0d      	ldr	r3, [pc, #52]	; (80014b8 <HAL_MspInit+0x4c>)
 8001484:	6c5b      	ldr	r3, [r3, #68]	; 0x44
 8001486:	f403 4380 	and.w	r3, r3, #16384	; 0x4000
 800148a:	607b      	str	r3, [r7, #4]
 800148c:	687b      	ldr	r3, [r7, #4]
  __HAL_RCC_PWR_CLK_ENABLE();
 800148e:	2300      	movs	r3, #0
 8001490:	603b      	str	r3, [r7, #0]
 8001492:	4b09      	ldr	r3, [pc, #36]	; (80014b8 <HAL_MspInit+0x4c>)
 8001494:	6c1b      	ldr	r3, [r3, #64]	; 0x40
 8001496:	4a08      	ldr	r2, [pc, #32]	; (80014b8 <HAL_MspInit+0x4c>)
 8001498:	f043 5380 	orr.w	r3, r3, #268435456	; 0x10000000
 800149c:	6413      	str	r3, [r2, #64]	; 0x40
 800149e:	4b06      	ldr	r3, [pc, #24]	; (80014b8 <HAL_MspInit+0x4c>)
 80014a0:	6c1b      	ldr	r3, [r3, #64]	; 0x40
 80014a2:	f003 5380 	and.w	r3, r3, #268435456	; 0x10000000
 80014a6:	603b      	str	r3, [r7, #0]
 80014a8:	683b      	ldr	r3, [r7, #0]
  /* System interrupt init*/

  /* USER CODE BEGIN MspInit 1 */

  /* USER CODE END MspInit 1 */
}
 80014aa:	bf00      	nop
 80014ac:	370c      	adds	r7, #12
 80014ae:	46bd      	mov	sp, r7
 80014b0:	f85d 7b04 	ldr.w	r7, [sp], #4
 80014b4:	4770      	bx	lr
 80014b6:	bf00      	nop
 80014b8:	40023800 	.word	0x40023800

080014bc <NMI_Handler>:
/******************************************************************************/
/**
  * @brief This function handles Non maskable interrupt.
  */
void NMI_Handler(void)
{
 80014bc:	b480      	push	{r7}
 80014be:	af00      	add	r7, sp, #0
  /* USER CODE BEGIN NonMaskableInt_IRQn 0 */

  /* USER CODE END NonMaskableInt_IRQn 0 */
  /* USER CODE BEGIN NonMaskableInt_IRQn 1 */
  while (1)
 80014c0:	e7fe      	b.n	80014c0 <NMI_Handler+0x4>

080014c2 <HardFault_Handler>:

/**
  * @brief This function handles Hard fault interrupt.
  */
void HardFault_Handler(void)
{
 80014c2:	b480      	push	{r7}
 80014c4:	af00      	add	r7, sp, #0
  /* USER CODE BEGIN HardFault_IRQn 0 */

  /* USER CODE END HardFault_IRQn 0 */
  while (1)
 80014c6:	e7fe      	b.n	80014c6 <HardFault_Handler+0x4>

080014c8 <MemManage_Handler>:

/**
  * @brief This function handles Memory management fault.
  */
void MemManage_Handler(void)
{
 80014c8:	b480      	push	{r7}
 80014ca:	af00      	add	r7, sp, #0
  /* USER CODE BEGIN MemoryManagement_IRQn 0 */

  /* USER CODE END MemoryManagement_IRQn 0 */
  while (1)
 80014cc:	e7fe      	b.n	80014cc <MemManage_Handler+0x4>

080014ce <BusFault_Handler>:

/**
  * @brief This function handles Pre-fetch fault, memory access fault.
  */
void BusFault_Handler(void)
{
 80014ce:	b480      	push	{r7}
 80014d0:	af00      	add	r7, sp, #0
  /* USER CODE BEGIN BusFault_IRQn 0 */

  /* USER CODE END BusFault_IRQn 0 */
  while (1)
 80014d2:	e7fe      	b.n	80014d2 <BusFault_Handler+0x4>

080014d4 <UsageFault_Handler>:

/**
  * @brief This function handles Undefined instruction or illegal state.
  */
void UsageFault_Handler(void)
{
 80014d4:	b480      	push	{r7}
 80014d6:	af00      	add	r7, sp, #0
  /* USER CODE BEGIN UsageFault_IRQn 0 */

  /* USER CODE END UsageFault_IRQn 0 */
  while (1)
 80014d8:	e7fe      	b.n	80014d8 <UsageFault_Handler+0x4>

080014da <SVC_Handler>:

/**
  * @brief This function handles System service call via SWI instruction.
  */
void SVC_Handler(void)
{
 80014da:	b480      	push	{r7}
 80014dc:	af00      	add	r7, sp, #0

  /* USER CODE END SVCall_IRQn 0 */
  /* USER CODE BEGIN SVCall_IRQn 1 */

  /* USER CODE END SVCall_IRQn 1 */
}
 80014de:	bf00      	nop
 80014e0:	46bd      	mov	sp, r7
 80014e2:	f85d 7b04 	ldr.w	r7, [sp], #4
 80014e6:	4770      	bx	lr

080014e8 <DebugMon_Handler>:

/**
  * @brief This function handles Debug monitor.
  */
void DebugMon_Handler(void)
{
 80014e8:	b480      	push	{r7}
 80014ea:	af00      	add	r7, sp, #0

  /* USER CODE END DebugMonitor_IRQn 0 */
  /* USER CODE BEGIN DebugMonitor_IRQn 1 */

  /* USER CODE END DebugMonitor_IRQn 1 */
}
 80014ec:	bf00      	nop
 80014ee:	46bd      	mov	sp, r7
 80014f0:	f85d 7b04 	ldr.w	r7, [sp], #4
 80014f4:	4770      	bx	lr

080014f6 <PendSV_Handler>:

/**
  * @brief This function handles Pendable request for system service.
  */
void PendSV_Handler(void)
{
 80014f6:	b480      	push	{r7}
 80014f8:	af00      	add	r7, sp, #0

  /* USER CODE END PendSV_IRQn 0 */
  /* USER CODE BEGIN PendSV_IRQn 1 */

  /* USER CODE END PendSV_IRQn 1 */
}
 80014fa:	bf00      	nop
 80014fc:	46bd      	mov	sp, r7
 80014fe:	f85d 7b04 	ldr.w	r7, [sp], #4
 8001502:	4770      	bx	lr

08001504 <SysTick_Handler>:

/**
  * @brief This function handles System tick timer.
  */
void SysTick_Handler(void)
{
 8001504:	b580      	push	{r7, lr}
 8001506:	af00      	add	r7, sp, #0
  /* USER CODE BEGIN SysTick_IRQn 0 */

  /* USER CODE END SysTick_IRQn 0 */
  HAL_IncTick();
 8001508:	f003 fbf6 	bl	8004cf8 <HAL_IncTick>
  /* USER CODE BEGIN SysTick_IRQn 1 */

  /* USER CODE END SysTick_IRQn 1 */
}
 800150c:	bf00      	nop
 800150e:	bd80      	pop	{r7, pc}

08001510 <OTG_FS_IRQHandler>:

/**
  * @brief This function handles USB On The Go FS global interrupt.
  */
void OTG_FS_IRQHandler(void)
{
 8001510:	b580      	push	{r7, lr}
 8001512:	af00      	add	r7, sp, #0
  /* USER CODE BEGIN OTG_FS_IRQn 0 */

  /* USER CODE END OTG_FS_IRQn 0 */
  HAL_PCD_IRQHandler(&hpcd_USB_OTG_FS);
 8001514:	4802      	ldr	r0, [pc, #8]	; (8001520 <OTG_FS_IRQHandler+0x10>)
 8001516:	f004 f862 	bl	80055de <HAL_PCD_IRQHandler>
  /* USER CODE BEGIN OTG_FS_IRQn 1 */

  /* USER CODE END OTG_FS_IRQn 1 */
}
 800151a:	bf00      	nop
 800151c:	bd80      	pop	{r7, pc}
 800151e:	bf00      	nop
 8001520:	20000a58 	.word	0x20000a58

08001524 <_sbrk>:
 *
 * @param incr Memory size
 * @return Pointer to allocated memory
 */
void *_sbrk(ptrdiff_t incr)
{
 8001524:	b580      	push	{r7, lr}
 8001526:	b086      	sub	sp, #24
 8001528:	af00      	add	r7, sp, #0
 800152a:	6078      	str	r0, [r7, #4]
  extern uint8_t _end; /* Symbol defined in the linker script */
  extern uint8_t _estack; /* Symbol defined in the linker script */
  extern uint32_t _Min_Stack_Size; /* Symbol defined in the linker script */
  const uint32_t stack_limit = (uint32_t)&_estack - (uint32_t)&_Min_Stack_Size;
 800152c:	4a14      	ldr	r2, [pc, #80]	; (8001580 <_sbrk+0x5c>)
 800152e:	4b15      	ldr	r3, [pc, #84]	; (8001584 <_sbrk+0x60>)
 8001530:	1ad3      	subs	r3, r2, r3
 8001532:	617b      	str	r3, [r7, #20]
  const uint8_t *max_heap = (uint8_t *)stack_limit;
 8001534:	697b      	ldr	r3, [r7, #20]
 8001536:	613b      	str	r3, [r7, #16]
  uint8_t *prev_heap_end;

  /* Initialize heap end at first call */
  if (NULL == __sbrk_heap_end)
 8001538:	4b13      	ldr	r3, [pc, #76]	; (8001588 <_sbrk+0x64>)
 800153a:	681b      	ldr	r3, [r3, #0]
 800153c:	2b00      	cmp	r3, #0
 800153e:	d102      	bne.n	8001546 <_sbrk+0x22>
  {
    __sbrk_heap_end = &_end;
 8001540:	4b11      	ldr	r3, [pc, #68]	; (8001588 <_sbrk+0x64>)
 8001542:	4a12      	ldr	r2, [pc, #72]	; (800158c <_sbrk+0x68>)
 8001544:	601a      	str	r2, [r3, #0]
  }

  /* Protect heap from growing into the reserved MSP stack */
  if (__sbrk_heap_end + incr > max_heap)
 8001546:	4b10      	ldr	r3, [pc, #64]	; (8001588 <_sbrk+0x64>)
 8001548:	681a      	ldr	r2, [r3, #0]
 800154a:	687b      	ldr	r3, [r7, #4]
 800154c:	4413      	add	r3, r2
 800154e:	693a      	ldr	r2, [r7, #16]
 8001550:	429a      	cmp	r2, r3
 8001552:	d207      	bcs.n	8001564 <_sbrk+0x40>
  {
    errno = ENOMEM;
 8001554:	f012 fa8a 	bl	8013a6c <__errno>
 8001558:	4603      	mov	r3, r0
 800155a:	220c      	movs	r2, #12
 800155c:	601a      	str	r2, [r3, #0]
    return (void *)-1;
 800155e:	f04f 33ff 	mov.w	r3, #4294967295
 8001562:	e009      	b.n	8001578 <_sbrk+0x54>
  }

  prev_heap_end = __sbrk_heap_end;
 8001564:	4b08      	ldr	r3, [pc, #32]	; (8001588 <_sbrk+0x64>)
 8001566:	681b      	ldr	r3, [r3, #0]
 8001568:	60fb      	str	r3, [r7, #12]
  __sbrk_heap_end += incr;
 800156a:	4b07      	ldr	r3, [pc, #28]	; (8001588 <_sbrk+0x64>)
 800156c:	681a      	ldr	r2, [r3, #0]
 800156e:	687b      	ldr	r3, [r7, #4]
 8001570:	4413      	add	r3, r2
 8001572:	4a05      	ldr	r2, [pc, #20]	; (8001588 <_sbrk+0x64>)
 8001574:	6013      	str	r3, [r2, #0]

  return (void *)prev_heap_end;
 8001576:	68fb      	ldr	r3, [r7, #12]
}
 8001578:	4618      	mov	r0, r3
 800157a:	3718      	adds	r7, #24
 800157c:	46bd      	mov	sp, r7
 800157e:	bd80      	pop	{r7, pc}
 8001580:	20020000 	.word	0x20020000
 8001584:	00000400 	.word	0x00000400
 8001588:	200002a0 	.word	0x200002a0
 800158c:	200011f0 	.word	0x200011f0

08001590 <SystemInit>:
  *         configuration.
  * @param  None
  * @retval None
  */
void SystemInit(void)
{
 8001590:	b480      	push	{r7}
 8001592:	af00      	add	r7, sp, #0
  /* FPU settings ------------------------------------------------------------*/
  #if (__FPU_PRESENT == 1) && (__FPU_USED == 1)
    SCB->CPACR |= ((3UL << 10*2)|(3UL << 11*2));  /* set CP10 and CP11 Full Access */
 8001594:	4b06      	ldr	r3, [pc, #24]	; (80015b0 <SystemInit+0x20>)
 8001596:	f8d3 3088 	ldr.w	r3, [r3, #136]	; 0x88
 800159a:	4a05      	ldr	r2, [pc, #20]	; (80015b0 <SystemInit+0x20>)
 800159c:	f443 0370 	orr.w	r3, r3, #15728640	; 0xf00000
 80015a0:	f8c2 3088 	str.w	r3, [r2, #136]	; 0x88

  /* Configure the Vector Table location -------------------------------------*/
#if defined(USER_VECT_TAB_ADDRESS)
  SCB->VTOR = VECT_TAB_BASE_ADDRESS | VECT_TAB_OFFSET; /* Vector Table Relocation in Internal SRAM */
#endif /* USER_VECT_TAB_ADDRESS */
}
 80015a4:	bf00      	nop
 80015a6:	46bd      	mov	sp, r7
 80015a8:	f85d 7b04 	ldr.w	r7, [sp], #4
 80015ac:	4770      	bx	lr
 80015ae:	bf00      	nop
 80015b0:	e000ed00 	.word	0xe000ed00

080015b4 <Reset_Handler>:

    .section  .text.Reset_Handler
  .weak  Reset_Handler
  .type  Reset_Handler, %function
Reset_Handler:  
  ldr   sp, =_estack     /* set stack pointer */
 80015b4:	f8df d034 	ldr.w	sp, [pc, #52]	; 80015ec <LoopFillZerobss+0x12>

/* Copy the data segment initializers from flash to SRAM */  
  ldr r0, =_sdata
 80015b8:	480d      	ldr	r0, [pc, #52]	; (80015f0 <LoopFillZerobss+0x16>)
  ldr r1, =_edata
 80015ba:	490e      	ldr	r1, [pc, #56]	; (80015f4 <LoopFillZerobss+0x1a>)
  ldr r2, =_sidata
 80015bc:	4a0e      	ldr	r2, [pc, #56]	; (80015f8 <LoopFillZerobss+0x1e>)
  movs r3, #0
 80015be:	2300      	movs	r3, #0
  b LoopCopyDataInit
 80015c0:	e002      	b.n	80015c8 <LoopCopyDataInit>

080015c2 <CopyDataInit>:

CopyDataInit:
  ldr r4, [r2, r3]
 80015c2:	58d4      	ldr	r4, [r2, r3]
  str r4, [r0, r3]
 80015c4:	50c4      	str	r4, [r0, r3]
  adds r3, r3, #4
 80015c6:	3304      	adds	r3, #4

080015c8 <LoopCopyDataInit>:

LoopCopyDataInit:
  adds r4, r0, r3
 80015c8:	18c4      	adds	r4, r0, r3
  cmp r4, r1
 80015ca:	428c      	cmp	r4, r1
  bcc CopyDataInit
 80015cc:	d3f9      	bcc.n	80015c2 <CopyDataInit>
  
/* Zero fill the bss segment. */
  ldr r2, =_sbss
 80015ce:	4a0b      	ldr	r2, [pc, #44]	; (80015fc <LoopFillZerobss+0x22>)
  ldr r4, =_ebss
 80015d0:	4c0b      	ldr	r4, [pc, #44]	; (8001600 <LoopFillZerobss+0x26>)
  movs r3, #0
 80015d2:	2300      	movs	r3, #0
  b LoopFillZerobss
 80015d4:	e001      	b.n	80015da <LoopFillZerobss>

080015d6 <FillZerobss>:

FillZerobss:
  str  r3, [r2]
 80015d6:	6013      	str	r3, [r2, #0]
  adds r2, r2, #4
 80015d8:	3204      	adds	r2, #4

080015da <LoopFillZerobss>:

LoopFillZerobss:
  cmp r2, r4
 80015da:	42a2      	cmp	r2, r4
  bcc FillZerobss
 80015dc:	d3fb      	bcc.n	80015d6 <FillZerobss>

/* Call the clock system initialization function.*/
  bl  SystemInit   
 80015de:	f7ff ffd7 	bl	8001590 <SystemInit>
/* Call static constructors */
    bl __libc_init_array
 80015e2:	f012 fa49 	bl	8013a78 <__libc_init_array>
/* Call the application's entry point.*/
  bl  main
 80015e6:	f7ff fc93 	bl	8000f10 <main>
  bx  lr    
 80015ea:	4770      	bx	lr
  ldr   sp, =_estack     /* set stack pointer */
 80015ec:	20020000 	.word	0x20020000
  ldr r0, =_sdata
 80015f0:	20000000 	.word	0x20000000
  ldr r1, =_edata
 80015f4:	2000018c 	.word	0x2000018c
  ldr r2, =_sidata
 80015f8:	0804253c 	.word	0x0804253c
  ldr r2, =_sbss
 80015fc:	2000018c 	.word	0x2000018c
  ldr r4, =_ebss
 8001600:	200011ec 	.word	0x200011ec

08001604 <ADC_IRQHandler>:
 * @retval None       
*/
    .section  .text.Default_Handler,"ax",%progbits
Default_Handler:
Infinite_Loop:
  b  Infinite_Loop
 8001604:	e7fe      	b.n	8001604 <ADC_IRQHandler>
	...

08001608 <fatTest_ScanDir>:
    lcd_show_str(10, 10 + 18 * 15, 12, temp_str, RED);

    lcd_show_str(10, 10 + 19 * 15, 12, "Get FAT disk info OK", BLACK);
}

void fatTest_ScanDir(const TCHAR* PathName) {
 8001608:	b580      	push	{r7, lr}
 800160a:	b0e2      	sub	sp, #392	; 0x188
 800160c:	af02      	add	r7, sp, #8
 800160e:	f507 73c0 	add.w	r3, r7, #384	; 0x180
 8001612:	f5a3 73be 	sub.w	r3, r3, #380	; 0x17c
 8001616:	6018      	str	r0, [r3, #0]
    DIR dir;
    FILINFO dir_info;
    uint8_t show_line = 9;
 8001618:	2309      	movs	r3, #9
 800161a:	f887 317f 	strb.w	r3, [r7, #383]	; 0x17f
    FRESULT res = f_opendir(&dir, PathName);
 800161e:	f507 73c0 	add.w	r3, r7, #384	; 0x180
 8001622:	f5a3 73be 	sub.w	r3, r3, #380	; 0x17c
 8001626:	f507 72a4 	add.w	r2, r7, #328	; 0x148
 800162a:	6819      	ldr	r1, [r3, #0]
 800162c:	4610      	mov	r0, r2
 800162e:	f010 f9ea 	bl	8011a06 <f_opendir>
 8001632:	4603      	mov	r3, r0
 8001634:	f887 317e 	strb.w	r3, [r7, #382]	; 0x17e
    if (res != FR_OK) {
 8001638:	f897 317e 	ldrb.w	r3, [r7, #382]	; 0x17e
 800163c:	2b00      	cmp	r3, #0
 800163e:	d005      	beq.n	800164c <fatTest_ScanDir+0x44>
        f_closedir(&dir);
 8001640:	f507 73a4 	add.w	r3, r7, #328	; 0x148
 8001644:	4618      	mov	r0, r3
 8001646:	f010 fa61 	bl	8011b0c <f_closedir>
 800164a:	e08c      	b.n	8001766 <fatTest_ScanDir+0x15e>
        return;
    }

    uint8_t temp_str[40];
    sprintf(temp_str, "All entries in dir %s", PathName);
 800164c:	f507 73c0 	add.w	r3, r7, #384	; 0x180
 8001650:	f5a3 73be 	sub.w	r3, r3, #380	; 0x17c
 8001654:	f107 0008 	add.w	r0, r7, #8
 8001658:	681a      	ldr	r2, [r3, #0]
 800165a:	4945      	ldr	r1, [pc, #276]	; (8001770 <fatTest_ScanDir+0x168>)
 800165c:	f012 fb38 	bl	8013cd0 <siprintf>
    lcd_show_str(10, 10 + 8 * 15, 12, temp_str, RED);
 8001660:	f107 0308 	add.w	r3, r7, #8
 8001664:	f44f 4278 	mov.w	r2, #63488	; 0xf800
 8001668:	9200      	str	r2, [sp, #0]
 800166a:	220c      	movs	r2, #12
 800166c:	2182      	movs	r1, #130	; 0x82
 800166e:	200a      	movs	r0, #10
 8001670:	f001 f8fa 	bl	8002868 <lcd_show_str>
    while (1) {
        res = f_readdir(&dir, &dir_info);
 8001674:	f107 0230 	add.w	r2, r7, #48	; 0x30
 8001678:	f507 73a4 	add.w	r3, r7, #328	; 0x148
 800167c:	4611      	mov	r1, r2
 800167e:	4618      	mov	r0, r3
 8001680:	f010 fa6a 	bl	8011b58 <f_readdir>
 8001684:	4603      	mov	r3, r0
 8001686:	f887 317e 	strb.w	r3, [r7, #382]	; 0x17e
        if (res != FR_OK || dir_info.fname[0] == 0) {
 800168a:	f897 317e 	ldrb.w	r3, [r7, #382]	; 0x17e
 800168e:	2b00      	cmp	r3, #0
 8001690:	d153      	bne.n	800173a <fatTest_ScanDir+0x132>
 8001692:	f507 73c0 	add.w	r3, r7, #384	; 0x180
 8001696:	f5a3 73a8 	sub.w	r3, r3, #336	; 0x150
 800169a:	7d9b      	ldrb	r3, [r3, #22]
 800169c:	2b00      	cmp	r3, #0
 800169e:	d04c      	beq.n	800173a <fatTest_ScanDir+0x132>
            break;
        }
        if (dir_info.fattrib & AM_DIR) {
 80016a0:	f507 73c0 	add.w	r3, r7, #384	; 0x180
 80016a4:	f5a3 73a8 	sub.w	r3, r3, #336	; 0x150
 80016a8:	7a1b      	ldrb	r3, [r3, #8]
 80016aa:	f003 0310 	and.w	r3, r3, #16
 80016ae:	2b00      	cmp	r3, #0
 80016b0:	d021      	beq.n	80016f6 <fatTest_ScanDir+0xee>
            sprintf(temp_str, "DIR   %s", dir_info.fname);
 80016b2:	f107 0330 	add.w	r3, r7, #48	; 0x30
 80016b6:	f103 0216 	add.w	r2, r3, #22
 80016ba:	f107 0308 	add.w	r3, r7, #8
 80016be:	492d      	ldr	r1, [pc, #180]	; (8001774 <fatTest_ScanDir+0x16c>)
 80016c0:	4618      	mov	r0, r3
 80016c2:	f012 fb05 	bl	8013cd0 <siprintf>
            lcd_show_str(10, 10 + show_line * 15, 12, temp_str, RED);
 80016c6:	f897 317f 	ldrb.w	r3, [r7, #383]	; 0x17f
 80016ca:	b29b      	uxth	r3, r3
 80016cc:	461a      	mov	r2, r3
 80016ce:	0112      	lsls	r2, r2, #4
 80016d0:	1ad3      	subs	r3, r2, r3
 80016d2:	b29b      	uxth	r3, r3
 80016d4:	330a      	adds	r3, #10
 80016d6:	b299      	uxth	r1, r3
 80016d8:	f107 0308 	add.w	r3, r7, #8
 80016dc:	f44f 4278 	mov.w	r2, #63488	; 0xf800
 80016e0:	9200      	str	r2, [sp, #0]
 80016e2:	220c      	movs	r2, #12
 80016e4:	200a      	movs	r0, #10
 80016e6:	f001 f8bf 	bl	8002868 <lcd_show_str>
            show_line++;
 80016ea:	f897 317f 	ldrb.w	r3, [r7, #383]	; 0x17f
 80016ee:	3301      	adds	r3, #1
 80016f0:	f887 317f 	strb.w	r3, [r7, #383]	; 0x17f
 80016f4:	e7be      	b.n	8001674 <fatTest_ScanDir+0x6c>
        } else {
            sprintf(temp_str, "FILE  %s", dir_info.fname);
 80016f6:	f107 0330 	add.w	r3, r7, #48	; 0x30
 80016fa:	f103 0216 	add.w	r2, r3, #22
 80016fe:	f107 0308 	add.w	r3, r7, #8
 8001702:	491d      	ldr	r1, [pc, #116]	; (8001778 <fatTest_ScanDir+0x170>)
 8001704:	4618      	mov	r0, r3
 8001706:	f012 fae3 	bl	8013cd0 <siprintf>
            lcd_show_str(10, 10 + show_line * 15, 12, temp_str, RED);
 800170a:	f897 317f 	ldrb.w	r3, [r7, #383]	; 0x17f
 800170e:	b29b      	uxth	r3, r3
 8001710:	461a      	mov	r2, r3
 8001712:	0112      	lsls	r2, r2, #4
 8001714:	1ad3      	subs	r3, r2, r3
 8001716:	b29b      	uxth	r3, r3
 8001718:	330a      	adds	r3, #10
 800171a:	b299      	uxth	r1, r3
 800171c:	f107 0308 	add.w	r3, r7, #8
 8001720:	f44f 4278 	mov.w	r2, #63488	; 0xf800
 8001724:	9200      	str	r2, [sp, #0]
 8001726:	220c      	movs	r2, #12
 8001728:	200a      	movs	r0, #10
 800172a:	f001 f89d 	bl	8002868 <lcd_show_str>
            show_line++;
 800172e:	f897 317f 	ldrb.w	r3, [r7, #383]	; 0x17f
 8001732:	3301      	adds	r3, #1
 8001734:	f887 317f 	strb.w	r3, [r7, #383]	; 0x17f
        res = f_readdir(&dir, &dir_info);
 8001738:	e79c      	b.n	8001674 <fatTest_ScanDir+0x6c>
        }
    }
    lcd_show_str(10, 10 + show_line * 15, 12, "Scan dir OK", RED);
 800173a:	f897 317f 	ldrb.w	r3, [r7, #383]	; 0x17f
 800173e:	b29b      	uxth	r3, r3
 8001740:	461a      	mov	r2, r3
 8001742:	0112      	lsls	r2, r2, #4
 8001744:	1ad3      	subs	r3, r2, r3
 8001746:	b29b      	uxth	r3, r3
 8001748:	330a      	adds	r3, #10
 800174a:	b299      	uxth	r1, r3
 800174c:	f44f 4378 	mov.w	r3, #63488	; 0xf800
 8001750:	9300      	str	r3, [sp, #0]
 8001752:	4b0a      	ldr	r3, [pc, #40]	; (800177c <fatTest_ScanDir+0x174>)
 8001754:	220c      	movs	r2, #12
 8001756:	200a      	movs	r0, #10
 8001758:	f001 f886 	bl	8002868 <lcd_show_str>
    f_closedir(&dir);
 800175c:	f507 73a4 	add.w	r3, r7, #328	; 0x148
 8001760:	4618      	mov	r0, r3
 8001762:	f010 f9d3 	bl	8011b0c <f_closedir>
}
 8001766:	f507 77c0 	add.w	r7, r7, #384	; 0x180
 800176a:	46bd      	mov	sp, r7
 800176c:	bd80      	pop	{r7, pc}
 800176e:	bf00      	nop
 8001770:	080146a8 	.word	0x080146a8
 8001774:	080146c0 	.word	0x080146c0
 8001778:	080146cc 	.word	0x080146cc
 800177c:	080146d8 	.word	0x080146d8

08001780 <fatTest_WriteTXTFile>:

void fatTest_WriteTXTFile(TCHAR* filename, uint16_t year, uint8_t month, uint8_t day) {
 8001780:	b590      	push	{r4, r7, lr}
 8001782:	f5ad 7d13 	sub.w	sp, sp, #588	; 0x24c
 8001786:	af02      	add	r7, sp, #8
 8001788:	f507 7410 	add.w	r4, r7, #576	; 0x240
 800178c:	f5a4 740f 	sub.w	r4, r4, #572	; 0x23c
 8001790:	6020      	str	r0, [r4, #0]
 8001792:	460c      	mov	r4, r1
 8001794:	4610      	mov	r0, r2
 8001796:	4619      	mov	r1, r3
 8001798:	f507 7310 	add.w	r3, r7, #576	; 0x240
 800179c:	f2a3 233e 	subw	r3, r3, #574	; 0x23e
 80017a0:	4622      	mov	r2, r4
 80017a2:	801a      	strh	r2, [r3, #0]
 80017a4:	f507 7310 	add.w	r3, r7, #576	; 0x240
 80017a8:	f2a3 233f 	subw	r3, r3, #575	; 0x23f
 80017ac:	4602      	mov	r2, r0
 80017ae:	701a      	strb	r2, [r3, #0]
 80017b0:	f507 7310 	add.w	r3, r7, #576	; 0x240
 80017b4:	f5a3 7310 	sub.w	r3, r3, #576	; 0x240
 80017b8:	460a      	mov	r2, r1
 80017ba:	701a      	strb	r2, [r3, #0]
    FIL file;
    FRESULT res = f_open(&file, filename, FA_CREATE_ALWAYS | FA_WRITE);
 80017bc:	f507 7310 	add.w	r3, r7, #576	; 0x240
 80017c0:	f5a3 730f 	sub.w	r3, r3, #572	; 0x23c
 80017c4:	f107 000c 	add.w	r0, r7, #12
 80017c8:	220a      	movs	r2, #10
 80017ca:	6819      	ldr	r1, [r3, #0]
 80017cc:	f00f fd30 	bl	8011230 <f_open>
 80017d0:	4603      	mov	r3, r0
 80017d2:	f887 323f 	strb.w	r3, [r7, #575]	; 0x23f
    if (res == FR_OK) {
 80017d6:	f897 323f 	ldrb.w	r3, [r7, #575]	; 0x23f
 80017da:	2b00      	cmp	r3, #0
 80017dc:	d122      	bne.n	8001824 <fatTest_WriteTXTFile+0xa4>
        f_puts("Line1: Hello FatFS\n", &file);
 80017de:	f107 030c 	add.w	r3, r7, #12
 80017e2:	4619      	mov	r1, r3
 80017e4:	4819      	ldr	r0, [pc, #100]	; (800184c <fatTest_WriteTXTFile+0xcc>)
 80017e6:	f011 f87a 	bl	80128de <f_puts>
        f_puts("Line2: UPC, Qingdao\n", &file);
 80017ea:	f107 030c 	add.w	r3, r7, #12
 80017ee:	4619      	mov	r1, r3
 80017f0:	4817      	ldr	r0, [pc, #92]	; (8001850 <fatTest_WriteTXTFile+0xd0>)
 80017f2:	f011 f874 	bl	80128de <f_puts>
        f_printf(&file, "Line3: Date=%04d-%02d-%02d\n", year, month, day);
 80017f6:	f507 7310 	add.w	r3, r7, #576	; 0x240
 80017fa:	f2a3 233e 	subw	r3, r3, #574	; 0x23e
 80017fe:	881a      	ldrh	r2, [r3, #0]
 8001800:	f507 7310 	add.w	r3, r7, #576	; 0x240
 8001804:	f2a3 233f 	subw	r3, r3, #575	; 0x23f
 8001808:	7819      	ldrb	r1, [r3, #0]
 800180a:	f507 7310 	add.w	r3, r7, #576	; 0x240
 800180e:	f5a3 7310 	sub.w	r3, r3, #576	; 0x240
 8001812:	781b      	ldrb	r3, [r3, #0]
 8001814:	f107 000c 	add.w	r0, r7, #12
 8001818:	9300      	str	r3, [sp, #0]
 800181a:	460b      	mov	r3, r1
 800181c:	490d      	ldr	r1, [pc, #52]	; (8001854 <fatTest_WriteTXTFile+0xd4>)
 800181e:	f011 f883 	bl	8012928 <f_printf>
 8001822:	e008      	b.n	8001836 <fatTest_WriteTXTFile+0xb6>
    } else {
        lcd_show_str(10, 10 + 8 * 15, 12, "Write file error", RED);
 8001824:	f44f 4378 	mov.w	r3, #63488	; 0xf800
 8001828:	9300      	str	r3, [sp, #0]
 800182a:	4b0b      	ldr	r3, [pc, #44]	; (8001858 <fatTest_WriteTXTFile+0xd8>)
 800182c:	220c      	movs	r2, #12
 800182e:	2182      	movs	r1, #130	; 0x82
 8001830:	200a      	movs	r0, #10
 8001832:	f001 f819 	bl	8002868 <lcd_show_str>
    }
    f_close(&file);
 8001836:	f107 030c 	add.w	r3, r7, #12
 800183a:	4618      	mov	r0, r3
 800183c:	f010 f8b9 	bl	80119b2 <f_close>
}
 8001840:	bf00      	nop
 8001842:	f507 7711 	add.w	r7, r7, #580	; 0x244
 8001846:	46bd      	mov	sp, r7
 8001848:	bd90      	pop	{r4, r7, pc}
 800184a:	bf00      	nop
 800184c:	080146e4 	.word	0x080146e4
 8001850:	080146f8 	.word	0x080146f8
 8001854:	08014710 	.word	0x08014710
 8001858:	0801472c 	.word	0x0801472c

0800185c <fatTest_WriteBinFile>:

void fatTest_WriteBinFile(TCHAR* filename, uint32_t pointCount, uint32_t sampFreq) {
 800185c:	b580      	push	{r7, lr}
 800185e:	f5ad 7d14 	sub.w	sp, sp, #592	; 0x250
 8001862:	af00      	add	r7, sp, #0
 8001864:	f507 7314 	add.w	r3, r7, #592	; 0x250
 8001868:	f5a3 7311 	sub.w	r3, r3, #580	; 0x244
 800186c:	6018      	str	r0, [r3, #0]
 800186e:	f507 7314 	add.w	r3, r7, #592	; 0x250
 8001872:	f5a3 7312 	sub.w	r3, r3, #584	; 0x248
 8001876:	6019      	str	r1, [r3, #0]
 8001878:	f507 7314 	add.w	r3, r7, #592	; 0x250
 800187c:	f5a3 7313 	sub.w	r3, r3, #588	; 0x24c
 8001880:	601a      	str	r2, [r3, #0]
    FIL file;
    FRESULT res = f_open(&file, filename, FA_CREATE_ALWAYS | FA_WRITE);
 8001882:	f507 7314 	add.w	r3, r7, #592	; 0x250
 8001886:	f5a3 7311 	sub.w	r3, r3, #580	; 0x244
 800188a:	f107 001c 	add.w	r0, r7, #28
 800188e:	220a      	movs	r2, #10
 8001890:	6819      	ldr	r1, [r3, #0]
 8001892:	f00f fccd 	bl	8011230 <f_open>
 8001896:	4603      	mov	r3, r0
 8001898:	f887 324d 	strb.w	r3, [r7, #589]	; 0x24d
    if (res == FR_OK) {
 800189c:	f897 324d 	ldrb.w	r3, [r7, #589]	; 0x24d
 80018a0:	2b00      	cmp	r3, #0
 80018a2:	d149      	bne.n	8001938 <fatTest_WriteBinFile+0xdc>
        f_puts("ADC1-IN5\n", &file);
 80018a4:	f107 031c 	add.w	r3, r7, #28
 80018a8:	4619      	mov	r1, r3
 80018aa:	4828      	ldr	r0, [pc, #160]	; (800194c <fatTest_WriteBinFile+0xf0>)
 80018ac:	f011 f817 	bl	80128de <f_puts>

        UINT bw = 0;
 80018b0:	f507 7314 	add.w	r3, r7, #592	; 0x250
 80018b4:	f5a3 730e 	sub.w	r3, r3, #568	; 0x238
 80018b8:	2200      	movs	r2, #0
 80018ba:	601a      	str	r2, [r3, #0]
        f_write(&file, &pointCount, sizeof (uint32_t), &bw);
 80018bc:	f107 0318 	add.w	r3, r7, #24
 80018c0:	f107 0108 	add.w	r1, r7, #8
 80018c4:	f107 001c 	add.w	r0, r7, #28
 80018c8:	2204      	movs	r2, #4
 80018ca:	f00f fe7f 	bl	80115cc <f_write>
        f_write(&file, &sampFreq, sizeof (uint32_t), &bw);
 80018ce:	f107 0318 	add.w	r3, r7, #24
 80018d2:	1d39      	adds	r1, r7, #4
 80018d4:	f107 001c 	add.w	r0, r7, #28
 80018d8:	2204      	movs	r2, #4
 80018da:	f00f fe77 	bl	80115cc <f_write>

        uint32_t value = 1000;
 80018de:	f507 7314 	add.w	r3, r7, #592	; 0x250
 80018e2:	f5a3 730f 	sub.w	r3, r3, #572	; 0x23c
 80018e6:	f44f 727a 	mov.w	r2, #1000	; 0x3e8
 80018ea:	601a      	str	r2, [r3, #0]
        for (uint16_t i = 0; i < pointCount; i++, value++) {
 80018ec:	2300      	movs	r3, #0
 80018ee:	f8a7 324e 	strh.w	r3, [r7, #590]	; 0x24e
 80018f2:	e018      	b.n	8001926 <fatTest_WriteBinFile+0xca>
            f_write(&file, &value, sizeof (uint32_t), &bw);
 80018f4:	f107 0318 	add.w	r3, r7, #24
 80018f8:	f107 0114 	add.w	r1, r7, #20
 80018fc:	f107 001c 	add.w	r0, r7, #28
 8001900:	2204      	movs	r2, #4
 8001902:	f00f fe63 	bl	80115cc <f_write>
        for (uint16_t i = 0; i < pointCount; i++, value++) {
 8001906:	f8b7 324e 	ldrh.w	r3, [r7, #590]	; 0x24e
 800190a:	3301      	adds	r3, #1
 800190c:	f8a7 324e 	strh.w	r3, [r7, #590]	; 0x24e
 8001910:	f507 7314 	add.w	r3, r7, #592	; 0x250
 8001914:	f5a3 730f 	sub.w	r3, r3, #572	; 0x23c
 8001918:	681b      	ldr	r3, [r3, #0]
 800191a:	1c5a      	adds	r2, r3, #1
 800191c:	f507 7314 	add.w	r3, r7, #592	; 0x250
 8001920:	f5a3 730f 	sub.w	r3, r3, #572	; 0x23c
 8001924:	601a      	str	r2, [r3, #0]
 8001926:	f8b7 224e 	ldrh.w	r2, [r7, #590]	; 0x24e
 800192a:	f507 7314 	add.w	r3, r7, #592	; 0x250
 800192e:	f5a3 7312 	sub.w	r3, r3, #584	; 0x248
 8001932:	681b      	ldr	r3, [r3, #0]
 8001934:	429a      	cmp	r2, r3
 8001936:	d3dd      	bcc.n	80018f4 <fatTest_WriteBinFile+0x98>
        }
    }
    f_close(&file);
 8001938:	f107 031c 	add.w	r3, r7, #28
 800193c:	4618      	mov	r0, r3
 800193e:	f010 f838 	bl	80119b2 <f_close>
}
 8001942:	bf00      	nop
 8001944:	f507 7714 	add.w	r7, r7, #592	; 0x250
 8001948:	46bd      	mov	sp, r7
 800194a:	bd80      	pop	{r7, pc}
 800194c:	08014740 	.word	0x08014740

08001950 <fat_GetFatTimeFromRTC>:
    } else {
        lcd_show_str(10, 10 + 8 * 15, 12, "f_stat() error", RED);
    }
}

DWORD fat_GetFatTimeFromRTC() {
 8001950:	b580      	push	{r7, lr}
 8001952:	b088      	sub	sp, #32
 8001954:	af00      	add	r7, sp, #0
    RTC_TimeTypeDef sTime;
    RTC_DateTypeDef sDate;
    if (HAL_RTC_GetTime(&hrtc, &sTime, RTC_FORMAT_BIN) == HAL_OK) {
 8001956:	1d3b      	adds	r3, r7, #4
 8001958:	2200      	movs	r2, #0
 800195a:	4619      	mov	r1, r3
 800195c:	481a      	ldr	r0, [pc, #104]	; (80019c8 <fat_GetFatTimeFromRTC+0x78>)
 800195e:	f005 fdfb 	bl	8007558 <HAL_RTC_GetTime>
 8001962:	4603      	mov	r3, r0
 8001964:	2b00      	cmp	r3, #0
 8001966:	d129      	bne.n	80019bc <fat_GetFatTimeFromRTC+0x6c>
        HAL_RTC_GetDate(&hrtc, &sDate, RTC_FORMAT_BIN);
 8001968:	463b      	mov	r3, r7
 800196a:	2200      	movs	r2, #0
 800196c:	4619      	mov	r1, r3
 800196e:	4816      	ldr	r0, [pc, #88]	; (80019c8 <fat_GetFatTimeFromRTC+0x78>)
 8001970:	f005 fed4 	bl	800771c <HAL_RTC_GetDate>
        WORD date = ((2000 + sDate.Year - 1980) << 9) | (sDate.Month << 5) | sDate.Date;
 8001974:	78fb      	ldrb	r3, [r7, #3]
 8001976:	3314      	adds	r3, #20
 8001978:	025b      	lsls	r3, r3, #9
 800197a:	b21a      	sxth	r2, r3
 800197c:	787b      	ldrb	r3, [r7, #1]
 800197e:	015b      	lsls	r3, r3, #5
 8001980:	b21b      	sxth	r3, r3
 8001982:	4313      	orrs	r3, r2
 8001984:	b21a      	sxth	r2, r3
 8001986:	78bb      	ldrb	r3, [r7, #2]
 8001988:	b21b      	sxth	r3, r3
 800198a:	4313      	orrs	r3, r2
 800198c:	b21b      	sxth	r3, r3
 800198e:	83fb      	strh	r3, [r7, #30]
        WORD time = (sTime.Hours << 11) | (sTime.Minutes << 5) | (sTime.Seconds >> 1);
 8001990:	793b      	ldrb	r3, [r7, #4]
 8001992:	02db      	lsls	r3, r3, #11
 8001994:	b21a      	sxth	r2, r3
 8001996:	797b      	ldrb	r3, [r7, #5]
 8001998:	015b      	lsls	r3, r3, #5
 800199a:	b21b      	sxth	r3, r3
 800199c:	4313      	orrs	r3, r2
 800199e:	b21a      	sxth	r2, r3
 80019a0:	79bb      	ldrb	r3, [r7, #6]
 80019a2:	085b      	lsrs	r3, r3, #1
 80019a4:	b2db      	uxtb	r3, r3
 80019a6:	b21b      	sxth	r3, r3
 80019a8:	4313      	orrs	r3, r2
 80019aa:	b21b      	sxth	r3, r3
 80019ac:	83bb      	strh	r3, [r7, #28]

        DWORD fatTime = ((DWORD)date << 16) | time;
 80019ae:	8bfb      	ldrh	r3, [r7, #30]
 80019b0:	041a      	lsls	r2, r3, #16
 80019b2:	8bbb      	ldrh	r3, [r7, #28]
 80019b4:	4313      	orrs	r3, r2
 80019b6:	61bb      	str	r3, [r7, #24]
        return fatTime;
 80019b8:	69bb      	ldr	r3, [r7, #24]
 80019ba:	e000      	b.n	80019be <fat_GetFatTimeFromRTC+0x6e>
    } else {
        return 0;
 80019bc:	2300      	movs	r3, #0
    }
}
 80019be:	4618      	mov	r0, r3
 80019c0:	3720      	adds	r7, #32
 80019c2:	46bd      	mov	sp, r7
 80019c4:	bd80      	pop	{r7, pc}
 80019c6:	bf00      	nop
 80019c8:	200001fc 	.word	0x200001fc

080019cc <fatTest_RemoveAll>:

void fatTest_RemoveAll() {
 80019cc:	b580      	push	{r7, lr}
 80019ce:	b0e2      	sub	sp, #392	; 0x188
 80019d0:	af02      	add	r7, sp, #8
    DIR dir;
    FRESULT res = f_opendir(&dir, "0:");
 80019d2:	f507 73a2 	add.w	r3, r7, #324	; 0x144
 80019d6:	492c      	ldr	r1, [pc, #176]	; (8001a88 <fatTest_RemoveAll+0xbc>)
 80019d8:	4618      	mov	r0, r3
 80019da:	f010 f814 	bl	8011a06 <f_opendir>
 80019de:	4603      	mov	r3, r0
 80019e0:	f887 317b 	strb.w	r3, [r7, #379]	; 0x17b
    if (res != FR_OK) {
 80019e4:	f897 317b 	ldrb.w	r3, [r7, #379]	; 0x17b
 80019e8:	2b00      	cmp	r3, #0
 80019ea:	d005      	beq.n	80019f8 <fatTest_RemoveAll+0x2c>
        f_closedir(&dir);
 80019ec:	f507 73a2 	add.w	r3, r7, #324	; 0x144
 80019f0:	4618      	mov	r0, r3
 80019f2:	f010 f88b 	bl	8011b0c <f_closedir>
 80019f6:	e042      	b.n	8001a7e <fatTest_RemoveAll+0xb2>
        return;
    }
    lcd_show_str(10, 10 + 8 * 15, 12, "Remove all entries...", RED);
 80019f8:	f44f 4378 	mov.w	r3, #63488	; 0xf800
 80019fc:	9300      	str	r3, [sp, #0]
 80019fe:	4b23      	ldr	r3, [pc, #140]	; (8001a8c <fatTest_RemoveAll+0xc0>)
 8001a00:	220c      	movs	r2, #12
 8001a02:	2182      	movs	r1, #130	; 0x82
 8001a04:	200a      	movs	r0, #10
 8001a06:	f000 ff2f 	bl	8002868 <lcd_show_str>
    FILINFO fno;
    uint32_t count = 0;
 8001a0a:	2300      	movs	r3, #0
 8001a0c:	f8c7 317c 	str.w	r3, [r7, #380]	; 0x17c
    while (1) {
        res = f_readdir(&dir, &fno);
 8001a10:	f107 022c 	add.w	r2, r7, #44	; 0x2c
 8001a14:	f507 73a2 	add.w	r3, r7, #324	; 0x144
 8001a18:	4611      	mov	r1, r2
 8001a1a:	4618      	mov	r0, r3
 8001a1c:	f010 f89c 	bl	8011b58 <f_readdir>
 8001a20:	4603      	mov	r3, r0
 8001a22:	f887 317b 	strb.w	r3, [r7, #379]	; 0x17b
        if ((res != FR_OK) || (fno.fname[0] == '\0')) {
 8001a26:	f897 317b 	ldrb.w	r3, [r7, #379]	; 0x17b
 8001a2a:	2b00      	cmp	r3, #0
 8001a2c:	d112      	bne.n	8001a54 <fatTest_RemoveAll+0x88>
 8001a2e:	f507 73c0 	add.w	r3, r7, #384	; 0x180
 8001a32:	f5a3 73aa 	sub.w	r3, r3, #340	; 0x154
 8001a36:	7d9b      	ldrb	r3, [r3, #22]
 8001a38:	2b00      	cmp	r3, #0
 8001a3a:	d00b      	beq.n	8001a54 <fatTest_RemoveAll+0x88>
            break;
        }
        f_unlink(fno.fname);
 8001a3c:	f107 032c 	add.w	r3, r7, #44	; 0x2c
 8001a40:	3316      	adds	r3, #22
 8001a42:	4618      	mov	r0, r3
 8001a44:	f010 f8d5 	bl	8011bf2 <f_unlink>
        count++;
 8001a48:	f8d7 317c 	ldr.w	r3, [r7, #380]	; 0x17c
 8001a4c:	3301      	adds	r3, #1
 8001a4e:	f8c7 317c 	str.w	r3, [r7, #380]	; 0x17c
        res = f_readdir(&dir, &fno);
 8001a52:	e7dd      	b.n	8001a10 <fatTest_RemoveAll+0x44>
    }
    f_closedir(&dir);
 8001a54:	f507 73a2 	add.w	r3, r7, #324	; 0x144
 8001a58:	4618      	mov	r0, r3
 8001a5a:	f010 f857 	bl	8011b0c <f_closedir>

    uint8_t temp_str[40];
    sprintf(temp_str, "Removed entries count = %d", count);
 8001a5e:	1d3b      	adds	r3, r7, #4
 8001a60:	f8d7 217c 	ldr.w	r2, [r7, #380]	; 0x17c
 8001a64:	490a      	ldr	r1, [pc, #40]	; (8001a90 <fatTest_RemoveAll+0xc4>)
 8001a66:	4618      	mov	r0, r3
 8001a68:	f012 f932 	bl	8013cd0 <siprintf>

    lcd_show_str(10, 10 + 9 * 15, 12, temp_str, RED);
 8001a6c:	1d3b      	adds	r3, r7, #4
 8001a6e:	f44f 4278 	mov.w	r2, #63488	; 0xf800
 8001a72:	9200      	str	r2, [sp, #0]
 8001a74:	220c      	movs	r2, #12
 8001a76:	2191      	movs	r1, #145	; 0x91
 8001a78:	200a      	movs	r0, #10
 8001a7a:	f000 fef5 	bl	8002868 <lcd_show_str>
 8001a7e:	f507 77c0 	add.w	r7, r7, #384	; 0x180
 8001a82:	46bd      	mov	sp, r7
 8001a84:	bd80      	pop	{r7, pc}
 8001a86:	bf00      	nop
 8001a88:	08014568 	.word	0x08014568
 8001a8c:	08014888 	.word	0x08014888
 8001a90:	080148a0 	.word	0x080148a0

08001a94 <ScanPressedKey>:
#include "keyled.h"

KEYS ScanPressedKey(uint32_t timeout)
{
 8001a94:	b580      	push	{r7, lr}
 8001a96:	b084      	sub	sp, #16
 8001a98:	af00      	add	r7, sp, #0
 8001a9a:	6078      	str	r0, [r7, #4]
	uint32_t tickstart = HAL_GetTick();
 8001a9c:	f003 f940 	bl	8004d20 <HAL_GetTick>
 8001aa0:	60f8      	str	r0, [r7, #12]
	const uint32_t btnDelay = 20;
 8001aa2:	2314      	movs	r3, #20
 8001aa4:	60bb      	str	r3, [r7, #8]
	while (1)
	{
#ifdef KeyRight_Pin
		if (HAL_GPIO_ReadPin(KeyRight_GPIO_Port, KeyRight_Pin) == GPIO_PIN_RESET)
 8001aa6:	2110      	movs	r1, #16
 8001aa8:	482e      	ldr	r0, [pc, #184]	; (8001b64 <ScanPressedKey+0xd0>)
 8001aaa:	f003 fc17 	bl	80052dc <HAL_GPIO_ReadPin>
 8001aae:	4603      	mov	r3, r0
 8001ab0:	2b00      	cmp	r3, #0
 8001ab2:	d10b      	bne.n	8001acc <ScanPressedKey+0x38>
		{
			HAL_Delay(btnDelay);
 8001ab4:	68b8      	ldr	r0, [r7, #8]
 8001ab6:	f003 f93f 	bl	8004d38 <HAL_Delay>
			if (HAL_GPIO_ReadPin(KeyRight_GPIO_Port, KeyRight_Pin) == GPIO_PIN_RESET)
 8001aba:	2110      	movs	r1, #16
 8001abc:	4829      	ldr	r0, [pc, #164]	; (8001b64 <ScanPressedKey+0xd0>)
 8001abe:	f003 fc0d 	bl	80052dc <HAL_GPIO_ReadPin>
 8001ac2:	4603      	mov	r3, r0
 8001ac4:	2b00      	cmp	r3, #0
 8001ac6:	d101      	bne.n	8001acc <ScanPressedKey+0x38>
				return KEY_RIGHT;
 8001ac8:	2302      	movs	r3, #2
 8001aca:	e046      	b.n	8001b5a <ScanPressedKey+0xc6>
		}
#endif
#ifdef KeyDown_Pin
		if (HAL_GPIO_ReadPin(KeyDown_GPIO_Port, KeyDown_Pin) == GPIO_PIN_RESET)
 8001acc:	2108      	movs	r1, #8
 8001ace:	4825      	ldr	r0, [pc, #148]	; (8001b64 <ScanPressedKey+0xd0>)
 8001ad0:	f003 fc04 	bl	80052dc <HAL_GPIO_ReadPin>
 8001ad4:	4603      	mov	r3, r0
 8001ad6:	2b00      	cmp	r3, #0
 8001ad8:	d10b      	bne.n	8001af2 <ScanPressedKey+0x5e>
		{
			HAL_Delay(btnDelay);
 8001ada:	68b8      	ldr	r0, [r7, #8]
 8001adc:	f003 f92c 	bl	8004d38 <HAL_Delay>
			if (HAL_GPIO_ReadPin(KeyDown_GPIO_Port, KeyDown_Pin) == GPIO_PIN_RESET)
 8001ae0:	2108      	movs	r1, #8
 8001ae2:	4820      	ldr	r0, [pc, #128]	; (8001b64 <ScanPressedKey+0xd0>)
 8001ae4:	f003 fbfa 	bl	80052dc <HAL_GPIO_ReadPin>
 8001ae8:	4603      	mov	r3, r0
 8001aea:	2b00      	cmp	r3, #0
 8001aec:	d101      	bne.n	8001af2 <ScanPressedKey+0x5e>
				return KEY_DOWN;
 8001aee:	2304      	movs	r3, #4
 8001af0:	e033      	b.n	8001b5a <ScanPressedKey+0xc6>
		}
#endif
#ifdef KeyLeft_Pin
		if (HAL_GPIO_ReadPin(KeyLeft_GPIO_Port, KeyLeft_Pin) == GPIO_PIN_RESET)
 8001af2:	2104      	movs	r1, #4
 8001af4:	481b      	ldr	r0, [pc, #108]	; (8001b64 <ScanPressedKey+0xd0>)
 8001af6:	f003 fbf1 	bl	80052dc <HAL_GPIO_ReadPin>
 8001afa:	4603      	mov	r3, r0
 8001afc:	2b00      	cmp	r3, #0
 8001afe:	d10b      	bne.n	8001b18 <ScanPressedKey+0x84>
		{
			HAL_Delay(btnDelay);
 8001b00:	68b8      	ldr	r0, [r7, #8]
 8001b02:	f003 f919 	bl	8004d38 <HAL_Delay>
			if (HAL_GPIO_ReadPin(KeyLeft_GPIO_Port, KeyLeft_Pin) == GPIO_PIN_RESET)
 8001b06:	2104      	movs	r1, #4
 8001b08:	4816      	ldr	r0, [pc, #88]	; (8001b64 <ScanPressedKey+0xd0>)
 8001b0a:	f003 fbe7 	bl	80052dc <HAL_GPIO_ReadPin>
 8001b0e:	4603      	mov	r3, r0
 8001b10:	2b00      	cmp	r3, #0
 8001b12:	d101      	bne.n	8001b18 <ScanPressedKey+0x84>
				return KEY_LEFT;
 8001b14:	2301      	movs	r3, #1
 8001b16:	e020      	b.n	8001b5a <ScanPressedKey+0xc6>
		}
#endif
#ifdef KeyUp_Pin
		if (HAL_GPIO_ReadPin(KeyUp_GPIO_Port, KeyUp_Pin) == GPIO_PIN_SET)
 8001b18:	2101      	movs	r1, #1
 8001b1a:	4813      	ldr	r0, [pc, #76]	; (8001b68 <ScanPressedKey+0xd4>)
 8001b1c:	f003 fbde 	bl	80052dc <HAL_GPIO_ReadPin>
 8001b20:	4603      	mov	r3, r0
 8001b22:	2b01      	cmp	r3, #1
 8001b24:	d10b      	bne.n	8001b3e <ScanPressedKey+0xaa>
		{
			HAL_Delay(btnDelay);
 8001b26:	68b8      	ldr	r0, [r7, #8]
 8001b28:	f003 f906 	bl	8004d38 <HAL_Delay>
			if (HAL_GPIO_ReadPin(KeyUp_GPIO_Port, KeyUp_Pin) == GPIO_PIN_SET)
 8001b2c:	2101      	movs	r1, #1
 8001b2e:	480e      	ldr	r0, [pc, #56]	; (8001b68 <ScanPressedKey+0xd4>)
 8001b30:	f003 fbd4 	bl	80052dc <HAL_GPIO_ReadPin>
 8001b34:	4603      	mov	r3, r0
 8001b36:	2b01      	cmp	r3, #1
 8001b38:	d101      	bne.n	8001b3e <ScanPressedKey+0xaa>
				return KEY_UP;
 8001b3a:	2303      	movs	r3, #3
 8001b3c:	e00d      	b.n	8001b5a <ScanPressedKey+0xc6>
		}
#endif
		if (timeout != KEY_WAIT_ALWAYS) {
 8001b3e:	687b      	ldr	r3, [r7, #4]
 8001b40:	2b00      	cmp	r3, #0
 8001b42:	d0b0      	beq.n	8001aa6 <ScanPressedKey+0x12>
			if ((HAL_GetTick() - tickstart) > timeout)
 8001b44:	f003 f8ec 	bl	8004d20 <HAL_GetTick>
 8001b48:	4602      	mov	r2, r0
 8001b4a:	68fb      	ldr	r3, [r7, #12]
 8001b4c:	1ad3      	subs	r3, r2, r3
 8001b4e:	687a      	ldr	r2, [r7, #4]
 8001b50:	429a      	cmp	r2, r3
 8001b52:	d300      	bcc.n	8001b56 <ScanPressedKey+0xc2>
		if (HAL_GPIO_ReadPin(KeyRight_GPIO_Port, KeyRight_Pin) == GPIO_PIN_RESET)
 8001b54:	e7a7      	b.n	8001aa6 <ScanPressedKey+0x12>
				break;
 8001b56:	bf00      	nop
		}
	}
	return KEY_NONE;
 8001b58:	2300      	movs	r3, #0
}
 8001b5a:	4618      	mov	r0, r3
 8001b5c:	3710      	adds	r7, #16
 8001b5e:	46bd      	mov	sp, r7
 8001b60:	bd80      	pop	{r7, pc}
 8001b62:	bf00      	nop
 8001b64:	40021000 	.word	0x40021000
 8001b68:	40020000 	.word	0x40020000

08001b6c <lcd_wr_data>:
 * @brief       LCD写数据
 * @param       data: 要写入的数据
 * @retval      无
 */
void lcd_wr_data(volatile uint16_t data)
{
 8001b6c:	b480      	push	{r7}
 8001b6e:	b083      	sub	sp, #12
 8001b70:	af00      	add	r7, sp, #0
 8001b72:	4603      	mov	r3, r0
 8001b74:	80fb      	strh	r3, [r7, #6]
    data = data;            /* 使用-O2优化的时候,必须插入的延时 */
 8001b76:	88fb      	ldrh	r3, [r7, #6]
 8001b78:	b29b      	uxth	r3, r3
 8001b7a:	80fb      	strh	r3, [r7, #6]
    LCD->LCD_RAM = data;
 8001b7c:	4b04      	ldr	r3, [pc, #16]	; (8001b90 <lcd_wr_data+0x24>)
 8001b7e:	88fa      	ldrh	r2, [r7, #6]
 8001b80:	b292      	uxth	r2, r2
 8001b82:	805a      	strh	r2, [r3, #2]
}
 8001b84:	bf00      	nop
 8001b86:	370c      	adds	r7, #12
 8001b88:	46bd      	mov	sp, r7
 8001b8a:	f85d 7b04 	ldr.w	r7, [sp], #4
 8001b8e:	4770      	bx	lr
 8001b90:	6c00007e 	.word	0x6c00007e

08001b94 <lcd_wr_regno>:
 * @brief       LCD写寄存器编号/地址函数
 * @param       regno: 寄存器编号/地址
 * @retval      无
 */
void lcd_wr_regno(volatile uint16_t regno)
{
 8001b94:	b480      	push	{r7}
 8001b96:	b083      	sub	sp, #12
 8001b98:	af00      	add	r7, sp, #0
 8001b9a:	4603      	mov	r3, r0
 8001b9c:	80fb      	strh	r3, [r7, #6]
    regno = regno;          /* 使用-O2优化的时候,必须插入的延时 */
 8001b9e:	88fb      	ldrh	r3, [r7, #6]
 8001ba0:	b29b      	uxth	r3, r3
 8001ba2:	80fb      	strh	r3, [r7, #6]
    LCD->LCD_REG = regno;   /* 写入要写的寄存器序号 */
 8001ba4:	4b04      	ldr	r3, [pc, #16]	; (8001bb8 <lcd_wr_regno+0x24>)
 8001ba6:	88fa      	ldrh	r2, [r7, #6]
 8001ba8:	b292      	uxth	r2, r2
 8001baa:	801a      	strh	r2, [r3, #0]
}
 8001bac:	bf00      	nop
 8001bae:	370c      	adds	r7, #12
 8001bb0:	46bd      	mov	sp, r7
 8001bb2:	f85d 7b04 	ldr.w	r7, [sp], #4
 8001bb6:	4770      	bx	lr
 8001bb8:	6c00007e 	.word	0x6c00007e

08001bbc <lcd_write_reg>:
 * @param       regno:寄存器编号/地址
 * @param       data:要写入的数据
 * @retval      无
 */
void lcd_write_reg(uint16_t regno, uint16_t data)
{
 8001bbc:	b480      	push	{r7}
 8001bbe:	b083      	sub	sp, #12
 8001bc0:	af00      	add	r7, sp, #0
 8001bc2:	4603      	mov	r3, r0
 8001bc4:	460a      	mov	r2, r1
 8001bc6:	80fb      	strh	r3, [r7, #6]
 8001bc8:	4613      	mov	r3, r2
 8001bca:	80bb      	strh	r3, [r7, #4]
    LCD->LCD_REG = regno;   /* 写入要写的寄存器序号 */
 8001bcc:	4a05      	ldr	r2, [pc, #20]	; (8001be4 <lcd_write_reg+0x28>)
 8001bce:	88fb      	ldrh	r3, [r7, #6]
 8001bd0:	8013      	strh	r3, [r2, #0]
    LCD->LCD_RAM = data;    /* 写入数据 */
 8001bd2:	4a04      	ldr	r2, [pc, #16]	; (8001be4 <lcd_write_reg+0x28>)
 8001bd4:	88bb      	ldrh	r3, [r7, #4]
 8001bd6:	8053      	strh	r3, [r2, #2]
}
 8001bd8:	bf00      	nop
 8001bda:	370c      	adds	r7, #12
 8001bdc:	46bd      	mov	sp, r7
 8001bde:	f85d 7b04 	ldr.w	r7, [sp], #4
 8001be2:	4770      	bx	lr
 8001be4:	6c00007e 	.word	0x6c00007e

08001be8 <lcd_rd_data>:
 * @brief       LCD读数据
 * @param       无
 * @retval      读取到的数据
 */
static uint16_t lcd_rd_data(void)
{
 8001be8:	b480      	push	{r7}
 8001bea:	b083      	sub	sp, #12
 8001bec:	af00      	add	r7, sp, #0
    volatile uint16_t ram;  /* 防止被优化 */
    ram = LCD->LCD_RAM;
 8001bee:	4b06      	ldr	r3, [pc, #24]	; (8001c08 <lcd_rd_data+0x20>)
 8001bf0:	885b      	ldrh	r3, [r3, #2]
 8001bf2:	b29b      	uxth	r3, r3
 8001bf4:	80fb      	strh	r3, [r7, #6]
    return ram;
 8001bf6:	88fb      	ldrh	r3, [r7, #6]
 8001bf8:	b29b      	uxth	r3, r3
}
 8001bfa:	4618      	mov	r0, r3
 8001bfc:	370c      	adds	r7, #12
 8001bfe:	46bd      	mov	sp, r7
 8001c00:	f85d 7b04 	ldr.w	r7, [sp], #4
 8001c04:	4770      	bx	lr
 8001c06:	bf00      	nop
 8001c08:	6c00007e 	.word	0x6c00007e

08001c0c <lcd_write_ram_prepare>:
 * @brief       准备写GRAM
 * @param       无
 * @retval      无
 */
void lcd_write_ram_prepare(void)
{
 8001c0c:	b480      	push	{r7}
 8001c0e:	af00      	add	r7, sp, #0
    LCD->LCD_REG = lcddev.wramcmd;
 8001c10:	4b04      	ldr	r3, [pc, #16]	; (8001c24 <lcd_write_ram_prepare+0x18>)
 8001c12:	4a05      	ldr	r2, [pc, #20]	; (8001c28 <lcd_write_ram_prepare+0x1c>)
 8001c14:	8912      	ldrh	r2, [r2, #8]
 8001c16:	801a      	strh	r2, [r3, #0]
}
 8001c18:	bf00      	nop
 8001c1a:	46bd      	mov	sp, r7
 8001c1c:	f85d 7b04 	ldr.w	r7, [sp], #4
 8001c20:	4770      	bx	lr
 8001c22:	bf00      	nop
 8001c24:	6c00007e 	.word	0x6c00007e
 8001c28:	200002f4 	.word	0x200002f4

08001c2c <lcd_set_cursor>:
 * @brief       设置光标位置(对RGB屏无效)
 * @param       x,y: 坐标
 * @retval      无
 */
void lcd_set_cursor(uint16_t x, uint16_t y)
{
 8001c2c:	b580      	push	{r7, lr}
 8001c2e:	b082      	sub	sp, #8
 8001c30:	af00      	add	r7, sp, #0
 8001c32:	4603      	mov	r3, r0
 8001c34:	460a      	mov	r2, r1
 8001c36:	80fb      	strh	r3, [r7, #6]
 8001c38:	4613      	mov	r3, r2
 8001c3a:	80bb      	strh	r3, [r7, #4]
    if (lcddev.id == 0x1963)
 8001c3c:	4b65      	ldr	r3, [pc, #404]	; (8001dd4 <lcd_set_cursor+0x1a8>)
 8001c3e:	889b      	ldrh	r3, [r3, #4]
 8001c40:	f641 1263 	movw	r2, #6499	; 0x1963
 8001c44:	4293      	cmp	r3, r2
 8001c46:	d167      	bne.n	8001d18 <lcd_set_cursor+0xec>
    {
        if (lcddev.dir == 0)    /* 竖屏模式, x坐标需要变换 */
 8001c48:	4b62      	ldr	r3, [pc, #392]	; (8001dd4 <lcd_set_cursor+0x1a8>)
 8001c4a:	799b      	ldrb	r3, [r3, #6]
 8001c4c:	2b00      	cmp	r3, #0
 8001c4e:	d11e      	bne.n	8001c8e <lcd_set_cursor+0x62>
        {
            x = lcddev.width - 1 - x;
 8001c50:	4b60      	ldr	r3, [pc, #384]	; (8001dd4 <lcd_set_cursor+0x1a8>)
 8001c52:	881a      	ldrh	r2, [r3, #0]
 8001c54:	88fb      	ldrh	r3, [r7, #6]
 8001c56:	1ad3      	subs	r3, r2, r3
 8001c58:	b29b      	uxth	r3, r3
 8001c5a:	3b01      	subs	r3, #1
 8001c5c:	80fb      	strh	r3, [r7, #6]
            lcd_wr_regno(lcddev.setxcmd);
 8001c5e:	4b5d      	ldr	r3, [pc, #372]	; (8001dd4 <lcd_set_cursor+0x1a8>)
 8001c60:	895b      	ldrh	r3, [r3, #10]
 8001c62:	4618      	mov	r0, r3
 8001c64:	f7ff ff96 	bl	8001b94 <lcd_wr_regno>
            lcd_wr_data(0);
 8001c68:	2000      	movs	r0, #0
 8001c6a:	f7ff ff7f 	bl	8001b6c <lcd_wr_data>
            lcd_wr_data(0);
 8001c6e:	2000      	movs	r0, #0
 8001c70:	f7ff ff7c 	bl	8001b6c <lcd_wr_data>
            lcd_wr_data(x >> 8);
 8001c74:	88fb      	ldrh	r3, [r7, #6]
 8001c76:	0a1b      	lsrs	r3, r3, #8
 8001c78:	b29b      	uxth	r3, r3
 8001c7a:	4618      	mov	r0, r3
 8001c7c:	f7ff ff76 	bl	8001b6c <lcd_wr_data>
            lcd_wr_data(x & 0xFF);
 8001c80:	88fb      	ldrh	r3, [r7, #6]
 8001c82:	b2db      	uxtb	r3, r3
 8001c84:	b29b      	uxth	r3, r3
 8001c86:	4618      	mov	r0, r3
 8001c88:	f7ff ff70 	bl	8001b6c <lcd_wr_data>
 8001c8c:	e021      	b.n	8001cd2 <lcd_set_cursor+0xa6>
        }
        else                    /* 横屏模式 */
        {
            lcd_wr_regno(lcddev.setxcmd);
 8001c8e:	4b51      	ldr	r3, [pc, #324]	; (8001dd4 <lcd_set_cursor+0x1a8>)
 8001c90:	895b      	ldrh	r3, [r3, #10]
 8001c92:	4618      	mov	r0, r3
 8001c94:	f7ff ff7e 	bl	8001b94 <lcd_wr_regno>
            lcd_wr_data(x >> 8);
 8001c98:	88fb      	ldrh	r3, [r7, #6]
 8001c9a:	0a1b      	lsrs	r3, r3, #8
 8001c9c:	b29b      	uxth	r3, r3
 8001c9e:	4618      	mov	r0, r3
 8001ca0:	f7ff ff64 	bl	8001b6c <lcd_wr_data>
            lcd_wr_data(x & 0xFF);
 8001ca4:	88fb      	ldrh	r3, [r7, #6]
 8001ca6:	b2db      	uxtb	r3, r3
 8001ca8:	b29b      	uxth	r3, r3
 8001caa:	4618      	mov	r0, r3
 8001cac:	f7ff ff5e 	bl	8001b6c <lcd_wr_data>
            lcd_wr_data((lcddev.width - 1) >> 8);
 8001cb0:	4b48      	ldr	r3, [pc, #288]	; (8001dd4 <lcd_set_cursor+0x1a8>)
 8001cb2:	881b      	ldrh	r3, [r3, #0]
 8001cb4:	3b01      	subs	r3, #1
 8001cb6:	121b      	asrs	r3, r3, #8
 8001cb8:	b29b      	uxth	r3, r3
 8001cba:	4618      	mov	r0, r3
 8001cbc:	f7ff ff56 	bl	8001b6c <lcd_wr_data>
            lcd_wr_data((lcddev.width - 1) & 0xFF);
 8001cc0:	4b44      	ldr	r3, [pc, #272]	; (8001dd4 <lcd_set_cursor+0x1a8>)
 8001cc2:	881b      	ldrh	r3, [r3, #0]
 8001cc4:	3b01      	subs	r3, #1
 8001cc6:	b29b      	uxth	r3, r3
 8001cc8:	b2db      	uxtb	r3, r3
 8001cca:	b29b      	uxth	r3, r3
 8001ccc:	4618      	mov	r0, r3
 8001cce:	f7ff ff4d 	bl	8001b6c <lcd_wr_data>
        }

        lcd_wr_regno(lcddev.setycmd);
 8001cd2:	4b40      	ldr	r3, [pc, #256]	; (8001dd4 <lcd_set_cursor+0x1a8>)
 8001cd4:	899b      	ldrh	r3, [r3, #12]
 8001cd6:	4618      	mov	r0, r3
 8001cd8:	f7ff ff5c 	bl	8001b94 <lcd_wr_regno>
        lcd_wr_data(y >> 8);
 8001cdc:	88bb      	ldrh	r3, [r7, #4]
 8001cde:	0a1b      	lsrs	r3, r3, #8
 8001ce0:	b29b      	uxth	r3, r3
 8001ce2:	4618      	mov	r0, r3
 8001ce4:	f7ff ff42 	bl	8001b6c <lcd_wr_data>
        lcd_wr_data(y & 0xFF);
 8001ce8:	88bb      	ldrh	r3, [r7, #4]
 8001cea:	b2db      	uxtb	r3, r3
 8001cec:	b29b      	uxth	r3, r3
 8001cee:	4618      	mov	r0, r3
 8001cf0:	f7ff ff3c 	bl	8001b6c <lcd_wr_data>
        lcd_wr_data((lcddev.height - 1) >> 8);
 8001cf4:	4b37      	ldr	r3, [pc, #220]	; (8001dd4 <lcd_set_cursor+0x1a8>)
 8001cf6:	885b      	ldrh	r3, [r3, #2]
 8001cf8:	3b01      	subs	r3, #1
 8001cfa:	121b      	asrs	r3, r3, #8
 8001cfc:	b29b      	uxth	r3, r3
 8001cfe:	4618      	mov	r0, r3
 8001d00:	f7ff ff34 	bl	8001b6c <lcd_wr_data>
        lcd_wr_data((lcddev.height - 1) & 0xFF);
 8001d04:	4b33      	ldr	r3, [pc, #204]	; (8001dd4 <lcd_set_cursor+0x1a8>)
 8001d06:	885b      	ldrh	r3, [r3, #2]
 8001d08:	3b01      	subs	r3, #1
 8001d0a:	b29b      	uxth	r3, r3
 8001d0c:	b2db      	uxtb	r3, r3
 8001d0e:	b29b      	uxth	r3, r3
 8001d10:	4618      	mov	r0, r3
 8001d12:	f7ff ff2b 	bl	8001b6c <lcd_wr_data>
        lcd_wr_data(x & 0xFF);
        lcd_wr_regno(lcddev.setycmd);
        lcd_wr_data(y >> 8);
        lcd_wr_data(y & 0xFF);
    }
}
 8001d16:	e058      	b.n	8001dca <lcd_set_cursor+0x19e>
    else if (lcddev.id == 0x5510)
 8001d18:	4b2e      	ldr	r3, [pc, #184]	; (8001dd4 <lcd_set_cursor+0x1a8>)
 8001d1a:	889b      	ldrh	r3, [r3, #4]
 8001d1c:	f245 5210 	movw	r2, #21776	; 0x5510
 8001d20:	4293      	cmp	r3, r2
 8001d22:	d130      	bne.n	8001d86 <lcd_set_cursor+0x15a>
        lcd_wr_regno(lcddev.setxcmd);
 8001d24:	4b2b      	ldr	r3, [pc, #172]	; (8001dd4 <lcd_set_cursor+0x1a8>)
 8001d26:	895b      	ldrh	r3, [r3, #10]
 8001d28:	4618      	mov	r0, r3
 8001d2a:	f7ff ff33 	bl	8001b94 <lcd_wr_regno>
        lcd_wr_data(x >> 8);
 8001d2e:	88fb      	ldrh	r3, [r7, #6]
 8001d30:	0a1b      	lsrs	r3, r3, #8
 8001d32:	b29b      	uxth	r3, r3
 8001d34:	4618      	mov	r0, r3
 8001d36:	f7ff ff19 	bl	8001b6c <lcd_wr_data>
        lcd_wr_regno(lcddev.setxcmd + 1);
 8001d3a:	4b26      	ldr	r3, [pc, #152]	; (8001dd4 <lcd_set_cursor+0x1a8>)
 8001d3c:	895b      	ldrh	r3, [r3, #10]
 8001d3e:	3301      	adds	r3, #1
 8001d40:	b29b      	uxth	r3, r3
 8001d42:	4618      	mov	r0, r3
 8001d44:	f7ff ff26 	bl	8001b94 <lcd_wr_regno>
        lcd_wr_data(x & 0xFF);
 8001d48:	88fb      	ldrh	r3, [r7, #6]
 8001d4a:	b2db      	uxtb	r3, r3
 8001d4c:	b29b      	uxth	r3, r3
 8001d4e:	4618      	mov	r0, r3
 8001d50:	f7ff ff0c 	bl	8001b6c <lcd_wr_data>
        lcd_wr_regno(lcddev.setycmd);
 8001d54:	4b1f      	ldr	r3, [pc, #124]	; (8001dd4 <lcd_set_cursor+0x1a8>)
 8001d56:	899b      	ldrh	r3, [r3, #12]
 8001d58:	4618      	mov	r0, r3
 8001d5a:	f7ff ff1b 	bl	8001b94 <lcd_wr_regno>
        lcd_wr_data(y >> 8);
 8001d5e:	88bb      	ldrh	r3, [r7, #4]
 8001d60:	0a1b      	lsrs	r3, r3, #8
 8001d62:	b29b      	uxth	r3, r3
 8001d64:	4618      	mov	r0, r3
 8001d66:	f7ff ff01 	bl	8001b6c <lcd_wr_data>
        lcd_wr_regno(lcddev.setycmd + 1);
 8001d6a:	4b1a      	ldr	r3, [pc, #104]	; (8001dd4 <lcd_set_cursor+0x1a8>)
 8001d6c:	899b      	ldrh	r3, [r3, #12]
 8001d6e:	3301      	adds	r3, #1
 8001d70:	b29b      	uxth	r3, r3
 8001d72:	4618      	mov	r0, r3
 8001d74:	f7ff ff0e 	bl	8001b94 <lcd_wr_regno>
        lcd_wr_data(y & 0xFF);
 8001d78:	88bb      	ldrh	r3, [r7, #4]
 8001d7a:	b2db      	uxtb	r3, r3
 8001d7c:	b29b      	uxth	r3, r3
 8001d7e:	4618      	mov	r0, r3
 8001d80:	f7ff fef4 	bl	8001b6c <lcd_wr_data>
}
 8001d84:	e021      	b.n	8001dca <lcd_set_cursor+0x19e>
        lcd_wr_regno(lcddev.setxcmd);
 8001d86:	4b13      	ldr	r3, [pc, #76]	; (8001dd4 <lcd_set_cursor+0x1a8>)
 8001d88:	895b      	ldrh	r3, [r3, #10]
 8001d8a:	4618      	mov	r0, r3
 8001d8c:	f7ff ff02 	bl	8001b94 <lcd_wr_regno>
        lcd_wr_data(x >> 8);
 8001d90:	88fb      	ldrh	r3, [r7, #6]
 8001d92:	0a1b      	lsrs	r3, r3, #8
 8001d94:	b29b      	uxth	r3, r3
 8001d96:	4618      	mov	r0, r3
 8001d98:	f7ff fee8 	bl	8001b6c <lcd_wr_data>
        lcd_wr_data(x & 0xFF);
 8001d9c:	88fb      	ldrh	r3, [r7, #6]
 8001d9e:	b2db      	uxtb	r3, r3
 8001da0:	b29b      	uxth	r3, r3
 8001da2:	4618      	mov	r0, r3
 8001da4:	f7ff fee2 	bl	8001b6c <lcd_wr_data>
        lcd_wr_regno(lcddev.setycmd);
 8001da8:	4b0a      	ldr	r3, [pc, #40]	; (8001dd4 <lcd_set_cursor+0x1a8>)
 8001daa:	899b      	ldrh	r3, [r3, #12]
 8001dac:	4618      	mov	r0, r3
 8001dae:	f7ff fef1 	bl	8001b94 <lcd_wr_regno>
        lcd_wr_data(y >> 8);
 8001db2:	88bb      	ldrh	r3, [r7, #4]
 8001db4:	0a1b      	lsrs	r3, r3, #8
 8001db6:	b29b      	uxth	r3, r3
 8001db8:	4618      	mov	r0, r3
 8001dba:	f7ff fed7 	bl	8001b6c <lcd_wr_data>
        lcd_wr_data(y & 0xFF);
 8001dbe:	88bb      	ldrh	r3, [r7, #4]
 8001dc0:	b2db      	uxtb	r3, r3
 8001dc2:	b29b      	uxth	r3, r3
 8001dc4:	4618      	mov	r0, r3
 8001dc6:	f7ff fed1 	bl	8001b6c <lcd_wr_data>
}
 8001dca:	bf00      	nop
 8001dcc:	3708      	adds	r7, #8
 8001dce:	46bd      	mov	sp, r7
 8001dd0:	bd80      	pop	{r7, pc}
 8001dd2:	bf00      	nop
 8001dd4:	200002f4 	.word	0x200002f4

08001dd8 <lcd_scan_dir>:
 *
 * @param       dir:0~7,代表8个方向(具体定义见lcd.h)
 * @retval      无
 */
void lcd_scan_dir(uint8_t dir)
{
 8001dd8:	b580      	push	{r7, lr}
 8001dda:	b084      	sub	sp, #16
 8001ddc:	af00      	add	r7, sp, #0
 8001dde:	4603      	mov	r3, r0
 8001de0:	71fb      	strb	r3, [r7, #7]
    uint16_t regval = 0;
 8001de2:	2300      	movs	r3, #0
 8001de4:	81fb      	strh	r3, [r7, #14]
    uint16_t dirreg = 0;
 8001de6:	2300      	movs	r3, #0
 8001de8:	81bb      	strh	r3, [r7, #12]
    uint16_t temp;

    /* 横屏时，对1963不改变扫描方向！竖屏时1963改变方向(这里仅用于1963的特殊处理,对其他驱动IC无效) */
    if ((lcddev.dir == 1 && lcddev.id != 0x1963) || (lcddev.dir == 0 && lcddev.id == 0x1963))
 8001dea:	4b9a      	ldr	r3, [pc, #616]	; (8002054 <lcd_scan_dir+0x27c>)
 8001dec:	799b      	ldrb	r3, [r3, #6]
 8001dee:	2b01      	cmp	r3, #1
 8001df0:	d105      	bne.n	8001dfe <lcd_scan_dir+0x26>
 8001df2:	4b98      	ldr	r3, [pc, #608]	; (8002054 <lcd_scan_dir+0x27c>)
 8001df4:	889b      	ldrh	r3, [r3, #4]
 8001df6:	f641 1263 	movw	r2, #6499	; 0x1963
 8001dfa:	4293      	cmp	r3, r2
 8001dfc:	d109      	bne.n	8001e12 <lcd_scan_dir+0x3a>
 8001dfe:	4b95      	ldr	r3, [pc, #596]	; (8002054 <lcd_scan_dir+0x27c>)
 8001e00:	799b      	ldrb	r3, [r3, #6]
 8001e02:	2b00      	cmp	r3, #0
 8001e04:	d134      	bne.n	8001e70 <lcd_scan_dir+0x98>
 8001e06:	4b93      	ldr	r3, [pc, #588]	; (8002054 <lcd_scan_dir+0x27c>)
 8001e08:	889b      	ldrh	r3, [r3, #4]
 8001e0a:	f641 1263 	movw	r2, #6499	; 0x1963
 8001e0e:	4293      	cmp	r3, r2
 8001e10:	d12e      	bne.n	8001e70 <lcd_scan_dir+0x98>
    {
        switch (dir)   /* 方向转换 */
 8001e12:	79fb      	ldrb	r3, [r7, #7]
 8001e14:	2b07      	cmp	r3, #7
 8001e16:	d82c      	bhi.n	8001e72 <lcd_scan_dir+0x9a>
 8001e18:	a201      	add	r2, pc, #4	; (adr r2, 8001e20 <lcd_scan_dir+0x48>)
 8001e1a:	f852 f023 	ldr.w	pc, [r2, r3, lsl #2]
 8001e1e:	bf00      	nop
 8001e20:	08001e41 	.word	0x08001e41
 8001e24:	08001e47 	.word	0x08001e47
 8001e28:	08001e4d 	.word	0x08001e4d
 8001e2c:	08001e53 	.word	0x08001e53
 8001e30:	08001e59 	.word	0x08001e59
 8001e34:	08001e5f 	.word	0x08001e5f
 8001e38:	08001e65 	.word	0x08001e65
 8001e3c:	08001e6b 	.word	0x08001e6b
        {
            case 0:
                dir = 6;
 8001e40:	2306      	movs	r3, #6
 8001e42:	71fb      	strb	r3, [r7, #7]
                break;
 8001e44:	e015      	b.n	8001e72 <lcd_scan_dir+0x9a>

            case 1:
                dir = 7;
 8001e46:	2307      	movs	r3, #7
 8001e48:	71fb      	strb	r3, [r7, #7]
                break;
 8001e4a:	e012      	b.n	8001e72 <lcd_scan_dir+0x9a>

            case 2:
                dir = 4;
 8001e4c:	2304      	movs	r3, #4
 8001e4e:	71fb      	strb	r3, [r7, #7]
                break;
 8001e50:	e00f      	b.n	8001e72 <lcd_scan_dir+0x9a>

            case 3:
                dir = 5;
 8001e52:	2305      	movs	r3, #5
 8001e54:	71fb      	strb	r3, [r7, #7]
                break;
 8001e56:	e00c      	b.n	8001e72 <lcd_scan_dir+0x9a>

            case 4:
                dir = 1;
 8001e58:	2301      	movs	r3, #1
 8001e5a:	71fb      	strb	r3, [r7, #7]
                break;
 8001e5c:	e009      	b.n	8001e72 <lcd_scan_dir+0x9a>

            case 5:
                dir = 0;
 8001e5e:	2300      	movs	r3, #0
 8001e60:	71fb      	strb	r3, [r7, #7]
                break;
 8001e62:	e006      	b.n	8001e72 <lcd_scan_dir+0x9a>

            case 6:
                dir = 3;
 8001e64:	2303      	movs	r3, #3
 8001e66:	71fb      	strb	r3, [r7, #7]
                break;
 8001e68:	e003      	b.n	8001e72 <lcd_scan_dir+0x9a>

            case 7:
                dir = 2;
 8001e6a:	2302      	movs	r3, #2
 8001e6c:	71fb      	strb	r3, [r7, #7]
                break;
 8001e6e:	e000      	b.n	8001e72 <lcd_scan_dir+0x9a>
        }
    }
 8001e70:	bf00      	nop


    /* 根据扫描方式 设置 0x36/0x3600 寄存器 bit 5,6,7 位的值 */
    switch (dir)
 8001e72:	79fb      	ldrb	r3, [r7, #7]
 8001e74:	2b07      	cmp	r3, #7
 8001e76:	d836      	bhi.n	8001ee6 <lcd_scan_dir+0x10e>
 8001e78:	a201      	add	r2, pc, #4	; (adr r2, 8001e80 <lcd_scan_dir+0xa8>)
 8001e7a:	f852 f023 	ldr.w	pc, [r2, r3, lsl #2]
 8001e7e:	bf00      	nop
 8001e80:	08001ee7 	.word	0x08001ee7
 8001e84:	08001ea1 	.word	0x08001ea1
 8001e88:	08001eab 	.word	0x08001eab
 8001e8c:	08001eb5 	.word	0x08001eb5
 8001e90:	08001ebf 	.word	0x08001ebf
 8001e94:	08001ec9 	.word	0x08001ec9
 8001e98:	08001ed3 	.word	0x08001ed3
 8001e9c:	08001edd 	.word	0x08001edd
        case L2R_U2D:/* 从左到右,从上到下 */
            regval |= (0 << 7) | (0 << 6) | (0 << 5);
            break;

        case L2R_D2U:/* 从左到右,从下到上 */
            regval |= (1 << 7) | (0 << 6) | (0 << 5);
 8001ea0:	89fb      	ldrh	r3, [r7, #14]
 8001ea2:	f043 0380 	orr.w	r3, r3, #128	; 0x80
 8001ea6:	81fb      	strh	r3, [r7, #14]
            break;
 8001ea8:	e01d      	b.n	8001ee6 <lcd_scan_dir+0x10e>

        case R2L_U2D:/* 从右到左,从上到下 */
            regval |= (0 << 7) | (1 << 6) | (0 << 5);
 8001eaa:	89fb      	ldrh	r3, [r7, #14]
 8001eac:	f043 0340 	orr.w	r3, r3, #64	; 0x40
 8001eb0:	81fb      	strh	r3, [r7, #14]
            break;
 8001eb2:	e018      	b.n	8001ee6 <lcd_scan_dir+0x10e>

        case R2L_D2U:/* 从右到左,从下到上 */
            regval |= (1 << 7) | (1 << 6) | (0 << 5);
 8001eb4:	89fb      	ldrh	r3, [r7, #14]
 8001eb6:	f043 03c0 	orr.w	r3, r3, #192	; 0xc0
 8001eba:	81fb      	strh	r3, [r7, #14]
            break;
 8001ebc:	e013      	b.n	8001ee6 <lcd_scan_dir+0x10e>

        case U2D_L2R:/* 从上到下,从左到右 */
            regval |= (0 << 7) | (0 << 6) | (1 << 5);
 8001ebe:	89fb      	ldrh	r3, [r7, #14]
 8001ec0:	f043 0320 	orr.w	r3, r3, #32
 8001ec4:	81fb      	strh	r3, [r7, #14]
            break;
 8001ec6:	e00e      	b.n	8001ee6 <lcd_scan_dir+0x10e>

        case U2D_R2L:/* 从上到下,从右到左 */
            regval |= (0 << 7) | (1 << 6) | (1 << 5);
 8001ec8:	89fb      	ldrh	r3, [r7, #14]
 8001eca:	f043 0360 	orr.w	r3, r3, #96	; 0x60
 8001ece:	81fb      	strh	r3, [r7, #14]
            break;
 8001ed0:	e009      	b.n	8001ee6 <lcd_scan_dir+0x10e>

        case D2U_L2R:/* 从下到上,从左到右 */
            regval |= (1 << 7) | (0 << 6) | (1 << 5);
 8001ed2:	89fb      	ldrh	r3, [r7, #14]
 8001ed4:	f043 03a0 	orr.w	r3, r3, #160	; 0xa0
 8001ed8:	81fb      	strh	r3, [r7, #14]
            break;
 8001eda:	e004      	b.n	8001ee6 <lcd_scan_dir+0x10e>

        case D2U_R2L:/* 从下到上,从右到左 */
            regval |= (1 << 7) | (1 << 6) | (1 << 5);
 8001edc:	89fb      	ldrh	r3, [r7, #14]
 8001ede:	f043 03e0 	orr.w	r3, r3, #224	; 0xe0
 8001ee2:	81fb      	strh	r3, [r7, #14]
            break;
 8001ee4:	bf00      	nop
    }

    dirreg = 0x36;  /* 对绝大部分驱动IC, 由0x36寄存器控制 */
 8001ee6:	2336      	movs	r3, #54	; 0x36
 8001ee8:	81bb      	strh	r3, [r7, #12]

    if (lcddev.id == 0x5510)
 8001eea:	4b5a      	ldr	r3, [pc, #360]	; (8002054 <lcd_scan_dir+0x27c>)
 8001eec:	889b      	ldrh	r3, [r3, #4]
 8001eee:	f245 5210 	movw	r2, #21776	; 0x5510
 8001ef2:	4293      	cmp	r3, r2
 8001ef4:	d102      	bne.n	8001efc <lcd_scan_dir+0x124>
    {
        dirreg = 0x3600;    /* 对于5510, 和其他驱动ic的寄存器有差异 */
 8001ef6:	f44f 5358 	mov.w	r3, #13824	; 0x3600
 8001efa:	81bb      	strh	r3, [r7, #12]
    }

     /* 9341 & 7789 要设置BGR位 */
    if (lcddev.id == 0x9341 || lcddev.id == 0x7789)
 8001efc:	4b55      	ldr	r3, [pc, #340]	; (8002054 <lcd_scan_dir+0x27c>)
 8001efe:	889b      	ldrh	r3, [r3, #4]
 8001f00:	f249 3241 	movw	r2, #37697	; 0x9341
 8001f04:	4293      	cmp	r3, r2
 8001f06:	d005      	beq.n	8001f14 <lcd_scan_dir+0x13c>
 8001f08:	4b52      	ldr	r3, [pc, #328]	; (8002054 <lcd_scan_dir+0x27c>)
 8001f0a:	889b      	ldrh	r3, [r3, #4]
 8001f0c:	f247 7289 	movw	r2, #30601	; 0x7789
 8001f10:	4293      	cmp	r3, r2
 8001f12:	d103      	bne.n	8001f1c <lcd_scan_dir+0x144>
    {
        regval |= 0x08;
 8001f14:	89fb      	ldrh	r3, [r7, #14]
 8001f16:	f043 0308 	orr.w	r3, r3, #8
 8001f1a:	81fb      	strh	r3, [r7, #14]
    }

    lcd_write_reg(dirreg, regval);
 8001f1c:	89fa      	ldrh	r2, [r7, #14]
 8001f1e:	89bb      	ldrh	r3, [r7, #12]
 8001f20:	4611      	mov	r1, r2
 8001f22:	4618      	mov	r0, r3
 8001f24:	f7ff fe4a 	bl	8001bbc <lcd_write_reg>

    if (lcddev.id != 0x1963)                    /* 1963不做坐标处理 */
 8001f28:	4b4a      	ldr	r3, [pc, #296]	; (8002054 <lcd_scan_dir+0x27c>)
 8001f2a:	889b      	ldrh	r3, [r3, #4]
 8001f2c:	f641 1263 	movw	r2, #6499	; 0x1963
 8001f30:	4293      	cmp	r3, r2
 8001f32:	d025      	beq.n	8001f80 <lcd_scan_dir+0x1a8>
    {
        if (regval & 0x20)
 8001f34:	89fb      	ldrh	r3, [r7, #14]
 8001f36:	f003 0320 	and.w	r3, r3, #32
 8001f3a:	2b00      	cmp	r3, #0
 8001f3c:	d010      	beq.n	8001f60 <lcd_scan_dir+0x188>
        {
            if (lcddev.width < lcddev.height)   /* 交换X,Y */
 8001f3e:	4b45      	ldr	r3, [pc, #276]	; (8002054 <lcd_scan_dir+0x27c>)
 8001f40:	881a      	ldrh	r2, [r3, #0]
 8001f42:	4b44      	ldr	r3, [pc, #272]	; (8002054 <lcd_scan_dir+0x27c>)
 8001f44:	885b      	ldrh	r3, [r3, #2]
 8001f46:	429a      	cmp	r2, r3
 8001f48:	d21a      	bcs.n	8001f80 <lcd_scan_dir+0x1a8>
            {
                temp = lcddev.width;
 8001f4a:	4b42      	ldr	r3, [pc, #264]	; (8002054 <lcd_scan_dir+0x27c>)
 8001f4c:	881b      	ldrh	r3, [r3, #0]
 8001f4e:	817b      	strh	r3, [r7, #10]
                lcddev.width = lcddev.height;
 8001f50:	4b40      	ldr	r3, [pc, #256]	; (8002054 <lcd_scan_dir+0x27c>)
 8001f52:	885a      	ldrh	r2, [r3, #2]
 8001f54:	4b3f      	ldr	r3, [pc, #252]	; (8002054 <lcd_scan_dir+0x27c>)
 8001f56:	801a      	strh	r2, [r3, #0]
                lcddev.height = temp;
 8001f58:	4a3e      	ldr	r2, [pc, #248]	; (8002054 <lcd_scan_dir+0x27c>)
 8001f5a:	897b      	ldrh	r3, [r7, #10]
 8001f5c:	8053      	strh	r3, [r2, #2]
 8001f5e:	e00f      	b.n	8001f80 <lcd_scan_dir+0x1a8>
            }
        }
        else
        {
            if (lcddev.width > lcddev.height)   /* 交换X,Y */
 8001f60:	4b3c      	ldr	r3, [pc, #240]	; (8002054 <lcd_scan_dir+0x27c>)
 8001f62:	881a      	ldrh	r2, [r3, #0]
 8001f64:	4b3b      	ldr	r3, [pc, #236]	; (8002054 <lcd_scan_dir+0x27c>)
 8001f66:	885b      	ldrh	r3, [r3, #2]
 8001f68:	429a      	cmp	r2, r3
 8001f6a:	d909      	bls.n	8001f80 <lcd_scan_dir+0x1a8>
            {
                temp = lcddev.width;
 8001f6c:	4b39      	ldr	r3, [pc, #228]	; (8002054 <lcd_scan_dir+0x27c>)
 8001f6e:	881b      	ldrh	r3, [r3, #0]
 8001f70:	817b      	strh	r3, [r7, #10]
                lcddev.width = lcddev.height;
 8001f72:	4b38      	ldr	r3, [pc, #224]	; (8002054 <lcd_scan_dir+0x27c>)
 8001f74:	885a      	ldrh	r2, [r3, #2]
 8001f76:	4b37      	ldr	r3, [pc, #220]	; (8002054 <lcd_scan_dir+0x27c>)
 8001f78:	801a      	strh	r2, [r3, #0]
                lcddev.height = temp;
 8001f7a:	4a36      	ldr	r2, [pc, #216]	; (8002054 <lcd_scan_dir+0x27c>)
 8001f7c:	897b      	ldrh	r3, [r7, #10]
 8001f7e:	8053      	strh	r3, [r2, #2]
            }
        }
    }

    /* 设置显示区域(开窗)大小 */
    if (lcddev.id == 0x5510)
 8001f80:	4b34      	ldr	r3, [pc, #208]	; (8002054 <lcd_scan_dir+0x27c>)
 8001f82:	889b      	ldrh	r3, [r3, #4]
 8001f84:	f245 5210 	movw	r2, #21776	; 0x5510
 8001f88:	4293      	cmp	r3, r2
 8001f8a:	d165      	bne.n	8002058 <lcd_scan_dir+0x280>
    {
        lcd_wr_regno(lcddev.setxcmd);
 8001f8c:	4b31      	ldr	r3, [pc, #196]	; (8002054 <lcd_scan_dir+0x27c>)
 8001f8e:	895b      	ldrh	r3, [r3, #10]
 8001f90:	4618      	mov	r0, r3
 8001f92:	f7ff fdff 	bl	8001b94 <lcd_wr_regno>
        lcd_wr_data(0);
 8001f96:	2000      	movs	r0, #0
 8001f98:	f7ff fde8 	bl	8001b6c <lcd_wr_data>
        lcd_wr_regno(lcddev.setxcmd + 1);
 8001f9c:	4b2d      	ldr	r3, [pc, #180]	; (8002054 <lcd_scan_dir+0x27c>)
 8001f9e:	895b      	ldrh	r3, [r3, #10]
 8001fa0:	3301      	adds	r3, #1
 8001fa2:	b29b      	uxth	r3, r3
 8001fa4:	4618      	mov	r0, r3
 8001fa6:	f7ff fdf5 	bl	8001b94 <lcd_wr_regno>
        lcd_wr_data(0);
 8001faa:	2000      	movs	r0, #0
 8001fac:	f7ff fdde 	bl	8001b6c <lcd_wr_data>
        lcd_wr_regno(lcddev.setxcmd + 2);
 8001fb0:	4b28      	ldr	r3, [pc, #160]	; (8002054 <lcd_scan_dir+0x27c>)
 8001fb2:	895b      	ldrh	r3, [r3, #10]
 8001fb4:	3302      	adds	r3, #2
 8001fb6:	b29b      	uxth	r3, r3
 8001fb8:	4618      	mov	r0, r3
 8001fba:	f7ff fdeb 	bl	8001b94 <lcd_wr_regno>
        lcd_wr_data((lcddev.width - 1) >> 8);
 8001fbe:	4b25      	ldr	r3, [pc, #148]	; (8002054 <lcd_scan_dir+0x27c>)
 8001fc0:	881b      	ldrh	r3, [r3, #0]
 8001fc2:	3b01      	subs	r3, #1
 8001fc4:	121b      	asrs	r3, r3, #8
 8001fc6:	b29b      	uxth	r3, r3
 8001fc8:	4618      	mov	r0, r3
 8001fca:	f7ff fdcf 	bl	8001b6c <lcd_wr_data>
        lcd_wr_regno(lcddev.setxcmd + 3);
 8001fce:	4b21      	ldr	r3, [pc, #132]	; (8002054 <lcd_scan_dir+0x27c>)
 8001fd0:	895b      	ldrh	r3, [r3, #10]
 8001fd2:	3303      	adds	r3, #3
 8001fd4:	b29b      	uxth	r3, r3
 8001fd6:	4618      	mov	r0, r3
 8001fd8:	f7ff fddc 	bl	8001b94 <lcd_wr_regno>
        lcd_wr_data((lcddev.width - 1) & 0xFF);
 8001fdc:	4b1d      	ldr	r3, [pc, #116]	; (8002054 <lcd_scan_dir+0x27c>)
 8001fde:	881b      	ldrh	r3, [r3, #0]
 8001fe0:	3b01      	subs	r3, #1
 8001fe2:	b29b      	uxth	r3, r3
 8001fe4:	b2db      	uxtb	r3, r3
 8001fe6:	b29b      	uxth	r3, r3
 8001fe8:	4618      	mov	r0, r3
 8001fea:	f7ff fdbf 	bl	8001b6c <lcd_wr_data>
        lcd_wr_regno(lcddev.setycmd);
 8001fee:	4b19      	ldr	r3, [pc, #100]	; (8002054 <lcd_scan_dir+0x27c>)
 8001ff0:	899b      	ldrh	r3, [r3, #12]
 8001ff2:	4618      	mov	r0, r3
 8001ff4:	f7ff fdce 	bl	8001b94 <lcd_wr_regno>
        lcd_wr_data(0);
 8001ff8:	2000      	movs	r0, #0
 8001ffa:	f7ff fdb7 	bl	8001b6c <lcd_wr_data>
        lcd_wr_regno(lcddev.setycmd + 1);
 8001ffe:	4b15      	ldr	r3, [pc, #84]	; (8002054 <lcd_scan_dir+0x27c>)
 8002000:	899b      	ldrh	r3, [r3, #12]
 8002002:	3301      	adds	r3, #1
 8002004:	b29b      	uxth	r3, r3
 8002006:	4618      	mov	r0, r3
 8002008:	f7ff fdc4 	bl	8001b94 <lcd_wr_regno>
        lcd_wr_data(0);
 800200c:	2000      	movs	r0, #0
 800200e:	f7ff fdad 	bl	8001b6c <lcd_wr_data>
        lcd_wr_regno(lcddev.setycmd + 2);
 8002012:	4b10      	ldr	r3, [pc, #64]	; (8002054 <lcd_scan_dir+0x27c>)
 8002014:	899b      	ldrh	r3, [r3, #12]
 8002016:	3302      	adds	r3, #2
 8002018:	b29b      	uxth	r3, r3
 800201a:	4618      	mov	r0, r3
 800201c:	f7ff fdba 	bl	8001b94 <lcd_wr_regno>
        lcd_wr_data((lcddev.height - 1) >> 8);
 8002020:	4b0c      	ldr	r3, [pc, #48]	; (8002054 <lcd_scan_dir+0x27c>)
 8002022:	885b      	ldrh	r3, [r3, #2]
 8002024:	3b01      	subs	r3, #1
 8002026:	121b      	asrs	r3, r3, #8
 8002028:	b29b      	uxth	r3, r3
 800202a:	4618      	mov	r0, r3
 800202c:	f7ff fd9e 	bl	8001b6c <lcd_wr_data>
        lcd_wr_regno(lcddev.setycmd + 3);
 8002030:	4b08      	ldr	r3, [pc, #32]	; (8002054 <lcd_scan_dir+0x27c>)
 8002032:	899b      	ldrh	r3, [r3, #12]
 8002034:	3303      	adds	r3, #3
 8002036:	b29b      	uxth	r3, r3
 8002038:	4618      	mov	r0, r3
 800203a:	f7ff fdab 	bl	8001b94 <lcd_wr_regno>
        lcd_wr_data((lcddev.height - 1) & 0xFF);
 800203e:	4b05      	ldr	r3, [pc, #20]	; (8002054 <lcd_scan_dir+0x27c>)
 8002040:	885b      	ldrh	r3, [r3, #2]
 8002042:	3b01      	subs	r3, #1
 8002044:	b29b      	uxth	r3, r3
 8002046:	b2db      	uxtb	r3, r3
 8002048:	b29b      	uxth	r3, r3
 800204a:	4618      	mov	r0, r3
 800204c:	f7ff fd8e 	bl	8001b6c <lcd_wr_data>
        lcd_wr_data(0);
        lcd_wr_data(0);
        lcd_wr_data((lcddev.height - 1) >> 8);
        lcd_wr_data((lcddev.height - 1) & 0xFF);
    }
}
 8002050:	e03a      	b.n	80020c8 <lcd_scan_dir+0x2f0>
 8002052:	bf00      	nop
 8002054:	200002f4 	.word	0x200002f4
        lcd_wr_regno(lcddev.setxcmd);
 8002058:	4b1d      	ldr	r3, [pc, #116]	; (80020d0 <lcd_scan_dir+0x2f8>)
 800205a:	895b      	ldrh	r3, [r3, #10]
 800205c:	4618      	mov	r0, r3
 800205e:	f7ff fd99 	bl	8001b94 <lcd_wr_regno>
        lcd_wr_data(0);
 8002062:	2000      	movs	r0, #0
 8002064:	f7ff fd82 	bl	8001b6c <lcd_wr_data>
        lcd_wr_data(0);
 8002068:	2000      	movs	r0, #0
 800206a:	f7ff fd7f 	bl	8001b6c <lcd_wr_data>
        lcd_wr_data((lcddev.width - 1) >> 8);
 800206e:	4b18      	ldr	r3, [pc, #96]	; (80020d0 <lcd_scan_dir+0x2f8>)
 8002070:	881b      	ldrh	r3, [r3, #0]
 8002072:	3b01      	subs	r3, #1
 8002074:	121b      	asrs	r3, r3, #8
 8002076:	b29b      	uxth	r3, r3
 8002078:	4618      	mov	r0, r3
 800207a:	f7ff fd77 	bl	8001b6c <lcd_wr_data>
        lcd_wr_data((lcddev.width - 1) & 0xFF);
 800207e:	4b14      	ldr	r3, [pc, #80]	; (80020d0 <lcd_scan_dir+0x2f8>)
 8002080:	881b      	ldrh	r3, [r3, #0]
 8002082:	3b01      	subs	r3, #1
 8002084:	b29b      	uxth	r3, r3
 8002086:	b2db      	uxtb	r3, r3
 8002088:	b29b      	uxth	r3, r3
 800208a:	4618      	mov	r0, r3
 800208c:	f7ff fd6e 	bl	8001b6c <lcd_wr_data>
        lcd_wr_regno(lcddev.setycmd);
 8002090:	4b0f      	ldr	r3, [pc, #60]	; (80020d0 <lcd_scan_dir+0x2f8>)
 8002092:	899b      	ldrh	r3, [r3, #12]
 8002094:	4618      	mov	r0, r3
 8002096:	f7ff fd7d 	bl	8001b94 <lcd_wr_regno>
        lcd_wr_data(0);
 800209a:	2000      	movs	r0, #0
 800209c:	f7ff fd66 	bl	8001b6c <lcd_wr_data>
        lcd_wr_data(0);
 80020a0:	2000      	movs	r0, #0
 80020a2:	f7ff fd63 	bl	8001b6c <lcd_wr_data>
        lcd_wr_data((lcddev.height - 1) >> 8);
 80020a6:	4b0a      	ldr	r3, [pc, #40]	; (80020d0 <lcd_scan_dir+0x2f8>)
 80020a8:	885b      	ldrh	r3, [r3, #2]
 80020aa:	3b01      	subs	r3, #1
 80020ac:	121b      	asrs	r3, r3, #8
 80020ae:	b29b      	uxth	r3, r3
 80020b0:	4618      	mov	r0, r3
 80020b2:	f7ff fd5b 	bl	8001b6c <lcd_wr_data>
        lcd_wr_data((lcddev.height - 1) & 0xFF);
 80020b6:	4b06      	ldr	r3, [pc, #24]	; (80020d0 <lcd_scan_dir+0x2f8>)
 80020b8:	885b      	ldrh	r3, [r3, #2]
 80020ba:	3b01      	subs	r3, #1
 80020bc:	b29b      	uxth	r3, r3
 80020be:	b2db      	uxtb	r3, r3
 80020c0:	b29b      	uxth	r3, r3
 80020c2:	4618      	mov	r0, r3
 80020c4:	f7ff fd52 	bl	8001b6c <lcd_wr_data>
}
 80020c8:	bf00      	nop
 80020ca:	3710      	adds	r7, #16
 80020cc:	46bd      	mov	sp, r7
 80020ce:	bd80      	pop	{r7, pc}
 80020d0:	200002f4 	.word	0x200002f4

080020d4 <lcd_draw_point>:
 * @param       x,y: 坐标
 * @param       color: 点的颜色(32位颜色,方便兼容LTDC)
 * @retval      无
 */
void lcd_draw_point(uint16_t x, uint16_t y, uint32_t color)
{
 80020d4:	b580      	push	{r7, lr}
 80020d6:	b082      	sub	sp, #8
 80020d8:	af00      	add	r7, sp, #0
 80020da:	4603      	mov	r3, r0
 80020dc:	603a      	str	r2, [r7, #0]
 80020de:	80fb      	strh	r3, [r7, #6]
 80020e0:	460b      	mov	r3, r1
 80020e2:	80bb      	strh	r3, [r7, #4]
    lcd_set_cursor(x, y);       /* 设置光标位置 */
 80020e4:	88ba      	ldrh	r2, [r7, #4]
 80020e6:	88fb      	ldrh	r3, [r7, #6]
 80020e8:	4611      	mov	r1, r2
 80020ea:	4618      	mov	r0, r3
 80020ec:	f7ff fd9e 	bl	8001c2c <lcd_set_cursor>
    lcd_write_ram_prepare();    /* 开始写入GRAM */
 80020f0:	f7ff fd8c 	bl	8001c0c <lcd_write_ram_prepare>
    LCD->LCD_RAM = color;
 80020f4:	4b03      	ldr	r3, [pc, #12]	; (8002104 <lcd_draw_point+0x30>)
 80020f6:	683a      	ldr	r2, [r7, #0]
 80020f8:	b292      	uxth	r2, r2
 80020fa:	805a      	strh	r2, [r3, #2]
}
 80020fc:	bf00      	nop
 80020fe:	3708      	adds	r7, #8
 8002100:	46bd      	mov	sp, r7
 8002102:	bd80      	pop	{r7, pc}
 8002104:	6c00007e 	.word	0x6c00007e

08002108 <lcd_ssd_backlight_set>:
 * @brief       SSD1963背光亮度设置函数
 * @param       pwm: 背光等级,0~100.越大越亮.
 * @retval      无
 */
void lcd_ssd_backlight_set(uint8_t pwm)
{
 8002108:	b580      	push	{r7, lr}
 800210a:	b082      	sub	sp, #8
 800210c:	af00      	add	r7, sp, #0
 800210e:	4603      	mov	r3, r0
 8002110:	71fb      	strb	r3, [r7, #7]
    lcd_wr_regno(0xBE);         /* 配置PWM输出 */
 8002112:	20be      	movs	r0, #190	; 0xbe
 8002114:	f7ff fd3e 	bl	8001b94 <lcd_wr_regno>
    lcd_wr_data(0x05);          /* 1设置PWM频率 */
 8002118:	2005      	movs	r0, #5
 800211a:	f7ff fd27 	bl	8001b6c <lcd_wr_data>
    lcd_wr_data(pwm * 2.55);    /* 2设置PWM占空比 */
 800211e:	79fb      	ldrb	r3, [r7, #7]
 8002120:	4618      	mov	r0, r3
 8002122:	f7fe fb29 	bl	8000778 <__aeabi_i2d>
 8002126:	a310      	add	r3, pc, #64	; (adr r3, 8002168 <lcd_ssd_backlight_set+0x60>)
 8002128:	e9d3 2300 	ldrd	r2, r3, [r3]
 800212c:	f7fe f8a8 	bl	8000280 <__aeabi_dmul>
 8002130:	4602      	mov	r2, r0
 8002132:	460b      	mov	r3, r1
 8002134:	4610      	mov	r0, r2
 8002136:	4619      	mov	r1, r3
 8002138:	f7fe fb88 	bl	800084c <__aeabi_d2uiz>
 800213c:	4603      	mov	r3, r0
 800213e:	b29b      	uxth	r3, r3
 8002140:	4618      	mov	r0, r3
 8002142:	f7ff fd13 	bl	8001b6c <lcd_wr_data>
    lcd_wr_data(0x01);          /* 3设置C */
 8002146:	2001      	movs	r0, #1
 8002148:	f7ff fd10 	bl	8001b6c <lcd_wr_data>
    lcd_wr_data(0xFF);          /* 4设置D */
 800214c:	20ff      	movs	r0, #255	; 0xff
 800214e:	f7ff fd0d 	bl	8001b6c <lcd_wr_data>
    lcd_wr_data(0x00);          /* 5设置E */
 8002152:	2000      	movs	r0, #0
 8002154:	f7ff fd0a 	bl	8001b6c <lcd_wr_data>
    lcd_wr_data(0x00);          /* 6设置F */
 8002158:	2000      	movs	r0, #0
 800215a:	f7ff fd07 	bl	8001b6c <lcd_wr_data>
}
 800215e:	bf00      	nop
 8002160:	3708      	adds	r7, #8
 8002162:	46bd      	mov	sp, r7
 8002164:	bd80      	pop	{r7, pc}
 8002166:	bf00      	nop
 8002168:	66666666 	.word	0x66666666
 800216c:	40046666 	.word	0x40046666

08002170 <lcd_display_dir>:
 * @brief       设置LCD显示方向
 * @param       dir:0,竖屏; 1,横屏
 * @retval      无
 */
void lcd_display_dir(uint8_t dir)
{
 8002170:	b580      	push	{r7, lr}
 8002172:	b082      	sub	sp, #8
 8002174:	af00      	add	r7, sp, #0
 8002176:	4603      	mov	r3, r0
 8002178:	71fb      	strb	r3, [r7, #7]
    lcddev.dir = dir;   /* 竖屏/横屏 */
 800217a:	4a58      	ldr	r2, [pc, #352]	; (80022dc <lcd_display_dir+0x16c>)
 800217c:	79fb      	ldrb	r3, [r7, #7]
 800217e:	7193      	strb	r3, [r2, #6]

    if (dir == 0)       /* 竖屏 */
 8002180:	79fb      	ldrb	r3, [r7, #7]
 8002182:	2b00      	cmp	r3, #0
 8002184:	d151      	bne.n	800222a <lcd_display_dir+0xba>
    {
        lcddev.width = 240;
 8002186:	4b55      	ldr	r3, [pc, #340]	; (80022dc <lcd_display_dir+0x16c>)
 8002188:	22f0      	movs	r2, #240	; 0xf0
 800218a:	801a      	strh	r2, [r3, #0]
        lcddev.height = 320;
 800218c:	4b53      	ldr	r3, [pc, #332]	; (80022dc <lcd_display_dir+0x16c>)
 800218e:	f44f 72a0 	mov.w	r2, #320	; 0x140
 8002192:	805a      	strh	r2, [r3, #2]

        if (lcddev.id == 0x5510)
 8002194:	4b51      	ldr	r3, [pc, #324]	; (80022dc <lcd_display_dir+0x16c>)
 8002196:	889b      	ldrh	r3, [r3, #4]
 8002198:	f245 5210 	movw	r2, #21776	; 0x5510
 800219c:	4293      	cmp	r3, r2
 800219e:	d114      	bne.n	80021ca <lcd_display_dir+0x5a>
        {
            lcddev.wramcmd = 0x2C00;
 80021a0:	4b4e      	ldr	r3, [pc, #312]	; (80022dc <lcd_display_dir+0x16c>)
 80021a2:	f44f 5230 	mov.w	r2, #11264	; 0x2c00
 80021a6:	811a      	strh	r2, [r3, #8]
            lcddev.setxcmd = 0x2A00;
 80021a8:	4b4c      	ldr	r3, [pc, #304]	; (80022dc <lcd_display_dir+0x16c>)
 80021aa:	f44f 5228 	mov.w	r2, #10752	; 0x2a00
 80021ae:	815a      	strh	r2, [r3, #10]
            lcddev.setycmd = 0x2B00;
 80021b0:	4b4a      	ldr	r3, [pc, #296]	; (80022dc <lcd_display_dir+0x16c>)
 80021b2:	f44f 522c 	mov.w	r2, #11008	; 0x2b00
 80021b6:	819a      	strh	r2, [r3, #12]
            lcddev.width = 480;
 80021b8:	4b48      	ldr	r3, [pc, #288]	; (80022dc <lcd_display_dir+0x16c>)
 80021ba:	f44f 72f0 	mov.w	r2, #480	; 0x1e0
 80021be:	801a      	strh	r2, [r3, #0]
            lcddev.height = 800;
 80021c0:	4b46      	ldr	r3, [pc, #280]	; (80022dc <lcd_display_dir+0x16c>)
 80021c2:	f44f 7248 	mov.w	r2, #800	; 0x320
 80021c6:	805a      	strh	r2, [r3, #2]
 80021c8:	e020      	b.n	800220c <lcd_display_dir+0x9c>
        }
        else if (lcddev.id == 0x1963)
 80021ca:	4b44      	ldr	r3, [pc, #272]	; (80022dc <lcd_display_dir+0x16c>)
 80021cc:	889b      	ldrh	r3, [r3, #4]
 80021ce:	f641 1263 	movw	r2, #6499	; 0x1963
 80021d2:	4293      	cmp	r3, r2
 80021d4:	d111      	bne.n	80021fa <lcd_display_dir+0x8a>
        {
            lcddev.wramcmd = 0x2C;  /* 设置写入GRAM的指令 */
 80021d6:	4b41      	ldr	r3, [pc, #260]	; (80022dc <lcd_display_dir+0x16c>)
 80021d8:	222c      	movs	r2, #44	; 0x2c
 80021da:	811a      	strh	r2, [r3, #8]
            lcddev.setxcmd = 0x2B;  /* 设置写X坐标指令 */
 80021dc:	4b3f      	ldr	r3, [pc, #252]	; (80022dc <lcd_display_dir+0x16c>)
 80021de:	222b      	movs	r2, #43	; 0x2b
 80021e0:	815a      	strh	r2, [r3, #10]
            lcddev.setycmd = 0x2A;  /* 设置写Y坐标指令 */
 80021e2:	4b3e      	ldr	r3, [pc, #248]	; (80022dc <lcd_display_dir+0x16c>)
 80021e4:	222a      	movs	r2, #42	; 0x2a
 80021e6:	819a      	strh	r2, [r3, #12]
            lcddev.width = 480;     /* 设置宽度480 */
 80021e8:	4b3c      	ldr	r3, [pc, #240]	; (80022dc <lcd_display_dir+0x16c>)
 80021ea:	f44f 72f0 	mov.w	r2, #480	; 0x1e0
 80021ee:	801a      	strh	r2, [r3, #0]
            lcddev.height = 800;    /* 设置高度800 */
 80021f0:	4b3a      	ldr	r3, [pc, #232]	; (80022dc <lcd_display_dir+0x16c>)
 80021f2:	f44f 7248 	mov.w	r2, #800	; 0x320
 80021f6:	805a      	strh	r2, [r3, #2]
 80021f8:	e008      	b.n	800220c <lcd_display_dir+0x9c>
        }
        else   /* 其他IC, 包括: 9341 / 5310 / 7789等IC */
        {
            lcddev.wramcmd = 0x2C;
 80021fa:	4b38      	ldr	r3, [pc, #224]	; (80022dc <lcd_display_dir+0x16c>)
 80021fc:	222c      	movs	r2, #44	; 0x2c
 80021fe:	811a      	strh	r2, [r3, #8]
            lcddev.setxcmd = 0x2A;
 8002200:	4b36      	ldr	r3, [pc, #216]	; (80022dc <lcd_display_dir+0x16c>)
 8002202:	222a      	movs	r2, #42	; 0x2a
 8002204:	815a      	strh	r2, [r3, #10]
            lcddev.setycmd = 0x2B;
 8002206:	4b35      	ldr	r3, [pc, #212]	; (80022dc <lcd_display_dir+0x16c>)
 8002208:	222b      	movs	r2, #43	; 0x2b
 800220a:	819a      	strh	r2, [r3, #12]
        }

        if (lcddev.id == 0x5310)    /* 如果是5310 则表示是 320*480分辨率 */
 800220c:	4b33      	ldr	r3, [pc, #204]	; (80022dc <lcd_display_dir+0x16c>)
 800220e:	889b      	ldrh	r3, [r3, #4]
 8002210:	f245 3210 	movw	r2, #21264	; 0x5310
 8002214:	4293      	cmp	r3, r2
 8002216:	d159      	bne.n	80022cc <lcd_display_dir+0x15c>
        {
            lcddev.width = 320;
 8002218:	4b30      	ldr	r3, [pc, #192]	; (80022dc <lcd_display_dir+0x16c>)
 800221a:	f44f 72a0 	mov.w	r2, #320	; 0x140
 800221e:	801a      	strh	r2, [r3, #0]
            lcddev.height = 480;
 8002220:	4b2e      	ldr	r3, [pc, #184]	; (80022dc <lcd_display_dir+0x16c>)
 8002222:	f44f 72f0 	mov.w	r2, #480	; 0x1e0
 8002226:	805a      	strh	r2, [r3, #2]
 8002228:	e050      	b.n	80022cc <lcd_display_dir+0x15c>
        }         
    }/*dir = 0*/
    else        /* 横屏 */
    {
        lcddev.width = 320;         /* 默认宽度 */
 800222a:	4b2c      	ldr	r3, [pc, #176]	; (80022dc <lcd_display_dir+0x16c>)
 800222c:	f44f 72a0 	mov.w	r2, #320	; 0x140
 8002230:	801a      	strh	r2, [r3, #0]
        lcddev.height = 240;        /* 默认高度 */
 8002232:	4b2a      	ldr	r3, [pc, #168]	; (80022dc <lcd_display_dir+0x16c>)
 8002234:	22f0      	movs	r2, #240	; 0xf0
 8002236:	805a      	strh	r2, [r3, #2]

        if (lcddev.id == 0x5510)
 8002238:	4b28      	ldr	r3, [pc, #160]	; (80022dc <lcd_display_dir+0x16c>)
 800223a:	889b      	ldrh	r3, [r3, #4]
 800223c:	f245 5210 	movw	r2, #21776	; 0x5510
 8002240:	4293      	cmp	r3, r2
 8002242:	d114      	bne.n	800226e <lcd_display_dir+0xfe>
        {
            lcddev.wramcmd = 0x2C00;
 8002244:	4b25      	ldr	r3, [pc, #148]	; (80022dc <lcd_display_dir+0x16c>)
 8002246:	f44f 5230 	mov.w	r2, #11264	; 0x2c00
 800224a:	811a      	strh	r2, [r3, #8]
            lcddev.setxcmd = 0x2A00;
 800224c:	4b23      	ldr	r3, [pc, #140]	; (80022dc <lcd_display_dir+0x16c>)
 800224e:	f44f 5228 	mov.w	r2, #10752	; 0x2a00
 8002252:	815a      	strh	r2, [r3, #10]
            lcddev.setycmd = 0x2B00;
 8002254:	4b21      	ldr	r3, [pc, #132]	; (80022dc <lcd_display_dir+0x16c>)
 8002256:	f44f 522c 	mov.w	r2, #11008	; 0x2b00
 800225a:	819a      	strh	r2, [r3, #12]
            lcddev.width = 800;
 800225c:	4b1f      	ldr	r3, [pc, #124]	; (80022dc <lcd_display_dir+0x16c>)
 800225e:	f44f 7248 	mov.w	r2, #800	; 0x320
 8002262:	801a      	strh	r2, [r3, #0]
            lcddev.height = 480;
 8002264:	4b1d      	ldr	r3, [pc, #116]	; (80022dc <lcd_display_dir+0x16c>)
 8002266:	f44f 72f0 	mov.w	r2, #480	; 0x1e0
 800226a:	805a      	strh	r2, [r3, #2]
 800226c:	e020      	b.n	80022b0 <lcd_display_dir+0x140>
        }
        else if (lcddev.id == 0x1963)
 800226e:	4b1b      	ldr	r3, [pc, #108]	; (80022dc <lcd_display_dir+0x16c>)
 8002270:	889b      	ldrh	r3, [r3, #4]
 8002272:	f641 1263 	movw	r2, #6499	; 0x1963
 8002276:	4293      	cmp	r3, r2
 8002278:	d111      	bne.n	800229e <lcd_display_dir+0x12e>
        {
            lcddev.wramcmd = 0x2C;  /* 设置写入GRAM的指令 */
 800227a:	4b18      	ldr	r3, [pc, #96]	; (80022dc <lcd_display_dir+0x16c>)
 800227c:	222c      	movs	r2, #44	; 0x2c
 800227e:	811a      	strh	r2, [r3, #8]
            lcddev.setxcmd = 0x2A;  /* 设置写X坐标指令 */
 8002280:	4b16      	ldr	r3, [pc, #88]	; (80022dc <lcd_display_dir+0x16c>)
 8002282:	222a      	movs	r2, #42	; 0x2a
 8002284:	815a      	strh	r2, [r3, #10]
            lcddev.setycmd = 0x2B;  /* 设置写Y坐标指令 */
 8002286:	4b15      	ldr	r3, [pc, #84]	; (80022dc <lcd_display_dir+0x16c>)
 8002288:	222b      	movs	r2, #43	; 0x2b
 800228a:	819a      	strh	r2, [r3, #12]
            lcddev.width = 800;     /* 设置宽度800 */
 800228c:	4b13      	ldr	r3, [pc, #76]	; (80022dc <lcd_display_dir+0x16c>)
 800228e:	f44f 7248 	mov.w	r2, #800	; 0x320
 8002292:	801a      	strh	r2, [r3, #0]
            lcddev.height = 480;    /* 设置高度480 */
 8002294:	4b11      	ldr	r3, [pc, #68]	; (80022dc <lcd_display_dir+0x16c>)
 8002296:	f44f 72f0 	mov.w	r2, #480	; 0x1e0
 800229a:	805a      	strh	r2, [r3, #2]
 800229c:	e008      	b.n	80022b0 <lcd_display_dir+0x140>
        }
        else   /* 其他IC, 包括:9341/5310/7789等IC */
        {
            lcddev.wramcmd = 0x2C;
 800229e:	4b0f      	ldr	r3, [pc, #60]	; (80022dc <lcd_display_dir+0x16c>)
 80022a0:	222c      	movs	r2, #44	; 0x2c
 80022a2:	811a      	strh	r2, [r3, #8]
            lcddev.setxcmd = 0x2A;
 80022a4:	4b0d      	ldr	r3, [pc, #52]	; (80022dc <lcd_display_dir+0x16c>)
 80022a6:	222a      	movs	r2, #42	; 0x2a
 80022a8:	815a      	strh	r2, [r3, #10]
            lcddev.setycmd = 0x2B;
 80022aa:	4b0c      	ldr	r3, [pc, #48]	; (80022dc <lcd_display_dir+0x16c>)
 80022ac:	222b      	movs	r2, #43	; 0x2b
 80022ae:	819a      	strh	r2, [r3, #12]
        }

        if (lcddev.id == 0x5310)
 80022b0:	4b0a      	ldr	r3, [pc, #40]	; (80022dc <lcd_display_dir+0x16c>)
 80022b2:	889b      	ldrh	r3, [r3, #4]
 80022b4:	f245 3210 	movw	r2, #21264	; 0x5310
 80022b8:	4293      	cmp	r3, r2
 80022ba:	d107      	bne.n	80022cc <lcd_display_dir+0x15c>
        {
            lcddev.width = 480;
 80022bc:	4b07      	ldr	r3, [pc, #28]	; (80022dc <lcd_display_dir+0x16c>)
 80022be:	f44f 72f0 	mov.w	r2, #480	; 0x1e0
 80022c2:	801a      	strh	r2, [r3, #0]
            lcddev.height = 320;
 80022c4:	4b05      	ldr	r3, [pc, #20]	; (80022dc <lcd_display_dir+0x16c>)
 80022c6:	f44f 72a0 	mov.w	r2, #320	; 0x140
 80022ca:	805a      	strh	r2, [r3, #2]
        }
    }

    lcd_scan_dir(DFT_SCAN_DIR);     /* 默认扫描方向 */
 80022cc:	2000      	movs	r0, #0
 80022ce:	f7ff fd83 	bl	8001dd8 <lcd_scan_dir>
}
 80022d2:	bf00      	nop
 80022d4:	3708      	adds	r7, #8
 80022d6:	46bd      	mov	sp, r7
 80022d8:	bd80      	pop	{r7, pc}
 80022da:	bf00      	nop
 80022dc:	200002f4 	.word	0x200002f4

080022e0 <lcd_init>:
 *
 * @param       无
 * @retval      无
 */
void lcd_init(void)
{
 80022e0:	b580      	push	{r7, lr}
 80022e2:	b088      	sub	sp, #32
 80022e4:	af00      	add	r7, sp, #0
    FSMC_NORSRAM_TimingTypeDef fsmc_write_handle;


    /* 尝试9341 ID的读取 */
    lcd_wr_regno(0xD3);
 80022e6:	20d3      	movs	r0, #211	; 0xd3
 80022e8:	f7ff fc54 	bl	8001b94 <lcd_wr_regno>
    lcddev.id = lcd_rd_data();  /* dummy read */
 80022ec:	f7ff fc7c 	bl	8001be8 <lcd_rd_data>
 80022f0:	4603      	mov	r3, r0
 80022f2:	461a      	mov	r2, r3
 80022f4:	4b89      	ldr	r3, [pc, #548]	; (800251c <lcd_init+0x23c>)
 80022f6:	809a      	strh	r2, [r3, #4]
    lcddev.id = lcd_rd_data();  /* 读到0x00 */
 80022f8:	f7ff fc76 	bl	8001be8 <lcd_rd_data>
 80022fc:	4603      	mov	r3, r0
 80022fe:	461a      	mov	r2, r3
 8002300:	4b86      	ldr	r3, [pc, #536]	; (800251c <lcd_init+0x23c>)
 8002302:	809a      	strh	r2, [r3, #4]
    lcddev.id = lcd_rd_data();  /* 读取93 */
 8002304:	f7ff fc70 	bl	8001be8 <lcd_rd_data>
 8002308:	4603      	mov	r3, r0
 800230a:	461a      	mov	r2, r3
 800230c:	4b83      	ldr	r3, [pc, #524]	; (800251c <lcd_init+0x23c>)
 800230e:	809a      	strh	r2, [r3, #4]
    lcddev.id <<= 8;
 8002310:	4b82      	ldr	r3, [pc, #520]	; (800251c <lcd_init+0x23c>)
 8002312:	889b      	ldrh	r3, [r3, #4]
 8002314:	021b      	lsls	r3, r3, #8
 8002316:	b29a      	uxth	r2, r3
 8002318:	4b80      	ldr	r3, [pc, #512]	; (800251c <lcd_init+0x23c>)
 800231a:	809a      	strh	r2, [r3, #4]
    lcddev.id |= lcd_rd_data(); /* 读取41 */
 800231c:	f7ff fc64 	bl	8001be8 <lcd_rd_data>
 8002320:	4603      	mov	r3, r0
 8002322:	461a      	mov	r2, r3
 8002324:	4b7d      	ldr	r3, [pc, #500]	; (800251c <lcd_init+0x23c>)
 8002326:	889b      	ldrh	r3, [r3, #4]
 8002328:	4313      	orrs	r3, r2
 800232a:	b29a      	uxth	r2, r3
 800232c:	4b7b      	ldr	r3, [pc, #492]	; (800251c <lcd_init+0x23c>)
 800232e:	809a      	strh	r2, [r3, #4]

    if (lcddev.id != 0x9341)    /* 不是 9341 , 尝试看看是不是 ST7789 */
 8002330:	4b7a      	ldr	r3, [pc, #488]	; (800251c <lcd_init+0x23c>)
 8002332:	889b      	ldrh	r3, [r3, #4]
 8002334:	f249 3241 	movw	r2, #37697	; 0x9341
 8002338:	4293      	cmp	r3, r2
 800233a:	f000 80ca 	beq.w	80024d2 <lcd_init+0x1f2>
    {
        lcd_wr_regno(0x04);
 800233e:	2004      	movs	r0, #4
 8002340:	f7ff fc28 	bl	8001b94 <lcd_wr_regno>
        lcddev.id = lcd_rd_data();      /* dummy read */
 8002344:	f7ff fc50 	bl	8001be8 <lcd_rd_data>
 8002348:	4603      	mov	r3, r0
 800234a:	461a      	mov	r2, r3
 800234c:	4b73      	ldr	r3, [pc, #460]	; (800251c <lcd_init+0x23c>)
 800234e:	809a      	strh	r2, [r3, #4]
        lcddev.id = lcd_rd_data();      /* 读到0x85 */
 8002350:	f7ff fc4a 	bl	8001be8 <lcd_rd_data>
 8002354:	4603      	mov	r3, r0
 8002356:	461a      	mov	r2, r3
 8002358:	4b70      	ldr	r3, [pc, #448]	; (800251c <lcd_init+0x23c>)
 800235a:	809a      	strh	r2, [r3, #4]
        lcddev.id = lcd_rd_data();      /* 读取0x85 */
 800235c:	f7ff fc44 	bl	8001be8 <lcd_rd_data>
 8002360:	4603      	mov	r3, r0
 8002362:	461a      	mov	r2, r3
 8002364:	4b6d      	ldr	r3, [pc, #436]	; (800251c <lcd_init+0x23c>)
 8002366:	809a      	strh	r2, [r3, #4]
        lcddev.id <<= 8;
 8002368:	4b6c      	ldr	r3, [pc, #432]	; (800251c <lcd_init+0x23c>)
 800236a:	889b      	ldrh	r3, [r3, #4]
 800236c:	021b      	lsls	r3, r3, #8
 800236e:	b29a      	uxth	r2, r3
 8002370:	4b6a      	ldr	r3, [pc, #424]	; (800251c <lcd_init+0x23c>)
 8002372:	809a      	strh	r2, [r3, #4]
        lcddev.id |= lcd_rd_data();     /* 读取0x52 */
 8002374:	f7ff fc38 	bl	8001be8 <lcd_rd_data>
 8002378:	4603      	mov	r3, r0
 800237a:	461a      	mov	r2, r3
 800237c:	4b67      	ldr	r3, [pc, #412]	; (800251c <lcd_init+0x23c>)
 800237e:	889b      	ldrh	r3, [r3, #4]
 8002380:	4313      	orrs	r3, r2
 8002382:	b29a      	uxth	r2, r3
 8002384:	4b65      	ldr	r3, [pc, #404]	; (800251c <lcd_init+0x23c>)
 8002386:	809a      	strh	r2, [r3, #4]
        
        if (lcddev.id == 0x8552)        /* 将8552的ID转换成7789 */
 8002388:	4b64      	ldr	r3, [pc, #400]	; (800251c <lcd_init+0x23c>)
 800238a:	889b      	ldrh	r3, [r3, #4]
 800238c:	f248 5252 	movw	r2, #34130	; 0x8552
 8002390:	4293      	cmp	r3, r2
 8002392:	d103      	bne.n	800239c <lcd_init+0xbc>
        {
            lcddev.id = 0x7789;
 8002394:	4b61      	ldr	r3, [pc, #388]	; (800251c <lcd_init+0x23c>)
 8002396:	f247 7289 	movw	r2, #30601	; 0x7789
 800239a:	809a      	strh	r2, [r3, #4]
        }

        if (lcddev.id != 0x7789)        /* 也不是ST7789, 尝试是不是 NT35310 */
 800239c:	4b5f      	ldr	r3, [pc, #380]	; (800251c <lcd_init+0x23c>)
 800239e:	889b      	ldrh	r3, [r3, #4]
 80023a0:	f247 7289 	movw	r2, #30601	; 0x7789
 80023a4:	4293      	cmp	r3, r2
 80023a6:	f000 8094 	beq.w	80024d2 <lcd_init+0x1f2>
        {
            lcd_wr_regno(0xD4);
 80023aa:	20d4      	movs	r0, #212	; 0xd4
 80023ac:	f7ff fbf2 	bl	8001b94 <lcd_wr_regno>
            lcddev.id = lcd_rd_data();  /* dummy read */
 80023b0:	f7ff fc1a 	bl	8001be8 <lcd_rd_data>
 80023b4:	4603      	mov	r3, r0
 80023b6:	461a      	mov	r2, r3
 80023b8:	4b58      	ldr	r3, [pc, #352]	; (800251c <lcd_init+0x23c>)
 80023ba:	809a      	strh	r2, [r3, #4]
            lcddev.id = lcd_rd_data();  /* 读回0x01 */
 80023bc:	f7ff fc14 	bl	8001be8 <lcd_rd_data>
 80023c0:	4603      	mov	r3, r0
 80023c2:	461a      	mov	r2, r3
 80023c4:	4b55      	ldr	r3, [pc, #340]	; (800251c <lcd_init+0x23c>)
 80023c6:	809a      	strh	r2, [r3, #4]
            lcddev.id = lcd_rd_data();  /* 读回0x53 */
 80023c8:	f7ff fc0e 	bl	8001be8 <lcd_rd_data>
 80023cc:	4603      	mov	r3, r0
 80023ce:	461a      	mov	r2, r3
 80023d0:	4b52      	ldr	r3, [pc, #328]	; (800251c <lcd_init+0x23c>)
 80023d2:	809a      	strh	r2, [r3, #4]
            lcddev.id <<= 8;
 80023d4:	4b51      	ldr	r3, [pc, #324]	; (800251c <lcd_init+0x23c>)
 80023d6:	889b      	ldrh	r3, [r3, #4]
 80023d8:	021b      	lsls	r3, r3, #8
 80023da:	b29a      	uxth	r2, r3
 80023dc:	4b4f      	ldr	r3, [pc, #316]	; (800251c <lcd_init+0x23c>)
 80023de:	809a      	strh	r2, [r3, #4]
            lcddev.id |= lcd_rd_data(); /* 这里读回0x10 */
 80023e0:	f7ff fc02 	bl	8001be8 <lcd_rd_data>
 80023e4:	4603      	mov	r3, r0
 80023e6:	461a      	mov	r2, r3
 80023e8:	4b4c      	ldr	r3, [pc, #304]	; (800251c <lcd_init+0x23c>)
 80023ea:	889b      	ldrh	r3, [r3, #4]
 80023ec:	4313      	orrs	r3, r2
 80023ee:	b29a      	uxth	r2, r3
 80023f0:	4b4a      	ldr	r3, [pc, #296]	; (800251c <lcd_init+0x23c>)
 80023f2:	809a      	strh	r2, [r3, #4]

            if (lcddev.id != 0x5310)    /* 也不是NT35310,尝试看看是不是NT35510 */
 80023f4:	4b49      	ldr	r3, [pc, #292]	; (800251c <lcd_init+0x23c>)
 80023f6:	889b      	ldrh	r3, [r3, #4]
 80023f8:	f245 3210 	movw	r2, #21264	; 0x5310
 80023fc:	4293      	cmp	r3, r2
 80023fe:	d068      	beq.n	80024d2 <lcd_init+0x1f2>
            {
                /* 发送密钥（厂家提供） */
                lcd_write_reg(0xF000, 0x0055);
 8002400:	2155      	movs	r1, #85	; 0x55
 8002402:	f44f 4070 	mov.w	r0, #61440	; 0xf000
 8002406:	f7ff fbd9 	bl	8001bbc <lcd_write_reg>
                lcd_write_reg(0xF001, 0x00AA);
 800240a:	21aa      	movs	r1, #170	; 0xaa
 800240c:	f24f 0001 	movw	r0, #61441	; 0xf001
 8002410:	f7ff fbd4 	bl	8001bbc <lcd_write_reg>
                lcd_write_reg(0xF002, 0x0052);
 8002414:	2152      	movs	r1, #82	; 0x52
 8002416:	f24f 0002 	movw	r0, #61442	; 0xf002
 800241a:	f7ff fbcf 	bl	8001bbc <lcd_write_reg>
                lcd_write_reg(0xF003, 0x0008);
 800241e:	2108      	movs	r1, #8
 8002420:	f24f 0003 	movw	r0, #61443	; 0xf003
 8002424:	f7ff fbca 	bl	8001bbc <lcd_write_reg>
                lcd_write_reg(0xF004, 0x0001);
 8002428:	2101      	movs	r1, #1
 800242a:	f24f 0004 	movw	r0, #61444	; 0xf004
 800242e:	f7ff fbc5 	bl	8001bbc <lcd_write_reg>
                
                lcd_wr_regno(0xC500);       /* 读取ID低八位 */
 8002432:	f44f 4045 	mov.w	r0, #50432	; 0xc500
 8002436:	f7ff fbad 	bl	8001b94 <lcd_wr_regno>
                lcddev.id = lcd_rd_data();  /* 读回0x80 */
 800243a:	f7ff fbd5 	bl	8001be8 <lcd_rd_data>
 800243e:	4603      	mov	r3, r0
 8002440:	461a      	mov	r2, r3
 8002442:	4b36      	ldr	r3, [pc, #216]	; (800251c <lcd_init+0x23c>)
 8002444:	809a      	strh	r2, [r3, #4]
                lcddev.id <<= 8;
 8002446:	4b35      	ldr	r3, [pc, #212]	; (800251c <lcd_init+0x23c>)
 8002448:	889b      	ldrh	r3, [r3, #4]
 800244a:	021b      	lsls	r3, r3, #8
 800244c:	b29a      	uxth	r2, r3
 800244e:	4b33      	ldr	r3, [pc, #204]	; (800251c <lcd_init+0x23c>)
 8002450:	809a      	strh	r2, [r3, #4]

                lcd_wr_regno(0xC501);       /* 读取ID高八位 */
 8002452:	f24c 5001 	movw	r0, #50433	; 0xc501
 8002456:	f7ff fb9d 	bl	8001b94 <lcd_wr_regno>
                lcddev.id |= lcd_rd_data(); /* 读回0x00 */
 800245a:	f7ff fbc5 	bl	8001be8 <lcd_rd_data>
 800245e:	4603      	mov	r3, r0
 8002460:	461a      	mov	r2, r3
 8002462:	4b2e      	ldr	r3, [pc, #184]	; (800251c <lcd_init+0x23c>)
 8002464:	889b      	ldrh	r3, [r3, #4]
 8002466:	4313      	orrs	r3, r2
 8002468:	b29a      	uxth	r2, r3
 800246a:	4b2c      	ldr	r3, [pc, #176]	; (800251c <lcd_init+0x23c>)
 800246c:	809a      	strh	r2, [r3, #4]
                HAL_Delay(5);                /* 等待5ms, 因为0XC501指令对1963来说就是软件复位指令, 等待5ms让1963复位完成再操作 */
 800246e:	2005      	movs	r0, #5
 8002470:	f002 fc62 	bl	8004d38 <HAL_Delay>

                if (lcddev.id != 0x5510)        /* 也不是NT5510,尝试看看是不是SSD1963 */
 8002474:	4b29      	ldr	r3, [pc, #164]	; (800251c <lcd_init+0x23c>)
 8002476:	889b      	ldrh	r3, [r3, #4]
 8002478:	f245 5210 	movw	r2, #21776	; 0x5510
 800247c:	4293      	cmp	r3, r2
 800247e:	d028      	beq.n	80024d2 <lcd_init+0x1f2>
                {
                    lcd_wr_regno(0xA1);
 8002480:	20a1      	movs	r0, #161	; 0xa1
 8002482:	f7ff fb87 	bl	8001b94 <lcd_wr_regno>
                    lcddev.id = lcd_rd_data();
 8002486:	f7ff fbaf 	bl	8001be8 <lcd_rd_data>
 800248a:	4603      	mov	r3, r0
 800248c:	461a      	mov	r2, r3
 800248e:	4b23      	ldr	r3, [pc, #140]	; (800251c <lcd_init+0x23c>)
 8002490:	809a      	strh	r2, [r3, #4]
                    lcddev.id = lcd_rd_data();  /* 读回0x57 */
 8002492:	f7ff fba9 	bl	8001be8 <lcd_rd_data>
 8002496:	4603      	mov	r3, r0
 8002498:	461a      	mov	r2, r3
 800249a:	4b20      	ldr	r3, [pc, #128]	; (800251c <lcd_init+0x23c>)
 800249c:	809a      	strh	r2, [r3, #4]
                    lcddev.id <<= 8;
 800249e:	4b1f      	ldr	r3, [pc, #124]	; (800251c <lcd_init+0x23c>)
 80024a0:	889b      	ldrh	r3, [r3, #4]
 80024a2:	021b      	lsls	r3, r3, #8
 80024a4:	b29a      	uxth	r2, r3
 80024a6:	4b1d      	ldr	r3, [pc, #116]	; (800251c <lcd_init+0x23c>)
 80024a8:	809a      	strh	r2, [r3, #4]
                    lcddev.id |= lcd_rd_data(); /* 读回0x61 */
 80024aa:	f7ff fb9d 	bl	8001be8 <lcd_rd_data>
 80024ae:	4603      	mov	r3, r0
 80024b0:	461a      	mov	r2, r3
 80024b2:	4b1a      	ldr	r3, [pc, #104]	; (800251c <lcd_init+0x23c>)
 80024b4:	889b      	ldrh	r3, [r3, #4]
 80024b6:	4313      	orrs	r3, r2
 80024b8:	b29a      	uxth	r2, r3
 80024ba:	4b18      	ldr	r3, [pc, #96]	; (800251c <lcd_init+0x23c>)
 80024bc:	809a      	strh	r2, [r3, #4]

                    if (lcddev.id == 0x5761)lcddev.id = 0x1963; /* SSD1963读回的ID是5761H,为方便区分,我们强制设置为1963 */
 80024be:	4b17      	ldr	r3, [pc, #92]	; (800251c <lcd_init+0x23c>)
 80024c0:	889b      	ldrh	r3, [r3, #4]
 80024c2:	f245 7261 	movw	r2, #22369	; 0x5761
 80024c6:	4293      	cmp	r3, r2
 80024c8:	d103      	bne.n	80024d2 <lcd_init+0x1f2>
 80024ca:	4b14      	ldr	r3, [pc, #80]	; (800251c <lcd_init+0x23c>)
 80024cc:	f641 1263 	movw	r2, #6499	; 0x1963
 80024d0:	809a      	strh	r2, [r3, #4]
     * 里面(卡死在f_putc函数), 所以, 必须初始化串口1, 或者屏蔽掉下面
     * 这行 printf 语句 !!!!!!!
     */
    //printf("LCD ID:%x\r\n", lcddev.id); /* 打印LCD ID */

    if (lcddev.id == 0x7789)
 80024d2:	4b12      	ldr	r3, [pc, #72]	; (800251c <lcd_init+0x23c>)
 80024d4:	889b      	ldrh	r3, [r3, #4]
 80024d6:	f247 7289 	movw	r2, #30601	; 0x7789
 80024da:	4293      	cmp	r3, r2
 80024dc:	d102      	bne.n	80024e4 <lcd_init+0x204>
    {
        lcd_ex_st7789_reginit();        /* 执行ST7789初始化 */
 80024de:	f000 fa17 	bl	8002910 <lcd_ex_st7789_reginit>
 80024e2:	e028      	b.n	8002536 <lcd_init+0x256>
    }
    else if (lcddev.id == 0x9341)
 80024e4:	4b0d      	ldr	r3, [pc, #52]	; (800251c <lcd_init+0x23c>)
 80024e6:	889b      	ldrh	r3, [r3, #4]
 80024e8:	f249 3241 	movw	r2, #37697	; 0x9341
 80024ec:	4293      	cmp	r3, r2
 80024ee:	d102      	bne.n	80024f6 <lcd_init+0x216>
    {
        lcd_ex_ili9341_reginit();       /* 执行ILI9341初始化 */
 80024f0:	f000 fae4 	bl	8002abc <lcd_ex_ili9341_reginit>
 80024f4:	e01f      	b.n	8002536 <lcd_init+0x256>
    }
    else if (lcddev.id == 0x5310)
 80024f6:	4b09      	ldr	r3, [pc, #36]	; (800251c <lcd_init+0x23c>)
 80024f8:	889b      	ldrh	r3, [r3, #4]
 80024fa:	f245 3210 	movw	r2, #21264	; 0x5310
 80024fe:	4293      	cmp	r3, r2
 8002500:	d102      	bne.n	8002508 <lcd_init+0x228>
    {
        lcd_ex_nt35310_reginit();       /* 执行NT35310初始化 */
 8002502:	f000 fbf3 	bl	8002cec <lcd_ex_nt35310_reginit>
 8002506:	e016      	b.n	8002536 <lcd_init+0x256>
    }
    else if (lcddev.id == 0x5510)
 8002508:	4b04      	ldr	r3, [pc, #16]	; (800251c <lcd_init+0x23c>)
 800250a:	889b      	ldrh	r3, [r3, #4]
 800250c:	f245 5210 	movw	r2, #21776	; 0x5510
 8002510:	4293      	cmp	r3, r2
 8002512:	d105      	bne.n	8002520 <lcd_init+0x240>
    {
        lcd_ex_nt35510_reginit();       /* 执行NT35510初始化 */
 8002514:	f001 fb65 	bl	8003be2 <lcd_ex_nt35510_reginit>
 8002518:	e00d      	b.n	8002536 <lcd_init+0x256>
 800251a:	bf00      	nop
 800251c:	200002f4 	.word	0x200002f4
    }
    else if (lcddev.id == 0x1963)
 8002520:	4b29      	ldr	r3, [pc, #164]	; (80025c8 <lcd_init+0x2e8>)
 8002522:	889b      	ldrh	r3, [r3, #4]
 8002524:	f641 1263 	movw	r2, #6499	; 0x1963
 8002528:	4293      	cmp	r3, r2
 800252a:	d104      	bne.n	8002536 <lcd_init+0x256>
    {
        lcd_ex_ssd1963_reginit();       /* 执行SSD1963初始化 */
 800252c:	f002 fad9 	bl	8004ae2 <lcd_ex_ssd1963_reginit>
        lcd_ssd_backlight_set(100);     /* 背光设置为最亮 */
 8002530:	2064      	movs	r0, #100	; 0x64
 8002532:	f7ff fde9 	bl	8002108 <lcd_ssd_backlight_set>
    }

    /* 初始化完成以后,提速 */
    if (lcddev.id == 0x9341 || lcddev.id == 0x1963 || lcddev.id == 0x7789)  /* 如果是这几个IC, 则设置WR时序为最快 */
 8002536:	4b24      	ldr	r3, [pc, #144]	; (80025c8 <lcd_init+0x2e8>)
 8002538:	889b      	ldrh	r3, [r3, #4]
 800253a:	f249 3241 	movw	r2, #37697	; 0x9341
 800253e:	4293      	cmp	r3, r2
 8002540:	d00b      	beq.n	800255a <lcd_init+0x27a>
 8002542:	4b21      	ldr	r3, [pc, #132]	; (80025c8 <lcd_init+0x2e8>)
 8002544:	889b      	ldrh	r3, [r3, #4]
 8002546:	f641 1263 	movw	r2, #6499	; 0x1963
 800254a:	4293      	cmp	r3, r2
 800254c:	d005      	beq.n	800255a <lcd_init+0x27a>
 800254e:	4b1e      	ldr	r3, [pc, #120]	; (80025c8 <lcd_init+0x2e8>)
 8002550:	889b      	ldrh	r3, [r3, #4]
 8002552:	f247 7289 	movw	r2, #30601	; 0x7789
 8002556:	4293      	cmp	r3, r2
 8002558:	d10c      	bne.n	8002574 <lcd_init+0x294>
    {
        /* 重新配置写时序控制寄存器的时序 */
        fsmc_write_handle.AddressSetupTime = 3;
 800255a:	2303      	movs	r3, #3
 800255c:	607b      	str	r3, [r7, #4]
        fsmc_write_handle.DataSetupTime = 3;         
 800255e:	2303      	movs	r3, #3
 8002560:	60fb      	str	r3, [r7, #12]
        FSMC_NORSRAM_Extended_Timing_Init(g_sram_handle.Extended, &fsmc_write_handle, g_sram_handle.Init.NSBank, g_sram_handle.Init.ExtendedMode);
 8002562:	4b1a      	ldr	r3, [pc, #104]	; (80025cc <lcd_init+0x2ec>)
 8002564:	6858      	ldr	r0, [r3, #4]
 8002566:	4b19      	ldr	r3, [pc, #100]	; (80025cc <lcd_init+0x2ec>)
 8002568:	689a      	ldr	r2, [r3, #8]
 800256a:	4b18      	ldr	r3, [pc, #96]	; (80025cc <lcd_init+0x2ec>)
 800256c:	6b1b      	ldr	r3, [r3, #48]	; 0x30
 800256e:	1d39      	adds	r1, r7, #4
 8002570:	f006 fc54 	bl	8008e1c <FSMC_NORSRAM_Extended_Timing_Init>
    }

    if (lcddev.id == 0x5310 || lcddev.id == 0x5510)  /* 如果是这几个IC, 则设置WR时序为最快 */
 8002574:	4b14      	ldr	r3, [pc, #80]	; (80025c8 <lcd_init+0x2e8>)
 8002576:	889b      	ldrh	r3, [r3, #4]
 8002578:	f245 3210 	movw	r2, #21264	; 0x5310
 800257c:	4293      	cmp	r3, r2
 800257e:	d005      	beq.n	800258c <lcd_init+0x2ac>
 8002580:	4b11      	ldr	r3, [pc, #68]	; (80025c8 <lcd_init+0x2e8>)
 8002582:	889b      	ldrh	r3, [r3, #4]
 8002584:	f245 5210 	movw	r2, #21776	; 0x5510
 8002588:	4293      	cmp	r3, r2
 800258a:	d10c      	bne.n	80025a6 <lcd_init+0x2c6>
    {
        /* 重新配置写时序控制寄存器的时序 */
        fsmc_write_handle.AddressSetupTime = 2;
 800258c:	2302      	movs	r3, #2
 800258e:	607b      	str	r3, [r7, #4]
        fsmc_write_handle.DataSetupTime = 2;
 8002590:	2302      	movs	r3, #2
 8002592:	60fb      	str	r3, [r7, #12]
        FSMC_NORSRAM_Extended_Timing_Init(g_sram_handle.Extended, &fsmc_write_handle, g_sram_handle.Init.NSBank, g_sram_handle.Init.ExtendedMode);
 8002594:	4b0d      	ldr	r3, [pc, #52]	; (80025cc <lcd_init+0x2ec>)
 8002596:	6858      	ldr	r0, [r3, #4]
 8002598:	4b0c      	ldr	r3, [pc, #48]	; (80025cc <lcd_init+0x2ec>)
 800259a:	689a      	ldr	r2, [r3, #8]
 800259c:	4b0b      	ldr	r3, [pc, #44]	; (80025cc <lcd_init+0x2ec>)
 800259e:	6b1b      	ldr	r3, [r3, #48]	; 0x30
 80025a0:	1d39      	adds	r1, r7, #4
 80025a2:	f006 fc3b 	bl	8008e1c <FSMC_NORSRAM_Extended_Timing_Init>
    }

    lcd_display_dir(0); /* 默认为竖屏 */
 80025a6:	2000      	movs	r0, #0
 80025a8:	f7ff fde2 	bl	8002170 <lcd_display_dir>
    LCD_BL(1);          /* 点亮背光 */
 80025ac:	2201      	movs	r2, #1
 80025ae:	f44f 4100 	mov.w	r1, #32768	; 0x8000
 80025b2:	4807      	ldr	r0, [pc, #28]	; (80025d0 <lcd_init+0x2f0>)
 80025b4:	f002 feaa 	bl	800530c <HAL_GPIO_WritePin>
    lcd_clear(WHITE);
 80025b8:	f64f 70ff 	movw	r0, #65535	; 0xffff
 80025bc:	f000 f80a 	bl	80025d4 <lcd_clear>
}
 80025c0:	bf00      	nop
 80025c2:	3720      	adds	r7, #32
 80025c4:	46bd      	mov	sp, r7
 80025c6:	bd80      	pop	{r7, pc}
 80025c8:	200002f4 	.word	0x200002f4
 80025cc:	200002a4 	.word	0x200002a4
 80025d0:	40020400 	.word	0x40020400

080025d4 <lcd_clear>:
 * @brief       清屏函数
 * @param       color: 要清屏的颜色
 * @retval      无
 */
void lcd_clear(uint16_t color)
{
 80025d4:	b580      	push	{r7, lr}
 80025d6:	b084      	sub	sp, #16
 80025d8:	af00      	add	r7, sp, #0
 80025da:	4603      	mov	r3, r0
 80025dc:	80fb      	strh	r3, [r7, #6]
    uint32_t index = 0;
 80025de:	2300      	movs	r3, #0
 80025e0:	60fb      	str	r3, [r7, #12]
    uint32_t totalpoint = lcddev.width;
 80025e2:	4b11      	ldr	r3, [pc, #68]	; (8002628 <lcd_clear+0x54>)
 80025e4:	881b      	ldrh	r3, [r3, #0]
 80025e6:	60bb      	str	r3, [r7, #8]

    totalpoint *= lcddev.height;    /* 得到总点数 */
 80025e8:	4b0f      	ldr	r3, [pc, #60]	; (8002628 <lcd_clear+0x54>)
 80025ea:	885b      	ldrh	r3, [r3, #2]
 80025ec:	461a      	mov	r2, r3
 80025ee:	68bb      	ldr	r3, [r7, #8]
 80025f0:	fb02 f303 	mul.w	r3, r2, r3
 80025f4:	60bb      	str	r3, [r7, #8]
    lcd_set_cursor(0x00, 0x0000);   /* 设置光标位置 */
 80025f6:	2100      	movs	r1, #0
 80025f8:	2000      	movs	r0, #0
 80025fa:	f7ff fb17 	bl	8001c2c <lcd_set_cursor>
    lcd_write_ram_prepare();        /* 开始写入GRAM */
 80025fe:	f7ff fb05 	bl	8001c0c <lcd_write_ram_prepare>

    for (index = 0; index < totalpoint; index++)
 8002602:	2300      	movs	r3, #0
 8002604:	60fb      	str	r3, [r7, #12]
 8002606:	e005      	b.n	8002614 <lcd_clear+0x40>
    {
        LCD->LCD_RAM = color;
 8002608:	4a08      	ldr	r2, [pc, #32]	; (800262c <lcd_clear+0x58>)
 800260a:	88fb      	ldrh	r3, [r7, #6]
 800260c:	8053      	strh	r3, [r2, #2]
    for (index = 0; index < totalpoint; index++)
 800260e:	68fb      	ldr	r3, [r7, #12]
 8002610:	3301      	adds	r3, #1
 8002612:	60fb      	str	r3, [r7, #12]
 8002614:	68fa      	ldr	r2, [r7, #12]
 8002616:	68bb      	ldr	r3, [r7, #8]
 8002618:	429a      	cmp	r2, r3
 800261a:	d3f5      	bcc.n	8002608 <lcd_clear+0x34>
    }
}
 800261c:	bf00      	nop
 800261e:	bf00      	nop
 8002620:	3710      	adds	r7, #16
 8002622:	46bd      	mov	sp, r7
 8002624:	bd80      	pop	{r7, pc}
 8002626:	bf00      	nop
 8002628:	200002f4 	.word	0x200002f4
 800262c:	6c00007e 	.word	0x6c00007e

08002630 <lcd_fill>:
 * @param       (sx,sy),(ex,ey):填充矩形对角坐标,区域大小为:(ex - sx + 1) * (ey - sy + 1)
 * @param       color:  要填充的颜色(32位颜色,方便兼容LTDC)
 * @retval      无
 */
void lcd_fill(uint16_t sx, uint16_t sy, uint16_t ex, uint16_t ey, uint32_t color)
{
 8002630:	b590      	push	{r4, r7, lr}
 8002632:	b085      	sub	sp, #20
 8002634:	af00      	add	r7, sp, #0
 8002636:	4604      	mov	r4, r0
 8002638:	4608      	mov	r0, r1
 800263a:	4611      	mov	r1, r2
 800263c:	461a      	mov	r2, r3
 800263e:	4623      	mov	r3, r4
 8002640:	80fb      	strh	r3, [r7, #6]
 8002642:	4603      	mov	r3, r0
 8002644:	80bb      	strh	r3, [r7, #4]
 8002646:	460b      	mov	r3, r1
 8002648:	807b      	strh	r3, [r7, #2]
 800264a:	4613      	mov	r3, r2
 800264c:	803b      	strh	r3, [r7, #0]
    uint16_t i, j;
    uint16_t xlen = 0;
 800264e:	2300      	movs	r3, #0
 8002650:	817b      	strh	r3, [r7, #10]
    xlen = ex - sx + 1;
 8002652:	887a      	ldrh	r2, [r7, #2]
 8002654:	88fb      	ldrh	r3, [r7, #6]
 8002656:	1ad3      	subs	r3, r2, r3
 8002658:	b29b      	uxth	r3, r3
 800265a:	3301      	adds	r3, #1
 800265c:	817b      	strh	r3, [r7, #10]

    for (i = sy; i <= ey; i++)
 800265e:	88bb      	ldrh	r3, [r7, #4]
 8002660:	81fb      	strh	r3, [r7, #14]
 8002662:	e018      	b.n	8002696 <lcd_fill+0x66>
    {
        lcd_set_cursor(sx, i);      /* 设置光标位置 */
 8002664:	89fa      	ldrh	r2, [r7, #14]
 8002666:	88fb      	ldrh	r3, [r7, #6]
 8002668:	4611      	mov	r1, r2
 800266a:	4618      	mov	r0, r3
 800266c:	f7ff fade 	bl	8001c2c <lcd_set_cursor>
        lcd_write_ram_prepare();    /* 开始写入GRAM */
 8002670:	f7ff facc 	bl	8001c0c <lcd_write_ram_prepare>

        for (j = 0; j < xlen; j++)
 8002674:	2300      	movs	r3, #0
 8002676:	81bb      	strh	r3, [r7, #12]
 8002678:	e006      	b.n	8002688 <lcd_fill+0x58>
        {
            LCD->LCD_RAM = color;   /* 显示颜色 */
 800267a:	4b0b      	ldr	r3, [pc, #44]	; (80026a8 <lcd_fill+0x78>)
 800267c:	6a3a      	ldr	r2, [r7, #32]
 800267e:	b292      	uxth	r2, r2
 8002680:	805a      	strh	r2, [r3, #2]
        for (j = 0; j < xlen; j++)
 8002682:	89bb      	ldrh	r3, [r7, #12]
 8002684:	3301      	adds	r3, #1
 8002686:	81bb      	strh	r3, [r7, #12]
 8002688:	89ba      	ldrh	r2, [r7, #12]
 800268a:	897b      	ldrh	r3, [r7, #10]
 800268c:	429a      	cmp	r2, r3
 800268e:	d3f4      	bcc.n	800267a <lcd_fill+0x4a>
    for (i = sy; i <= ey; i++)
 8002690:	89fb      	ldrh	r3, [r7, #14]
 8002692:	3301      	adds	r3, #1
 8002694:	81fb      	strh	r3, [r7, #14]
 8002696:	89fa      	ldrh	r2, [r7, #14]
 8002698:	883b      	ldrh	r3, [r7, #0]
 800269a:	429a      	cmp	r2, r3
 800269c:	d9e2      	bls.n	8002664 <lcd_fill+0x34>
        }
    }
}
 800269e:	bf00      	nop
 80026a0:	bf00      	nop
 80026a2:	3714      	adds	r7, #20
 80026a4:	46bd      	mov	sp, r7
 80026a6:	bd90      	pop	{r4, r7, pc}
 80026a8:	6c00007e 	.word	0x6c00007e

080026ac <lcd_show_char>:
 * @param       size : 字体大小 12/16/24/32
 * @param       mode : 叠加方式(1); 非叠加方式(0);
 * @retval      无
 */
void lcd_show_char(uint16_t x, uint16_t y, uint8_t chr, uint8_t size, uint8_t mode, uint16_t color)
{
 80026ac:	b590      	push	{r4, r7, lr}
 80026ae:	b087      	sub	sp, #28
 80026b0:	af00      	add	r7, sp, #0
 80026b2:	4604      	mov	r4, r0
 80026b4:	4608      	mov	r0, r1
 80026b6:	4611      	mov	r1, r2
 80026b8:	461a      	mov	r2, r3
 80026ba:	4623      	mov	r3, r4
 80026bc:	80fb      	strh	r3, [r7, #6]
 80026be:	4603      	mov	r3, r0
 80026c0:	80bb      	strh	r3, [r7, #4]
 80026c2:	460b      	mov	r3, r1
 80026c4:	70fb      	strb	r3, [r7, #3]
 80026c6:	4613      	mov	r3, r2
 80026c8:	70bb      	strb	r3, [r7, #2]
    uint8_t temp, t1, t;
    uint16_t y0 = y;
 80026ca:	88bb      	ldrh	r3, [r7, #4]
 80026cc:	81fb      	strh	r3, [r7, #14]
    uint8_t csize = 0;
 80026ce:	2300      	movs	r3, #0
 80026d0:	737b      	strb	r3, [r7, #13]
    uint8_t *pfont = 0;
 80026d2:	2300      	movs	r3, #0
 80026d4:	613b      	str	r3, [r7, #16]

    csize = (size / 8 + ((size % 8) ? 1 : 0)) * (size / 2); /* 得到字体一个字符对应点阵集所占的字节数 */
 80026d6:	78bb      	ldrb	r3, [r7, #2]
 80026d8:	08db      	lsrs	r3, r3, #3
 80026da:	b2db      	uxtb	r3, r3
 80026dc:	461a      	mov	r2, r3
 80026de:	78bb      	ldrb	r3, [r7, #2]
 80026e0:	f003 0307 	and.w	r3, r3, #7
 80026e4:	b2db      	uxtb	r3, r3
 80026e6:	2b00      	cmp	r3, #0
 80026e8:	bf14      	ite	ne
 80026ea:	2301      	movne	r3, #1
 80026ec:	2300      	moveq	r3, #0
 80026ee:	b2db      	uxtb	r3, r3
