Archive member included to satisfy reference by file (symbol)

c:/program files/stmicroelectronics/stm32cube/stm32cubeide_1.10.1/stm32cubeide/plugins/com.st.stm32cube.ide.mcu.externaltools.gnu-tools-for-stm32.10.3-2021.10.win32_1.0.0.202111181127/tools/bin/../lib/gcc/arm-none-eabi/10.3.1/../../../../arm-none-eabi/lib/thumb/v7e-m+fp/hard\libc_nano.a(lib_a-errno.o)
                              ./Core/Src/syscalls.o (__errno)
c:/program files/stmicroelectronics/stm32cube/stm32cubeide_1.10.1/stm32cubeide/plugins/com.st.stm32cube.ide.mcu.externaltools.gnu-tools-for-stm32.10.3-2021.10.win32_1.0.0.202111181127/tools/bin/../lib/gcc/arm-none-eabi/10.3.1/../../../../arm-none-eabi/lib/thumb/v7e-m+fp/hard\libc_nano.a(lib_a-exit.o)
                              c:/program files/stmicroelectronics/stm32cube/stm32cubeide_1.10.1/stm32cubeide/plugins/com.st.stm32cube.ide.mcu.externaltools.gnu-tools-for-stm32.10.3-2021.10.win32_1.0.0.202111181127/tools/bin/../lib/gcc/arm-none-eabi/10.3.1/../../../../arm-none-eabi/lib/thumb/v7e-m+fp/hard/crt0.o (exit)
c:/program files/stmicroelectronics/stm32cube/stm32cubeide_1.10.1/stm32cubeide/plugins/com.st.stm32cube.ide.mcu.externaltools.gnu-tools-for-stm32.10.3-2021.10.win32_1.0.0.202111181127/tools/bin/../lib/gcc/arm-none-eabi/10.3.1/../../../../arm-none-eabi/lib/thumb/v7e-m+fp/hard\libc_nano.a(lib_a-impure.o)
                              c:/program files/stmicroelectronics/stm32cube/stm32cubeide_1.10.1/stm32cubeide/plugins/com.st.stm32cube.ide.mcu.externaltools.gnu-tools-for-stm32.10.3-2021.10.win32_1.0.0.202111181127/tools/bin/../lib/gcc/arm-none-eabi/10.3.1/../../../../arm-none-eabi/lib/thumb/v7e-m+fp/hard\libc_nano.a(lib_a-exit.o) (_global_impure_ptr)
c:/program files/stmicroelectronics/stm32cube/stm32cubeide_1.10.1/stm32cubeide/plugins/com.st.stm32cube.ide.mcu.externaltools.gnu-tools-for-stm32.10.3-2021.10.win32_1.0.0.202111181127/tools/bin/../lib/gcc/arm-none-eabi/10.3.1/../../../../arm-none-eabi/lib/thumb/v7e-m+fp/hard\libc_nano.a(lib_a-init.o)
                              c:/program files/stmicroelectronics/stm32cube/stm32cubeide_1.10.1/stm32cubeide/plugins/com.st.stm32cube.ide.mcu.externaltools.gnu-tools-for-stm32.10.3-2021.10.win32_1.0.0.202111181127/tools/bin/../lib/gcc/arm-none-eabi/10.3.1/../../../../arm-none-eabi/lib/thumb/v7e-m+fp/hard/crt0.o (__libc_init_array)
c:/program files/stmicroelectronics/stm32cube/stm32cubeide_1.10.1/stm32cubeide/plugins/com.st.stm32cube.ide.mcu.externaltools.gnu-tools-for-stm32.10.3-2021.10.win32_1.0.0.202111181127/tools/bin/../lib/gcc/arm-none-eabi/10.3.1/../../../../arm-none-eabi/lib/thumb/v7e-m+fp/hard\libc_nano.a(lib_a-malloc.o)
                              ./Middlewares/Third_Party/FatFs/src/option/syscall.o (malloc)
c:/program files/stmicroelectronics/stm32cube/stm32cubeide_1.10.1/stm32cubeide/plugins/com.st.stm32cube.ide.mcu.externaltools.gnu-tools-for-stm32.10.3-2021.10.win32_1.0.0.202111181127/tools/bin/../lib/gcc/arm-none-eabi/10.3.1/../../../../arm-none-eabi/lib/thumb/v7e-m+fp/hard\libc_nano.a(lib_a-memset.o)
                              c:/program files/stmicroelectronics/stm32cube/stm32cubeide_1.10.1/stm32cubeide/plugins/com.st.stm32cube.ide.mcu.externaltools.gnu-tools-for-stm32.10.3-2021.10.win32_1.0.0.202111181127/tools/bin/../lib/gcc/arm-none-eabi/10.3.1/../../../../arm-none-eabi/lib/thumb/v7e-m+fp/hard/crt0.o (memset)
c:/program files/stmicroelectronics/stm32cube/stm32cubeide_1.10.1/stm32cubeide/plugins/com.st.stm32cube.ide.mcu.externaltools.gnu-tools-for-stm32.10.3-2021.10.win32_1.0.0.202111181127/tools/bin/../lib/gcc/arm-none-eabi/10.3.1/../../../../arm-none-eabi/lib/thumb/v7e-m+fp/hard\libc_nano.a(lib_a-nano-freer.o)
                              c:/program files/stmicroelectronics/stm32cube/stm32cubeide_1.10.1/stm32cubeide/plugins/com.st.stm32cube.ide.mcu.externaltools.gnu-tools-for-stm32.10.3-2021.10.win32_1.0.0.202111181127/tools/bin/../lib/gcc/arm-none-eabi/10.3.1/../../../../arm-none-eabi/lib/thumb/v7e-m+fp/hard\libc_nano.a(lib_a-malloc.o) (_free_r)
c:/program files/stmicroelectronics/stm32cube/stm32cubeide_1.10.1/stm32cubeide/plugins/com.st.stm32cube.ide.mcu.externaltools.gnu-tools-for-stm32.10.3-2021.10.win32_1.0.0.202111181127/tools/bin/../lib/gcc/arm-none-eabi/10.3.1/../../../../arm-none-eabi/lib/thumb/v7e-m+fp/hard\libc_nano.a(lib_a-nano-mallocr.o)
                              c:/program files/stmicroelectronics/stm32cube/stm32cubeide_1.10.1/stm32cubeide/plugins/com.st.stm32cube.ide.mcu.externaltools.gnu-tools-for-stm32.10.3-2021.10.win32_1.0.0.202111181127/tools/bin/../lib/gcc/arm-none-eabi/10.3.1/../../../../arm-none-eabi/lib/thumb/v7e-m+fp/hard\libc_nano.a(lib_a-malloc.o) (_malloc_r)
c:/program files/stmicroelectronics/stm32cube/stm32cubeide_1.10.1/stm32cubeide/plugins/com.st.stm32cube.ide.mcu.externaltools.gnu-tools-for-stm32.10.3-2021.10.win32_1.0.0.202111181127/tools/bin/../lib/gcc/arm-none-eabi/10.3.1/../../../../arm-none-eabi/lib/thumb/v7e-m+fp/hard\libc_nano.a(lib_a-sbrkr.o)
                              c:/program files/stmicroelectronics/stm32cube/stm32cubeide_1.10.1/stm32cubeide/plugins/com.st.stm32cube.ide.mcu.externaltools.gnu-tools-for-stm32.10.3-2021.10.win32_1.0.0.202111181127/tools/bin/../lib/gcc/arm-none-eabi/10.3.1/../../../../arm-none-eabi/lib/thumb/v7e-m+fp/hard\libc_nano.a(lib_a-nano-mallocr.o) (_sbrk_r)
c:/program files/stmicroelectronics/stm32cube/stm32cubeide_1.10.1/stm32cubeide/plugins/com.st.stm32cube.ide.mcu.externaltools.gnu-tools-for-stm32.10.3-2021.10.win32_1.0.0.202111181127/tools/bin/../lib/gcc/arm-none-eabi/10.3.1/../../../../arm-none-eabi/lib/thumb/v7e-m+fp/hard\libc_nano.a(lib_a-sprintf.o)
                              ./Drivers/BSP/Src/file_opera.o (sprintf)
c:/program files/stmicroelectronics/stm32cube/stm32cubeide_1.10.1/stm32cubeide/plugins/com.st.stm32cube.ide.mcu.externaltools.gnu-tools-for-stm32.10.3-2021.10.win32_1.0.0.202111181127/tools/bin/../lib/gcc/arm-none-eabi/10.3.1/../../../../arm-none-eabi/lib/thumb/v7e-m+fp/hard\libc_nano.a(lib_a-strlen.o)
                              ./Drivers/BSP/Src/lcd.o (strlen)
c:/program files/stmicroelectronics/stm32cube/stm32cubeide_1.10.1/stm32cubeide/plugins/com.st.stm32cube.ide.mcu.externaltools.gnu-tools-for-stm32.10.3-2021.10.win32_1.0.0.202111181127/tools/bin/../lib/gcc/arm-none-eabi/10.3.1/../../../../arm-none-eabi/lib/thumb/v7e-m+fp/hard\libc_nano.a(lib_a-mlock.o)
                              c:/program files/stmicroelectronics/stm32cube/stm32cubeide_1.10.1/stm32cubeide/plugins/com.st.stm32cube.ide.mcu.externaltools.gnu-tools-for-stm32.10.3-2021.10.win32_1.0.0.202111181127/tools/bin/../lib/gcc/arm-none-eabi/10.3.1/../../../../arm-none-eabi/lib/thumb/v7e-m+fp/hard\libc_nano.a(lib_a-nano-freer.o) (__malloc_lock)
c:/program files/stmicroelectronics/stm32cube/stm32cubeide_1.10.1/stm32cubeide/plugins/com.st.stm32cube.ide.mcu.externaltools.gnu-tools-for-stm32.10.3-2021.10.win32_1.0.0.202111181127/tools/bin/../lib/gcc/arm-none-eabi/10.3.1/../../../../arm-none-eabi/lib/thumb/v7e-m+fp/hard\libc_nano.a(lib_a-nano-svfprintf.o)
                              c:/program files/stmicroelectronics/stm32cube/stm32cubeide_1.10.1/stm32cubeide/plugins/com.st.stm32cube.ide.mcu.externaltools.gnu-tools-for-stm32.10.3-2021.10.win32_1.0.0.202111181127/tools/bin/../lib/gcc/arm-none-eabi/10.3.1/../../../../arm-none-eabi/lib/thumb/v7e-m+fp/hard\libc_nano.a(lib_a-sprintf.o) (_svfprintf_r)
c:/program files/stmicroelectronics/stm32cube/stm32cubeide_1.10.1/stm32cubeide/plugins/com.st.stm32cube.ide.mcu.externaltools.gnu-tools-for-stm32.10.3-2021.10.win32_1.0.0.202111181127/tools/bin/../lib/gcc/arm-none-eabi/10.3.1/../../../../arm-none-eabi/lib/thumb/v7e-m+fp/hard\libc_nano.a(lib_a-nano-vfprintf_i.o)
                              c:/program files/stmicroelectronics/stm32cube/stm32cubeide_1.10.1/stm32cubeide/plugins/com.st.stm32cube.ide.mcu.externaltools.gnu-tools-for-stm32.10.3-2021.10.win32_1.0.0.202111181127/tools/bin/../lib/gcc/arm-none-eabi/10.3.1/../../../../arm-none-eabi/lib/thumb/v7e-m+fp/hard\libc_nano.a(lib_a-nano-svfprintf.o) (_printf_i)
c:/program files/stmicroelectronics/stm32cube/stm32cubeide_1.10.1/stm32cubeide/plugins/com.st.stm32cube.ide.mcu.externaltools.gnu-tools-for-stm32.10.3-2021.10.win32_1.0.0.202111181127/tools/bin/../lib/gcc/arm-none-eabi/10.3.1/../../../../arm-none-eabi/lib/thumb/v7e-m+fp/hard\libc_nano.a(lib_a-reent.o)
                              c:/program files/stmicroelectronics/stm32cube/stm32cubeide_1.10.1/stm32cubeide/plugins/com.st.stm32cube.ide.mcu.externaltools.gnu-tools-for-stm32.10.3-2021.10.win32_1.0.0.202111181127/tools/bin/../lib/gcc/arm-none-eabi/10.3.1/../../../../arm-none-eabi/lib/thumb/v7e-m+fp/hard\libc_nano.a(lib_a-sbrkr.o) (errno)
c:/program files/stmicroelectronics/stm32cube/stm32cubeide_1.10.1/stm32cubeide/plugins/com.st.stm32cube.ide.mcu.externaltools.gnu-tools-for-stm32.10.3-2021.10.win32_1.0.0.202111181127/tools/bin/../lib/gcc/arm-none-eabi/10.3.1/../../../../arm-none-eabi/lib/thumb/v7e-m+fp/hard\libc_nano.a(lib_a-lock.o)
                              c:/program files/stmicroelectronics/stm32cube/stm32cubeide_1.10.1/stm32cubeide/plugins/com.st.stm32cube.ide.mcu.externaltools.gnu-tools-for-stm32.10.3-2021.10.win32_1.0.0.202111181127/tools/bin/../lib/gcc/arm-none-eabi/10.3.1/../../../../arm-none-eabi/lib/thumb/v7e-m+fp/hard\libc_nano.a(lib_a-mlock.o) (__retarget_lock_acquire_recursive)
c:/program files/stmicroelectronics/stm32cube/stm32cubeide_1.10.1/stm32cubeide/plugins/com.st.stm32cube.ide.mcu.externaltools.gnu-tools-for-stm32.10.3-2021.10.win32_1.0.0.202111181127/tools/bin/../lib/gcc/arm-none-eabi/10.3.1/../../../../arm-none-eabi/lib/thumb/v7e-m+fp/hard\libc_nano.a(lib_a-memchr.o)
                              c:/program files/stmicroelectronics/stm32cube/stm32cubeide_1.10.1/stm32cubeide/plugins/com.st.stm32cube.ide.mcu.externaltools.gnu-tools-for-stm32.10.3-2021.10.win32_1.0.0.202111181127/tools/bin/../lib/gcc/arm-none-eabi/10.3.1/../../../../arm-none-eabi/lib/thumb/v7e-m+fp/hard\libc_nano.a(lib_a-nano-svfprintf.o) (memchr)
c:/program files/stmicroelectronics/stm32cube/stm32cubeide_1.10.1/stm32cubeide/plugins/com.st.stm32cube.ide.mcu.externaltools.gnu-tools-for-stm32.10.3-2021.10.win32_1.0.0.202111181127/tools/bin/../lib/gcc/arm-none-eabi/10.3.1/../../../../arm-none-eabi/lib/thumb/v7e-m+fp/hard\libc_nano.a(lib_a-memcpy-stub.o)
                              c:/program files/stmicroelectronics/stm32cube/stm32cubeide_1.10.1/stm32cubeide/plugins/com.st.stm32cube.ide.mcu.externaltools.gnu-tools-for-stm32.10.3-2021.10.win32_1.0.0.202111181127/tools/bin/../lib/gcc/arm-none-eabi/10.3.1/../../../../arm-none-eabi/lib/thumb/v7e-m+fp/hard\libc_nano.a(lib_a-nano-svfprintf.o) (memcpy)
c:/program files/stmicroelectronics/stm32cube/stm32cubeide_1.10.1/stm32cubeide/plugins/com.st.stm32cube.ide.mcu.externaltools.gnu-tools-for-stm32.10.3-2021.10.win32_1.0.0.202111181127/tools/bin/../lib/gcc/arm-none-eabi/10.3.1/../../../../arm-none-eabi/lib/thumb/v7e-m+fp/hard\libc_nano.a(lib_a-memmove.o)
                              c:/program files/stmicroelectronics/stm32cube/stm32cubeide_1.10.1/stm32cubeide/plugins/com.st.stm32cube.ide.mcu.externaltools.gnu-tools-for-stm32.10.3-2021.10.win32_1.0.0.202111181127/tools/bin/../lib/gcc/arm-none-eabi/10.3.1/../../../../arm-none-eabi/lib/thumb/v7e-m+fp/hard\libc_nano.a(lib_a-nano-svfprintf.o) (memmove)
c:/program files/stmicroelectronics/stm32cube/stm32cubeide_1.10.1/stm32cubeide/plugins/com.st.stm32cube.ide.mcu.externaltools.gnu-tools-for-stm32.10.3-2021.10.win32_1.0.0.202111181127/tools/bin/../lib/gcc/arm-none-eabi/10.3.1/../../../../arm-none-eabi/lib/thumb/v7e-m+fp/hard\libc_nano.a(lib_a-nano-reallocr.o)
                              c:/program files/stmicroelectronics/stm32cube/stm32cubeide_1.10.1/stm32cubeide/plugins/com.st.stm32cube.ide.mcu.externaltools.gnu-tools-for-stm32.10.3-2021.10.win32_1.0.0.202111181127/tools/bin/../lib/gcc/arm-none-eabi/10.3.1/../../../../arm-none-eabi/lib/thumb/v7e-m+fp/hard\libc_nano.a(lib_a-nano-svfprintf.o) (_realloc_r)
c:/program files/stmicroelectronics/stm32cube/stm32cubeide_1.10.1/stm32cubeide/plugins/com.st.stm32cube.ide.mcu.externaltools.gnu-tools-for-stm32.10.3-2021.10.win32_1.0.0.202111181127/tools/bin/../lib/gcc/arm-none-eabi/10.3.1/../../../../arm-none-eabi/lib/thumb/v7e-m+fp/hard\libc_nano.a(lib_a-nano-msizer.o)
                              c:/program files/stmicroelectronics/stm32cube/stm32cubeide_1.10.1/stm32cubeide/plugins/com.st.stm32cube.ide.mcu.externaltools.gnu-tools-for-stm32.10.3-2021.10.win32_1.0.0.202111181127/tools/bin/../lib/gcc/arm-none-eabi/10.3.1/../../../../arm-none-eabi/lib/thumb/v7e-m+fp/hard\libc_nano.a(lib_a-nano-reallocr.o) (_malloc_usable_size_r)
c:/program files/stmicroelectronics/stm32cube/stm32cubeide_1.10.1/stm32cubeide/plugins/com.st.stm32cube.ide.mcu.externaltools.gnu-tools-for-stm32.10.3-2021.10.win32_1.0.0.202111181127/tools/bin/../lib/gcc/arm-none-eabi/10.3.1/thumb/v7e-m+fp/hard\libgcc.a(_arm_muldf3.o)
                              ./Drivers/BSP/Src/lcd.o (__aeabi_dmul)
c:/program files/stmicroelectronics/stm32cube/stm32cubeide_1.10.1/stm32cubeide/plugins/com.st.stm32cube.ide.mcu.externaltools.gnu-tools-for-stm32.10.3-2021.10.win32_1.0.0.202111181127/tools/bin/../lib/gcc/arm-none-eabi/10.3.1/thumb/v7e-m+fp/hard\libgcc.a(_arm_addsubdf3.o)
                              ./Drivers/BSP/Src/lcd.o (__aeabi_i2d)
c:/program files/stmicroelectronics/stm32cube/stm32cubeide_1.10.1/stm32cubeide/plugins/com.st.stm32cube.ide.mcu.externaltools.gnu-tools-for-stm32.10.3-2021.10.win32_1.0.0.202111181127/tools/bin/../lib/gcc/arm-none-eabi/10.3.1/thumb/v7e-m+fp/hard\libgcc.a(_arm_fixunsdfsi.o)
                              ./Drivers/BSP/Src/lcd.o (__aeabi_d2uiz)
c:/program files/stmicroelectronics/stm32cube/stm32cubeide_1.10.1/stm32cubeide/plugins/com.st.stm32cube.ide.mcu.externaltools.gnu-tools-for-stm32.10.3-2021.10.win32_1.0.0.202111181127/tools/bin/../lib/gcc/arm-none-eabi/10.3.1/thumb/v7e-m+fp/hard\libgcc.a(_aeabi_uldivmod.o)
                              ./Drivers/STM32F4xx_HAL_Driver/Src/stm32f4xx_hal_rcc.o (__aeabi_uldivmod)
c:/program files/stmicroelectronics/stm32cube/stm32cubeide_1.10.1/stm32cubeide/plugins/com.st.stm32cube.ide.mcu.externaltools.gnu-tools-for-stm32.10.3-2021.10.win32_1.0.0.202111181127/tools/bin/../lib/gcc/arm-none-eabi/10.3.1/thumb/v7e-m+fp/hard\libgcc.a(_udivmoddi4.o)
                              c:/program files/stmicroelectronics/stm32cube/stm32cubeide_1.10.1/stm32cubeide/plugins/com.st.stm32cube.ide.mcu.externaltools.gnu-tools-for-stm32.10.3-2021.10.win32_1.0.0.202111181127/tools/bin/../lib/gcc/arm-none-eabi/10.3.1/thumb/v7e-m+fp/hard\libgcc.a(_aeabi_uldivmod.o) (__udivmoddi4)
c:/program files/stmicroelectronics/stm32cube/stm32cubeide_1.10.1/stm32cubeide/plugins/com.st.stm32cube.ide.mcu.externaltools.gnu-tools-for-stm32.10.3-2021.10.win32_1.0.0.202111181127/tools/bin/../lib/gcc/arm-none-eabi/10.3.1/thumb/v7e-m+fp/hard\libgcc.a(_dvmd_tls.o)
                              c:/program files/stmicroelectronics/stm32cube/stm32cubeide_1.10.1/stm32cubeide/plugins/com.st.stm32cube.ide.mcu.externaltools.gnu-tools-for-stm32.10.3-2021.10.win32_1.0.0.202111181127/tools/bin/../lib/gcc/arm-none-eabi/10.3.1/thumb/v7e-m+fp/hard\libgcc.a(_aeabi_uldivmod.o) (__aeabi_ldiv0)

Discarded input sections

 .text          0x0000000000000000        0x0 c:/program files/stmicroelectronics/stm32cube/stm32cubeide_1.10.1/stm32cubeide/plugins/com.st.stm32cube.ide.mcu.externaltools.gnu-tools-for-stm32.10.3-2021.10.win32_1.0.0.202111181127/tools/bin/../lib/gcc/arm-none-eabi/10.3.1/thumb/v7e-m+fp/hard/crti.o
 .data          0x0000000000000000        0x0 c:/program files/stmicroelectronics/stm32cube/stm32cubeide_1.10.1/stm32cubeide/plugins/com.st.stm32cube.ide.mcu.externaltools.gnu-tools-for-stm32.10.3-2021.10.win32_1.0.0.202111181127/tools/bin/../lib/gcc/arm-none-eabi/10.3.1/thumb/v7e-m+fp/hard/crti.o
 .bss           0x0000000000000000        0x0 c:/program files/stmicroelectronics/stm32cube/stm32cubeide_1.10.1/stm32cubeide/plugins/com.st.stm32cube.ide.mcu.externaltools.gnu-tools-for-stm32.10.3-2021.10.win32_1.0.0.202111181127/tools/bin/../lib/gcc/arm-none-eabi/10.3.1/thumb/v7e-m+fp/hard/crti.o
 .data          0x0000000000000000        0x4 c:/program files/stmicroelectronics/stm32cube/stm32cubeide_1.10.1/stm32cubeide/plugins/com.st.stm32cube.ide.mcu.externaltools.gnu-tools-for-stm32.10.3-2021.10.win32_1.0.0.202111181127/tools/bin/../lib/gcc/arm-none-eabi/10.3.1/thumb/v7e-m+fp/hard/crtbegin.o
 .rodata        0x0000000000000000       0x24 c:/program files/stmicroelectronics/stm32cube/stm32cubeide_1.10.1/stm32cubeide/plugins/com.st.stm32cube.ide.mcu.externaltools.gnu-tools-for-stm32.10.3-2021.10.win32_1.0.0.202111181127/tools/bin/../lib/gcc/arm-none-eabi/10.3.1/thumb/v7e-m+fp/hard/crtbegin.o
 .text          0x0000000000000000       0x7c c:/program files/stmicroelectronics/stm32cube/stm32cubeide_1.10.1/stm32cubeide/plugins/com.st.stm32cube.ide.mcu.externaltools.gnu-tools-for-stm32.10.3-2021.10.win32_1.0.0.202111181127/tools/bin/../lib/gcc/arm-none-eabi/10.3.1/../../../../arm-none-eabi/lib/thumb/v7e-m+fp/hard/crt0.o
 .data          0x0000000000000000        0x0 c:/program files/stmicroelectronics/stm32cube/stm32cubeide_1.10.1/stm32cubeide/plugins/com.st.stm32cube.ide.mcu.externaltools.gnu-tools-for-stm32.10.3-2021.10.win32_1.0.0.202111181127/tools/bin/../lib/gcc/arm-none-eabi/10.3.1/../../../../arm-none-eabi/lib/thumb/v7e-m+fp/hard/crt0.o
 .bss           0x0000000000000000        0x0 c:/program files/stmicroelectronics/stm32cube/stm32cubeide_1.10.1/stm32cubeide/plugins/com.st.stm32cube.ide.mcu.externaltools.gnu-tools-for-stm32.10.3-2021.10.win32_1.0.0.202111181127/tools/bin/../lib/gcc/arm-none-eabi/10.3.1/../../../../arm-none-eabi/lib/thumb/v7e-m+fp/hard/crt0.o
 .ARM.extab     0x0000000000000000        0x0 c:/program files/stmicroelectronics/stm32cube/stm32cubeide_1.10.1/stm32cubeide/plugins/com.st.stm32cube.ide.mcu.externaltools.gnu-tools-for-stm32.10.3-2021.10.win32_1.0.0.202111181127/tools/bin/../lib/gcc/arm-none-eabi/10.3.1/../../../../arm-none-eabi/lib/thumb/v7e-m+fp/hard/crt0.o
 .ARM.exidx     0x0000000000000000       0x10 c:/program files/stmicroelectronics/stm32cube/stm32cubeide_1.10.1/stm32cubeide/plugins/com.st.stm32cube.ide.mcu.externaltools.gnu-tools-for-stm32.10.3-2021.10.win32_1.0.0.202111181127/tools/bin/../lib/gcc/arm-none-eabi/10.3.1/../../../../arm-none-eabi/lib/thumb/v7e-m+fp/hard/crt0.o
 .ARM.attributes
                0x0000000000000000       0x1c c:/program files/stmicroelectronics/stm32cube/stm32cubeide_1.10.1/stm32cubeide/plugins/com.st.stm32cube.ide.mcu.externaltools.gnu-tools-for-stm32.10.3-2021.10.win32_1.0.0.202111181127/tools/bin/../lib/gcc/arm-none-eabi/10.3.1/../../../../arm-none-eabi/lib/thumb/v7e-m+fp/hard/crt0.o
 .group         0x0000000000000000        0xc ./Core/Src/fsmc.o
 .group         0x0000000000000000        0xc ./Core/Src/fsmc.o
 .group         0x0000000000000000        0xc ./Core/Src/fsmc.o
 .group         0x0000000000000000        0xc ./Core/Src/fsmc.o
 .group         0x0000000000000000        0xc ./Core/Src/fsmc.o
 .group         0x0000000000000000        0xc ./Core/Src/fsmc.o
Memory Configuration

Name             Origin             Length             Attributes
CCMRAM           0x0000000010000000 0x0000000000010000 xrw
RAM              0x0000000020000000 0x0000000000020000 xrw
FLASH            0x0000000008000000 0x0000000000100000 xr
*default*        0x0000000000000000 0xffffffffffffffff

Linker script and memory map

LOAD c:/program files/stmicroelectronics/stm32cube/stm32cubeide_1.10.1/stm32cubeide/plugins/com.st.stm32cube.ide.mcu.externaltools.gnu-tools-for-stm32.10.3-2021.10.win32_1.0.0.202111181127/tools/bin/../lib/gcc/arm-none-eabi/10.3.1/thumb/v7e-m+fp/hard/crti.o
LOAD c:/program files/stmicroelectronics/stm32cube/stm32cubeide_1.10.1/stm32cubeide/plugins/com.st.stm32cube.ide.mcu.externaltools.gnu-tools-for-stm32.10.3-2021.10.win32_1.0.0.202111181127/tools/bin/../lib/gcc/arm-none-eabi/10.3.1/thumb/v7e-m+fp/hard/crtbegin.o
LOAD c:/program files/stmicroelectronics/stm32cube/stm32cubeide_1.10.1/stm32cubeide/plugins/com.st.stm32cube.ide.mcu.externaltools.gnu-tools-for-stm32.10.3-2021.10.win32_1.0.0.202111181127/tools/bin/../lib/gcc/arm-none-eabi/10.3.1/../../../../arm-none-eabi/lib/thumb/v7e-m+fp/hard/crt0.o
LOAD ./Core/Src/fsmc.o
LOAD ./Core/Src/gpio.o
LOAD ./Core/Src/main.o
LOAD ./Core/Src/rtc.o
LOAD ./Core/Src/sdio.o
LOAD ./Core/Src/stm32f4xx_hal_msp.o
LOAD ./Core/Src/stm32f4xx_it.o
LOAD ./Core/Src/syscalls.o
LOAD ./Core/Src/sysmem.o
LOAD ./Core/Src/system_stm32f4xx.o
LOAD ./Core/Startup/startup_stm32f407zgtx.o
LOAD ./Drivers/BSP/Src/file_opera.o
LOAD ./Drivers/BSP/Src/keyled.o
LOAD ./Drivers/BSP/Src/lcd.o
LOAD ./Drivers/STM32F4xx_HAL_Driver/Src/stm32f4xx_hal.o
LOAD ./Drivers/STM32F4xx_HAL_Driver/Src/stm32f4xx_hal_cortex.o
LOAD ./Drivers/STM32F4xx_HAL_Driver/Src/stm32f4xx_hal_dma.o
LOAD ./Drivers/STM32F4xx_HAL_Driver/Src/stm32f4xx_hal_dma_ex.o
LOAD ./Drivers/STM32F4xx_HAL_Driver/Src/stm32f4xx_hal_exti.o
LOAD ./Drivers/STM32F4xx_HAL_Driver/Src/stm32f4xx_hal_flash.o
LOAD ./Drivers/STM32F4xx_HAL_Driver/Src/stm32f4xx_hal_flash_ex.o
LOAD ./Drivers/STM32F4xx_HAL_Driver/Src/stm32f4xx_hal_flash_ramfunc.o
LOAD ./Drivers/STM32F4xx_HAL_Driver/Src/stm32f4xx_hal_gpio.o
LOAD ./Drivers/STM32F4xx_HAL_Driver/Src/stm32f4xx_hal_pcd.o
LOAD ./Drivers/STM32F4xx_HAL_Driver/Src/stm32f4xx_hal_pcd_ex.o
LOAD ./Drivers/STM32F4xx_HAL_Driver/Src/stm32f4xx_hal_pwr.o
LOAD ./Drivers/STM32F4xx_HAL_Driver/Src/stm32f4xx_hal_pwr_ex.o
LOAD ./Drivers/STM32F4xx_HAL_Driver/Src/stm32f4xx_hal_rcc.o
LOAD ./Drivers/STM32F4xx_HAL_Driver/Src/stm32f4xx_hal_rcc_ex.o
LOAD ./Drivers/STM32F4xx_HAL_Driver/Src/stm32f4xx_hal_rtc.o
LOAD ./Drivers/STM32F4xx_HAL_Driver/Src/stm32f4xx_hal_rtc_ex.o
LOAD ./Drivers/STM32F4xx_HAL_Driver/Src/stm32f4xx_hal_sd.o
LOAD ./Drivers/STM32F4xx_HAL_Driver/Src/stm32f4xx_hal_sram.o
LOAD ./Drivers/STM32F4xx_HAL_Driver/Src/stm32f4xx_hal_tim.o
LOAD ./Drivers/STM32F4xx_HAL_Driver/Src/stm32f4xx_hal_tim_ex.o
LOAD ./Drivers/STM32F4xx_HAL_Driver/Src/stm32f4xx_ll_fsmc.o
LOAD ./Drivers/STM32F4xx_HAL_Driver/Src/stm32f4xx_ll_sdmmc.o
LOAD ./Drivers/STM32F4xx_HAL_Driver/Src/stm32f4xx_ll_usb.o
LOAD ./FATFS/App/fatfs.o
LOAD ./FATFS/Target/bsp_driver_sd.o
LOAD ./FATFS/Target/sd_diskio.o
LOAD ./Middlewares/ST/STM32_USB_Device_Library/Class/MSC/Src/usbd_msc.o
LOAD ./Middlewares/ST/STM32_USB_Device_Library/Class/MSC/Src/usbd_msc_bot.o
LOAD ./Middlewares/ST/STM32_USB_Device_Library/Class/MSC/Src/usbd_msc_data.o
LOAD ./Middlewares/ST/STM32_USB_Device_Library/Class/MSC/Src/usbd_msc_scsi.o
LOAD ./Middlewares/ST/STM32_USB_Device_Library/Core/Src/usbd_core.o
LOAD ./Middlewares/ST/STM32_USB_Device_Library/Core/Src/usbd_ctlreq.o
LOAD ./Middlewares/ST/STM32_USB_Device_Library/Core/Src/usbd_ioreq.o
LOAD ./Middlewares/Third_Party/FatFs/src/diskio.o
LOAD ./Middlewares/Third_Party/FatFs/src/ff.o
LOAD ./Middlewares/Third_Party/FatFs/src/ff_gen_drv.o
LOAD ./Middlewares/Third_Party/FatFs/src/option/cc936.o
LOAD ./Middlewares/Third_Party/FatFs/src/option/syscall.o
LOAD ./USB_DEVICE/App/usb_device.o
LOAD ./USB_DEVICE/App/usbd_desc.o
LOAD ./USB_DEVICE/App/usbd_storage_if.o
LOAD ./USB_DEVICE/Target/usbd_conf.o
START GROUP
LOAD c:/program files/stmicroelectronics/stm32cube/stm32cubeide_1.10.1/stm32cubeide/plugins/com.st.stm32cube.ide.mcu.externaltools.gnu-tools-for-stm32.10.3-2021.10.win32_1.0.0.202111181127/tools/bin/../lib/gcc/arm-none-eabi/10.3.1/../../../../arm-none-eabi/lib/thumb/v7e-m+fp/hard\libc_nano.a
LOAD c:/program files/stmicroelectronics/stm32cube/stm32cubeide_1.10.1/stm32cubeide/plugins/com.st.stm32cube.ide.mcu.externaltools.gnu-tools-for-stm32.10.3-2021.10.win32_1.0.0.202111181127/tools/bin/../lib/gcc/arm-none-eabi/10.3.1/../../../../arm-none-eabi/lib/thumb/v7e-m+fp/hard\libm.a
END GROUP
START GROUP
LOAD c:/program files/stmicroelectronics/stm32cube/stm32cubeide_1.10.1/stm32cubeide/plugins/com.st.stm32cube.ide.mcu.externaltools.gnu-tools-for-stm32.10.3-2021.10.win32_1.0.0.202111181127/tools/bin/../lib/gcc/arm-none-eabi/10.3.1/thumb/v7e-m+fp/hard\libgcc.a
LOAD c:/program files/stmicroelectronics/stm32cube/stm32cubeide_1.10.1/stm32cubeide/plugins/com.st.stm32cube.ide.mcu.externaltools.gnu-tools-for-stm32.10.3-2021.10.win32_1.0.0.202111181127/tools/bin/../lib/gcc/arm-none-eabi/10.3.1/../../../../arm-none-eabi/lib/thumb/v7e-m+fp/hard\libc_nano.a
END GROUP
START GROUP
LOAD c:/program files/stmicroelectronics/stm32cube/stm32cubeide_1.10.1/stm32cubeide/plugins/com.st.stm32cube.ide.mcu.externaltools.gnu-tools-for-stm32.10.3-2021.10.win32_1.0.0.202111181127/tools/bin/../lib/gcc/arm-none-eabi/10.3.1/thumb/v7e-m+fp/hard\libgcc.a
LOAD c:/program files/stmicroelectronics/stm32cube/stm32cubeide_1.10.1/stm32cubeide/plugins/com.st.stm32cube.ide.mcu.externaltools.gnu-tools-for-stm32.10.3-2021.10.win32_1.0.0.202111181127/tools/bin/../lib/gcc/arm-none-eabi/10.3.1/../../../../arm-none-eabi/lib/thumb/v7e-m+fp/hard\libc_nano.a
LOAD c:/program files/stmicroelectronics/stm32cube/stm32cubeide_1.10.1/stm32cubeide/plugins/com.st.stm32cube.ide.mcu.externaltools.gnu-tools-for-stm32.10.3-2021.10.win32_1.0.0.202111181127/tools/bin/../lib/gcc/arm-none-eabi/10.3.1/../../../../arm-none-eabi/lib/thumb/v7e-m+fp/hard\libnosys.a
END GROUP
START GROUP
LOAD c:/program files/stmicroelectronics/stm32cube/stm32cubeide_1.10.1/stm32cubeide/plugins/com.st.stm32cube.ide.mcu.externaltools.gnu-tools-for-stm32.10.3-2021.10.win32_1.0.0.202111181127/tools/bin/../lib/gcc/arm-none-eabi/10.3.1/thumb/v7e-m+fp/hard\libgcc.a
LOAD c:/program files/stmicroelectronics/stm32cube/stm32cubeide_1.10.1/stm32cubeide/plugins/com.st.stm32cube.ide.mcu.externaltools.gnu-tools-for-stm32.10.3-2021.10.win32_1.0.0.202111181127/tools/bin/../lib/gcc/arm-none-eabi/10.3.1/../../../../arm-none-eabi/lib/thumb/v7e-m+fp/hard\libc_nano.a
LOAD c:/program files/stmicroelectronics/stm32cube/stm32cubeide_1.10.1/stm32cubeide/plugins/com.st.stm32cube.ide.mcu.externaltools.gnu-tools-for-stm32.10.3-2021.10.win32_1.0.0.202111181127/tools/bin/../lib/gcc/arm-none-eabi/10.3.1/../../../../arm-none-eabi/lib/thumb/v7e-m+fp/hard\libnosys.a
END GROUP
LOAD c:/program files/stmicroelectronics/stm32cube/stm32cubeide_1.10.1/stm32cubeide/plugins/com.st.stm32cube.ide.mcu.externaltools.gnu-tools-for-stm32.10.3-2021.10.win32_1.0.0.202111181127/tools/bin/../lib/gcc/arm-none-eabi/10.3.1/thumb/v7e-m+fp/hard/crtend.o
LOAD c:/program files/stmicroelectronics/stm32cube/stm32cubeide_1.10.1/stm32cubeide/plugins/com.st.stm32cube.ide.mcu.externaltools.gnu-tools-for-stm32.10.3-2021.10.win32_1.0.0.202111181127/tools/bin/../lib/gcc/arm-none-eabi/10.3.1/thumb/v7e-m+fp/hard/crtn.o
                0x0000000020020000                _estack = (ORIGIN (RAM) + LENGTH (RAM))
                0x0000000000000200                _Min_Heap_Size = 0x200
                0x0000000000000400                _Min_Stack_Size = 0x400

.isr_vector     0x0000000008000000      0x188
                0x0000000008000000                . = ALIGN (0x4)
 *(.isr_vector)
 .isr_vector    0x0000000008000000      0x188 ./Core/Startup/startup_stm32f407zgtx.o
                0x0000000008000000                g_pfnVectors
                0x0000000008000188                . = ALIGN (0x4)

.text           0x0000000008000190    0x14254
                0x0000000008000190                . = ALIGN (0x4)
 *(.text)
 .text          0x0000000008000190       0x40 c:/program files/stmicroelectronics/stm32cube/stm32cubeide_1.10.1/stm32cubeide/plugins/com.st.stm32cube.ide.mcu.externaltools.gnu-tools-for-stm32.10.3-2021.10.win32_1.0.0.202111181127/tools/bin/../lib/gcc/arm-none-eabi/10.3.1/thumb/v7e-m+fp/hard/crtbegin.o
 .text          0x00000000080001d0       0x10 c:/program files/stmicroelectronics/stm32cube/stm32cubeide_1.10.1/stm32cubeide/plugins/com.st.stm32cube.ide.mcu.externaltools.gnu-tools-for-stm32.10.3-2021.10.win32_1.0.0.202111181127/tools/bin/../lib/gcc/arm-none-eabi/10.3.1/../../../../arm-none-eabi/lib/thumb/v7e-m+fp/hard\libc_nano.a(lib_a-strlen.o)
                0x00000000080001d0                strlen
 .text          0x00000000080001e0       0xa0 c:/program files/stmicroelectronics/stm32cube/stm32cubeide_1.10.1/stm32cubeide/plugins/com.st.stm32cube.ide.mcu.externaltools.gnu-tools-for-stm32.10.3-2021.10.win32_1.0.0.202111181127/tools/bin/../lib/gcc/arm-none-eabi/10.3.1/../../../../arm-none-eabi/lib/thumb/v7e-m+fp/hard\libc_nano.a(lib_a-memchr.o)
                0x00000000080001e0                memchr
 .text          0x0000000008000280      0x254 c:/program files/stmicroelectronics/stm32cube/stm32cubeide_1.10.1/stm32cubeide/plugins/com.st.stm32cube.ide.mcu.externaltools.gnu-tools-for-stm32.10.3-2021.10.win32_1.0.0.202111181127/tools/bin/../lib/gcc/arm-none-eabi/10.3.1/thumb/v7e-m+fp/hard\libgcc.a(_arm_muldf3.o)
                0x0000000008000280                __muldf3
                0x0000000008000280                __aeabi_dmul
 .text          0x00000000080004d4      0x378 c:/program files/stmicroelectronics/stm32cube/stm32cubeide_1.10.1/stm32cubeide/plugins/com.st.stm32cube.ide.mcu.externaltools.gnu-tools-for-stm32.10.3-2021.10.win32_1.0.0.202111181127/tools/bin/../lib/gcc/arm-none-eabi/10.3.1/thumb/v7e-m+fp/hard\libgcc.a(_arm_addsubdf3.o)
                0x00000000080004d4                __aeabi_drsub
                0x00000000080004dc                __aeabi_dsub
                0x00000000080004dc                __subdf3
                0x00000000080004e0                __aeabi_dadd
                0x00000000080004e0                __adddf3
                0x0000000008000758                __floatunsidf
                0x0000000008000758                __aeabi_ui2d
                0x0000000008000778                __floatsidf
                0x0000000008000778                __aeabi_i2d
                0x000000000800079c                __aeabi_f2d
                0x000000000800079c                __extendsfdf2
                0x00000000080007e0                __floatundidf
                0x00000000080007e0                __aeabi_ul2d
                0x00000000080007f0                __floatdidf
                0x00000000080007f0                __aeabi_l2d
 .text          0x000000000800084c       0x40 c:/program files/stmicroelectronics/stm32cube/stm32cubeide_1.10.1/stm32cubeide/plugins/com.st.stm32cube.ide.mcu.externaltools.gnu-tools-for-stm32.10.3-2021.10.win32_1.0.0.202111181127/tools/bin/../lib/gcc/arm-none-eabi/10.3.1/thumb/v7e-m+fp/hard\libgcc.a(_arm_fixunsdfsi.o)
                0x000000000800084c                __aeabi_d2uiz
                0x000000000800084c                __fixunsdfsi
 .text          0x000000000800088c       0x30 c:/program files/stmicroelectronics/stm32cube/stm32cubeide_1.10.1/stm32cubeide/plugins/com.st.stm32cube.ide.mcu.externaltools.gnu-tools-for-stm32.10.3-2021.10.win32_1.0.0.202111181127/tools/bin/../lib/gcc/arm-none-eabi/10.3.1/thumb/v7e-m+fp/hard\libgcc.a(_aeabi_uldivmod.o)
                0x000000000800088c                __aeabi_uldivmod
 .text          0x00000000080008bc      0x2d0 c:/program files/stmicroelectronics/stm32cube/stm32cubeide_1.10.1/stm32cubeide/plugins/com.st.stm32cube.ide.mcu.externaltools.gnu-tools-for-stm32.10.3-2021.10.win32_1.0.0.202111181127/tools/bin/../lib/gcc/arm-none-eabi/10.3.1/thumb/v7e-m+fp/hard\libgcc.a(_udivmoddi4.o)
                0x00000000080008bc                __udivmoddi4
 .text          0x0000000008000b8c        0x4 c:/program files/stmicroelectronics/stm32cube/stm32cubeide_1.10.1/stm32cubeide/plugins/com.st.stm32cube.ide.mcu.externaltools.gnu-tools-for-stm32.10.3-2021.10.win32_1.0.0.202111181127/tools/bin/../lib/gcc/arm-none-eabi/10.3.1/thumb/v7e-m+fp/hard\libgcc.a(_dvmd_tls.o)
                0x0000000008000b8c                __aeabi_idiv0
                0x0000000008000b8c                __aeabi_ldiv0
 *(.text*)
 .text.MX_FSMC_Init
                0x0000000008000b90       0xf4 ./Core/Src/fsmc.o
                0x0000000008000b90                MX_FSMC_Init
 .text.HAL_FSMC_MspInit
                0x0000000008000c84       0xe0 ./Core/Src/fsmc.o
 .text.HAL_SRAM_MspInit
                0x0000000008000d64       0x14 ./Core/Src/fsmc.o
                0x0000000008000d64                HAL_SRAM_MspInit
 .text.MX_GPIO_Init
                0x0000000008000d78      0x198 ./Core/Src/gpio.o
                0x0000000008000d78                MX_GPIO_Init
 .text.main     0x0000000008000f10      0x260 ./Core/Src/main.o
                0x0000000008000f10                main
 .text.SystemClock_Config
                0x0000000008001170       0xd8 ./Core/Src/main.o
                0x0000000008001170                SystemClock_Config
 .text.Error_Handler
                0x0000000008001248        0xa ./Core/Src/main.o
                0x0000000008001248                Error_Handler
 *fill*         0x0000000008001252        0x2 
 .text.MX_RTC_Init
                0x0000000008001254       0xb4 ./Core/Src/rtc.o
                0x0000000008001254                MX_RTC_Init
 .text.HAL_RTC_MspInit
                0x0000000008001308       0x54 ./Core/Src/rtc.o
                0x0000000008001308                HAL_RTC_MspInit
 .text.MX_SDIO_SD_Init
                0x000000000800135c       0x40 ./Core/Src/sdio.o
                0x000000000800135c                MX_SDIO_SD_Init
 .text.HAL_SD_MspInit
                0x000000000800139c       0xd0 ./Core/Src/sdio.o
                0x000000000800139c                HAL_SD_MspInit
 .text.HAL_MspInit
                0x000000000800146c       0x50 ./Core/Src/stm32f4xx_hal_msp.o
                0x000000000800146c                HAL_MspInit
 .text.NMI_Handler
                0x00000000080014bc        0x6 ./Core/Src/stm32f4xx_it.o
                0x00000000080014bc                NMI_Handler
 .text.HardFault_Handler
                0x00000000080014c2        0x6 ./Core/Src/stm32f4xx_it.o
                0x00000000080014c2                HardFault_Handler
 .text.MemManage_Handler
                0x00000000080014c8        0x6 ./Core/Src/stm32f4xx_it.o
                0x00000000080014c8                MemManage_Handler
 .text.BusFault_Handler
                0x00000000080014ce        0x6 ./Core/Src/stm32f4xx_it.o
                0x00000000080014ce                BusFault_Handler
 .text.UsageFault_Handler
                0x00000000080014d4        0x6 ./Core/Src/stm32f4xx_it.o
                0x00000000080014d4                UsageFault_Handler
 .text.SVC_Handler
                0x00000000080014da        0xe ./Core/Src/stm32f4xx_it.o
                0x00000000080014da                SVC_Handler
 .text.DebugMon_Handler
                0x00000000080014e8        0xe ./Core/Src/stm32f4xx_it.o
                0x00000000080014e8                DebugMon_Handler
 .text.PendSV_Handler
                0x00000000080014f6        0xe ./Core/Src/stm32f4xx_it.o
                0x00000000080014f6                PendSV_Handler
 .text.SysTick_Handler
                0x0000000008001504        0xc ./Core/Src/stm32f4xx_it.o
                0x0000000008001504                SysTick_Handler
 .text.OTG_FS_IRQHandler
                0x0000000008001510       0x14 ./Core/Src/stm32f4xx_it.o
                0x0000000008001510                OTG_FS_IRQHandler
 .text._sbrk    0x0000000008001524       0x6c ./Core/Src/sysmem.o
                0x0000000008001524                _sbrk
 .text.SystemInit
                0x0000000008001590       0x24 ./Core/Src/system_stm32f4xx.o
                0x0000000008001590                SystemInit
 .text.Reset_Handler
                0x00000000080015b4       0x50 ./Core/Startup/startup_stm32f407zgtx.o
                0x00000000080015b4                Reset_Handler
 .text.Default_Handler
                0x0000000008001604        0x2 ./Core/Startup/startup_stm32f407zgtx.o
                0x0000000008001604                RTC_Alarm_IRQHandler
                0x0000000008001604                HASH_RNG_IRQHandler
                0x0000000008001604                EXTI2_IRQHandler
                0x0000000008001604                TIM8_CC_IRQHandler
                0x0000000008001604                TIM1_CC_IRQHandler
                0x0000000008001604                DMA2_Stream5_IRQHandler
                0x0000000008001604                DMA1_Stream5_IRQHandler
                0x0000000008001604                PVD_IRQHandler
                0x0000000008001604                SDIO_IRQHandler
                0x0000000008001604                TAMP_STAMP_IRQHandler
                0x0000000008001604                CAN2_RX1_IRQHandler
                0x0000000008001604                EXTI3_IRQHandler
                0x0000000008001604                TIM8_TRG_COM_TIM14_IRQHandler
                0x0000000008001604                TIM1_UP_TIM10_IRQHandler
                0x0000000008001604                TIM8_UP_TIM13_IRQHandler
                0x0000000008001604                I2C3_ER_IRQHandler
                0x0000000008001604                EXTI0_IRQHandler
                0x0000000008001604                I2C2_EV_IRQHandler
                0x0000000008001604                DMA1_Stream2_IRQHandler
                0x0000000008001604                CAN1_RX0_IRQHandler
                0x0000000008001604                FPU_IRQHandler
                0x0000000008001604                OTG_HS_WKUP_IRQHandler
                0x0000000008001604                CAN2_SCE_IRQHandler
                0x0000000008001604                DMA2_Stream2_IRQHandler
                0x0000000008001604                SPI1_IRQHandler
                0x0000000008001604                TIM6_DAC_IRQHandler
                0x0000000008001604                TIM1_BRK_TIM9_IRQHandler
                0x0000000008001604                DCMI_IRQHandler
                0x0000000008001604                CAN2_RX0_IRQHandler
                0x0000000008001604                DMA2_Stream3_IRQHandler
                0x0000000008001604                USART6_IRQHandler
                0x0000000008001604                USART3_IRQHandler
                0x0000000008001604                CAN1_RX1_IRQHandler
                0x0000000008001604                UART5_IRQHandler
                0x0000000008001604                DMA2_Stream0_IRQHandler
                0x0000000008001604                TIM4_IRQHandler
                0x0000000008001604                I2C1_EV_IRQHandler
                0x0000000008001604                DMA1_Stream6_IRQHandler
                0x0000000008001604                DMA1_Stream1_IRQHandler
                0x0000000008001604                UART4_IRQHandler
                0x0000000008001604                TIM3_IRQHandler
                0x0000000008001604                RCC_IRQHandler
                0x0000000008001604                TIM8_BRK_TIM12_IRQHandler
                0x0000000008001604                Default_Handler
                0x0000000008001604                EXTI15_10_IRQHandler
                0x0000000008001604                ADC_IRQHandler
                0x0000000008001604                DMA1_Stream7_IRQHandler
                0x0000000008001604                TIM7_IRQHandler
                0x0000000008001604                CAN2_TX_IRQHandler
                0x0000000008001604                TIM5_IRQHandler
                0x0000000008001604                DMA2_Stream7_IRQHandler
                0x0000000008001604                I2C3_EV_IRQHandler
                0x0000000008001604                EXTI9_5_IRQHandler
                0x0000000008001604                RTC_WKUP_IRQHandler
                0x0000000008001604                ETH_WKUP_IRQHandler
                0x0000000008001604                SPI2_IRQHandler
                0x0000000008001604                OTG_HS_EP1_IN_IRQHandler
                0x0000000008001604                DMA1_Stream0_IRQHandler
                0x0000000008001604                CAN1_TX_IRQHandler
                0x0000000008001604                EXTI4_IRQHandler
                0x0000000008001604                FSMC_IRQHandler
                0x0000000008001604                ETH_IRQHandler
                0x0000000008001604                OTG_HS_EP1_OUT_IRQHandler
                0x0000000008001604                WWDG_IRQHandler
                0x0000000008001604                TIM2_IRQHandler
                0x0000000008001604                OTG_FS_WKUP_IRQHandler
                0x0000000008001604                TIM1_TRG_COM_TIM11_IRQHandler
                0x0000000008001604                OTG_HS_IRQHandler
                0x0000000008001604                EXTI1_IRQHandler
                0x0000000008001604                USART2_IRQHandler
                0x0000000008001604                I2C2_ER_IRQHandler
                0x0000000008001604                DMA2_Stream1_IRQHandler
                0x0000000008001604                CAN1_SCE_IRQHandler
                0x0000000008001604                FLASH_IRQHandler
                0x0000000008001604                DMA2_Stream4_IRQHandler
                0x0000000008001604                USART1_IRQHandler
                0x0000000008001604                SPI3_IRQHandler
                0x0000000008001604                DMA1_Stream4_IRQHandler
                0x0000000008001604                I2C1_ER_IRQHandler
                0x0000000008001604                DMA2_Stream6_IRQHandler
                0x0000000008001604                DMA1_Stream3_IRQHandler
 *fill*         0x0000000008001606        0x2 
 .text.fatTest_ScanDir
                0x0000000008001608      0x178 ./Drivers/BSP/Src/file_opera.o
                0x0000000008001608                fatTest_ScanDir
 .text.fatTest_WriteTXTFile
                0x0000000008001780       0xdc ./Drivers/BSP/Src/file_opera.o
                0x0000000008001780                fatTest_WriteTXTFile
 .text.fatTest_WriteBinFile
                0x000000000800185c       0xf4 ./Drivers/BSP/Src/file_opera.o
                0x000000000800185c                fatTest_WriteBinFile
 .text.fat_GetFatTimeFromRTC
                0x0000000008001950       0x7c ./Drivers/BSP/Src/file_opera.o
                0x0000000008001950                fat_GetFatTimeFromRTC
 .text.fatTest_RemoveAll
                0x00000000080019cc       0xc8 ./Drivers/BSP/Src/file_opera.o
                0x00000000080019cc                fatTest_RemoveAll
 .text.ScanPressedKey
                0x0000000008001a94       0xd8 ./Drivers/BSP/Src/keyled.o
                0x0000000008001a94                ScanPressedKey
 .text.lcd_wr_data
                0x0000000008001b6c       0x28 ./Drivers/BSP/Src/lcd.o
                0x0000000008001b6c                lcd_wr_data
 .text.lcd_wr_regno
                0x0000000008001b94       0x28 ./Drivers/BSP/Src/lcd.o
                0x0000000008001b94                lcd_wr_regno
 .text.lcd_write_reg
                0x0000000008001bbc       0x2c ./Drivers/BSP/Src/lcd.o
                0x0000000008001bbc                lcd_write_reg
 .text.lcd_rd_data
                0x0000000008001be8       0x24 ./Drivers/BSP/Src/lcd.o
 .text.lcd_write_ram_prepare
                0x0000000008001c0c       0x20 ./Drivers/BSP/Src/lcd.o
                0x0000000008001c0c                lcd_write_ram_prepare
 .text.lcd_set_cursor
                0x0000000008001c2c      0x1ac ./Drivers/BSP/Src/lcd.o
                0x0000000008001c2c                lcd_set_cursor
 .text.lcd_scan_dir
                0x0000000008001dd8      0x2fc ./Drivers/BSP/Src/lcd.o
                0x0000000008001dd8                lcd_scan_dir
 .text.lcd_draw_point
                0x00000000080020d4       0x34 ./Drivers/BSP/Src/lcd.o
                0x00000000080020d4                lcd_draw_point
 .text.lcd_ssd_backlight_set
                0x0000000008002108       0x68 ./Drivers/BSP/Src/lcd.o
                0x0000000008002108                lcd_ssd_backlight_set
 .text.lcd_display_dir
                0x0000000008002170      0x170 ./Drivers/BSP/Src/lcd.o
                0x0000000008002170                lcd_display_dir
 .text.lcd_init
                0x00000000080022e0      0x2f4 ./Drivers/BSP/Src/lcd.o
                0x00000000080022e0                lcd_init
 .text.lcd_clear
                0x00000000080025d4       0x5c ./Drivers/BSP/Src/lcd.o
                0x00000000080025d4                lcd_clear
 .text.lcd_fill
                0x0000000008002630       0x7c ./Drivers/BSP/Src/lcd.o
                0x0000000008002630                lcd_fill
 .text.lcd_show_char
                0x00000000080026ac      0x1bc ./Drivers/BSP/Src/lcd.o
                0x00000000080026ac                lcd_show_char
 .text.lcd_show_str
                0x0000000008002868       0xa8 ./Drivers/BSP/Src/lcd.o
                0x0000000008002868                lcd_show_str
 .text.lcd_ex_st7789_reginit
                0x0000000008002910      0x1ac ./Drivers/BSP/Src/lcd.o
                0x0000000008002910                lcd_ex_st7789_reginit
 .text.lcd_ex_ili9341_reginit
                0x0000000008002abc      0x230 ./Drivers/BSP/Src/lcd.o
                0x0000000008002abc                lcd_ex_ili9341_reginit
 .text.lcd_ex_nt35310_reginit
                0x0000000008002cec      0xef6 ./Drivers/BSP/Src/lcd.o
                0x0000000008002cec                lcd_ex_nt35310_reginit
 .text.lcd_ex_nt35510_reginit
                0x0000000008003be2      0xf00 ./Drivers/BSP/Src/lcd.o
                0x0000000008003be2                lcd_ex_nt35510_reginit
 .text.lcd_ex_ssd1963_reginit
                0x0000000008004ae2      0x172 ./Drivers/BSP/Src/lcd.o
                0x0000000008004ae2                lcd_ex_ssd1963_reginit
 .text.HAL_Init
                0x0000000008004c54       0x44 ./Drivers/STM32F4xx_HAL_Driver/Src/stm32f4xx_hal.o
                0x0000000008004c54                HAL_Init
 .text.HAL_InitTick
                0x0000000008004c98       0x60 ./Drivers/STM32F4xx_HAL_Driver/Src/stm32f4xx_hal.o
                0x0000000008004c98                HAL_InitTick
 .text.HAL_IncTick
                0x0000000008004cf8       0x28 ./Drivers/STM32F4xx_HAL_Driver/Src/stm32f4xx_hal.o
                0x0000000008004cf8                HAL_IncTick
 .text.HAL_GetTick
                0x0000000008004d20       0x18 ./Drivers/STM32F4xx_HAL_Driver/Src/stm32f4xx_hal.o
                0x0000000008004d20                HAL_GetTick
 .text.HAL_Delay
                0x0000000008004d38       0x48 ./Drivers/STM32F4xx_HAL_Driver/Src/stm32f4xx_hal.o
                0x0000000008004d38                HAL_Delay
 .text.__NVIC_SetPriorityGrouping
                0x0000000008004d80       0x48 ./Drivers/STM32F4xx_HAL_Driver/Src/stm32f4xx_hal_cortex.o
 .text.__NVIC_GetPriorityGrouping
                0x0000000008004dc8       0x1c ./Drivers/STM32F4xx_HAL_Driver/Src/stm32f4xx_hal_cortex.o
 .text.__NVIC_EnableIRQ
                0x0000000008004de4       0x3c ./Drivers/STM32F4xx_HAL_Driver/Src/stm32f4xx_hal_cortex.o
 .text.__NVIC_SetPriority
                0x0000000008004e20       0x54 ./Drivers/STM32F4xx_HAL_Driver/Src/stm32f4xx_hal_cortex.o
 .text.NVIC_EncodePriority
                0x0000000008004e74       0x66 ./Drivers/STM32F4xx_HAL_Driver/Src/stm32f4xx_hal_cortex.o
 *fill*         0x0000000008004eda        0x2 
 .text.SysTick_Config
                0x0000000008004edc       0x44 ./Drivers/STM32F4xx_HAL_Driver/Src/stm32f4xx_hal_cortex.o
 .text.HAL_NVIC_SetPriorityGrouping
                0x0000000008004f20       0x16 ./Drivers/STM32F4xx_HAL_Driver/Src/stm32f4xx_hal_cortex.o
                0x0000000008004f20                HAL_NVIC_SetPriorityGrouping
 .text.HAL_NVIC_SetPriority
                0x0000000008004f36       0x38 ./Drivers/STM32F4xx_HAL_Driver/Src/stm32f4xx_hal_cortex.o
                0x0000000008004f36                HAL_NVIC_SetPriority
 .text.HAL_NVIC_EnableIRQ
                0x0000000008004f6e       0x1c ./Drivers/STM32F4xx_HAL_Driver/Src/stm32f4xx_hal_cortex.o
                0x0000000008004f6e                HAL_NVIC_EnableIRQ
 .text.HAL_SYSTICK_Config
                0x0000000008004f8a       0x18 ./Drivers/STM32F4xx_HAL_Driver/Src/stm32f4xx_hal_cortex.o
                0x0000000008004f8a                HAL_SYSTICK_Config
 *fill*         0x0000000008004fa2        0x2 
 .text.HAL_GPIO_Init
                0x0000000008004fa4      0x338 ./Drivers/STM32F4xx_HAL_Driver/Src/stm32f4xx_hal_gpio.o
                0x0000000008004fa4                HAL_GPIO_Init
 .text.HAL_GPIO_ReadPin
                0x00000000080052dc       0x30 ./Drivers/STM32F4xx_HAL_Driver/Src/stm32f4xx_hal_gpio.o
                0x00000000080052dc                HAL_GPIO_ReadPin
 .text.HAL_GPIO_WritePin
                0x000000000800530c       0x32 ./Drivers/STM32F4xx_HAL_Driver/Src/stm32f4xx_hal_gpio.o
                0x000000000800530c                HAL_GPIO_WritePin
 .text.HAL_PCD_Init
                0x000000000800533e      0x23a ./Drivers/STM32F4xx_HAL_Driver/Src/stm32f4xx_hal_pcd.o
                0x000000000800533e                HAL_PCD_Init
 .text.HAL_PCD_Start
                0x0000000008005578       0x66 ./Drivers/STM32F4xx_HAL_Driver/Src/stm32f4xx_hal_pcd.o
                0x0000000008005578                HAL_PCD_Start
 .text.HAL_PCD_IRQHandler
                0x00000000080055de      0x93e ./Drivers/STM32F4xx_HAL_Driver/Src/stm32f4xx_hal_pcd.o
                0x00000000080055de                HAL_PCD_IRQHandler
 .text.HAL_PCD_SetAddress
                0x0000000008005f1c       0x4a ./Drivers/STM32F4xx_HAL_Driver/Src/stm32f4xx_hal_pcd.o
                0x0000000008005f1c                HAL_PCD_SetAddress
 .text.HAL_PCD_EP_Open
                0x0000000008005f66       0xd0 ./Drivers/STM32F4xx_HAL_Driver/Src/stm32f4xx_hal_pcd.o
                0x0000000008005f66                HAL_PCD_EP_Open
 .text.HAL_PCD_EP_Close
                0x0000000008006036       0x94 ./Drivers/STM32F4xx_HAL_Driver/Src/stm32f4xx_hal_pcd.o
                0x0000000008006036                HAL_PCD_EP_Close
 .text.HAL_PCD_EP_Receive
                0x00000000080060ca       0x96 ./Drivers/STM32F4xx_HAL_Driver/Src/stm32f4xx_hal_pcd.o
                0x00000000080060ca                HAL_PCD_EP_Receive
 .text.HAL_PCD_EP_GetRxCount
                0x0000000008006160       0x30 ./Drivers/STM32F4xx_HAL_Driver/Src/stm32f4xx_hal_pcd.o
                0x0000000008006160                HAL_PCD_EP_GetRxCount
 .text.HAL_PCD_EP_Transmit
                0x0000000008006190       0x94 ./Drivers/STM32F4xx_HAL_Driver/Src/stm32f4xx_hal_pcd.o
                0x0000000008006190                HAL_PCD_EP_Transmit
 .text.HAL_PCD_EP_SetStall
                0x0000000008006224       0xc8 ./Drivers/STM32F4xx_HAL_Driver/Src/stm32f4xx_hal_pcd.o
                0x0000000008006224                HAL_PCD_EP_SetStall
 .text.HAL_PCD_EP_ClrStall
                0x00000000080062ec       0xac ./Drivers/STM32F4xx_HAL_Driver/Src/stm32f4xx_hal_pcd.o
                0x00000000080062ec                HAL_PCD_EP_ClrStall
 .text.HAL_PCD_EP_Abort
                0x0000000008006398       0x62 ./Drivers/STM32F4xx_HAL_Driver/Src/stm32f4xx_hal_pcd.o
                0x0000000008006398                HAL_PCD_EP_Abort
 .text.HAL_PCD_EP_Flush
                0x00000000080063fa       0x5a ./Drivers/STM32F4xx_HAL_Driver/Src/stm32f4xx_hal_pcd.o
                0x00000000080063fa                HAL_PCD_EP_Flush
 .text.PCD_WriteEmptyTxFifo
                0x0000000008006454      0x11a ./Drivers/STM32F4xx_HAL_Driver/Src/stm32f4xx_hal_pcd.o
 *fill*         0x000000000800656e        0x2 
 .text.PCD_EP_OutXfrComplete_int
                0x0000000008006570      0x1d0 ./Drivers/STM32F4xx_HAL_Driver/Src/stm32f4xx_hal_pcd.o
 .text.PCD_EP_OutSetupPacket_int
                0x0000000008006740       0x8c ./Drivers/STM32F4xx_HAL_Driver/Src/stm32f4xx_hal_pcd.o
 .text.HAL_PCDEx_SetTxFiFo
                0x00000000080067cc       0x8e ./Drivers/STM32F4xx_HAL_Driver/Src/stm32f4xx_hal_pcd_ex.o
                0x00000000080067cc                HAL_PCDEx_SetTxFiFo
 .text.HAL_PCDEx_SetRxFiFo
                0x000000000800685a       0x22 ./Drivers/STM32F4xx_HAL_Driver/Src/stm32f4xx_hal_pcd_ex.o
                0x000000000800685a                HAL_PCDEx_SetRxFiFo
 .text.HAL_PCDEx_LPM_Callback
                0x000000000800687c       0x18 ./Drivers/STM32F4xx_HAL_Driver/Src/stm32f4xx_hal_pcd_ex.o
                0x000000000800687c                HAL_PCDEx_LPM_Callback
 .text.HAL_RCC_OscConfig
                0x0000000008006894      0x4f0 ./Drivers/STM32F4xx_HAL_Driver/Src/stm32f4xx_hal_rcc.o
                0x0000000008006894                HAL_RCC_OscConfig
 .text.HAL_RCC_ClockConfig
                0x0000000008006d84      0x1cc ./Drivers/STM32F4xx_HAL_Driver/Src/stm32f4xx_hal_rcc.o
                0x0000000008006d84                HAL_RCC_ClockConfig
 .text.HAL_RCC_GetSysClockFreq
                0x0000000008006f50      0x20c ./Drivers/STM32F4xx_HAL_Driver/Src/stm32f4xx_hal_rcc.o
                0x0000000008006f50                HAL_RCC_GetSysClockFreq
 .text.HAL_RCC_GetHCLKFreq
                0x000000000800715c       0x18 ./Drivers/STM32F4xx_HAL_Driver/Src/stm32f4xx_hal_rcc.o
                0x000000000800715c                HAL_RCC_GetHCLKFreq
 .text.HAL_RCCEx_PeriphCLKConfig
                0x0000000008007174      0x1c4 ./Drivers/STM32F4xx_HAL_Driver/Src/stm32f4xx_hal_rcc_ex.o
                0x0000000008007174                HAL_RCCEx_PeriphCLKConfig
 .text.HAL_RTC_Init
                0x0000000008007338       0xec ./Drivers/STM32F4xx_HAL_Driver/Src/stm32f4xx_hal_rtc.o
                0x0000000008007338                HAL_RTC_Init
 .text.HAL_RTC_SetTime
                0x0000000008007424      0x134 ./Drivers/STM32F4xx_HAL_Driver/Src/stm32f4xx_hal_rtc.o
                0x0000000008007424                HAL_RTC_SetTime
 .text.HAL_RTC_GetTime
                0x0000000008007558       0xbc ./Drivers/STM32F4xx_HAL_Driver/Src/stm32f4xx_hal_rtc.o
                0x0000000008007558                HAL_RTC_GetTime
 .text.HAL_RTC_SetDate
                0x0000000008007614      0x108 ./Drivers/STM32F4xx_HAL_Driver/Src/stm32f4xx_hal_rtc.o
                0x0000000008007614                HAL_RTC_SetDate
 .text.HAL_RTC_GetDate
                0x000000000800771c       0x9e ./Drivers/STM32F4xx_HAL_Driver/Src/stm32f4xx_hal_rtc.o
                0x000000000800771c                HAL_RTC_GetDate
 .text.HAL_RTC_WaitForSynchro
                0x00000000080077ba       0x50 ./Drivers/STM32F4xx_HAL_Driver/Src/stm32f4xx_hal_rtc.o
                0x00000000080077ba                HAL_RTC_WaitForSynchro
 .text.RTC_EnterInitMode
                0x000000000800780a       0x6e ./Drivers/STM32F4xx_HAL_Driver/Src/stm32f4xx_hal_rtc.o
                0x000000000800780a                RTC_EnterInitMode
 .text.RTC_ExitInitMode
                0x0000000008007878       0x4a ./Drivers/STM32F4xx_HAL_Driver/Src/stm32f4xx_hal_rtc.o
                0x0000000008007878                RTC_ExitInitMode
 .text.RTC_ByteToBcd2
                0x00000000080078c2       0x3a ./Drivers/STM32F4xx_HAL_Driver/Src/stm32f4xx_hal_rtc.o
                0x00000000080078c2                RTC_ByteToBcd2
 .text.RTC_Bcd2ToByte
                0x00000000080078fc       0x38 ./Drivers/STM32F4xx_HAL_Driver/Src/stm32f4xx_hal_rtc.o
                0x00000000080078fc                RTC_Bcd2ToByte
 .text.HAL_SD_Init
                0x0000000008007934       0x60 ./Drivers/STM32F4xx_HAL_Driver/Src/stm32f4xx_hal_sd.o
                0x0000000008007934                HAL_SD_Init
 .text.HAL_SD_InitCard
                0x0000000008007994      0x100 ./Drivers/STM32F4xx_HAL_Driver/Src/stm32f4xx_hal_sd.o
                0x0000000008007994                HAL_SD_InitCard
 .text.HAL_SD_ReadBlocks
                0x0000000008007a94      0x3bc ./Drivers/STM32F4xx_HAL_Driver/Src/stm32f4xx_hal_sd.o
                0x0000000008007a94                HAL_SD_ReadBlocks
 .text.HAL_SD_WriteBlocks
                0x0000000008007e50      0x30c ./Drivers/STM32F4xx_HAL_Driver/Src/stm32f4xx_hal_sd.o
                0x0000000008007e50                HAL_SD_WriteBlocks
 .text.HAL_SD_GetCardCSD
                0x000000000800815c      0x348 ./Drivers/STM32F4xx_HAL_Driver/Src/stm32f4xx_hal_sd.o
                0x000000000800815c                HAL_SD_GetCardCSD
 .text.HAL_SD_GetCardInfo
                0x00000000080084a4       0x58 ./Drivers/STM32F4xx_HAL_Driver/Src/stm32f4xx_hal_sd.o
                0x00000000080084a4                HAL_SD_GetCardInfo
 .text.HAL_SD_ConfigWideBusOperation
                0x00000000080084fc      0x134 ./Drivers/STM32F4xx_HAL_Driver/Src/stm32f4xx_hal_sd.o
                0x00000000080084fc                HAL_SD_ConfigWideBusOperation
 .text.HAL_SD_GetCardState
                0x0000000008008630       0x40 ./Drivers/STM32F4xx_HAL_Driver/Src/stm32f4xx_hal_sd.o
                0x0000000008008630                HAL_SD_GetCardState
 .text.SD_InitCard
                0x0000000008008670      0x19c ./Drivers/STM32F4xx_HAL_Driver/Src/stm32f4xx_hal_sd.o
 .text.SD_PowerON
                0x000000000800880c      0x11c ./Drivers/STM32F4xx_HAL_Driver/Src/stm32f4xx_hal_sd.o
 .text.SD_SendStatus
                0x0000000008008928       0x50 ./Drivers/STM32F4xx_HAL_Driver/Src/stm32f4xx_hal_sd.o
 .text.SD_WideBus_Enable
                0x0000000008008978       0x96 ./Drivers/STM32F4xx_HAL_Driver/Src/stm32f4xx_hal_sd.o
 .text.SD_WideBus_Disable
                0x0000000008008a0e       0x96 ./Drivers/STM32F4xx_HAL_Driver/Src/stm32f4xx_hal_sd.o
 .text.SD_FindSCR
                0x0000000008008aa4      0x1a6 ./Drivers/STM32F4xx_HAL_Driver/Src/stm32f4xx_hal_sd.o
 .text.HAL_SRAM_Init
                0x0000000008008c4a       0x90 ./Drivers/STM32F4xx_HAL_Driver/Src/stm32f4xx_hal_sram.o
                0x0000000008008c4a                HAL_SRAM_Init
 *fill*         0x0000000008008cda        0x2 
 .text.FSMC_NORSRAM_Init
                0x0000000008008cdc       0xd4 ./Drivers/STM32F4xx_HAL_Driver/Src/stm32f4xx_ll_fsmc.o
                0x0000000008008cdc                FSMC_NORSRAM_Init
 .text.FSMC_NORSRAM_Timing_Init
                0x0000000008008db0       0x6a ./Drivers/STM32F4xx_HAL_Driver/Src/stm32f4xx_ll_fsmc.o
                0x0000000008008db0                FSMC_NORSRAM_Timing_Init
 *fill*         0x0000000008008e1a        0x2 
 .text.FSMC_NORSRAM_Extended_Timing_Init
                0x0000000008008e1c       0x70 ./Drivers/STM32F4xx_HAL_Driver/Src/stm32f4xx_ll_fsmc.o
                0x0000000008008e1c                FSMC_NORSRAM_Extended_Timing_Init
 .text.SDIO_Init
                0x0000000008008e8c       0x56 ./Drivers/STM32F4xx_HAL_Driver/Src/stm32f4xx_ll_sdmmc.o
                0x0000000008008e8c                SDIO_Init
 .text.SDIO_ReadFIFO
                0x0000000008008ee2       0x1a ./Drivers/STM32F4xx_HAL_Driver/Src/stm32f4xx_ll_sdmmc.o
                0x0000000008008ee2                SDIO_ReadFIFO
 .text.SDIO_WriteFIFO
                0x0000000008008efc       0x22 ./Drivers/STM32F4xx_HAL_Driver/Src/stm32f4xx_ll_sdmmc.o
                0x0000000008008efc                SDIO_WriteFIFO
 .text.SDIO_PowerState_ON
                0x0000000008008f1e       0x1c ./Drivers/STM32F4xx_HAL_Driver/Src/stm32f4xx_ll_sdmmc.o
                0x0000000008008f1e                SDIO_PowerState_ON
 .text.SDIO_GetPowerState
                0x0000000008008f3a       0x1c ./Drivers/STM32F4xx_HAL_Driver/Src/stm32f4xx_ll_sdmmc.o
                0x0000000008008f3a                SDIO_GetPowerState
 .text.SDIO_SendCommand
                0x0000000008008f56       0x54 ./Drivers/STM32F4xx_HAL_Driver/Src/stm32f4xx_ll_sdmmc.o
                0x0000000008008f56                SDIO_SendCommand
 .text.SDIO_GetCommandResponse
                0x0000000008008faa       0x1a ./Drivers/STM32F4xx_HAL_Driver/Src/stm32f4xx_ll_sdmmc.o
                0x0000000008008faa                SDIO_GetCommandResponse
 .text.SDIO_GetResponse
                0x0000000008008fc4       0x26 ./Drivers/STM32F4xx_HAL_Driver/Src/stm32f4xx_ll_sdmmc.o
                0x0000000008008fc4                SDIO_GetResponse
 .text.SDIO_ConfigData
                0x0000000008008fea       0x58 ./Drivers/STM32F4xx_HAL_Driver/Src/stm32f4xx_ll_sdmmc.o
                0x0000000008008fea                SDIO_ConfigData
 .text.SDMMC_CmdBlockLength
                0x0000000008009042       0x44 ./Drivers/STM32F4xx_HAL_Driver/Src/stm32f4xx_ll_sdmmc.o
                0x0000000008009042                SDMMC_CmdBlockLength
 .text.SDMMC_CmdReadSingleBlock
                0x0000000008009086       0x44 ./Drivers/STM32F4xx_HAL_Driver/Src/stm32f4xx_ll_sdmmc.o
                0x0000000008009086                SDMMC_CmdReadSingleBlock
 .text.SDMMC_CmdReadMultiBlock
                0x00000000080090ca       0x44 ./Drivers/STM32F4xx_HAL_Driver/Src/stm32f4xx_ll_sdmmc.o
                0x00000000080090ca                SDMMC_CmdReadMultiBlock
 .text.SDMMC_CmdWriteSingleBlock
                0x000000000800910e       0x44 ./Drivers/STM32F4xx_HAL_Driver/Src/stm32f4xx_ll_sdmmc.o
                0x000000000800910e                SDMMC_CmdWriteSingleBlock
 .text.SDMMC_CmdWriteMultiBlock
                0x0000000008009152       0x44 ./Drivers/STM32F4xx_HAL_Driver/Src/stm32f4xx_ll_sdmmc.o
                0x0000000008009152                SDMMC_CmdWriteMultiBlock
 *fill*         0x0000000008009196        0x2 
 .text.SDMMC_CmdStopTransfer
                0x0000000008009198       0x44 ./Drivers/STM32F4xx_HAL_Driver/Src/stm32f4xx_ll_sdmmc.o
                0x0000000008009198                SDMMC_CmdStopTransfer
 .text.SDMMC_CmdSelDesel
                0x00000000080091dc       0x46 ./Drivers/STM32F4xx_HAL_Driver/Src/stm32f4xx_ll_sdmmc.o
                0x00000000080091dc                SDMMC_CmdSelDesel
 .text.SDMMC_CmdGoIdleState
                0x0000000008009222       0x3c ./Drivers/STM32F4xx_HAL_Driver/Src/stm32f4xx_ll_sdmmc.o
                0x0000000008009222                SDMMC_CmdGoIdleState
 .text.SDMMC_CmdOperCond
                0x000000000800925e       0x3e ./Drivers/STM32F4xx_HAL_Driver/Src/stm32f4xx_ll_sdmmc.o
                0x000000000800925e                SDMMC_CmdOperCond
 .text.SDMMC_CmdAppCommand
                0x000000000800929c       0x44 ./Drivers/STM32F4xx_HAL_Driver/Src/stm32f4xx_ll_sdmmc.o
                0x000000000800929c                SDMMC_CmdAppCommand
 .text.SDMMC_CmdAppOperCommand
                0x00000000080092e0       0x46 ./Drivers/STM32F4xx_HAL_Driver/Src/stm32f4xx_ll_sdmmc.o
                0x00000000080092e0                SDMMC_CmdAppOperCommand
 .text.SDMMC_CmdBusWidth
                0x0000000008009326       0x44 ./Drivers/STM32F4xx_HAL_Driver/Src/stm32f4xx_ll_sdmmc.o
                0x0000000008009326                SDMMC_CmdBusWidth
 .text.SDMMC_CmdSendSCR
                0x000000000800936a       0x42 ./Drivers/STM32F4xx_HAL_Driver/Src/stm32f4xx_ll_sdmmc.o
                0x000000000800936a                SDMMC_CmdSendSCR
 .text.SDMMC_CmdSendCID
                0x00000000080093ac       0x3c ./Drivers/STM32F4xx_HAL_Driver/Src/stm32f4xx_ll_sdmmc.o
                0x00000000080093ac                SDMMC_CmdSendCID
 .text.SDMMC_CmdSendCSD
                0x00000000080093e8       0x3e ./Drivers/STM32F4xx_HAL_Driver/Src/stm32f4xx_ll_sdmmc.o
                0x00000000080093e8                SDMMC_CmdSendCSD
 .text.SDMMC_CmdSetRelAdd
                0x0000000008009426       0x42 ./Drivers/STM32F4xx_HAL_Driver/Src/stm32f4xx_ll_sdmmc.o
                0x0000000008009426                SDMMC_CmdSetRelAdd
 .text.SDMMC_CmdSendStatus
                0x0000000008009468       0x44 ./Drivers/STM32F4xx_HAL_Driver/Src/stm32f4xx_ll_sdmmc.o
                0x0000000008009468                SDMMC_CmdSendStatus
 .text.SDMMC_GetCmdResp1
                0x00000000080094ac      0x1dc ./Drivers/STM32F4xx_HAL_Driver/Src/stm32f4xx_ll_sdmmc.o
                0x00000000080094ac                SDMMC_GetCmdResp1
 .text.SDMMC_GetCmdResp2
                0x0000000008009688       0x90 ./Drivers/STM32F4xx_HAL_Driver/Src/stm32f4xx_ll_sdmmc.o
                0x0000000008009688                SDMMC_GetCmdResp2
 .text.SDMMC_GetCmdResp3
                0x0000000008009718       0x7c ./Drivers/STM32F4xx_HAL_Driver/Src/stm32f4xx_ll_sdmmc.o
                0x0000000008009718                SDMMC_GetCmdResp3
 .text.SDMMC_GetCmdResp6
                0x0000000008009794       0xec ./Drivers/STM32F4xx_HAL_Driver/Src/stm32f4xx_ll_sdmmc.o
                0x0000000008009794                SDMMC_GetCmdResp6
 .text.SDMMC_GetCmdResp7
                0x0000000008009880       0x9c ./Drivers/STM32F4xx_HAL_Driver/Src/stm32f4xx_ll_sdmmc.o
                0x0000000008009880                SDMMC_GetCmdResp7
 .text.SDMMC_GetCmdError
                0x000000000800991c       0x58 ./Drivers/STM32F4xx_HAL_Driver/Src/stm32f4xx_ll_sdmmc.o
 .text.USB_CoreInit
                0x0000000008009974       0xc2 ./Drivers/STM32F4xx_HAL_Driver/Src/stm32f4xx_ll_usb.o
                0x0000000008009974                USB_CoreInit
 *fill*         0x0000000008009a36        0x2 
 .text.USB_SetTurnaroundTime
                0x0000000008009a38      0x144 ./Drivers/STM32F4xx_HAL_Driver/Src/stm32f4xx_ll_usb.o
                0x0000000008009a38                USB_SetTurnaroundTime
 .text.USB_EnableGlobalInt
                0x0000000008009b7c       0x22 ./Drivers/STM32F4xx_HAL_Driver/Src/stm32f4xx_ll_usb.o
                0x0000000008009b7c                USB_EnableGlobalInt
 .text.USB_DisableGlobalInt
                0x0000000008009b9e       0x22 ./Drivers/STM32F4xx_HAL_Driver/Src/stm32f4xx_ll_usb.o
                0x0000000008009b9e                USB_DisableGlobalInt
 .text.USB_SetCurrentMode
                0x0000000008009bc0       0x98 ./Drivers/STM32F4xx_HAL_Driver/Src/stm32f4xx_ll_usb.o
                0x0000000008009bc0                USB_SetCurrentMode
 .text.USB_DevInit
                0x0000000008009c58      0x2c8 ./Drivers/STM32F4xx_HAL_Driver/Src/stm32f4xx_ll_usb.o
                0x0000000008009c58                USB_DevInit
 .text.USB_FlushTxFifo
                0x0000000008009f20       0x68 ./Drivers/STM32F4xx_HAL_Driver/Src/stm32f4xx_ll_usb.o
                0x0000000008009f20                USB_FlushTxFifo
 .text.USB_FlushRxFifo
                0x0000000008009f88       0x60 ./Drivers/STM32F4xx_HAL_Driver/Src/stm32f4xx_ll_usb.o
                0x0000000008009f88                USB_FlushRxFifo
 .text.USB_SetDevSpeed
                0x0000000008009fe8       0x32 ./Drivers/STM32F4xx_HAL_Driver/Src/stm32f4xx_ll_usb.o
                0x0000000008009fe8                USB_SetDevSpeed
 .text.USB_GetDevSpeed
                0x000000000800a01a       0x4a ./Drivers/STM32F4xx_HAL_Driver/Src/stm32f4xx_ll_usb.o
                0x000000000800a01a                USB_GetDevSpeed
 .text.USB_ActivateEndpoint
                0x000000000800a064      0x10e ./Drivers/STM32F4xx_HAL_Driver/Src/stm32f4xx_ll_usb.o
                0x000000000800a064                USB_ActivateEndpoint
 *fill*         0x000000000800a172        0x2 
 .text.USB_DeactivateEndpoint
                0x000000000800a174      0x1b8 ./Drivers/STM32F4xx_HAL_Driver/Src/stm32f4xx_ll_usb.o
                0x000000000800a174                USB_DeactivateEndpoint
 .text.USB_EPStartXfer
                0x000000000800a32c      0x490 ./Drivers/STM32F4xx_HAL_Driver/Src/stm32f4xx_ll_usb.o
                0x000000000800a32c                USB_EPStartXfer
 .text.USB_EP0StartXfer
                0x000000000800a7bc      0x2b0 ./Drivers/STM32F4xx_HAL_Driver/Src/stm32f4xx_ll_usb.o
                0x000000000800a7bc                USB_EP0StartXfer
 .text.USB_EPStopXfer
                0x000000000800aa6c      0x154 ./Drivers/STM32F4xx_HAL_Driver/Src/stm32f4xx_ll_usb.o
                0x000000000800aa6c                USB_EPStopXfer
 .text.USB_WritePacket
                0x000000000800abc0       0x7c ./Drivers/STM32F4xx_HAL_Driver/Src/stm32f4xx_ll_usb.o
                0x000000000800abc0                USB_WritePacket
 .text.USB_ReadPacket
                0x000000000800ac3c       0xb0 ./Drivers/STM32F4xx_HAL_Driver/Src/stm32f4xx_ll_usb.o
                0x000000000800ac3c                USB_ReadPacket
 .text.USB_EPSetStall
                0x000000000800acec       0xdc ./Drivers/STM32F4xx_HAL_Driver/Src/stm32f4xx_ll_usb.o
                0x000000000800acec                USB_EPSetStall
 .text.USB_EPClearStall
                0x000000000800adc8       0xcc ./Drivers/STM32F4xx_HAL_Driver/Src/stm32f4xx_ll_usb.o
                0x000000000800adc8                USB_EPClearStall
 .text.USB_SetDevAddress
                0x000000000800ae94       0x4c ./Drivers/STM32F4xx_HAL_Driver/Src/stm32f4xx_ll_usb.o
                0x000000000800ae94                USB_SetDevAddress
 .text.USB_DevConnect
                0x000000000800aee0       0x42 ./Drivers/STM32F4xx_HAL_Driver/Src/stm32f4xx_ll_usb.o
                0x000000000800aee0                USB_DevConnect
 .text.USB_DevDisconnect
                0x000000000800af22       0x42 ./Drivers/STM32F4xx_HAL_Driver/Src/stm32f4xx_ll_usb.o
                0x000000000800af22                USB_DevDisconnect
 .text.USB_ReadInterrupts
                0x000000000800af64       0x26 ./Drivers/STM32F4xx_HAL_Driver/Src/stm32f4xx_ll_usb.o
                0x000000000800af64                USB_ReadInterrupts
 .text.USB_ReadDevAllOutEpInterrupt
                0x000000000800af8a       0x34 ./Drivers/STM32F4xx_HAL_Driver/Src/stm32f4xx_ll_usb.o
                0x000000000800af8a                USB_ReadDevAllOutEpInterrupt
 .text.USB_ReadDevAllInEpInterrupt
                0x000000000800afbe       0x34 ./Drivers/STM32F4xx_HAL_Driver/Src/stm32f4xx_ll_usb.o
                0x000000000800afbe                USB_ReadDevAllInEpInterrupt
 .text.USB_ReadDevOutEPInterrupt
                0x000000000800aff2       0x3c ./Drivers/STM32F4xx_HAL_Driver/Src/stm32f4xx_ll_usb.o
                0x000000000800aff2                USB_ReadDevOutEPInterrupt
 .text.USB_ReadDevInEPInterrupt
                0x000000000800b02e       0x5c ./Drivers/STM32F4xx_HAL_Driver/Src/stm32f4xx_ll_usb.o
                0x000000000800b02e                USB_ReadDevInEPInterrupt
 .text.USB_GetMode
                0x000000000800b08a       0x1c ./Drivers/STM32F4xx_HAL_Driver/Src/stm32f4xx_ll_usb.o
                0x000000000800b08a                USB_GetMode
 .text.USB_ActivateSetup
                0x000000000800b0a6       0x46 ./Drivers/STM32F4xx_HAL_Driver/Src/stm32f4xx_ll_usb.o
                0x000000000800b0a6                USB_ActivateSetup
 .text.USB_EP0_OutStart
                0x000000000800b0ec       0xbc ./Drivers/STM32F4xx_HAL_Driver/Src/stm32f4xx_ll_usb.o
                0x000000000800b0ec                USB_EP0_OutStart
 .text.USB_CoreReset
                0x000000000800b1a8       0x68 ./Drivers/STM32F4xx_HAL_Driver/Src/stm32f4xx_ll_usb.o
 .text.MX_FATFS_Init
                0x000000000800b210       0x24 ./FATFS/App/fatfs.o
                0x000000000800b210                MX_FATFS_Init
 .text.get_fattime
                0x000000000800b234        0xe ./FATFS/App/fatfs.o
                0x000000000800b234                get_fattime
 *fill*         0x000000000800b242        0x2 
 .text.BSP_SD_Init
                0x000000000800b244       0x4c ./FATFS/Target/bsp_driver_sd.o
                0x000000000800b244                BSP_SD_Init
 .text.BSP_SD_ReadBlocks
                0x000000000800b290       0x3c ./FATFS/Target/bsp_driver_sd.o
                0x000000000800b290                BSP_SD_ReadBlocks
 .text.BSP_SD_WriteBlocks
                0x000000000800b2cc       0x3c ./FATFS/Target/bsp_driver_sd.o
                0x000000000800b2cc                BSP_SD_WriteBlocks
 .text.BSP_SD_GetCardState
                0x000000000800b308       0x20 ./FATFS/Target/bsp_driver_sd.o
                0x000000000800b308                BSP_SD_GetCardState
 .text.BSP_SD_GetCardInfo
                0x000000000800b328       0x1c ./FATFS/Target/bsp_driver_sd.o
                0x000000000800b328                BSP_SD_GetCardInfo
 .text.BSP_SD_IsDetected
                0x000000000800b344       0x1a ./FATFS/Target/bsp_driver_sd.o
                0x000000000800b344                BSP_SD_IsDetected
 *fill*         0x000000000800b35e        0x2 
 .text.SD_CheckStatus
                0x000000000800b360       0x3c ./FATFS/Target/sd_diskio.o
 .text.SD_initialize
                0x000000000800b39c       0x3c ./FATFS/Target/sd_diskio.o
                0x000000000800b39c                SD_initialize
 .text.SD_status
                0x000000000800b3d8       0x1c ./FATFS/Target/sd_diskio.o
                0x000000000800b3d8                SD_status
 .text.SD_read  0x000000000800b3f4       0x42 ./FATFS/Target/sd_diskio.o
                0x000000000800b3f4                SD_read
 .text.SD_write
                0x000000000800b436       0x42 ./FATFS/Target/sd_diskio.o
                0x000000000800b436                SD_write
 .text.SD_ioctl
                0x000000000800b478       0xb0 ./FATFS/Target/sd_diskio.o
                0x000000000800b478                SD_ioctl
 .text.USBD_MSC_Init
                0x000000000800b528      0x120 ./Middlewares/ST/STM32_USB_Device_Library/Class/MSC/Src/usbd_msc.o
                0x000000000800b528                USBD_MSC_Init
 .text.USBD_MSC_DeInit
                0x000000000800b648       0xb0 ./Middlewares/ST/STM32_USB_Device_Library/Class/MSC/Src/usbd_msc.o
                0x000000000800b648                USBD_MSC_DeInit
 .text.USBD_MSC_Setup
                0x000000000800b6f8      0x1f8 ./Middlewares/ST/STM32_USB_Device_Library/Class/MSC/Src/usbd_msc.o
                0x000000000800b6f8                USBD_MSC_Setup
 .text.USBD_MSC_DataIn
                0x000000000800b8f0       0x20 ./Middlewares/ST/STM32_USB_Device_Library/Class/MSC/Src/usbd_msc.o
                0x000000000800b8f0                USBD_MSC_DataIn
 .text.USBD_MSC_DataOut
                0x000000000800b910       0x20 ./Middlewares/ST/STM32_USB_Device_Library/Class/MSC/Src/usbd_msc.o
                0x000000000800b910                USBD_MSC_DataOut
 .text.USBD_MSC_GetHSCfgDesc
                0x000000000800b930       0x58 ./Middlewares/ST/STM32_USB_Device_Library/Class/MSC/Src/usbd_msc.o
                0x000000000800b930                USBD_MSC_GetHSCfgDesc
 .text.USBD_MSC_GetFSCfgDesc
                0x000000000800b988       0x58 ./Middlewares/ST/STM32_USB_Device_Library/Class/MSC/Src/usbd_msc.o
                0x000000000800b988                USBD_MSC_GetFSCfgDesc
 .text.USBD_MSC_GetOtherSpeedCfgDesc
                0x000000000800b9e0       0x58 ./Middlewares/ST/STM32_USB_Device_Library/Class/MSC/Src/usbd_msc.o
                0x000000000800b9e0                USBD_MSC_GetOtherSpeedCfgDesc
 .text.USBD_MSC_GetDeviceQualifierDescriptor
                0x000000000800ba38       0x20 ./Middlewares/ST/STM32_USB_Device_Library/Class/MSC/Src/usbd_msc.o
                0x000000000800ba38                USBD_MSC_GetDeviceQualifierDescriptor
 .text.USBD_MSC_RegisterStorage
                0x000000000800ba58       0x34 ./Middlewares/ST/STM32_USB_Device_Library/Class/MSC/Src/usbd_msc.o
                0x000000000800ba58                USBD_MSC_RegisterStorage
 .text.MSC_BOT_Init
                0x000000000800ba8c       0x94 ./Middlewares/ST/STM32_USB_Device_Library/Class/MSC/Src/usbd_msc_bot.o
                0x000000000800ba8c                MSC_BOT_Init
 .text.MSC_BOT_Reset
                0x000000000800bb20       0x68 ./Middlewares/ST/STM32_USB_Device_Library/Class/MSC/Src/usbd_msc_bot.o
                0x000000000800bb20                MSC_BOT_Reset
 .text.MSC_BOT_DeInit
                0x000000000800bb88       0x30 ./Middlewares/ST/STM32_USB_Device_Library/Class/MSC/Src/usbd_msc_bot.o
                0x000000000800bb88                MSC_BOT_DeInit
 .text.MSC_BOT_DataIn
                0x000000000800bbb8       0x74 ./Middlewares/ST/STM32_USB_Device_Library/Class/MSC/Src/usbd_msc_bot.o
                0x000000000800bbb8                MSC_BOT_DataIn
 .text.MSC_BOT_DataOut
                0x000000000800bc2c       0x68 ./Middlewares/ST/STM32_USB_Device_Library/Class/MSC/Src/usbd_msc_bot.o
                0x000000000800bc2c                MSC_BOT_DataOut
 .text.MSC_BOT_CBW_Decode
                0x000000000800bc94      0x128 ./Middlewares/ST/STM32_USB_Device_Library/Class/MSC/Src/usbd_msc_bot.o
 .text.MSC_BOT_SendData
                0x000000000800bdbc       0x6c ./Middlewares/ST/STM32_USB_Device_Library/Class/MSC/Src/usbd_msc_bot.o
 .text.MSC_BOT_SendCSW
                0x000000000800be28       0x74 ./Middlewares/ST/STM32_USB_Device_Library/Class/MSC/Src/usbd_msc_bot.o
                0x000000000800be28                MSC_BOT_SendCSW
 .text.MSC_BOT_Abort
                0x000000000800be9c       0x84 ./Middlewares/ST/STM32_USB_Device_Library/Class/MSC/Src/usbd_msc_bot.o
 .text.MSC_BOT_CplClrFeature
                0x000000000800bf20       0x74 ./Middlewares/ST/STM32_USB_Device_Library/Class/MSC/Src/usbd_msc_bot.o
                0x000000000800bf20                MSC_BOT_CplClrFeature
 .text.SCSI_ProcessCmd
                0x000000000800bf94      0x304 ./Middlewares/ST/STM32_USB_Device_Library/Class/MSC/Src/usbd_msc_scsi.o
                0x000000000800bf94                SCSI_ProcessCmd
 .text.SCSI_TestUnitReady
                0x000000000800c298       0xb2 ./Middlewares/ST/STM32_USB_Device_Library/Class/MSC/Src/usbd_msc_scsi.o
 *fill*         0x000000000800c34a        0x2 
 .text.SCSI_Inquiry
                0x000000000800c34c       0xfc ./Middlewares/ST/STM32_USB_Device_Library/Class/MSC/Src/usbd_msc_scsi.o
 .text.SCSI_ReadCapacity10
                0x000000000800c448       0xfc ./Middlewares/ST/STM32_USB_Device_Library/Class/MSC/Src/usbd_msc_scsi.o
 .text.SCSI_ReadCapacity16
                0x000000000800c544      0x166 ./Middlewares/ST/STM32_USB_Device_Library/Class/MSC/Src/usbd_msc_scsi.o
 .text.SCSI_ReadFormatCapacity
                0x000000000800c6aa       0xf6 ./Middlewares/ST/STM32_USB_Device_Library/Class/MSC/Src/usbd_msc_scsi.o
 .text.SCSI_ModeSense6
                0x000000000800c7a0       0x60 ./Middlewares/ST/STM32_USB_Device_Library/Class/MSC/Src/usbd_msc_scsi.o
 .text.SCSI_ModeSense10
                0x000000000800c800       0x60 ./Middlewares/ST/STM32_USB_Device_Library/Class/MSC/Src/usbd_msc_scsi.o
 .text.SCSI_RequestSense
                0x000000000800c860      0x106 ./Middlewares/ST/STM32_USB_Device_Library/Class/MSC/Src/usbd_msc_scsi.o
 .text.SCSI_SenseCode
                0x000000000800c966       0x96 ./Middlewares/ST/STM32_USB_Device_Library/Class/MSC/Src/usbd_msc_scsi.o
                0x000000000800c966                SCSI_SenseCode
 .text.SCSI_StartStopUnit
                0x000000000800c9fc       0xaa ./Middlewares/ST/STM32_USB_Device_Library/Class/MSC/Src/usbd_msc_scsi.o
 .text.SCSI_AllowPreventRemovable
                0x000000000800caa6       0x5a ./Middlewares/ST/STM32_USB_Device_Library/Class/MSC/Src/usbd_msc_scsi.o
 .text.SCSI_Read10
                0x000000000800cb00      0x154 ./Middlewares/ST/STM32_USB_Device_Library/Class/MSC/Src/usbd_msc_scsi.o
 .text.SCSI_Read12
                0x000000000800cc54      0x168 ./Middlewares/ST/STM32_USB_Device_Library/Class/MSC/Src/usbd_msc_scsi.o
 .text.SCSI_Write10
                0x000000000800cdbc      0x1ac ./Middlewares/ST/STM32_USB_Device_Library/Class/MSC/Src/usbd_msc_scsi.o
 .text.SCSI_Write12
                0x000000000800cf68      0x1cc ./Middlewares/ST/STM32_USB_Device_Library/Class/MSC/Src/usbd_msc_scsi.o
 .text.SCSI_Verify10
                0x000000000800d134       0x7a ./Middlewares/ST/STM32_USB_Device_Library/Class/MSC/Src/usbd_msc_scsi.o
 .text.SCSI_CheckAddressRange
                0x000000000800d1ae       0x58 ./Middlewares/ST/STM32_USB_Device_Library/Class/MSC/Src/usbd_msc_scsi.o
 *fill*         0x000000000800d206        0x2 
 .text.SCSI_ProcessRead
                0x000000000800d208      0x10c ./Middlewares/ST/STM32_USB_Device_Library/Class/MSC/Src/usbd_msc_scsi.o
 .text.SCSI_ProcessWrite
                0x000000000800d314      0x12c ./Middlewares/ST/STM32_USB_Device_Library/Class/MSC/Src/usbd_msc_scsi.o
 .text.SCSI_UpdateBotData
                0x000000000800d440       0x52 ./Middlewares/ST/STM32_USB_Device_Library/Class/MSC/Src/usbd_msc_scsi.o
 .text.USBD_Init
                0x000000000800d492       0x60 ./Middlewares/ST/STM32_USB_Device_Library/Core/Src/usbd_core.o
                0x000000000800d492                USBD_Init
 .text.USBD_RegisterClass
                0x000000000800d4f2       0x6c ./Middlewares/ST/STM32_USB_Device_Library/Core/Src/usbd_core.o
                0x000000000800d4f2                USBD_RegisterClass
 .text.USBD_Start
                0x000000000800d55e       0x18 ./Middlewares/ST/STM32_USB_Device_Library/Core/Src/usbd_core.o
                0x000000000800d55e                USBD_Start
 .text.USBD_RunTestMode
                0x000000000800d576       0x16 ./Middlewares/ST/STM32_USB_Device_Library/Core/Src/usbd_core.o
                0x000000000800d576                USBD_RunTestMode
 .text.USBD_SetClassConfig
                0x000000000800d58c       0x38 ./Middlewares/ST/STM32_USB_Device_Library/Core/Src/usbd_core.o
                0x000000000800d58c                USBD_SetClassConfig
 .text.USBD_ClrClassConfig
                0x000000000800d5c4       0x34 ./Middlewares/ST/STM32_USB_Device_Library/Core/Src/usbd_core.o
                0x000000000800d5c4                USBD_ClrClassConfig
 .text.USBD_LL_SetupStage
                0x000000000800d5f8       0xaa ./Middlewares/ST/STM32_USB_Device_Library/Core/Src/usbd_core.o
                0x000000000800d5f8                USBD_LL_SetupStage
 .text.USBD_LL_DataOutStage
                0x000000000800d6a2      0x166 ./Middlewares/ST/STM32_USB_Device_Library/Core/Src/usbd_core.o
                0x000000000800d6a2                USBD_LL_DataOutStage
 .text.USBD_LL_DataInStage
                0x000000000800d808      0x164 ./Middlewares/ST/STM32_USB_Device_Library/Core/Src/usbd_core.o
                0x000000000800d808                USBD_LL_DataInStage
 .text.USBD_LL_Reset
                0x000000000800d96c       0xa4 ./Middlewares/ST/STM32_USB_Device_Library/Core/Src/usbd_core.o
                0x000000000800d96c                USBD_LL_Reset
 .text.USBD_LL_SetSpeed
                0x000000000800da10       0x20 ./Middlewares/ST/STM32_USB_Device_Library/Core/Src/usbd_core.o
                0x000000000800da10                USBD_LL_SetSpeed
 .text.USBD_LL_Suspend
                0x000000000800da30       0x2c ./Middlewares/ST/STM32_USB_Device_Library/Core/Src/usbd_core.o
                0x000000000800da30                USBD_LL_Suspend
 .text.USBD_LL_Resume
                0x000000000800da5c       0x30 ./Middlewares/ST/STM32_USB_Device_Library/Core/Src/usbd_core.o
                0x000000000800da5c                USBD_LL_Resume
 .text.USBD_LL_SOF
                0x000000000800da8c       0x40 ./Middlewares/ST/STM32_USB_Device_Library/Core/Src/usbd_core.o
                0x000000000800da8c                USBD_LL_SOF
 .text.USBD_LL_IsoINIncomplete
                0x000000000800dacc       0x64 ./Middlewares/ST/STM32_USB_Device_Library/Core/Src/usbd_core.o
                0x000000000800dacc                USBD_LL_IsoINIncomplete
 .text.USBD_LL_IsoOUTIncomplete
                0x000000000800db30       0x64 ./Middlewares/ST/STM32_USB_Device_Library/Core/Src/usbd_core.o
                0x000000000800db30                USBD_LL_IsoOUTIncomplete
 .text.USBD_LL_DevConnected
                0x000000000800db94       0x16 ./Middlewares/ST/STM32_USB_Device_Library/Core/Src/usbd_core.o
                0x000000000800db94                USBD_LL_DevConnected
 .text.USBD_LL_DevDisconnected
                0x000000000800dbaa       0x46 ./Middlewares/ST/STM32_USB_Device_Library/Core/Src/usbd_core.o
                0x000000000800dbaa                USBD_LL_DevDisconnected
 .text.USBD_CoreFindIF
                0x000000000800dbf0       0x1a ./Middlewares/ST/STM32_USB_Device_Library/Core/Src/usbd_core.o
                0x000000000800dbf0                USBD_CoreFindIF
 .text.USBD_CoreFindEP
                0x000000000800dc0a       0x1a ./Middlewares/ST/STM32_USB_Device_Library/Core/Src/usbd_core.o
                0x000000000800dc0a                USBD_CoreFindEP
 .text.USBD_GetEpDesc
                0x000000000800dc24       0x74 ./Middlewares/ST/STM32_USB_Device_Library/Core/Src/usbd_core.o
                0x000000000800dc24                USBD_GetEpDesc
 .text.USBD_GetNextDesc
                0x000000000800dc98       0x3a ./Middlewares/ST/STM32_USB_Device_Library/Core/Src/usbd_core.o
                0x000000000800dc98                USBD_GetNextDesc
 .text.SWAPBYTE
                0x000000000800dcd2       0x3c ./Middlewares/ST/STM32_USB_Device_Library/Core/Src/usbd_ctlreq.o
 *fill*         0x000000000800dd0e        0x2 
 .text.USBD_StdDevReq
                0x000000000800dd10       0xe4 ./Middlewares/ST/STM32_USB_Device_Library/Core/Src/usbd_ctlreq.o
                0x000000000800dd10                USBD_StdDevReq
 .text.USBD_StdItfReq
                0x000000000800ddf4       0xd8 ./Middlewares/ST/STM32_USB_Device_Library/Core/Src/usbd_ctlreq.o
                0x000000000800ddf4                USBD_StdItfReq
 .text.USBD_StdEPReq
                0x000000000800decc      0x33a ./Middlewares/ST/STM32_USB_Device_Library/Core/Src/usbd_ctlreq.o
                0x000000000800decc                USBD_StdEPReq
 *fill*         0x000000000800e206        0x2 
 .text.USBD_GetDescriptor
                0x000000000800e208      0x2d4 ./Middlewares/ST/STM32_USB_Device_Library/Core/Src/usbd_ctlreq.o
 .text.USBD_SetAddress
                0x000000000800e4dc       0x88 ./Middlewares/ST/STM32_USB_Device_Library/Core/Src/usbd_ctlreq.o
 .text.USBD_SetConfig
                0x000000000800e564      0x154 ./Middlewares/ST/STM32_USB_Device_Library/Core/Src/usbd_ctlreq.o
 .text.USBD_GetConfig
                0x000000000800e6b8       0x6c ./Middlewares/ST/STM32_USB_Device_Library/Core/Src/usbd_ctlreq.o
 .text.USBD_GetStatus
                0x000000000800e724       0x68 ./Middlewares/ST/STM32_USB_Device_Library/Core/Src/usbd_ctlreq.o
 .text.USBD_SetFeature
                0x000000000800e78c       0x52 ./Middlewares/ST/STM32_USB_Device_Library/Core/Src/usbd_ctlreq.o
 .text.USBD_ClrFeature
                0x000000000800e7de       0x44 ./Middlewares/ST/STM32_USB_Device_Library/Core/Src/usbd_ctlreq.o
 .text.USBD_ParseSetupRequest
                0x000000000800e822       0x74 ./Middlewares/ST/STM32_USB_Device_Library/Core/Src/usbd_ctlreq.o
                0x000000000800e822                USBD_ParseSetupRequest
 .text.USBD_CtlError
                0x000000000800e896       0x22 ./Middlewares/ST/STM32_USB_Device_Library/Core/Src/usbd_ctlreq.o
                0x000000000800e896                USBD_CtlError
 .text.USBD_GetString
                0x000000000800e8b8       0x8c ./Middlewares/ST/STM32_USB_Device_Library/Core/Src/usbd_ctlreq.o
                0x000000000800e8b8                USBD_GetString
 .text.USBD_GetLen
                0x000000000800e944       0x34 ./Middlewares/ST/STM32_USB_Device_Library/Core/Src/usbd_ctlreq.o
 .text.USBD_CtlSendData
                0x000000000800e978       0x36 ./Middlewares/ST/STM32_USB_Device_Library/Core/Src/usbd_ioreq.o
                0x000000000800e978                USBD_CtlSendData
 .text.USBD_CtlContinueSendData
                0x000000000800e9ae       0x22 ./Middlewares/ST/STM32_USB_Device_Library/Core/Src/usbd_ioreq.o
                0x000000000800e9ae                USBD_CtlContinueSendData
 .text.USBD_CtlContinueRx
                0x000000000800e9d0       0x22 ./Middlewares/ST/STM32_USB_Device_Library/Core/Src/usbd_ioreq.o
                0x000000000800e9d0                USBD_CtlContinueRx
 .text.USBD_CtlSendStatus
                0x000000000800e9f2       0x26 ./Middlewares/ST/STM32_USB_Device_Library/Core/Src/usbd_ioreq.o
                0x000000000800e9f2                USBD_CtlSendStatus
 .text.USBD_CtlReceiveStatus
                0x000000000800ea18       0x26 ./Middlewares/ST/STM32_USB_Device_Library/Core/Src/usbd_ioreq.o
                0x000000000800ea18                USBD_CtlReceiveStatus
 *fill*         0x000000000800ea3e        0x2 
 .text.disk_status
                0x000000000800ea40       0x34 ./Middlewares/Third_Party/FatFs/src/diskio.o
                0x000000000800ea40                disk_status
 .text.disk_initialize
                0x000000000800ea74       0x4c ./Middlewares/Third_Party/FatFs/src/diskio.o
                0x000000000800ea74                disk_initialize
 .text.disk_read
                0x000000000800eac0       0x40 ./Middlewares/Third_Party/FatFs/src/diskio.o
                0x000000000800eac0                disk_read
 .text.disk_write
                0x000000000800eb00       0x40 ./Middlewares/Third_Party/FatFs/src/diskio.o
                0x000000000800eb00                disk_write
 .text.disk_ioctl
                0x000000000800eb40       0x3c ./Middlewares/Third_Party/FatFs/src/diskio.o
                0x000000000800eb40                disk_ioctl
 .text.ld_word  0x000000000800eb7c       0x30 ./Middlewares/Third_Party/FatFs/src/ff.o
 .text.ld_dword
                0x000000000800ebac       0x46 ./Middlewares/Third_Party/FatFs/src/ff.o
 .text.st_word  0x000000000800ebf2       0x36 ./Middlewares/Third_Party/FatFs/src/ff.o
 .text.st_dword
                0x000000000800ec28       0x58 ./Middlewares/Third_Party/FatFs/src/ff.o
 .text.mem_cpy  0x000000000800ec80       0x42 ./Middlewares/Third_Party/FatFs/src/ff.o
 .text.mem_set  0x000000000800ecc2       0x36 ./Middlewares/Third_Party/FatFs/src/ff.o
 .text.mem_cmp  0x000000000800ecf8       0x4e ./Middlewares/Third_Party/FatFs/src/ff.o
 .text.chk_chr  0x000000000800ed46       0x36 ./Middlewares/Third_Party/FatFs/src/ff.o
 .text.chk_lock
                0x000000000800ed7c       0xb8 ./Middlewares/Third_Party/FatFs/src/ff.o
 .text.enq_lock
                0x000000000800ee34       0x44 ./Middlewares/Third_Party/FatFs/src/ff.o
 .text.inc_lock
                0x000000000800ee78      0x11c ./Middlewares/Third_Party/FatFs/src/ff.o
 .text.dec_lock
                0x000000000800ef94       0x78 ./Middlewares/Third_Party/FatFs/src/ff.o
 .text.clear_lock
                0x000000000800f00c       0x48 ./Middlewares/Third_Party/FatFs/src/ff.o
 .text.sync_window
                0x000000000800f054       0x88 ./Middlewares/Third_Party/FatFs/src/ff.o
 .text.move_window
                0x000000000800f0dc       0x5a ./Middlewares/Third_Party/FatFs/src/ff.o
 *fill*         0x000000000800f136        0x2 
 .text.sync_fs  0x000000000800f138       0xdc ./Middlewares/Third_Party/FatFs/src/ff.o
 .text.clust2sect
                0x000000000800f214       0x3e ./Middlewares/Third_Party/FatFs/src/ff.o
 .text.get_fat  0x000000000800f252      0x150 ./Middlewares/Third_Party/FatFs/src/ff.o
 .text.put_fat  0x000000000800f3a2      0x1d8 ./Middlewares/Third_Party/FatFs/src/ff.o
 .text.remove_chain
                0x000000000800f57a       0xca ./Middlewares/Third_Party/FatFs/src/ff.o
 .text.create_chain
                0x000000000800f644      0x130 ./Middlewares/Third_Party/FatFs/src/ff.o
 .text.clmt_clust
                0x000000000800f774       0x68 ./Middlewares/Third_Party/FatFs/src/ff.o
 .text.dir_sdi  0x000000000800f7dc       0xf6 ./Middlewares/Third_Party/FatFs/src/ff.o
 .text.dir_next
                0x000000000800f8d2      0x18a ./Middlewares/Third_Party/FatFs/src/ff.o
 .text.dir_alloc
                0x000000000800fa5c       0x8e ./Middlewares/Third_Party/FatFs/src/ff.o
 .text.ld_clust
                0x000000000800faea       0x3e ./Middlewares/Third_Party/FatFs/src/ff.o
 .text.st_clust
                0x000000000800fb28       0x40 ./Middlewares/Third_Party/FatFs/src/ff.o
 .text.cmp_lfn  0x000000000800fb68       0xe0 ./Middlewares/Third_Party/FatFs/src/ff.o
 .text.pick_lfn
                0x000000000800fc48       0xc8 ./Middlewares/Third_Party/FatFs/src/ff.o
 .text.put_lfn  0x000000000800fd10       0xd0 ./Middlewares/Third_Party/FatFs/src/ff.o
 .text.gen_numname
                0x000000000800fde0      0x148 ./Middlewares/Third_Party/FatFs/src/ff.o
 .text.sum_sfn  0x000000000800ff28       0x42 ./Middlewares/Third_Party/FatFs/src/ff.o
 .text.dir_read
                0x000000000800ff6a      0x14e ./Middlewares/Third_Party/FatFs/src/ff.o
 .text.dir_find
                0x00000000080100b8      0x180 ./Middlewares/Third_Party/FatFs/src/ff.o
 .text.dir_register
                0x0000000008010238      0x1f0 ./Middlewares/Third_Party/FatFs/src/ff.o
 .text.dir_remove
                0x0000000008010428       0x94 ./Middlewares/Third_Party/FatFs/src/ff.o
 .text.get_fileinfo
                0x00000000080104bc      0x1d6 ./Middlewares/Third_Party/FatFs/src/ff.o
 *fill*         0x0000000008010692        0x2 
 .text.create_name
                0x0000000008010694      0x3f4 ./Middlewares/Third_Party/FatFs/src/ff.o
 .text.follow_path
                0x0000000008010a88       0xe2 ./Middlewares/Third_Party/FatFs/src/ff.o
 .text.get_ldnumber
                0x0000000008010b6a       0x88 ./Middlewares/Third_Party/FatFs/src/ff.o
 *fill*         0x0000000008010bf2        0x2 
 .text.check_fs
                0x0000000008010bf4       0xac ./Middlewares/Third_Party/FatFs/src/ff.o
 .text.find_volume
                0x0000000008010ca0      0x498 ./Middlewares/Third_Party/FatFs/src/ff.o
 .text.validate
                0x0000000008011138       0x6a ./Middlewares/Third_Party/FatFs/src/ff.o
 *fill*         0x00000000080111a2        0x2 
 .text.f_mount  0x00000000080111a4       0x8c ./Middlewares/Third_Party/FatFs/src/ff.o
                0x00000000080111a4                f_mount
 .text.f_open   0x0000000008011230      0x39c ./Middlewares/Third_Party/FatFs/src/ff.o
                0x0000000008011230                f_open
 .text.f_write  0x00000000080115cc      0x2ea ./Middlewares/Third_Party/FatFs/src/ff.o
                0x00000000080115cc                f_write
 .text.f_sync   0x00000000080118b6       0xfc ./Middlewares/Third_Party/FatFs/src/ff.o
                0x00000000080118b6                f_sync
 .text.f_close  0x00000000080119b2       0x54 ./Middlewares/Third_Party/FatFs/src/ff.o
                0x00000000080119b2                f_close
 .text.f_opendir
                0x0000000008011a06      0x106 ./Middlewares/Third_Party/FatFs/src/ff.o
                0x0000000008011a06                f_opendir
 .text.f_closedir
                0x0000000008011b0c       0x4c ./Middlewares/Third_Party/FatFs/src/ff.o
                0x0000000008011b0c                f_closedir
 .text.f_readdir
                0x0000000008011b58       0x9a ./Middlewares/Third_Party/FatFs/src/ff.o
                0x0000000008011b58                f_readdir
 .text.f_unlink
                0x0000000008011bf2      0x176 ./Middlewares/Third_Party/FatFs/src/ff.o
                0x0000000008011bf2                f_unlink
 .text.f_mkdir  0x0000000008011d68      0x22e ./Middlewares/Third_Party/FatFs/src/ff.o
                0x0000000008011d68                f_mkdir
 *fill*         0x0000000008011f96        0x2 
 .text.f_mkfs   0x0000000008011f98      0x858 ./Middlewares/Third_Party/FatFs/src/ff.o
                0x0000000008011f98                f_mkfs
 .text.putc_bfd
                0x00000000080127f0       0x7a ./Middlewares/Third_Party/FatFs/src/ff.o
 .text.putc_flush
                0x000000000801286a       0x4a ./Middlewares/Third_Party/FatFs/src/ff.o
 .text.putc_init
                0x00000000080128b4       0x2a ./Middlewares/Third_Party/FatFs/src/ff.o
 .text.f_puts   0x00000000080128de       0x48 ./Middlewares/Third_Party/FatFs/src/ff.o
                0x00000000080128de                f_puts
 *fill*         0x0000000008012926        0x2 
 .text.f_printf
                0x0000000008012928      0x43c ./Middlewares/Third_Party/FatFs/src/ff.o
                0x0000000008012928                f_printf
 .text.FATFS_LinkDriverEx
                0x0000000008012d64       0x98 ./Middlewares/Third_Party/FatFs/src/ff_gen_drv.o
                0x0000000008012d64                FATFS_LinkDriverEx
 .text.FATFS_LinkDriver
                0x0000000008012dfc       0x1e ./Middlewares/Third_Party/FatFs/src/ff_gen_drv.o
                0x0000000008012dfc                FATFS_LinkDriver
 *fill*         0x0000000008012e1a        0x2 
 .text.ff_convert
                0x0000000008012e1c       0xbc ./Middlewares/Third_Party/FatFs/src/option/cc936.o
                0x0000000008012e1c                ff_convert
 .text.ff_wtoupper
                0x0000000008012ed8      0x114 ./Middlewares/Third_Party/FatFs/src/option/cc936.o
                0x0000000008012ed8                ff_wtoupper
 .text.ff_memalloc
                0x0000000008012fec       0x18 ./Middlewares/Third_Party/FatFs/src/option/syscall.o
                0x0000000008012fec                ff_memalloc
 .text.ff_memfree
                0x0000000008013004       0x16 ./Middlewares/Third_Party/FatFs/src/option/syscall.o
                0x0000000008013004                ff_memfree
 *fill*         0x000000000801301a        0x2 
 .text.MX_USB_DEVICE_Init
                0x000000000801301c       0x60 ./USB_DEVICE/App/usb_device.o
                0x000000000801301c                MX_USB_DEVICE_Init
 .text.USBD_FS_DeviceDescriptor
                0x000000000801307c       0x24 ./USB_DEVICE/App/usbd_desc.o
                0x000000000801307c                USBD_FS_DeviceDescriptor
 .text.USBD_FS_LangIDStrDescriptor
                0x00000000080130a0       0x24 ./USB_DEVICE/App/usbd_desc.o
                0x00000000080130a0                USBD_FS_LangIDStrDescriptor
 .text.USBD_FS_ProductStrDescriptor
                0x00000000080130c4       0x3c ./USB_DEVICE/App/usbd_desc.o
                0x00000000080130c4                USBD_FS_ProductStrDescriptor
 .text.USBD_FS_ManufacturerStrDescriptor
                0x0000000008013100       0x28 ./USB_DEVICE/App/usbd_desc.o
                0x0000000008013100                USBD_FS_ManufacturerStrDescriptor
 .text.USBD_FS_SerialStrDescriptor
                0x0000000008013128       0x24 ./USB_DEVICE/App/usbd_desc.o
                0x0000000008013128                USBD_FS_SerialStrDescriptor
 .text.USBD_FS_ConfigStrDescriptor
                0x000000000801314c       0x3c ./USB_DEVICE/App/usbd_desc.o
                0x000000000801314c                USBD_FS_ConfigStrDescriptor
 .text.USBD_FS_InterfaceStrDescriptor
                0x0000000008013188       0x3c ./USB_DEVICE/App/usbd_desc.o
                0x0000000008013188                USBD_FS_InterfaceStrDescriptor
 .text.Get_SerialNum
                0x00000000080131c4       0x58 ./USB_DEVICE/App/usbd_desc.o
 .text.IntToUnicode
                0x000000000801321c       0x7e ./USB_DEVICE/App/usbd_desc.o
 .text.STORAGE_Init_FS
                0x000000000801329a       0x18 ./USB_DEVICE/App/usbd_storage_if.o
 *fill*         0x00000000080132b2        0x2 
 .text.STORAGE_GetCapacity_FS
                0x00000000080132b4       0x58 ./USB_DEVICE/App/usbd_storage_if.o
 .text.STORAGE_IsReady_FS
                0x000000000801330c       0x18 ./USB_DEVICE/App/usbd_storage_if.o
 .text.STORAGE_IsWriteProtected_FS
                0x0000000008013324       0x18 ./USB_DEVICE/App/usbd_storage_if.o
 .text.STORAGE_Read_FS
                0x000000000801333c       0x5c ./USB_DEVICE/App/usbd_storage_if.o
 .text.STORAGE_Write_FS
                0x0000000008013398       0x5c ./USB_DEVICE/App/usbd_storage_if.o
 .text.STORAGE_GetMaxLun_FS
                0x00000000080133f4       0x10 ./USB_DEVICE/App/usbd_storage_if.o
 .text.HAL_PCD_MspInit
                0x0000000008013404       0xa8 ./USB_DEVICE/Target/usbd_conf.o
                0x0000000008013404                HAL_PCD_MspInit
 .text.HAL_PCD_SetupStageCallback
                0x00000000080134ac       0x24 ./USB_DEVICE/Target/usbd_conf.o
                0x00000000080134ac                HAL_PCD_SetupStageCallback
 .text.HAL_PCD_DataOutStageCallback
                0x00000000080134d0       0x36 ./USB_DEVICE/Target/usbd_conf.o
                0x00000000080134d0                HAL_PCD_DataOutStageCallback
 .text.HAL_PCD_DataInStageCallback
                0x0000000008013506       0x34 ./USB_DEVICE/Target/usbd_conf.o
                0x0000000008013506                HAL_PCD_DataInStageCallback
 .text.HAL_PCD_SOFCallback
                0x000000000801353a       0x1c ./USB_DEVICE/Target/usbd_conf.o
                0x000000000801353a                HAL_PCD_SOFCallback
 .text.HAL_PCD_ResetCallback
                0x0000000008013556       0x50 ./USB_DEVICE/Target/usbd_conf.o
                0x0000000008013556                HAL_PCD_ResetCallback
 *fill*         0x00000000080135a6        0x2 
 .text.HAL_PCD_SuspendCallback
                0x00000000080135a8       0x4c ./USB_DEVICE/Target/usbd_conf.o
                0x00000000080135a8                HAL_PCD_SuspendCallback
 .text.HAL_PCD_ResumeCallback
                0x00000000080135f4       0x1c ./USB_DEVICE/Target/usbd_conf.o
                0x00000000080135f4                HAL_PCD_ResumeCallback
 .text.HAL_PCD_ISOOUTIncompleteCallback
                0x0000000008013610       0x24 ./USB_DEVICE/Target/usbd_conf.o
                0x0000000008013610                HAL_PCD_ISOOUTIncompleteCallback
 .text.HAL_PCD_ISOINIncompleteCallback
                0x0000000008013634       0x24 ./USB_DEVICE/Target/usbd_conf.o
                0x0000000008013634                HAL_PCD_ISOINIncompleteCallback
 .text.HAL_PCD_ConnectCallback
                0x0000000008013658       0x1c ./USB_DEVICE/Target/usbd_conf.o
                0x0000000008013658                HAL_PCD_ConnectCallback
 .text.HAL_PCD_DisconnectCallback
                0x0000000008013674       0x1c ./USB_DEVICE/Target/usbd_conf.o
                0x0000000008013674                HAL_PCD_DisconnectCallback
 .text.USBD_LL_Init
                0x0000000008013690       0x98 ./USB_DEVICE/Target/usbd_conf.o
                0x0000000008013690                USBD_LL_Init
 .text.USBD_LL_Start
                0x0000000008013728       0x36 ./USB_DEVICE/Target/usbd_conf.o
                0x0000000008013728                USBD_LL_Start
 .text.USBD_LL_OpenEP
                0x000000000801375e       0x4c ./USB_DEVICE/Target/usbd_conf.o
                0x000000000801375e                USBD_LL_OpenEP
 .text.USBD_LL_CloseEP
                0x00000000080137aa       0x3e ./USB_DEVICE/Target/usbd_conf.o
                0x00000000080137aa                USBD_LL_CloseEP
 .text.USBD_LL_FlushEP
                0x00000000080137e8       0x3e ./USB_DEVICE/Target/usbd_conf.o
                0x00000000080137e8                USBD_LL_FlushEP
 .text.USBD_LL_StallEP
                0x0000000008013826       0x3e ./USB_DEVICE/Target/usbd_conf.o
                0x0000000008013826                USBD_LL_StallEP
 .text.USBD_LL_ClearStallEP
                0x0000000008013864       0x3e ./USB_DEVICE/Target/usbd_conf.o
                0x0000000008013864                USBD_LL_ClearStallEP
 .text.USBD_LL_IsStallEP
                0x00000000080138a2       0x58 ./USB_DEVICE/Target/usbd_conf.o
                0x00000000080138a2                USBD_LL_IsStallEP
 .text.USBD_LL_SetUSBAddress
                0x00000000080138fa       0x3e ./USB_DEVICE/Target/usbd_conf.o
                0x00000000080138fa                USBD_LL_SetUSBAddress
 .text.USBD_LL_Transmit
                0x0000000008013938       0x42 ./USB_DEVICE/Target/usbd_conf.o
                0x0000000008013938                USBD_LL_Transmit
 .text.USBD_LL_PrepareReceive
                0x000000000801397a       0x42 ./USB_DEVICE/Target/usbd_conf.o
                0x000000000801397a                USBD_LL_PrepareReceive
 .text.USBD_LL_GetRxDataSize
                0x00000000080139bc       0x26 ./USB_DEVICE/Target/usbd_conf.o
                0x00000000080139bc                USBD_LL_GetRxDataSize
 *fill*         0x00000000080139e2        0x2 
 .text.USBD_static_malloc
                0x00000000080139e4       0x1c ./USB_DEVICE/Target/usbd_conf.o
                0x00000000080139e4                USBD_static_malloc
 .text.USBD_static_free
                0x0000000008013a00       0x14 ./USB_DEVICE/Target/usbd_conf.o
                0x0000000008013a00                USBD_static_free
 .text.USBD_Get_USB_Status
                0x0000000008013a14       0x58 ./USB_DEVICE/Target/usbd_conf.o
                0x0000000008013a14                USBD_Get_USB_Status
 .text.__errno  0x0000000008013a6c        0xc c:/program files/stmicroelectronics/stm32cube/stm32cubeide_1.10.1/stm32cubeide/plugins/com.st.stm32cube.ide.mcu.externaltools.gnu-tools-for-stm32.10.3-2021.10.win32_1.0.0.202111181127/tools/bin/../lib/gcc/arm-none-eabi/10.3.1/../../../../arm-none-eabi/lib/thumb/v7e-m+fp/hard\libc_nano.a(lib_a-errno.o)
                0x0000000008013a6c                __errno
 .text.__libc_init_array
                0x0000000008013a78       0x48 c:/program files/stmicroelectronics/stm32cube/stm32cubeide_1.10.1/stm32cubeide/plugins/com.st.stm32cube.ide.mcu.externaltools.gnu-tools-for-stm32.10.3-2021.10.win32_1.0.0.202111181127/tools/bin/../lib/gcc/arm-none-eabi/10.3.1/../../../../arm-none-eabi/lib/thumb/v7e-m+fp/hard\libc_nano.a(lib_a-init.o)
                0x0000000008013a78                __libc_init_array
 .text.malloc   0x0000000008013ac0       0x10 c:/program files/stmicroelectronics/stm32cube/stm32cubeide_1.10.1/stm32cubeide/plugins/com.st.stm32cube.ide.mcu.externaltools.gnu-tools-for-stm32.10.3-2021.10.win32_1.0.0.202111181127/tools/bin/../lib/gcc/arm-none-eabi/10.3.1/../../../../arm-none-eabi/lib/thumb/v7e-m+fp/hard\libc_nano.a(lib_a-malloc.o)
                0x0000000008013ac0                malloc
 .text.free     0x0000000008013ad0       0x10 c:/program files/stmicroelectronics/stm32cube/stm32cubeide_1.10.1/stm32cubeide/plugins/com.st.stm32cube.ide.mcu.externaltools.gnu-tools-for-stm32.10.3-2021.10.win32_1.0.0.202111181127/tools/bin/../lib/gcc/arm-none-eabi/10.3.1/../../../../arm-none-eabi/lib/thumb/v7e-m+fp/hard\libc_nano.a(lib_a-malloc.o)
                0x0000000008013ad0                free
 .text.memset   0x0000000008013ae0       0x10 c:/program files/stmicroelectronics/stm32cube/stm32cubeide_1.10.1/stm32cubeide/plugins/com.st.stm32cube.ide.mcu.externaltools.gnu-tools-for-stm32.10.3-2021.10.win32_1.0.0.202111181127/tools/bin/../lib/gcc/arm-none-eabi/10.3.1/../../../../arm-none-eabi/lib/thumb/v7e-m+fp/hard\libc_nano.a(lib_a-memset.o)
                0x0000000008013ae0                memset
 .text._free_r  0x0000000008013af0       0x98 c:/program files/stmicroelectronics/stm32cube/stm32cubeide_1.10.1/stm32cubeide/plugins/com.st.stm32cube.ide.mcu.externaltools.gnu-tools-for-stm32.10.3-2021.10.win32_1.0.0.202111181127/tools/bin/../lib/gcc/arm-none-eabi/10.3.1/../../../../arm-none-eabi/lib/thumb/v7e-m+fp/hard\libc_nano.a(lib_a-nano-freer.o)
                0x0000000008013af0                _free_r
 .text.sbrk_aligned
                0x0000000008013b88       0x40 c:/program files/stmicroelectronics/stm32cube/stm32cubeide_1.10.1/stm32cubeide/plugins/com.st.stm32cube.ide.mcu.externaltools.gnu-tools-for-stm32.10.3-2021.10.win32_1.0.0.202111181127/tools/bin/../lib/gcc/arm-none-eabi/10.3.1/../../../../arm-none-eabi/lib/thumb/v7e-m+fp/hard\libc_nano.a(lib_a-nano-mallocr.o)
 .text._malloc_r
                0x0000000008013bc8       0xe8 c:/program files/stmicroelectronics/stm32cube/stm32cubeide_1.10.1/stm32cubeide/plugins/com.st.stm32cube.ide.mcu.externaltools.gnu-tools-for-stm32.10.3-2021.10.win32_1.0.0.202111181127/tools/bin/../lib/gcc/arm-none-eabi/10.3.1/../../../../arm-none-eabi/lib/thumb/v7e-m+fp/hard\libc_nano.a(lib_a-nano-mallocr.o)
                0x0000000008013bc8                _malloc_r
 .text._sbrk_r  0x0000000008013cb0       0x20 c:/program files/stmicroelectronics/stm32cube/stm32cubeide_1.10.1/stm32cubeide/plugins/com.st.stm32cube.ide.mcu.externaltools.gnu-tools-for-stm32.10.3-2021.10.win32_1.0.0.202111181127/tools/bin/../lib/gcc/arm-none-eabi/10.3.1/../../../../arm-none-eabi/lib/thumb/v7e-m+fp/hard\libc_nano.a(lib_a-sbrkr.o)
                0x0000000008013cb0                _sbrk_r
 .text.sprintf  0x0000000008013cd0       0x40 c:/program files/stmicroelectronics/stm32cube/stm32cubeide_1.10.1/stm32cubeide/plugins/com.st.stm32cube.ide.mcu.externaltools.gnu-tools-for-stm32.10.3-2021.10.win32_1.0.0.202111181127/tools/bin/../lib/gcc/arm-none-eabi/10.3.1/../../../../arm-none-eabi/lib/thumb/v7e-m+fp/hard\libc_nano.a(lib_a-sprintf.o)
                0x0000000008013cd0                siprintf
                0x0000000008013cd0                sprintf
 .text.__malloc_lock
                0x0000000008013d10        0xc c:/program files/stmicroelectronics/stm32cube/stm32cubeide_1.10.1/stm32cubeide/plugins/com.st.stm32cube.ide.mcu.externaltools.gnu-tools-for-stm32.10.3-2021.10.win32_1.0.0.202111181127/tools/bin/../lib/gcc/arm-none-eabi/10.3.1/../../../../arm-none-eabi/lib/thumb/v7e-m+fp/hard\libc_nano.a(lib_a-mlock.o)
                0x0000000008013d10                __malloc_lock
 .text.__malloc_unlock
                0x0000000008013d1c        0xc c:/program files/stmicroelectronics/stm32cube/stm32cubeide_1.10.1/stm32cubeide/plugins/com.st.stm32cube.ide.mcu.externaltools.gnu-tools-for-stm32.10.3-2021.10.win32_1.0.0.202111181127/tools/bin/../lib/gcc/arm-none-eabi/10.3.1/../../../../arm-none-eabi/lib/thumb/v7e-m+fp/hard\libc_nano.a(lib_a-mlock.o)
                0x0000000008013d1c                __malloc_unlock
 .text.__ssputs_r
                0x0000000008013d28       0xb6 c:/program files/stmicroelectronics/stm32cube/stm32cubeide_1.10.1/stm32cubeide/plugins/com.st.stm32cube.ide.mcu.externaltools.gnu-tools-for-stm32.10.3-2021.10.win32_1.0.0.202111181127/tools/bin/../lib/gcc/arm-none-eabi/10.3.1/../../../../arm-none-eabi/lib/thumb/v7e-m+fp/hard\libc_nano.a(lib_a-nano-svfprintf.o)
                0x0000000008013d28                __ssputs_r
 *fill*         0x0000000008013dde        0x2 
 .text._svfprintf_r
                0x0000000008013de0      0x200 c:/program files/stmicroelectronics/stm32cube/stm32cubeide_1.10.1/stm32cubeide/plugins/com.st.stm32cube.ide.mcu.externaltools.gnu-tools-for-stm32.10.3-2021.10.win32_1.0.0.202111181127/tools/bin/../lib/gcc/arm-none-eabi/10.3.1/../../../../arm-none-eabi/lib/thumb/v7e-m+fp/hard\libc_nano.a(lib_a-nano-svfprintf.o)
                0x0000000008013de0                _svfiprintf_r
                0x0000000008013de0                _svfprintf_r
 .text._printf_common
                0x0000000008013fe0       0xda c:/program files/stmicroelectronics/stm32cube/stm32cubeide_1.10.1/stm32cubeide/plugins/com.st.stm32cube.ide.mcu.externaltools.gnu-tools-for-stm32.10.3-2021.10.win32_1.0.0.202111181127/tools/bin/../lib/gcc/arm-none-eabi/10.3.1/../../../../arm-none-eabi/lib/thumb/v7e-m+fp/hard\libc_nano.a(lib_a-nano-vfprintf_i.o)
                0x0000000008013fe0                _printf_common
 *fill*         0x00000000080140ba        0x2 
 .text._printf_i
                0x00000000080140bc      0x24c c:/program files/stmicroelectronics/stm32cube/stm32cubeide_1.10.1/stm32cubeide/plugins/com.st.stm32cube.ide.mcu.externaltools.gnu-tools-for-stm32.10.3-2021.10.win32_1.0.0.202111181127/tools/bin/../lib/gcc/arm-none-eabi/10.3.1/../../../../arm-none-eabi/lib/thumb/v7e-m+fp/hard\libc_nano.a(lib_a-nano-vfprintf_i.o)
                0x00000000080140bc                _printf_i
 .text.__retarget_lock_acquire_recursive
                0x0000000008014308        0x2 c:/program files/stmicroelectronics/stm32cube/stm32cubeide_1.10.1/stm32cubeide/plugins/com.st.stm32cube.ide.mcu.externaltools.gnu-tools-for-stm32.10.3-2021.10.win32_1.0.0.202111181127/tools/bin/../lib/gcc/arm-none-eabi/10.3.1/../../../../arm-none-eabi/lib/thumb/v7e-m+fp/hard\libc_nano.a(lib_a-lock.o)
                0x0000000008014308                __retarget_lock_acquire_recursive
 .text.__retarget_lock_release_recursive
                0x000000000801430a        0x2 c:/program files/stmicroelectronics/stm32cube/stm32cubeide_1.10.1/stm32cubeide/plugins/com.st.stm32cube.ide.mcu.externaltools.gnu-tools-for-stm32.10.3-2021.10.win32_1.0.0.202111181127/tools/bin/../lib/gcc/arm-none-eabi/10.3.1/../../../../arm-none-eabi/lib/thumb/v7e-m+fp/hard\libc_nano.a(lib_a-lock.o)
                0x000000000801430a                __retarget_lock_release_recursive
 .text.memcpy   0x000000000801430c       0x1c c:/program files/stmicroelectronics/stm32cube/stm32cubeide_1.10.1/stm32cubeide/plugins/com.st.stm32cube.ide.mcu.externaltools.gnu-tools-for-stm32.10.3-2021.10.win32_1.0.0.202111181127/tools/bin/../lib/gcc/arm-none-eabi/10.3.1/../../../../arm-none-eabi/lib/thumb/v7e-m+fp/hard\libc_nano.a(lib_a-memcpy-stub.o)
                0x000000000801430c                memcpy
 .text.memmove  0x0000000008014328       0x34 c:/program files/stmicroelectronics/stm32cube/stm32cubeide_1.10.1/stm32cubeide/plugins/com.st.stm32cube.ide.mcu.externaltools.gnu-tools-for-stm32.10.3-2021.10.win32_1.0.0.202111181127/tools/bin/../lib/gcc/arm-none-eabi/10.3.1/../../../../arm-none-eabi/lib/thumb/v7e-m+fp/hard\libc_nano.a(lib_a-memmove.o)
                0x0000000008014328                memmove
 .text._realloc_r
                0x000000000801435c       0x5e c:/program files/stmicroelectronics/stm32cube/stm32cubeide_1.10.1/stm32cubeide/plugins/com.st.stm32cube.ide.mcu.externaltools.gnu-tools-for-stm32.10.3-2021.10.win32_1.0.0.202111181127/tools/bin/../lib/gcc/arm-none-eabi/10.3.1/../../../../arm-none-eabi/lib/thumb/v7e-m+fp/hard\libc_nano.a(lib_a-nano-reallocr.o)
                0x000000000801435c                _realloc_r
 .text._malloc_usable_size_r
                0x00000000080143ba       0x10 c:/program files/stmicroelectronics/stm32cube/stm32cubeide_1.10.1/stm32cubeide/plugins/com.st.stm32cube.ide.mcu.externaltools.gnu-tools-for-stm32.10.3-2021.10.win32_1.0.0.202111181127/tools/bin/../lib/gcc/arm-none-eabi/10.3.1/../../../../arm-none-eabi/lib/thumb/v7e-m+fp/hard\libc_nano.a(lib_a-nano-msizer.o)
                0x00000000080143ba                _malloc_usable_size_r
 *(.glue_7)
 .glue_7        0x00000000080143ca        0x0 linker stubs
 *(.glue_7t)
 .glue_7t       0x00000000080143ca        0x0 linker stubs
 *(.eh_frame)
 *fill*         0x00000000080143ca        0x2 
 .eh_frame      0x00000000080143cc        0x0 c:/program files/stmicroelectronics/stm32cube/stm32cubeide_1.10.1/stm32cubeide/plugins/com.st.stm32cube.ide.mcu.externaltools.gnu-tools-for-stm32.10.3-2021.10.win32_1.0.0.202111181127/tools/bin/../lib/gcc/arm-none-eabi/10.3.1/thumb/v7e-m+fp/hard/crtbegin.o
 *(.init)
 .init          0x00000000080143cc        0x4 c:/program files/stmicroelectronics/stm32cube/stm32cubeide_1.10.1/stm32cubeide/plugins/com.st.stm32cube.ide.mcu.externaltools.gnu-tools-for-stm32.10.3-2021.10.win32_1.0.0.202111181127/tools/bin/../lib/gcc/arm-none-eabi/10.3.1/thumb/v7e-m+fp/hard/crti.o
                0x00000000080143cc                _init
 .init          0x00000000080143d0        0x8 c:/program files/stmicroelectronics/stm32cube/stm32cubeide_1.10.1/stm32cubeide/plugins/com.st.stm32cube.ide.mcu.externaltools.gnu-tools-for-stm32.10.3-2021.10.win32_1.0.0.202111181127/tools/bin/../lib/gcc/arm-none-eabi/10.3.1/thumb/v7e-m+fp/hard/crtn.o
 *(.fini)
 .fini          0x00000000080143d8        0x4 c:/program files/stmicroelectronics/stm32cube/stm32cubeide_1.10.1/stm32cubeide/plugins/com.st.stm32cube.ide.mcu.externaltools.gnu-tools-for-stm32.10.3-2021.10.win32_1.0.0.202111181127/tools/bin/../lib/gcc/arm-none-eabi/10.3.1/thumb/v7e-m+fp/hard/crti.o
                0x00000000080143d8                _fini
 .fini          0x00000000080143dc        0x8 c:/program files/stmicroelectronics/stm32cube/stm32cubeide_1.10.1/stm32cubeide/plugins/com.st.stm32cube.ide.mcu.externaltools.gnu-tools-for-stm32.10.3-2021.10.win32_1.0.0.202111181127/tools/bin/../lib/gcc/arm-none-eabi/10.3.1/thumb/v7e-m+fp/hard/crtn.o
                0x00000000080143e4                . = ALIGN (0x4)
                0x00000000080143e4                _etext = .

.vfp11_veneer   0x00000000080143e4        0x0
 .vfp11_veneer  0x00000000080143e4        0x0 linker stubs

.v4_bx          0x00000000080143e4        0x0
 .v4_bx         0x00000000080143e4        0x0 linker stubs

.iplt           0x00000000080143e4        0x0
 .iplt          0x00000000080143e4        0x0 c:/program files/stmicroelectronics/stm32cube/stm32cubeide_1.10.1/stm32cubeide/plugins/com.st.stm32cube.ide.mcu.externaltools.gnu-tools-for-stm32.10.3-2021.10.win32_1.0.0.202111181127/tools/bin/../lib/gcc/arm-none-eabi/10.3.1/thumb/v7e-m+fp/hard/crtbegin.o

.rodata         0x00000000080143e4    0x2e148
                0x00000000080143e4                . = ALIGN (0x4)
 *(.rodata)
 .rodata        0x00000000080143e4      0x184 ./Core/Src/main.o
 .rodata        0x0000000008014568      0x353 ./Drivers/BSP/Src/file_opera.o
 *fill*         0x00000000080148bb        0x1 
 .rodata        0x00000000080148bc       0x48 ./Middlewares/Third_Party/FatFs/src/ff.o
 .rodata        0x0000000008014904       0x42 ./USB_DEVICE/App/usbd_desc.o
 *(.rodata*)
 *fill*         0x0000000008014946        0x2 
 .rodata.AHBPrescTable
                0x0000000008014948       0x10 ./Core/Src/system_stm32f4xx.o
                0x0000000008014948                AHBPrescTable
 .rodata.asc2_1206
                0x0000000008014958      0x474 ./Drivers/BSP/Src/lcd.o
                0x0000000008014958                asc2_1206
 .rodata.asc2_1608
                0x0000000008014dcc      0x5f0 ./Drivers/BSP/Src/lcd.o
                0x0000000008014dcc                asc2_1608
 .rodata.asc2_2412
                0x00000000080153bc      0xd5c ./Drivers/BSP/Src/lcd.o
                0x00000000080153bc                asc2_2412
 .rodata.asc2_3216
                0x0000000008016118     0x17c0 ./Drivers/BSP/Src/lcd.o
                0x0000000008016118                asc2_3216
 .rodata.SD_Driver
                0x00000000080178d8       0x14 ./FATFS/Target/sd_diskio.o
                0x00000000080178d8                SD_Driver
 .rodata.LfnOfs
                0x00000000080178ec        0xd ./Middlewares/Third_Party/FatFs/src/ff.o
 *fill*         0x00000000080178f9        0x3 
 .rodata.cst32.1
                0x00000000080178fc        0xe ./Middlewares/Third_Party/FatFs/src/ff.o
 *fill*         0x000000000801790a        0x2 
 .rodata.cst.0  0x000000000801790c        0xe ./Middlewares/Third_Party/FatFs/src/ff.o
 *fill*         0x000000000801791a        0x2 
 .rodata.uni2oem
                0x000000000801791c    0x15484 ./Middlewares/Third_Party/FatFs/src/option/cc936.o
 .rodata.oem2uni
                0x000000000802cda0    0x15484 ./Middlewares/Third_Party/FatFs/src/option/cc936.o
 .rodata.cvt1.1
                0x0000000008042224      0x1f2 ./Middlewares/Third_Party/FatFs/src/option/cc936.o
 *fill*         0x0000000008042416        0x2 
 .rodata.cvt2.0
                0x0000000008042418       0xbc ./Middlewares/Third_Party/FatFs/src/option/cc936.o
 .rodata.STORAGE_Inquirydata_FS
                0x00000000080424d4       0x24 ./USB_DEVICE/App/usbd_storage_if.o
                0x00000000080424d4                STORAGE_Inquirydata_FS
 .rodata._svfprintf_r.str1.1
                0x00000000080424f8       0x11 c:/program files/stmicroelectronics/stm32cube/stm32cubeide_1.10.1/stm32cubeide/plugins/com.st.stm32cube.ide.mcu.externaltools.gnu-tools-for-stm32.10.3-2021.10.win32_1.0.0.202111181127/tools/bin/../lib/gcc/arm-none-eabi/10.3.1/../../../../arm-none-eabi/lib/thumb/v7e-m+fp/hard\libc_nano.a(lib_a-nano-svfprintf.o)
 .rodata._printf_i.str1.1
                0x0000000008042509       0x22 c:/program files/stmicroelectronics/stm32cube/stm32cubeide_1.10.1/stm32cubeide/plugins/com.st.stm32cube.ide.mcu.externaltools.gnu-tools-for-stm32.10.3-2021.10.win32_1.0.0.202111181127/tools/bin/../lib/gcc/arm-none-eabi/10.3.1/../../../../arm-none-eabi/lib/thumb/v7e-m+fp/hard\libc_nano.a(lib_a-nano-vfprintf_i.o)
                0x000000000804252c                . = ALIGN (0x4)
 *fill*         0x000000000804252b        0x1 

.ARM.extab      0x000000000804252c        0x0
                0x000000000804252c                . = ALIGN (0x4)
 *(.ARM.extab* .gnu.linkonce.armextab.*)
                0x000000000804252c                . = ALIGN (0x4)

.ARM            0x000000000804252c        0x8
                0x000000000804252c                . = ALIGN (0x4)
                0x000000000804252c                __exidx_start = .
 *(.ARM.exidx*)
 .ARM.exidx     0x000000000804252c        0x8 c:/program files/stmicroelectronics/stm32cube/stm32cubeide_1.10.1/stm32cubeide/plugins/com.st.stm32cube.ide.mcu.externaltools.gnu-tools-for-stm32.10.3-2021.10.win32_1.0.0.202111181127/tools/bin/../lib/gcc/arm-none-eabi/10.3.1/thumb/v7e-m+fp/hard\libgcc.a(_udivmoddi4.o)
                0x0000000008042534                __exidx_end = .
                0x0000000008042534                . = ALIGN (0x4)

.rel.dyn        0x0000000008042534        0x0
 .rel.iplt      0x0000000008042534        0x0 c:/program files/stmicroelectronics/stm32cube/stm32cubeide_1.10.1/stm32cubeide/plugins/com.st.stm32cube.ide.mcu.externaltools.gnu-tools-for-stm32.10.3-2021.10.win32_1.0.0.202111181127/tools/bin/../lib/gcc/arm-none-eabi/10.3.1/thumb/v7e-m+fp/hard/crtbegin.o

.preinit_array  0x0000000008042534        0x0
                0x0000000008042534                . = ALIGN (0x4)
                0x0000000008042534                PROVIDE (__preinit_array_start = .)
 *(.preinit_array*)
                0x0000000008042534                PROVIDE (__preinit_array_end = .)
                0x0000000008042534                . = ALIGN (0x4)

.init_array     0x0000000008042534        0x4
                0x0000000008042534                . = ALIGN (0x4)
                0x0000000008042534                PROVIDE (__init_array_start = .)
 *(SORT_BY_NAME(.init_array.*))
 *(.init_array*)
 .init_array    0x0000000008042534        0x4 c:/program files/stmicroelectronics/stm32cube/stm32cubeide_1.10.1/stm32cubeide/plugins/com.st.stm32cube.ide.mcu.externaltools.gnu-tools-for-stm32.10.3-2021.10.win32_1.0.0.202111181127/tools/bin/../lib/gcc/arm-none-eabi/10.3.1/thumb/v7e-m+fp/hard/crtbegin.o
                0x0000000008042538                PROVIDE (__init_array_end = .)
                0x0000000008042538                . = ALIGN (0x4)

.fini_array     0x0000000008042538        0x4
                0x0000000008042538                . = ALIGN (0x4)
                [!provide]                        PROVIDE (__fini_array_start = .)
 *(SORT_BY_NAME(.fini_array.*))
 *(.fini_array*)
 .fini_array    0x0000000008042538        0x4 c:/program files/stmicroelectronics/stm32cube/stm32cubeide_1.10.1/stm32cubeide/plugins/com.st.stm32cube.ide.mcu.externaltools.gnu-tools-for-stm32.10.3-2021.10.win32_1.0.0.202111181127/tools/bin/../lib/gcc/arm-none-eabi/10.3.1/thumb/v7e-m+fp/hard/crtbegin.o
                [!provide]                        PROVIDE (__fini_array_end = .)
                0x000000000804253c                . = ALIGN (0x4)
                0x000000000804253c                _sidata = LOADADDR (.data)

.data           0x0000000020000000      0x18c load address 0x000000000804253c
                0x0000000020000000                . = ALIGN (0x4)
                0x0000000020000000                _sdata = .
 *(.data)
 *(.data*)
 .data.SystemCoreClock
                0x0000000020000000        0x4 ./Core/Src/system_stm32f4xx.o
                0x0000000020000000                SystemCoreClock
 .data.g_back_color
                0x0000000020000004        0x4 ./Drivers/BSP/Src/lcd.o
                0x0000000020000004                g_back_color
 .data.uwTickPrio
                0x0000000020000008        0x4 ./Drivers/STM32F4xx_HAL_Driver/Src/stm32f4xx_hal.o
                0x0000000020000008                uwTickPrio
 .data.uwTickFreq
                0x000000002000000c        0x1 ./Drivers/STM32F4xx_HAL_Driver/Src/stm32f4xx_hal.o
                0x000000002000000c                uwTickFreq
 .data.Stat     0x000000002000000d        0x1 ./FATFS/Target/sd_diskio.o
 *fill*         0x000000002000000e        0x2 
 .data.USBD_MSC
                0x0000000020000010       0x38 ./Middlewares/ST/STM32_USB_Device_Library/Class/MSC/Src/usbd_msc.o
                0x0000000020000010                USBD_MSC
 .data.USBD_MSC_CfgDesc
                0x0000000020000048       0x20 ./Middlewares/ST/STM32_USB_Device_Library/Class/MSC/Src/usbd_msc.o
 .data.USBD_MSC_DeviceQualifierDesc
                0x0000000020000068        0xa ./Middlewares/ST/STM32_USB_Device_Library/Class/MSC/Src/usbd_msc.o
 .data.MSCInEpAdd
                0x0000000020000072        0x1 ./Middlewares/ST/STM32_USB_Device_Library/Class/MSC/Src/usbd_msc.o
                0x0000000020000072                MSCInEpAdd
 .data.MSCOutEpAdd
                0x0000000020000073        0x1 ./Middlewares/ST/STM32_USB_Device_Library/Class/MSC/Src/usbd_msc.o
                0x0000000020000073                MSCOutEpAdd
 .data.MSC_Page00_Inquiry_Data
                0x0000000020000074        0x6 ./Middlewares/ST/STM32_USB_Device_Library/Class/MSC/Src/usbd_msc_data.o
                0x0000000020000074                MSC_Page00_Inquiry_Data
 *fill*         0x000000002000007a        0x2 
 .data.MSC_Page80_Inquiry_Data
                0x000000002000007c        0x8 ./Middlewares/ST/STM32_USB_Device_Library/Class/MSC/Src/usbd_msc_data.o
                0x000000002000007c                MSC_Page80_Inquiry_Data
 .data.MSC_Mode_Sense6_data
                0x0000000020000084       0x17 ./Middlewares/ST/STM32_USB_Device_Library/Class/MSC/Src/usbd_msc_data.o
                0x0000000020000084                MSC_Mode_Sense6_data
 *fill*         0x000000002000009b        0x1 
 .data.MSC_Mode_Sense10_data
                0x000000002000009c       0x1b ./Middlewares/ST/STM32_USB_Device_Library/Class/MSC/Src/usbd_msc_data.o
                0x000000002000009c                MSC_Mode_Sense10_data
 *fill*         0x00000000200000b7        0x1 
 .data.FS_Desc  0x00000000200000b8       0x1c ./USB_DEVICE/App/usbd_desc.o
                0x00000000200000b8                FS_Desc
 .data.USBD_FS_DeviceDesc
                0x00000000200000d4       0x12 ./USB_DEVICE/App/usbd_desc.o
                0x00000000200000d4                USBD_FS_DeviceDesc
 *fill*         0x00000000200000e6        0x2 
 .data.USBD_LangIDDesc
                0x00000000200000e8        0x4 ./USB_DEVICE/App/usbd_desc.o
                0x00000000200000e8                USBD_LangIDDesc
 .data.USBD_StringSerial
                0x00000000200000ec       0x1a ./USB_DEVICE/App/usbd_desc.o
                0x00000000200000ec                USBD_StringSerial
 *fill*         0x0000000020000106        0x2 
 .data.USBD_Storage_Interface_fops_FS
                0x0000000020000108       0x20 ./USB_DEVICE/App/usbd_storage_if.o
                0x0000000020000108                USBD_Storage_Interface_fops_FS
 .data._impure_ptr
                0x0000000020000128        0x4 c:/program files/stmicroelectronics/stm32cube/stm32cubeide_1.10.1/stm32cubeide/plugins/com.st.stm32cube.ide.mcu.externaltools.gnu-tools-for-stm32.10.3-2021.10.win32_1.0.0.202111181127/tools/bin/../lib/gcc/arm-none-eabi/10.3.1/../../../../arm-none-eabi/lib/thumb/v7e-m+fp/hard\libc_nano.a(lib_a-impure.o)
                0x0000000020000128                _impure_ptr
 .data.impure_data
                0x000000002000012c       0x60 c:/program files/stmicroelectronics/stm32cube/stm32cubeide_1.10.1/stm32cubeide/plugins/com.st.stm32cube.ide.mcu.externaltools.gnu-tools-for-stm32.10.3-2021.10.win32_1.0.0.202111181127/tools/bin/../lib/gcc/arm-none-eabi/10.3.1/../../../../arm-none-eabi/lib/thumb/v7e-m+fp/hard\libc_nano.a(lib_a-impure.o)
 *(.RamFunc)
 *(.RamFunc*)
                0x000000002000018c                . = ALIGN (0x4)
                0x000000002000018c                _edata = .
                0x00000000080426c8                _siccmram = LOADADDR (.ccmram)

.igot.plt       0x000000002000018c        0x0 load address 0x00000000080426c8
 .igot.plt      0x000000002000018c        0x0 c:/program files/stmicroelectronics/stm32cube/stm32cubeide_1.10.1/stm32cubeide/plugins/com.st.stm32cube.ide.mcu.externaltools.gnu-tools-for-stm32.10.3-2021.10.win32_1.0.0.202111181127/tools/bin/../lib/gcc/arm-none-eabi/10.3.1/thumb/v7e-m+fp/hard/crtbegin.o

.ccmram         0x0000000010000000        0x0 load address 0x00000000080426c8
                0x0000000010000000                . = ALIGN (0x4)
                0x0000000010000000                _sccmram = .
 *(.ccmram)
 *(.ccmram*)
                0x0000000010000000                . = ALIGN (0x4)
                0x0000000010000000                _eccmram = .
                0x0000000010000000                . = ALIGN (0x4)

.bss            0x000000002000018c     0x1060
                0x000000002000018c                _sbss = .
                0x000000002000018c                __bss_start__ = _sbss
 *(.bss)
 .bss           0x000000002000018c       0x1c c:/program files/stmicroelectronics/stm32cube/stm32cubeide_1.10.1/stm32cubeide/plugins/com.st.stm32cube.ide.mcu.externaltools.gnu-tools-for-stm32.10.3-2021.10.win32_1.0.0.202111181127/tools/bin/../lib/gcc/arm-none-eabi/10.3.1/thumb/v7e-m+fp/hard/crtbegin.o
 *(.bss*)
 .bss.hsram4    0x00000000200001a8       0x50 ./Core/Src/fsmc.o
                0x00000000200001a8                hsram4
 .bss.FSMC_Initialized
                0x00000000200001f8        0x4 ./Core/Src/fsmc.o
 .bss.hrtc      0x00000000200001fc       0x20 ./Core/Src/rtc.o
                0x00000000200001fc                hrtc
 .bss.hsd       0x000000002000021c       0x84 ./Core/Src/sdio.o
                0x000000002000021c                hsd
 .bss.__sbrk_heap_end
                0x00000000200002a0        0x4 ./Core/Src/sysmem.o
 .bss.g_sram_handle
                0x00000000200002a4       0x50 ./Drivers/BSP/Src/lcd.o
                0x00000000200002a4                g_sram_handle
 .bss.lcddev    0x00000000200002f4        0xe ./Drivers/BSP/Src/lcd.o
                0x00000000200002f4                lcddev
 *fill*         0x0000000020000302        0x2 
 .bss.uwTick    0x0000000020000304        0x4 ./Drivers/STM32F4xx_HAL_Driver/Src/stm32f4xx_hal.o
                0x0000000020000304                uwTick
 .bss.retSD     0x0000000020000308        0x1 ./FATFS/App/fatfs.o
                0x0000000020000308                retSD
 *fill*         0x0000000020000309        0x3 
 .bss.SDPath    0x000000002000030c        0x4 ./FATFS/App/fatfs.o
                0x000000002000030c                SDPath
 .bss.SDFatFS   0x0000000020000310      0x234 ./FATFS/App/fatfs.o
                0x0000000020000310                SDFatFS
 .bss.cfgidx.0  0x0000000020000544        0x1 ./Middlewares/ST/STM32_USB_Device_Library/Core/Src/usbd_ctlreq.o
 *fill*         0x0000000020000545        0x3 
 .bss.FatFs     0x0000000020000548        0x4 ./Middlewares/Third_Party/FatFs/src/ff.o
 .bss.Fsid      0x000000002000054c        0x2 ./Middlewares/Third_Party/FatFs/src/ff.o
 *fill*         0x000000002000054e        0x2 
 .bss.Files     0x0000000020000550       0x20 ./Middlewares/Third_Party/FatFs/src/ff.o
 .bss.disk      0x0000000020000570        0xc ./Middlewares/Third_Party/FatFs/src/ff_gen_drv.o
                0x0000000020000570                disk
 .bss.hUsbDeviceFS
                0x000000002000057c      0x2dc ./USB_DEVICE/App/usb_device.o
                0x000000002000057c                hUsbDeviceFS
 .bss.USBD_StrDesc
                0x0000000020000858      0x200 ./USB_DEVICE/App/usbd_desc.o
                0x0000000020000858                USBD_StrDesc
 .bss.hpcd_USB_OTG_FS
                0x0000000020000a58      0x50c ./USB_DEVICE/Target/usbd_conf.o
                0x0000000020000a58                hpcd_USB_OTG_FS
 .bss.mem.0     0x0000000020000f64      0x278 ./USB_DEVICE/Target/usbd_conf.o
 .bss.__malloc_free_list
                0x00000000200011dc        0x4 c:/program files/stmicroelectronics/stm32cube/stm32cubeide_1.10.1/stm32cubeide/plugins/com.st.stm32cube.ide.mcu.externaltools.gnu-tools-for-stm32.10.3-2021.10.win32_1.0.0.202111181127/tools/bin/../lib/gcc/arm-none-eabi/10.3.1/../../../../arm-none-eabi/lib/thumb/v7e-m+fp/hard\libc_nano.a(lib_a-nano-mallocr.o)
                0x00000000200011dc                __malloc_free_list
 .bss.__malloc_sbrk_start
                0x00000000200011e0        0x4 c:/program files/stmicroelectronics/stm32cube/stm32cubeide_1.10.1/stm32cubeide/plugins/com.st.stm32cube.ide.mcu.externaltools.gnu-tools-for-stm32.10.3-2021.10.win32_1.0.0.202111181127/tools/bin/../lib/gcc/arm-none-eabi/10.3.1/../../../../arm-none-eabi/lib/thumb/v7e-m+fp/hard\libc_nano.a(lib_a-nano-mallocr.o)
                0x00000000200011e0                __malloc_sbrk_start
 .bss.errno     0x00000000200011e4        0x4 c:/program files/stmicroelectronics/stm32cube/stm32cubeide_1.10.1/stm32cubeide/plugins/com.st.stm32cube.ide.mcu.externaltools.gnu-tools-for-stm32.10.3-2021.10.win32_1.0.0.202111181127/tools/bin/../lib/gcc/arm-none-eabi/10.3.1/../../../../arm-none-eabi/lib/thumb/v7e-m+fp/hard\libc_nano.a(lib_a-reent.o)
                0x00000000200011e4                errno
 .bss.__lock___malloc_recursive_mutex
                0x00000000200011e8        0x1 c:/program files/stmicroelectronics/stm32cube/stm32cubeide_1.10.1/stm32cubeide/plugins/com.st.stm32cube.ide.mcu.externaltools.gnu-tools-for-stm32.10.3-2021.10.win32_1.0.0.202111181127/tools/bin/../lib/gcc/arm-none-eabi/10.3.1/../../../../arm-none-eabi/lib/thumb/v7e-m+fp/hard\libc_nano.a(lib_a-lock.o)
                0x00000000200011e8                __lock___malloc_recursive_mutex
 *(COMMON)
                0x00000000200011ec                . = ALIGN (0x4)
 *fill*         0x00000000200011e9        0x3 
                0x00000000200011ec                _ebss = .
                0x00000000200011ec                __bss_end__ = _ebss

._user_heap_stack
                0x00000000200011ec      0x604
                0x00000000200011f0                . = ALIGN (0x8)
 *fill*         0x00000000200011ec        0x4 
                [!provide]                        PROVIDE (end = .)
                0x00000000200011f0                PROVIDE (_end = .)
                0x00000000200013f0                . = (. + _Min_Heap_Size)
 *fill*         0x00000000200011f0      0x200 
                0x00000000200017f0                . = (. + _Min_Stack_Size)
 *fill*         0x00000000200013f0      0x400 
                0x00000000200017f0                . = ALIGN (0x8)

/DISCARD/
 libc.a(*)
 libm.a(*)
 libgcc.a(*)

.ARM.attributes
                0x0000000000000000       0x30
 *(.ARM.attributes)
 .ARM.attributes
                0x0000000000000000       0x1e c:/program files/stmicroelectronics/stm32cube/stm32cubeide_1.10.1/stm32cubeide/plugins/com.st.stm32cube.ide.mcu.externaltools.gnu-tools-for-stm32.10.3-2021.10.win32_1.0.0.202111181127/tools/bin/../lib/gcc/arm-none-eabi/10.3.1/thumb/v7e-m+fp/hard/crti.o
 .ARM.attributes
                0x000000000000001e       0x34 c:/program files/stmicroelectronics/stm32cube/stm32cubeide_1.10.1/stm32cubeide/plugins/com.st.stm32cube.ide.mcu.externaltools.gnu-tools-for-stm32.10.3-2021.10.win32_1.0.0.202111181127/tools/bin/../lib/gcc/arm-none-eabi/10.3.1/thumb/v7e-m+fp/hard/crtbegin.o
 .ARM.attributes
                0x0000000000000052       0x34 ./Core/Src/fsmc.o
 .ARM.attributes
                0x0000000000000086       0x34 ./Core/Src/gpio.o
 .ARM.attributes
                0x00000000000000ba       0x34 ./Core/Src/main.o
 .ARM.attributes
                0x00000000000000ee       0x34 ./Core/Src/rtc.o
 .ARM.attributes
                0x0000000000000122       0x34 ./Core/Src/sdio.o
 .ARM.attributes
                0x0000000000000156       0x34 ./Core/Src/stm32f4xx_hal_msp.o
 .ARM.attributes
                0x000000000000018a       0x34 ./Core/Src/stm32f4xx_it.o
 .ARM.attributes
                0x00000000000001be       0x34 ./Core/Src/sysmem.o
 .ARM.attributes
                0x00000000000001f2       0x34 ./Core/Src/system_stm32f4xx.o
 .ARM.attributes
                0x0000000000000226       0x21 ./Core/Startup/startup_stm32f407zgtx.o
 .ARM.attributes
                0x0000000000000247       0x34 ./Drivers/BSP/Src/file_opera.o
 .ARM.attributes
                0x000000000000027b       0x34 ./Drivers/BSP/Src/keyled.o
 .ARM.attributes
                0x00000000000002af       0x34 ./Drivers/BSP/Src/lcd.o
 .ARM.attributes
                0x00000000000002e3       0x34 ./Drivers/STM32F4xx_HAL_Driver/Src/stm32f4xx_hal.o
 .ARM.attributes
                0x0000000000000317       0x34 ./Drivers/STM32F4xx_HAL_Driver/Src/stm32f4xx_hal_cortex.o
 .ARM.attributes
                0x000000000000034b       0x34 ./Drivers/STM32F4xx_HAL_Driver/Src/stm32f4xx_hal_gpio.o
 .ARM.attributes
                0x000000000000037f       0x34 ./Drivers/STM32F4xx_HAL_Driver/Src/stm32f4xx_hal_pcd.o
 .ARM.attributes
                0x00000000000003b3       0x34 ./Drivers/STM32F4xx_HAL_Driver/Src/stm32f4xx_hal_pcd_ex.o
 .ARM.attributes
                0x00000000000003e7       0x34 ./Drivers/STM32F4xx_HAL_Driver/Src/stm32f4xx_hal_rcc.o
 .ARM.attributes
                0x000000000000041b       0x34 ./Drivers/STM32F4xx_HAL_Driver/Src/stm32f4xx_hal_rcc_ex.o
 .ARM.attributes
                0x000000000000044f       0x34 ./Drivers/STM32F4xx_HAL_Driver/Src/stm32f4xx_hal_rtc.o
 .ARM.attributes
                0x0000000000000483       0x34 ./Drivers/STM32F4xx_HAL_Driver/Src/stm32f4xx_hal_sd.o
 .ARM.attributes
                0x00000000000004b7       0x34 ./Drivers/STM32F4xx_HAL_Driver/Src/stm32f4xx_hal_sram.o
 .ARM.attributes
                0x00000000000004eb       0x34 ./Drivers/STM32F4xx_HAL_Driver/Src/stm32f4xx_ll_fsmc.o
 .ARM.attributes
                0x000000000000051f       0x34 ./Drivers/STM32F4xx_HAL_Driver/Src/stm32f4xx_ll_sdmmc.o
 .ARM.attributes
                0x0000000000000553       0x34 ./Drivers/STM32F4xx_HAL_Driver/Src/stm32f4xx_ll_usb.o
 .ARM.attributes
                0x0000000000000587       0x34 ./FATFS/App/fatfs.o
 .ARM.attributes
                0x00000000000005bb       0x34 ./FATFS/Target/bsp_driver_sd.o
 .ARM.attributes
                0x00000000000005ef       0x34 ./FATFS/Target/sd_diskio.o
 .ARM.attributes
                0x0000000000000623       0x34 ./Middlewares/ST/STM32_USB_Device_Library/Class/MSC/Src/usbd_msc.o
 .ARM.attributes
                0x0000000000000657       0x34 ./Middlewares/ST/STM32_USB_Device_Library/Class/MSC/Src/usbd_msc_bot.o
 .ARM.attributes
                0x000000000000068b       0x34 ./Middlewares/ST/STM32_USB_Device_Library/Class/MSC/Src/usbd_msc_data.o
 .ARM.attributes
                0x00000000000006bf       0x34 ./Middlewares/ST/STM32_USB_Device_Library/Class/MSC/Src/usbd_msc_scsi.o
 .ARM.attributes
                0x00000000000006f3       0x34 ./Middlewares/ST/STM32_USB_Device_Library/Core/Src/usbd_core.o
 .ARM.attributes
                0x0000000000000727       0x34 ./Middlewares/ST/STM32_USB_Device_Library/Core/Src/usbd_ctlreq.o
 .ARM.attributes
                0x000000000000075b       0x34 ./Middlewares/ST/STM32_USB_Device_Library/Core/Src/usbd_ioreq.o
 .ARM.attributes
                0x000000000000078f       0x34 ./Middlewares/Third_Party/FatFs/src/diskio.o
 .ARM.attributes
                0x00000000000007c3       0x34 ./Middlewares/Third_Party/FatFs/src/ff.o
 .ARM.attributes
                0x00000000000007f7       0x34 ./Middlewares/Third_Party/FatFs/src/ff_gen_drv.o
 .ARM.attributes
                0x000000000000082b       0x34 ./Middlewares/Third_Party/FatFs/src/option/cc936.o
 .ARM.attributes
                0x000000000000085f       0x34 ./Middlewares/Third_Party/FatFs/src/option/syscall.o
 .ARM.attributes
                0x0000000000000893       0x34 ./USB_DEVICE/App/usb_device.o
 .ARM.attributes
                0x00000000000008c7       0x34 ./USB_DEVICE/App/usbd_desc.o
 .ARM.attributes
                0x00000000000008fb       0x34 ./USB_DEVICE/App/usbd_storage_if.o
 .ARM.attributes
                0x000000000000092f       0x34 ./USB_DEVICE/Target/usbd_conf.o
 .ARM.attributes
                0x0000000000000963       0x34 c:/program files/stmicroelectronics/stm32cube/stm32cubeide_1.10.1/stm32cubeide/plugins/com.st.stm32cube.ide.mcu.externaltools.gnu-tools-for-stm32.10.3-2021.10.win32_1.0.0.202111181127/tools/bin/../lib/gcc/arm-none-eabi/10.3.1/../../../../arm-none-eabi/lib/thumb/v7e-m+fp/hard\libc_nano.a(lib_a-errno.o)
 .ARM.attributes
                0x0000000000000997       0x34 c:/program files/stmicroelectronics/stm32cube/stm32cubeide_1.10.1/stm32cubeide/plugins/com.st.stm32cube.ide.mcu.externaltools.gnu-tools-for-stm32.10.3-2021.10.win32_1.0.0.202111181127/tools/bin/../lib/gcc/arm-none-eabi/10.3.1/../../../../arm-none-eabi/lib/thumb/v7e-m+fp/hard\libc_nano.a(lib_a-impure.o)
 .ARM.attributes
                0x00000000000009cb       0x34 c:/program files/stmicroelectronics/stm32cube/stm32cubeide_1.10.1/stm32cubeide/plugins/com.st.stm32cube.ide.mcu.externaltools.gnu-tools-for-stm32.10.3-2021.10.win32_1.0.0.202111181127/tools/bin/../lib/gcc/arm-none-eabi/10.3.1/../../../../arm-none-eabi/lib/thumb/v7e-m+fp/hard\libc_nano.a(lib_a-init.o)
 .ARM.attributes
                0x00000000000009ff       0x34 c:/program files/stmicroelectronics/stm32cube/stm32cubeide_1.10.1/stm32cubeide/plugins/com.st.stm32cube.ide.mcu.externaltools.gnu-tools-for-stm32.10.3-2021.10.win32_1.0.0.202111181127/tools/bin/../lib/gcc/arm-none-eabi/10.3.1/../../../../arm-none-eabi/lib/thumb/v7e-m+fp/hard\libc_nano.a(lib_a-malloc.o)
 .ARM.attributes
                0x0000000000000a33       0x34 c:/program files/stmicroelectronics/stm32cube/stm32cubeide_1.10.1/stm32cubeide/plugins/com.st.stm32cube.ide.mcu.externaltools.gnu-tools-for-stm32.10.3-2021.10.win32_1.0.0.202111181127/tools/bin/../lib/gcc/arm-none-eabi/10.3.1/../../../../arm-none-eabi/lib/thumb/v7e-m+fp/hard\libc_nano.a(lib_a-memset.o)
 .ARM.attributes
                0x0000000000000a67       0x34 c:/program files/stmicroelectronics/stm32cube/stm32cubeide_1.10.1/stm32cubeide/plugins/com.st.stm32cube.ide.mcu.externaltools.gnu-tools-for-stm32.10.3-2021.10.win32_1.0.0.202111181127/tools/bin/../lib/gcc/arm-none-eabi/10.3.1/../../../../arm-none-eabi/lib/thumb/v7e-m+fp/hard\libc_nano.a(lib_a-nano-freer.o)
 .ARM.attributes
                0x0000000000000a9b       0x34 c:/program files/stmicroelectronics/stm32cube/stm32cubeide_1.10.1/stm32cubeide/plugins/com.st.stm32cube.ide.mcu.externaltools.gnu-tools-for-stm32.10.3-2021.10.win32_1.0.0.202111181127/tools/bin/../lib/gcc/arm-none-eabi/10.3.1/../../../../arm-none-eabi/lib/thumb/v7e-m+fp/hard\libc_nano.a(lib_a-nano-mallocr.o)
 .ARM.attributes
                0x0000000000000acf       0x34 c:/program files/stmicroelectronics/stm32cube/stm32cubeide_1.10.1/stm32cubeide/plugins/com.st.stm32cube.ide.mcu.externaltools.gnu-tools-for-stm32.10.3-2021.10.win32_1.0.0.202111181127/tools/bin/../lib/gcc/arm-none-eabi/10.3.1/../../../../arm-none-eabi/lib/thumb/v7e-m+fp/hard\libc_nano.a(lib_a-sbrkr.o)
 .ARM.attributes
                0x0000000000000b03       0x34 c:/program files/stmicroelectronics/stm32cube/stm32cubeide_1.10.1/stm32cubeide/plugins/com.st.stm32cube.ide.mcu.externaltools.gnu-tools-for-stm32.10.3-2021.10.win32_1.0.0.202111181127/tools/bin/../lib/gcc/arm-none-eabi/10.3.1/../../../../arm-none-eabi/lib/thumb/v7e-m+fp/hard\libc_nano.a(lib_a-sprintf.o)
 .ARM.attributes
                0x0000000000000b37       0x17 c:/program files/stmicroelectronics/stm32cube/stm32cubeide_1.10.1/stm32cubeide/plugins/com.st.stm32cube.ide.mcu.externaltools.gnu-tools-for-stm32.10.3-2021.10.win32_1.0.0.202111181127/tools/bin/../lib/gcc/arm-none-eabi/10.3.1/../../../../arm-none-eabi/lib/thumb/v7e-m+fp/hard\libc_nano.a(lib_a-strlen.o)
 .ARM.attributes
                0x0000000000000b4e       0x34 c:/program files/stmicroelectronics/stm32cube/stm32cubeide_1.10.1/stm32cubeide/plugins/com.st.stm32cube.ide.mcu.externaltools.gnu-tools-for-stm32.10.3-2021.10.win32_1.0.0.202111181127/tools/bin/../lib/gcc/arm-none-eabi/10.3.1/../../../../arm-none-eabi/lib/thumb/v7e-m+fp/hard\libc_nano.a(lib_a-mlock.o)
 .ARM.attributes
                0x0000000000000b82       0x34 c:/program files/stmicroelectronics/stm32cube/stm32cubeide_1.10.1/stm32cubeide/plugins/com.st.stm32cube.ide.mcu.externaltools.gnu-tools-for-stm32.10.3-2021.10.win32_1.0.0.202111181127/tools/bin/../lib/gcc/arm-none-eabi/10.3.1/../../../../arm-none-eabi/lib/thumb/v7e-m+fp/hard\libc_nano.a(lib_a-nano-svfprintf.o)
 .ARM.attributes
                0x0000000000000bb6       0x34 c:/program files/stmicroelectronics/stm32cube/stm32cubeide_1.10.1/stm32cubeide/plugins/com.st.stm32cube.ide.mcu.externaltools.gnu-tools-for-stm32.10.3-2021.10.win32_1.0.0.202111181127/tools/bin/../lib/gcc/arm-none-eabi/10.3.1/../../../../arm-none-eabi/lib/thumb/v7e-m+fp/hard\libc_nano.a(lib_a-nano-vfprintf_i.o)
 .ARM.attributes
                0x0000000000000bea       0x34 c:/program files/stmicroelectronics/stm32cube/stm32cubeide_1.10.1/stm32cubeide/plugins/com.st.stm32cube.ide.mcu.externaltools.gnu-tools-for-stm32.10.3-2021.10.win32_1.0.0.202111181127/tools/bin/../lib/gcc/arm-none-eabi/10.3.1/../../../../arm-none-eabi/lib/thumb/v7e-m+fp/hard\libc_nano.a(lib_a-reent.o)
 .ARM.attributes
                0x0000000000000c1e       0x34 c:/program files/stmicroelectronics/stm32cube/stm32cubeide_1.10.1/stm32cubeide/plugins/com.st.stm32cube.ide.mcu.externaltools.gnu-tools-for-stm32.10.3-2021.10.win32_1.0.0.202111181127/tools/bin/../lib/gcc/arm-none-eabi/10.3.1/../../../../arm-none-eabi/lib/thumb/v7e-m+fp/hard\libc_nano.a(lib_a-lock.o)
 .ARM.attributes
                0x0000000000000c52       0x1c c:/program files/stmicroelectronics/stm32cube/stm32cubeide_1.10.1/stm32cubeide/plugins/com.st.stm32cube.ide.mcu.externaltools.gnu-tools-for-stm32.10.3-2021.10.win32_1.0.0.202111181127/tools/bin/../lib/gcc/arm-none-eabi/10.3.1/../../../../arm-none-eabi/lib/thumb/v7e-m+fp/hard\libc_nano.a(lib_a-memchr.o)
 .ARM.attributes
                0x0000000000000c6e       0x34 c:/program files/stmicroelectronics/stm32cube/stm32cubeide_1.10.1/stm32cubeide/plugins/com.st.stm32cube.ide.mcu.externaltools.gnu-tools-for-stm32.10.3-2021.10.win32_1.0.0.202111181127/tools/bin/../lib/gcc/arm-none-eabi/10.3.1/../../../../arm-none-eabi/lib/thumb/v7e-m+fp/hard\libc_nano.a(lib_a-memcpy-stub.o)
 .ARM.attributes
                0x0000000000000ca2       0x34 c:/program files/stmicroelectronics/stm32cube/stm32cubeide_1.10.1/stm32cubeide/plugins/com.st.stm32cube.ide.mcu.externaltools.gnu-tools-for-stm32.10.3-2021.10.win32_1.0.0.202111181127/tools/bin/../lib/gcc/arm-none-eabi/10.3.1/../../../../arm-none-eabi/lib/thumb/v7e-m+fp/hard\libc_nano.a(lib_a-memmove.o)
 .ARM.attributes
                0x0000000000000cd6       0x34 c:/program files/stmicroelectronics/stm32cube/stm32cubeide_1.10.1/stm32cubeide/plugins/com.st.stm32cube.ide.mcu.externaltools.gnu-tools-for-stm32.10.3-2021.10.win32_1.0.0.202111181127/tools/bin/../lib/gcc/arm-none-eabi/10.3.1/../../../../arm-none-eabi/lib/thumb/v7e-m+fp/hard\libc_nano.a(lib_a-nano-reallocr.o)
 .ARM.attributes
                0x0000000000000d0a       0x34 c:/program files/stmicroelectronics/stm32cube/stm32cubeide_1.10.1/stm32cubeide/plugins/com.st.stm32cube.ide.mcu.externaltools.gnu-tools-for-stm32.10.3-2021.10.win32_1.0.0.202111181127/tools/bin/../lib/gcc/arm-none-eabi/10.3.1/../../../../arm-none-eabi/lib/thumb/v7e-m+fp/hard\libc_nano.a(lib_a-nano-msizer.o)
 .ARM.attributes
                0x0000000000000d3e       0x1e c:/program files/stmicroelectronics/stm32cube/stm32cubeide_1.10.1/stm32cubeide/plugins/com.st.stm32cube.ide.mcu.externaltools.gnu-tools-for-stm32.10.3-2021.10.win32_1.0.0.202111181127/tools/bin/../lib/gcc/arm-none-eabi/10.3.1/thumb/v7e-m+fp/hard\libgcc.a(_arm_muldf3.o)
 .ARM.attributes
                0x0000000000000d5c       0x1e c:/program files/stmicroelectronics/stm32cube/stm32cubeide_1.10.1/stm32cubeide/plugins/com.st.stm32cube.ide.mcu.externaltools.gnu-tools-for-stm32.10.3-2021.10.win32_1.0.0.202111181127/tools/bin/../lib/gcc/arm-none-eabi/10.3.1/thumb/v7e-m+fp/hard\libgcc.a(_arm_addsubdf3.o)
 .ARM.attributes
                0x0000000000000d7a       0x1e c:/program files/stmicroelectronics/stm32cube/stm32cubeide_1.10.1/stm32cubeide/plugins/com.st.stm32cube.ide.mcu.externaltools.gnu-tools-for-stm32.10.3-2021.10.win32_1.0.0.202111181127/tools/bin/../lib/gcc/arm-none-eabi/10.3.1/thumb/v7e-m+fp/hard\libgcc.a(_arm_fixunsdfsi.o)
 .ARM.attributes
                0x0000000000000d98       0x1e c:/program files/stmicroelectronics/stm32cube/stm32cubeide_1.10.1/stm32cubeide/plugins/com.st.stm32cube.ide.mcu.externaltools.gnu-tools-for-stm32.10.3-2021.10.win32_1.0.0.202111181127/tools/bin/../lib/gcc/arm-none-eabi/10.3.1/thumb/v7e-m+fp/hard\libgcc.a(_aeabi_uldivmod.o)
 .ARM.attributes
                0x0000000000000db6       0x34 c:/program files/stmicroelectronics/stm32cube/stm32cubeide_1.10.1/stm32cubeide/plugins/com.st.stm32cube.ide.mcu.externaltools.gnu-tools-for-stm32.10.3-2021.10.win32_1.0.0.202111181127/tools/bin/../lib/gcc/arm-none-eabi/10.3.1/thumb/v7e-m+fp/hard\libgcc.a(_udivmoddi4.o)
 .ARM.attributes
                0x0000000000000dea       0x1e c:/program files/stmicroelectronics/stm32cube/stm32cubeide_1.10.1/stm32cubeide/plugins/com.st.stm32cube.ide.mcu.externaltools.gnu-tools-for-stm32.10.3-2021.10.win32_1.0.0.202111181127/tools/bin/../lib/gcc/arm-none-eabi/10.3.1/thumb/v7e-m+fp/hard\libgcc.a(_dvmd_tls.o)
 .ARM.attributes
                0x0000000000000e08       0x1e c:/program files/stmicroelectronics/stm32cube/stm32cubeide_1.10.1/stm32cubeide/plugins/com.st.stm32cube.ide.mcu.externaltools.gnu-tools-for-stm32.10.3-2021.10.win32_1.0.0.202111181127/tools/bin/../lib/gcc/arm-none-eabi/10.3.1/thumb/v7e-m+fp/hard/crtn.o
OUTPUT(Demo16_2SD_FAT_USB.elf elf32-littlearm)
LOAD linker stubs
LOAD c:/program files/stmicroelectronics/stm32cube/stm32cubeide_1.10.1/stm32cubeide/plugins/com.st.stm32cube.ide.mcu.externaltools.gnu-tools-for-stm32.10.3-2021.10.win32_1.0.0.202111181127/tools/bin/../lib/gcc/arm-none-eabi/10.3.1/../../../../arm-none-eabi/lib/thumb/v7e-m+fp/hard\libc.a
LOAD c:/program files/stmicroelectronics/stm32cube/stm32cubeide_1.10.1/stm32cubeide/plugins/com.st.stm32cube.ide.mcu.externaltools.gnu-tools-for-stm32.10.3-2021.10.win32_1.0.0.202111181127/tools/bin/../lib/gcc/arm-none-eabi/10.3.1/../../../../arm-none-eabi/lib/thumb/v7e-m+fp/hard\libm.a
LOAD c:/program files/stmicroelectronics/stm32cube/stm32cubeide_1.10.1/stm32cubeide/plugins/com.st.stm32cube.ide.mcu.externaltools.gnu-tools-for-stm32.10.3-2021.10.win32_1.0.0.202111181127/tools/bin/../lib/gcc/arm-none-eabi/10.3.1/thumb/v7e-m+fp/hard\libgcc.a

.debug_info     0x0000000000000000    0x1e9d6
 .debug_info    0x0000000000000000      0xa3a ./Core/Src/fsmc.o
 .debug_info    0x0000000000000a3a      0x4e5 ./Core/Src/gpio.o
 .debug_info    0x0000000000000f1f      0x96b ./Core/Src/main.o
 .debug_info    0x000000000000188a      0x6cc ./Core/Src/rtc.o
 .debug_info    0x0000000000001f56      0xa94 ./Core/Src/sdio.o
 .debug_info    0x00000000000029ea      0x2a8 ./Core/Src/stm32f4xx_hal_msp.o
 .debug_info    0x0000000000002c92      0x650 ./Core/Src/stm32f4xx_it.o
 .debug_info    0x00000000000032e2      0x171 ./Core/Src/sysmem.o
 .debug_info    0x0000000000003453      0x523 ./Core/Src/system_stm32f4xx.o
 .debug_info    0x0000000000003976       0x22 ./Core/Startup/startup_stm32f407zgtx.o
 .debug_info    0x0000000000003998     0x108f ./Drivers/BSP/Src/file_opera.o
 .debug_info    0x0000000000004a27      0x23f ./Drivers/BSP/Src/keyled.o
 .debug_info    0x0000000000004c66     0x146a ./Drivers/BSP/Src/lcd.o
 .debug_info    0x00000000000060d0      0x97c ./Drivers/STM32F4xx_HAL_Driver/Src/stm32f4xx_hal.o
 .debug_info    0x0000000000006a4c      0xe1b ./Drivers/STM32F4xx_HAL_Driver/Src/stm32f4xx_hal_cortex.o
 .debug_info    0x0000000000007867      0x76a ./Drivers/STM32F4xx_HAL_Driver/Src/stm32f4xx_hal_gpio.o
 .debug_info    0x0000000000007fd1     0x1695 ./Drivers/STM32F4xx_HAL_Driver/Src/stm32f4xx_hal_pcd.o
 .debug_info    0x0000000000009666      0x717 ./Drivers/STM32F4xx_HAL_Driver/Src/stm32f4xx_hal_pcd_ex.o
 .debug_info    0x0000000000009d7d      0x966 ./Drivers/STM32F4xx_HAL_Driver/Src/stm32f4xx_hal_rcc.o
 .debug_info    0x000000000000a6e3      0x569 ./Drivers/STM32F4xx_HAL_Driver/Src/stm32f4xx_hal_rcc_ex.o
 .debug_info    0x000000000000ac4c      0xcf8 ./Drivers/STM32F4xx_HAL_Driver/Src/stm32f4xx_hal_rtc.o
 .debug_info    0x000000000000b944     0x1d34 ./Drivers/STM32F4xx_HAL_Driver/Src/stm32f4xx_hal_sd.o
 .debug_info    0x000000000000d678      0xdc4 ./Drivers/STM32F4xx_HAL_Driver/Src/stm32f4xx_hal_sram.o
 .debug_info    0x000000000000e43c      0xa23 ./Drivers/STM32F4xx_HAL_Driver/Src/stm32f4xx_ll_fsmc.o
 .debug_info    0x000000000000ee5f     0x11dd ./Drivers/STM32F4xx_HAL_Driver/Src/stm32f4xx_ll_sdmmc.o
 .debug_info    0x000000000001003c     0x1a97 ./Drivers/STM32F4xx_HAL_Driver/Src/stm32f4xx_ll_usb.o
 .debug_info    0x0000000000011ad3      0x52b ./FATFS/App/fatfs.o
 .debug_info    0x0000000000011ffe      0xb55 ./FATFS/Target/bsp_driver_sd.o
 .debug_info    0x0000000000012b53      0x4e9 ./FATFS/Target/sd_diskio.o
 .debug_info    0x000000000001303c      0xe5d ./Middlewares/ST/STM32_USB_Device_Library/Class/MSC/Src/usbd_msc.o
 .debug_info    0x0000000000013e99      0xd01 ./Middlewares/ST/STM32_USB_Device_Library/Class/MSC/Src/usbd_msc_bot.o
 .debug_info    0x0000000000014b9a      0x136 ./Middlewares/ST/STM32_USB_Device_Library/Class/MSC/Src/usbd_msc_data.o
 .debug_info    0x0000000000014cd0     0x12d5 ./Middlewares/ST/STM32_USB_Device_Library/Class/MSC/Src/usbd_msc_scsi.o
 .debug_info    0x0000000000015fa5      0xee7 ./Middlewares/ST/STM32_USB_Device_Library/Core/Src/usbd_core.o
 .debug_info    0x0000000000016e8c      0xb7f ./Middlewares/ST/STM32_USB_Device_Library/Core/Src/usbd_ctlreq.o
 .debug_info    0x0000000000017a0b      0x7da ./Middlewares/ST/STM32_USB_Device_Library/Core/Src/usbd_ioreq.o
 .debug_info    0x00000000000181e5      0x412 ./Middlewares/Third_Party/FatFs/src/diskio.o
 .debug_info    0x00000000000185f7     0x2892 ./Middlewares/Third_Party/FatFs/src/ff.o
 .debug_info    0x000000000001ae89      0x3a9 ./Middlewares/Third_Party/FatFs/src/ff_gen_drv.o
 .debug_info    0x000000000001b232      0x222 ./Middlewares/Third_Party/FatFs/src/option/cc936.o
 .debug_info    0x000000000001b454      0x10c ./Middlewares/Third_Party/FatFs/src/option/syscall.o
 .debug_info    0x000000000001b560      0x797 ./USB_DEVICE/App/usb_device.o
 .debug_info    0x000000000001bcf7      0x498 ./USB_DEVICE/App/usbd_desc.o
 .debug_info    0x000000000001c18f      0xb28 ./USB_DEVICE/App/usbd_storage_if.o
 .debug_info    0x000000000001ccb7     0x1d1f ./USB_DEVICE/Target/usbd_conf.o

.debug_abbrev   0x0000000000000000     0x55f2
 .debug_abbrev  0x0000000000000000      0x207 ./Core/Src/fsmc.o
 .debug_abbrev  0x0000000000000207      0x146 ./Core/Src/gpio.o
 .debug_abbrev  0x000000000000034d      0x25c ./Core/Src/main.o
 .debug_abbrev  0x00000000000005a9      0x18f ./Core/Src/rtc.o
 .debug_abbrev  0x0000000000000738      0x1bd ./Core/Src/sdio.o
 .debug_abbrev  0x00000000000008f5       0xd4 ./Core/Src/stm32f4xx_hal_msp.o
 .debug_abbrev  0x00000000000009c9      0x199 ./Core/Src/stm32f4xx_it.o
 .debug_abbrev  0x0000000000000b62       0xbb ./Core/Src/sysmem.o
 .debug_abbrev  0x0000000000000c1d      0x116 ./Core/Src/system_stm32f4xx.o
 .debug_abbrev  0x0000000000000d33       0x12 ./Core/Startup/startup_stm32f407zgtx.o
 .debug_abbrev  0x0000000000000d45      0x269 ./Drivers/BSP/Src/file_opera.o
 .debug_abbrev  0x0000000000000fae      0x147 ./Drivers/BSP/Src/keyled.o
 .debug_abbrev  0x00000000000010f5      0x359 ./Drivers/BSP/Src/lcd.o
 .debug_abbrev  0x000000000000144e      0x20d ./Drivers/STM32F4xx_HAL_Driver/Src/stm32f4xx_hal.o
 .debug_abbrev  0x000000000000165b      0x316 ./Drivers/STM32F4xx_HAL_Driver/Src/stm32f4xx_hal_cortex.o
 .debug_abbrev  0x0000000000001971      0x1c4 ./Drivers/STM32F4xx_HAL_Driver/Src/stm32f4xx_hal_gpio.o
 .debug_abbrev  0x0000000000001b35      0x2bb ./Drivers/STM32F4xx_HAL_Driver/Src/stm32f4xx_hal_pcd.o
 .debug_abbrev  0x0000000000001df0      0x1ce ./Drivers/STM32F4xx_HAL_Driver/Src/stm32f4xx_hal_pcd_ex.o
 .debug_abbrev  0x0000000000001fbe      0x2aa ./Drivers/STM32F4xx_HAL_Driver/Src/stm32f4xx_hal_rcc.o
 .debug_abbrev  0x0000000000002268      0x1a8 ./Drivers/STM32F4xx_HAL_Driver/Src/stm32f4xx_hal_rcc_ex.o
 .debug_abbrev  0x0000000000002410      0x1f1 ./Drivers/STM32F4xx_HAL_Driver/Src/stm32f4xx_hal_rtc.o
 .debug_abbrev  0x0000000000002601      0x288 ./Drivers/STM32F4xx_HAL_Driver/Src/stm32f4xx_hal_sd.o
 .debug_abbrev  0x0000000000002889      0x1f8 ./Drivers/STM32F4xx_HAL_Driver/Src/stm32f4xx_hal_sram.o
 .debug_abbrev  0x0000000000002a81      0x196 ./Drivers/STM32F4xx_HAL_Driver/Src/stm32f4xx_ll_fsmc.o
 .debug_abbrev  0x0000000000002c17      0x1ce ./Drivers/STM32F4xx_HAL_Driver/Src/stm32f4xx_ll_sdmmc.o
 .debug_abbrev  0x0000000000002de5      0x296 ./Drivers/STM32F4xx_HAL_Driver/Src/stm32f4xx_ll_usb.o
 .debug_abbrev  0x000000000000307b      0x174 ./FATFS/App/fatfs.o
 .debug_abbrev  0x00000000000031ef      0x295 ./FATFS/Target/bsp_driver_sd.o
 .debug_abbrev  0x0000000000003484      0x187 ./FATFS/Target/sd_diskio.o
 .debug_abbrev  0x000000000000360b      0x2fe ./Middlewares/ST/STM32_USB_Device_Library/Class/MSC/Src/usbd_msc.o
 .debug_abbrev  0x0000000000003909      0x2c3 ./Middlewares/ST/STM32_USB_Device_Library/Class/MSC/Src/usbd_msc_bot.o
 .debug_abbrev  0x0000000000003bcc       0x6c ./Middlewares/ST/STM32_USB_Device_Library/Class/MSC/Src/usbd_msc_data.o
 .debug_abbrev  0x0000000000003c38      0x2fa ./Middlewares/ST/STM32_USB_Device_Library/Class/MSC/Src/usbd_msc_scsi.o
 .debug_abbrev  0x0000000000003f32      0x263 ./Middlewares/ST/STM32_USB_Device_Library/Core/Src/usbd_core.o
 .debug_abbrev  0x0000000000004195      0x25c ./Middlewares/ST/STM32_USB_Device_Library/Core/Src/usbd_ctlreq.o
 .debug_abbrev  0x00000000000043f1      0x18a ./Middlewares/ST/STM32_USB_Device_Library/Core/Src/usbd_ioreq.o
 .debug_abbrev  0x000000000000457b      0x178 ./Middlewares/Third_Party/FatFs/src/diskio.o
 .debug_abbrev  0x00000000000046f3      0x286 ./Middlewares/Third_Party/FatFs/src/ff.o
 .debug_abbrev  0x0000000000004979      0x196 ./Middlewares/Third_Party/FatFs/src/ff_gen_drv.o
 .debug_abbrev  0x0000000000004b0f       0xe5 ./Middlewares/Third_Party/FatFs/src/option/cc936.o
 .debug_abbrev  0x0000000000004bf4       0xbf ./Middlewares/Third_Party/FatFs/src/option/syscall.o
 .debug_abbrev  0x0000000000004cb3      0x18a ./USB_DEVICE/App/usb_device.o
 .debug_abbrev  0x0000000000004e3d      0x1da ./USB_DEVICE/App/usbd_desc.o
 .debug_abbrev  0x0000000000005017      0x2b0 ./USB_DEVICE/App/usbd_storage_if.o
 .debug_abbrev  0x00000000000052c7      0x32b ./USB_DEVICE/Target/usbd_conf.o

.debug_aranges  0x0000000000000000     0x1878
 .debug_aranges
                0x0000000000000000       0x40 ./Core/Src/fsmc.o
 .debug_aranges
                0x0000000000000040       0x20 ./Core/Src/gpio.o
 .debug_aranges
                0x0000000000000060       0x30 ./Core/Src/main.o
 .debug_aranges
                0x0000000000000090       0x30 ./Core/Src/rtc.o
 .debug_aranges
                0x00000000000000c0       0x30 ./Core/Src/sdio.o
 .debug_aranges
                0x00000000000000f0       0x20 ./Core/Src/stm32f4xx_hal_msp.o
 .debug_aranges
                0x0000000000000110       0x68 ./Core/Src/stm32f4xx_it.o
 .debug_aranges
                0x0000000000000178       0x20 ./Core/Src/sysmem.o
 .debug_aranges
                0x0000000000000198       0x28 ./Core/Src/system_stm32f4xx.o
 .debug_aranges
                0x00000000000001c0       0x28 ./Core/Startup/startup_stm32f407zgtx.o
 .debug_aranges
                0x00000000000001e8       0x60 ./Drivers/BSP/Src/file_opera.o
 .debug_aranges
                0x0000000000000248       0x20 ./Drivers/BSP/Src/keyled.o
 .debug_aranges
                0x0000000000000268      0x130 ./Drivers/BSP/Src/lcd.o
 .debug_aranges
                0x0000000000000398       0xf0 ./Drivers/STM32F4xx_HAL_Driver/Src/stm32f4xx_hal.o
 .debug_aranges
                0x0000000000000488      0x118 ./Drivers/STM32F4xx_HAL_Driver/Src/stm32f4xx_hal_cortex.o
 .debug_aranges
                0x00000000000005a0       0x58 ./Drivers/STM32F4xx_HAL_Driver/Src/stm32f4xx_hal_gpio.o
 .debug_aranges
                0x00000000000005f8      0x148 ./Drivers/STM32F4xx_HAL_Driver/Src/stm32f4xx_hal_pcd.o
 .debug_aranges
                0x0000000000000740       0x38 ./Drivers/STM32F4xx_HAL_Driver/Src/stm32f4xx_hal_pcd_ex.o
 .debug_aranges
                0x0000000000000778       0x88 ./Drivers/STM32F4xx_HAL_Driver/Src/stm32f4xx_hal_rcc.o
 .debug_aranges
                0x0000000000000800       0x48 ./Drivers/STM32F4xx_HAL_Driver/Src/stm32f4xx_hal_rcc_ex.o
 .debug_aranges
                0x0000000000000848       0xe8 ./Drivers/STM32F4xx_HAL_Driver/Src/stm32f4xx_hal_rtc.o
 .debug_aranges
                0x0000000000000930      0x168 ./Drivers/STM32F4xx_HAL_Driver/Src/stm32f4xx_hal_sd.o
 .debug_aranges
                0x0000000000000a98       0xb8 ./Drivers/STM32F4xx_HAL_Driver/Src/stm32f4xx_hal_sram.o
 .debug_aranges
                0x0000000000000b50       0xa8 ./Drivers/STM32F4xx_HAL_Driver/Src/stm32f4xx_ll_fsmc.o
 .debug_aranges
                0x0000000000000bf8      0x188 ./Drivers/STM32F4xx_HAL_Driver/Src/stm32f4xx_ll_sdmmc.o
 .debug_aranges
                0x0000000000000d80      0x1a0 ./Drivers/STM32F4xx_HAL_Driver/Src/stm32f4xx_ll_usb.o
 .debug_aranges
                0x0000000000000f20       0x28 ./FATFS/App/fatfs.o
 .debug_aranges
                0x0000000000000f48       0xa0 ./FATFS/Target/bsp_driver_sd.o
 .debug_aranges
                0x0000000000000fe8       0x48 ./FATFS/Target/sd_diskio.o
 .debug_aranges
                0x0000000000001030       0x68 ./Middlewares/ST/STM32_USB_Device_Library/Class/MSC/Src/usbd_msc.o
 .debug_aranges
                0x0000000000001098       0x68 ./Middlewares/ST/STM32_USB_Device_Library/Class/MSC/Src/usbd_msc_bot.o
 .debug_aranges
                0x0000000000001100       0x18 ./Middlewares/ST/STM32_USB_Device_Library/Class/MSC/Src/usbd_msc_data.o
 .debug_aranges
                0x0000000000001118       0xc0 ./Middlewares/ST/STM32_USB_Device_Library/Class/MSC/Src/usbd_msc_scsi.o
 .debug_aranges
                0x00000000000011d8       0xd8 ./Middlewares/ST/STM32_USB_Device_Library/Core/Src/usbd_core.o
 .debug_aranges
                0x00000000000012b0       0x90 ./Middlewares/ST/STM32_USB_Device_Library/Core/Src/usbd_ctlreq.o
 .debug_aranges
                0x0000000000001340       0x50 ./Middlewares/ST/STM32_USB_Device_Library/Core/Src/usbd_ioreq.o
 .debug_aranges
                0x0000000000001390       0x48 ./Middlewares/Third_Party/FatFs/src/diskio.o
 .debug_aranges
                0x00000000000013d8      0x230 ./Middlewares/Third_Party/FatFs/src/ff.o
 .debug_aranges
                0x0000000000001608       0x40 ./Middlewares/Third_Party/FatFs/src/ff_gen_drv.o
 .debug_aranges
                0x0000000000001648       0x28 ./Middlewares/Third_Party/FatFs/src/option/cc936.o
 .debug_aranges
                0x0000000000001670       0x28 ./Middlewares/Third_Party/FatFs/src/option/syscall.o
 .debug_aranges
                0x0000000000001698       0x20 ./USB_DEVICE/App/usb_device.o
 .debug_aranges
                0x00000000000016b8       0x60 ./USB_DEVICE/App/usbd_desc.o
 .debug_aranges
                0x0000000000001718       0x50 ./USB_DEVICE/App/usbd_storage_if.o
 .debug_aranges
                0x0000000000001768      0x110 ./USB_DEVICE/Target/usbd_conf.o

.debug_ranges   0x0000000000000000     0x15a8
 .debug_ranges  0x0000000000000000       0x30 ./Core/Src/fsmc.o
 .debug_ranges  0x0000000000000030       0x10 ./Core/Src/gpio.o
 .debug_ranges  0x0000000000000040       0x20 ./Core/Src/main.o
 .debug_ranges  0x0000000000000060       0x20 ./Core/Src/rtc.o
 .debug_ranges  0x0000000000000080       0x20 ./Core/Src/sdio.o
 .debug_ranges  0x00000000000000a0       0x10 ./Core/Src/stm32f4xx_hal_msp.o
 .debug_ranges  0x00000000000000b0       0x58 ./Core/Src/stm32f4xx_it.o
 .debug_ranges  0x0000000000000108       0x10 ./Core/Src/sysmem.o
 .debug_ranges  0x0000000000000118       0x18 ./Core/Src/system_stm32f4xx.o
 .debug_ranges  0x0000000000000130       0x20 ./Core/Startup/startup_stm32f407zgtx.o
 .debug_ranges  0x0000000000000150       0x50 ./Drivers/BSP/Src/file_opera.o
 .debug_ranges  0x00000000000001a0       0x10 ./Drivers/BSP/Src/keyled.o
 .debug_ranges  0x00000000000001b0      0x120 ./Drivers/BSP/Src/lcd.o
 .debug_ranges  0x00000000000002d0       0xe0 ./Drivers/STM32F4xx_HAL_Driver/Src/stm32f4xx_hal.o
 .debug_ranges  0x00000000000003b0      0x108 ./Drivers/STM32F4xx_HAL_Driver/Src/stm32f4xx_hal_cortex.o
 .debug_ranges  0x00000000000004b8       0x48 ./Drivers/STM32F4xx_HAL_Driver/Src/stm32f4xx_hal_gpio.o
 .debug_ranges  0x0000000000000500      0x138 ./Drivers/STM32F4xx_HAL_Driver/Src/stm32f4xx_hal_pcd.o
 .debug_ranges  0x0000000000000638       0x28 ./Drivers/STM32F4xx_HAL_Driver/Src/stm32f4xx_hal_pcd_ex.o
 .debug_ranges  0x0000000000000660       0x78 ./Drivers/STM32F4xx_HAL_Driver/Src/stm32f4xx_hal_rcc.o
 .debug_ranges  0x00000000000006d8       0x38 ./Drivers/STM32F4xx_HAL_Driver/Src/stm32f4xx_hal_rcc_ex.o
 .debug_ranges  0x0000000000000710       0xd8 ./Drivers/STM32F4xx_HAL_Driver/Src/stm32f4xx_hal_rtc.o
 .debug_ranges  0x00000000000007e8      0x158 ./Drivers/STM32F4xx_HAL_Driver/Src/stm32f4xx_hal_sd.o
 .debug_ranges  0x0000000000000940       0xa8 ./Drivers/STM32F4xx_HAL_Driver/Src/stm32f4xx_hal_sram.o
 .debug_ranges  0x00000000000009e8       0x98 ./Drivers/STM32F4xx_HAL_Driver/Src/stm32f4xx_ll_fsmc.o
 .debug_ranges  0x0000000000000a80      0x178 ./Drivers/STM32F4xx_HAL_Driver/Src/stm32f4xx_ll_sdmmc.o
 .debug_ranges  0x0000000000000bf8      0x190 ./Drivers/STM32F4xx_HAL_Driver/Src/stm32f4xx_ll_usb.o
 .debug_ranges  0x0000000000000d88       0x18 ./FATFS/App/fatfs.o
 .debug_ranges  0x0000000000000da0       0x90 ./FATFS/Target/bsp_driver_sd.o
 .debug_ranges  0x0000000000000e30       0x38 ./FATFS/Target/sd_diskio.o
 .debug_ranges  0x0000000000000e68       0x58 ./Middlewares/ST/STM32_USB_Device_Library/Class/MSC/Src/usbd_msc.o
 .debug_ranges  0x0000000000000ec0       0x58 ./Middlewares/ST/STM32_USB_Device_Library/Class/MSC/Src/usbd_msc_bot.o
 .debug_ranges  0x0000000000000f18       0xb0 ./Middlewares/ST/STM32_USB_Device_Library/Class/MSC/Src/usbd_msc_scsi.o
 .debug_ranges  0x0000000000000fc8       0xc8 ./Middlewares/ST/STM32_USB_Device_Library/Core/Src/usbd_core.o
 .debug_ranges  0x0000000000001090       0x80 ./Middlewares/ST/STM32_USB_Device_Library/Core/Src/usbd_ctlreq.o
 .debug_ranges  0x0000000000001110       0x40 ./Middlewares/ST/STM32_USB_Device_Library/Core/Src/usbd_ioreq.o
 .debug_ranges  0x0000000000001150       0x38 ./Middlewares/Third_Party/FatFs/src/diskio.o
 .debug_ranges  0x0000000000001188      0x220 ./Middlewares/Third_Party/FatFs/src/ff.o
 .debug_ranges  0x00000000000013a8       0x30 ./Middlewares/Third_Party/FatFs/src/ff_gen_drv.o
 .debug_ranges  0x00000000000013d8       0x18 ./Middlewares/Third_Party/FatFs/src/option/cc936.o
 .debug_ranges  0x00000000000013f0       0x18 ./Middlewares/Third_Party/FatFs/src/option/syscall.o
 .debug_ranges  0x0000000000001408       0x10 ./USB_DEVICE/App/usb_device.o
 .debug_ranges  0x0000000000001418       0x50 ./USB_DEVICE/App/usbd_desc.o
 .debug_ranges  0x0000000000001468       0x40 ./USB_DEVICE/App/usbd_storage_if.o
 .debug_ranges  0x00000000000014a8      0x100 ./USB_DEVICE/Target/usbd_conf.o

.debug_macro    0x0000000000000000    0x2a555
 .debug_macro   0x0000000000000000      0x23a ./Core/Src/fsmc.o
 .debug_macro   0x000000000000023a      0xa78 ./Core/Src/fsmc.o
 .debug_macro   0x0000000000000cb2      0x2a7 ./Core/Src/fsmc.o
 .debug_macro   0x0000000000000f59       0x2e ./Core/Src/fsmc.o
 .debug_macro   0x0000000000000f87       0x2f ./Core/Src/fsmc.o
 .debug_macro   0x0000000000000fb6       0x22 ./Core/Src/fsmc.o
 .debug_macro   0x0000000000000fd8       0x8e ./Core/Src/fsmc.o
 .debug_macro   0x0000000000001066       0x51 ./Core/Src/fsmc.o
 .debug_macro   0x00000000000010b7      0x103 ./Core/Src/fsmc.o
 .debug_macro   0x00000000000011ba       0x6a ./Core/Src/fsmc.o
 .debug_macro   0x0000000000001224      0x1df ./Core/Src/fsmc.o
 .debug_macro   0x0000000000001403       0x1c ./Core/Src/fsmc.o
 .debug_macro   0x000000000000141f       0x22 ./Core/Src/fsmc.o
 .debug_macro   0x0000000000001441       0xd9 ./Core/Src/fsmc.o
 .debug_macro   0x000000000000151a     0x102d ./Core/Src/fsmc.o
 .debug_macro   0x0000000000002547      0x11f ./Core/Src/fsmc.o
 .debug_macro   0x0000000000002666    0x15e82 ./Core/Src/fsmc.o
 .debug_macro   0x00000000000184e8       0x6d ./Core/Src/fsmc.o
 .debug_macro   0x0000000000018555     0x367e ./Core/Src/fsmc.o
 .debug_macro   0x000000000001bbd3      0x174 ./Core/Src/fsmc.o
 .debug_macro   0x000000000001bd47       0x5c ./Core/Src/fsmc.o
 .debug_macro   0x000000000001bda3      0x96b ./Core/Src/fsmc.o
 .debug_macro   0x000000000001c70e      0x9fe ./Core/Src/fsmc.o
 .debug_macro   0x000000000001d10c      0x115 ./Core/Src/fsmc.o
 .debug_macro   0x000000000001d221      0x13e ./Core/Src/fsmc.o
 .debug_macro   0x000000000001d35f       0xa5 ./Core/Src/fsmc.o
 .debug_macro   0x000000000001d404      0x174 ./Core/Src/fsmc.o
 .debug_macro   0x000000000001d578      0x287 ./Core/Src/fsmc.o
 .debug_macro   0x000000000001d7ff       0x5f ./Core/Src/fsmc.o
 .debug_macro   0x000000000001d85e      0x236 ./Core/Src/fsmc.o
 .debug_macro   0x000000000001da94      0x12c ./Core/Src/fsmc.o
 .debug_macro   0x000000000001dbc0      0x21e ./Core/Src/fsmc.o
 .debug_macro   0x000000000001ddde       0x2e ./Core/Src/fsmc.o
 .debug_macro   0x000000000001de0c      0x516 ./Core/Src/fsmc.o
 .debug_macro   0x000000000001e322      0x11a ./Core/Src/fsmc.o
 .debug_macro   0x000000000001e43c       0x7e ./Core/Src/fsmc.o
 .debug_macro   0x000000000001e4ba       0x89 ./Core/Src/fsmc.o
 .debug_macro   0x000000000001e543      0x305 ./Core/Src/fsmc.o
 .debug_macro   0x000000000001e848      0x452 ./Core/Src/fsmc.o
 .debug_macro   0x000000000001ec9a       0xe4 ./Core/Src/fsmc.o
 .debug_macro   0x000000000001ed7e      0x861 ./Core/Src/fsmc.o
 .debug_macro   0x000000000001f5df      0x1d5 ./Core/Src/fsmc.o
 .debug_macro   0x000000000001f7b4      0x248 ./Core/Src/fsmc.o
 .debug_macro   0x000000000001f9fc       0xba ./Core/Src/fsmc.o
 .debug_macro   0x000000000001fab6      0x12d ./Core/Src/fsmc.o
 .debug_macro   0x000000000001fbe3       0x58 ./Core/Src/fsmc.o
 .debug_macro   0x000000000001fc3b      0x23a ./Core/Src/gpio.o
 .debug_macro   0x000000000001fe75      0x4c3 ./Core/Src/main.o
 .debug_macro   0x0000000000020338       0x3a ./Core/Src/main.o
 .debug_macro   0x0000000000020372       0xe5 ./Core/Src/main.o
 .debug_macro   0x0000000000020457       0x1e ./Core/Src/main.o
 .debug_macro   0x0000000000020475       0x52 ./Core/Src/main.o
 .debug_macro   0x00000000000204c7       0x3c ./Core/Src/main.o
 .debug_macro   0x0000000000020503       0x34 ./Core/Src/main.o
 .debug_macro   0x0000000000020537       0x16 ./Core/Src/main.o
 .debug_macro   0x000000000002054d       0x35 ./Core/Src/main.o
 .debug_macro   0x0000000000020582       0x16 ./Core/Src/main.o
 .debug_macro   0x0000000000020598       0x43 ./Core/Src/main.o
 .debug_macro   0x00000000000205db       0x34 ./Core/Src/main.o
 .debug_macro   0x000000000002060f       0x10 ./Core/Src/main.o
 .debug_macro   0x000000000002061f       0x58 ./Core/Src/main.o
 .debug_macro   0x0000000000020677       0x71 ./Core/Src/main.o
 .debug_macro   0x00000000000206e8       0x1c ./Core/Src/main.o
 .debug_macro   0x0000000000020704      0x12a ./Core/Src/main.o
 .debug_macro   0x000000000002082e      0x341 ./Core/Src/main.o
 .debug_macro   0x0000000000020b6f       0x16 ./Core/Src/main.o
 .debug_macro   0x0000000000020b85       0x29 ./Core/Src/main.o
 .debug_macro   0x0000000000020bae       0x12 ./Core/Src/main.o
 .debug_macro   0x0000000000020bc0       0xe2 ./Core/Src/main.o
 .debug_macro   0x0000000000020ca2       0x8e ./Core/Src/main.o
 .debug_macro   0x0000000000020d30       0x1c ./Core/Src/main.o
 .debug_macro   0x0000000000020d4c       0x10 ./Core/Src/main.o
 .debug_macro   0x0000000000020d5c       0x10 ./Core/Src/main.o
 .debug_macro   0x0000000000020d6c       0x1c ./Core/Src/main.o
 .debug_macro   0x0000000000020d88       0x52 ./Core/Src/main.o
 .debug_macro   0x0000000000020dda       0x22 ./Core/Src/main.o
 .debug_macro   0x0000000000020dfc       0x10 ./Core/Src/main.o
 .debug_macro   0x0000000000020e0c       0x52 ./Core/Src/main.o
 .debug_macro   0x0000000000020e5e       0xd5 ./Core/Src/main.o
 .debug_macro   0x0000000000020f33       0x1c ./Core/Src/main.o
 .debug_macro   0x0000000000020f4f       0x3d ./Core/Src/main.o
 .debug_macro   0x0000000000020f8c       0x16 ./Core/Src/main.o
 .debug_macro   0x0000000000020fa2      0x145 ./Core/Src/main.o
 .debug_macro   0x00000000000210e7       0x16 ./Core/Src/main.o
 .debug_macro   0x00000000000210fd       0x20 ./Core/Src/main.o
 .debug_macro   0x000000000002111d       0x6b ./Core/Src/main.o
 .debug_macro   0x0000000000021188      0x20f ./Core/Src/main.o
 .debug_macro   0x0000000000021397      0x1a7 ./Core/Src/main.o
 .debug_macro   0x000000000002153e       0x34 ./Core/Src/main.o
 .debug_macro   0x0000000000021572      0x23a ./Core/Src/rtc.o
 .debug_macro   0x00000000000217ac      0x23a ./Core/Src/sdio.o
 .debug_macro   0x00000000000219e6      0x230 ./Core/Src/stm32f4xx_hal_msp.o
 .debug_macro   0x0000000000021c16      0x23a ./Core/Src/stm32f4xx_it.o
 .debug_macro   0x0000000000021e50       0xff ./Core/Src/sysmem.o
 .debug_macro   0x0000000000021f4f      0x23b ./Core/Src/sysmem.o
 .debug_macro   0x000000000002218a      0x221 ./Core/Src/system_stm32f4xx.o
 .debug_macro   0x00000000000223ab      0x425 ./Drivers/BSP/Src/file_opera.o
 .debug_macro   0x00000000000227d0      0x1a1 ./Drivers/BSP/Src/file_opera.o
 .debug_macro   0x0000000000022971      0x23f ./Drivers/BSP/Src/keyled.o
 .debug_macro   0x0000000000022bb0       0x2e ./Drivers/BSP/Src/keyled.o
 .debug_macro   0x0000000000022bde      0x34d ./Drivers/BSP/Src/lcd.o
 .debug_macro   0x0000000000022f2b      0x10e ./Drivers/BSP/Src/lcd.o
 .debug_macro   0x0000000000023039       0x8d ./Drivers/BSP/Src/lcd.o
 .debug_macro   0x00000000000230c6       0x56 ./Drivers/BSP/Src/lcd.o
 .debug_macro   0x000000000002311c      0x281 ./Drivers/STM32F4xx_HAL_Driver/Src/stm32f4xx_hal.o
 .debug_macro   0x000000000002339d      0x221 ./Drivers/STM32F4xx_HAL_Driver/Src/stm32f4xx_hal_cortex.o
 .debug_macro   0x00000000000235be      0x227 ./Drivers/STM32F4xx_HAL_Driver/Src/stm32f4xx_hal_gpio.o
 .debug_macro   0x00000000000237e5      0x22d ./Drivers/STM32F4xx_HAL_Driver/Src/stm32f4xx_hal_pcd.o
 .debug_macro   0x0000000000023a12      0x221 ./Drivers/STM32F4xx_HAL_Driver/Src/stm32f4xx_hal_pcd_ex.o
 .debug_macro   0x0000000000023c33      0x245 ./Drivers/STM32F4xx_HAL_Driver/Src/stm32f4xx_hal_rcc.o
 .debug_macro   0x0000000000023e78      0x221 ./Drivers/STM32F4xx_HAL_Driver/Src/stm32f4xx_hal_rcc_ex.o
 .debug_macro   0x0000000000024099      0x222 ./Drivers/STM32F4xx_HAL_Driver/Src/stm32f4xx_hal_rtc.o
 .debug_macro   0x00000000000242bb      0x222 ./Drivers/STM32F4xx_HAL_Driver/Src/stm32f4xx_hal_sd.o
 .debug_macro   0x00000000000244dd      0x221 ./Drivers/STM32F4xx_HAL_Driver/Src/stm32f4xx_hal_sram.o
 .debug_macro   0x00000000000246fe      0x25b ./Drivers/STM32F4xx_HAL_Driver/Src/stm32f4xx_ll_fsmc.o
 .debug_macro   0x0000000000024959      0x222 ./Drivers/STM32F4xx_HAL_Driver/Src/stm32f4xx_ll_sdmmc.o
 .debug_macro   0x0000000000024b7b      0x221 ./Drivers/STM32F4xx_HAL_Driver/Src/stm32f4xx_ll_usb.o
 .debug_macro   0x0000000000024d9c      0x450 ./FATFS/App/fatfs.o
 .debug_macro   0x00000000000251ec      0x230 ./FATFS/Target/bsp_driver_sd.o
 .debug_macro   0x000000000002541c       0x34 ./FATFS/Target/bsp_driver_sd.o
 .debug_macro   0x0000000000025450      0x361 ./FATFS/Target/sd_diskio.o
 .debug_macro   0x00000000000257b1       0x16 ./FATFS/Target/sd_diskio.o
 .debug_macro   0x00000000000257c7       0x7c ./FATFS/Target/sd_diskio.o
 .debug_macro   0x0000000000025843      0x462 ./Middlewares/ST/STM32_USB_Device_Library/Class/MSC/Src/usbd_msc.o
 .debug_macro   0x0000000000025ca5       0x16 ./Middlewares/ST/STM32_USB_Device_Library/Class/MSC/Src/usbd_msc.o
 .debug_macro   0x0000000000025cbb       0x97 ./Middlewares/ST/STM32_USB_Device_Library/Class/MSC/Src/usbd_msc.o
 .debug_macro   0x0000000000025d52       0xfd ./Middlewares/ST/STM32_USB_Device_Library/Class/MSC/Src/usbd_msc.o
 .debug_macro   0x0000000000025e4f      0x215 ./Middlewares/ST/STM32_USB_Device_Library/Class/MSC/Src/usbd_msc.o
 .debug_macro   0x0000000000026064       0x7c ./Middlewares/ST/STM32_USB_Device_Library/Class/MSC/Src/usbd_msc.o
 .debug_macro   0x00000000000260e0      0x160 ./Middlewares/ST/STM32_USB_Device_Library/Class/MSC/Src/usbd_msc.o
 .debug_macro   0x0000000000026240       0x34 ./Middlewares/ST/STM32_USB_Device_Library/Class/MSC/Src/usbd_msc.o
 .debug_macro   0x0000000000026274      0x46a ./Middlewares/ST/STM32_USB_Device_Library/Class/MSC/Src/usbd_msc_bot.o
 .debug_macro   0x00000000000266de      0x40b ./Middlewares/ST/STM32_USB_Device_Library/Class/MSC/Src/usbd_msc_data.o
 .debug_macro   0x0000000000026ae9       0x22 ./Middlewares/ST/STM32_USB_Device_Library/Class/MSC/Src/usbd_msc_data.o
 .debug_macro   0x0000000000026b0b      0x473 ./Middlewares/ST/STM32_USB_Device_Library/Class/MSC/Src/usbd_msc_scsi.o
 .debug_macro   0x0000000000026f7e       0x28 ./Middlewares/ST/STM32_USB_Device_Library/Class/MSC/Src/usbd_msc_scsi.o
 .debug_macro   0x0000000000026fa6      0x42d ./Middlewares/ST/STM32_USB_Device_Library/Core/Src/usbd_core.o
 .debug_macro   0x00000000000273d3      0x437 ./Middlewares/ST/STM32_USB_Device_Library/Core/Src/usbd_ctlreq.o
 .debug_macro   0x000000000002780a      0x433 ./Middlewares/ST/STM32_USB_Device_Library/Core/Src/usbd_ioreq.o
 .debug_macro   0x0000000000027c3d      0x34b ./Middlewares/Third_Party/FatFs/src/diskio.o
 .debug_macro   0x0000000000027f88      0x76f ./Middlewares/Third_Party/FatFs/src/ff.o
 .debug_macro   0x00000000000286f7       0x58 ./Middlewares/Third_Party/FatFs/src/ff.o
 .debug_macro   0x000000000002874f      0x34b ./Middlewares/Third_Party/FatFs/src/ff_gen_drv.o
 .debug_macro   0x0000000000028a9a      0x333 ./Middlewares/Third_Party/FatFs/src/option/cc936.o
 .debug_macro   0x0000000000028dcd      0x333 ./Middlewares/Third_Party/FatFs/src/option/syscall.o
 .debug_macro   0x0000000000029100      0x479 ./USB_DEVICE/App/usb_device.o
 .debug_macro   0x0000000000029579       0x5e ./USB_DEVICE/App/usb_device.o
 .debug_macro   0x00000000000295d7       0x22 ./USB_DEVICE/App/usb_device.o
 .debug_macro   0x00000000000295f9       0x82 ./USB_DEVICE/App/usb_device.o
 .debug_macro   0x000000000002967b      0x166 ./USB_DEVICE/App/usb_device.o
 .debug_macro   0x00000000000297e1      0x470 ./USB_DEVICE/App/usbd_desc.o
 .debug_macro   0x0000000000029c51       0x1c ./USB_DEVICE/App/usbd_desc.o
 .debug_macro   0x0000000000029c6d      0x48c ./USB_DEVICE/App/usbd_storage_if.o
 .debug_macro   0x000000000002a0f9      0x45c ./USB_DEVICE/Target/usbd_conf.o

.debug_line     0x0000000000000000    0x29045
 .debug_line    0x0000000000000000      0x99c ./Core/Src/fsmc.o
 .debug_line    0x000000000000099c      0x8ad ./Core/Src/gpio.o
 .debug_line    0x0000000000001249      0xd20 ./Core/Src/main.o
 .debug_line    0x0000000000001f69      0x905 ./Core/Src/rtc.o
 .debug_line    0x000000000000286e      0x8e9 ./Core/Src/sdio.o
 .debug_line    0x0000000000003157      0x877 ./Core/Src/stm32f4xx_hal_msp.o
 .debug_line    0x00000000000039ce      0x952 ./Core/Src/stm32f4xx_it.o
 .debug_line    0x0000000000004320      0x642 ./Core/Src/sysmem.o
 .debug_line    0x0000000000004962      0x8f9 ./Core/Src/system_stm32f4xx.o
 .debug_line    0x000000000000525b       0x88 ./Core/Startup/startup_stm32f407zgtx.o
 .debug_line    0x00000000000052e3      0xe88 ./Drivers/BSP/Src/file_opera.o
 .debug_line    0x000000000000616b      0x8f3 ./Drivers/BSP/Src/keyled.o
 .debug_line    0x0000000000006a5e     0x1b4f ./Drivers/BSP/Src/lcd.o
 .debug_line    0x00000000000085ad      0xb5f ./Drivers/STM32F4xx_HAL_Driver/Src/stm32f4xx_hal.o
 .debug_line    0x000000000000910c      0xe0e ./Drivers/STM32F4xx_HAL_Driver/Src/stm32f4xx_hal_cortex.o
 .debug_line    0x0000000000009f1a      0xcd3 ./Drivers/STM32F4xx_HAL_Driver/Src/stm32f4xx_hal_gpio.o
 .debug_line    0x000000000000abed     0x1602 ./Drivers/STM32F4xx_HAL_Driver/Src/stm32f4xx_hal_pcd.o
 .debug_line    0x000000000000c1ef      0x942 ./Drivers/STM32F4xx_HAL_Driver/Src/stm32f4xx_hal_pcd_ex.o
 .debug_line    0x000000000000cb31      0xedb ./Drivers/STM32F4xx_HAL_Driver/Src/stm32f4xx_hal_rcc.o
 .debug_line    0x000000000000da0c      0xb75 ./Drivers/STM32F4xx_HAL_Driver/Src/stm32f4xx_hal_rcc_ex.o
 .debug_line    0x000000000000e581     0x1234 ./Drivers/STM32F4xx_HAL_Driver/Src/stm32f4xx_hal_rtc.o
 .debug_line    0x000000000000f7b5     0x1f8c ./Drivers/STM32F4xx_HAL_Driver/Src/stm32f4xx_hal_sd.o
 .debug_line    0x0000000000011741      0xe88 ./Drivers/STM32F4xx_HAL_Driver/Src/stm32f4xx_hal_sram.o
 .debug_line    0x00000000000125c9      0xb83 ./Drivers/STM32F4xx_HAL_Driver/Src/stm32f4xx_ll_fsmc.o
 .debug_line    0x000000000001314c     0x10f2 ./Drivers/STM32F4xx_HAL_Driver/Src/stm32f4xx_ll_sdmmc.o
 .debug_line    0x000000000001423e     0x1c1c ./Drivers/STM32F4xx_HAL_Driver/Src/stm32f4xx_ll_usb.o
 .debug_line    0x0000000000015e5a      0xb8d ./FATFS/App/fatfs.o
 .debug_line    0x00000000000169e7      0xa48 ./FATFS/Target/bsp_driver_sd.o
 .debug_line    0x000000000001742f      0xb7f ./FATFS/Target/sd_diskio.o
 .debug_line    0x0000000000017fae      0xede ./Middlewares/ST/STM32_USB_Device_Library/Class/MSC/Src/usbd_msc.o
 .debug_line    0x0000000000018e8c      0xefd ./Middlewares/ST/STM32_USB_Device_Library/Class/MSC/Src/usbd_msc_bot.o
 .debug_line    0x0000000000019d89      0xb54 ./Middlewares/ST/STM32_USB_Device_Library/Class/MSC/Src/usbd_msc_data.o
 .debug_line    0x000000000001a8dd     0x1679 ./Middlewares/ST/STM32_USB_Device_Library/Class/MSC/Src/usbd_msc_scsi.o
 .debug_line    0x000000000001bf56     0x112c ./Middlewares/ST/STM32_USB_Device_Library/Core/Src/usbd_core.o
 .debug_line    0x000000000001d082     0x12fd ./Middlewares/ST/STM32_USB_Device_Library/Core/Src/usbd_ctlreq.o
 .debug_line    0x000000000001e37f      0xc44 ./Middlewares/ST/STM32_USB_Device_Library/Core/Src/usbd_ioreq.o
 .debug_line    0x000000000001efc3      0xb0c ./Middlewares/Third_Party/FatFs/src/diskio.o
 .debug_line    0x000000000001facf     0x3e73 ./Middlewares/Third_Party/FatFs/src/ff.o
 .debug_line    0x0000000000023942      0xb2a ./Middlewares/Third_Party/FatFs/src/ff_gen_drv.o
 .debug_line    0x000000000002446c      0xb89 ./Middlewares/Third_Party/FatFs/src/option/cc936.o
 .debug_line    0x0000000000024ff5      0xa8f ./Middlewares/Third_Party/FatFs/src/option/syscall.o
 .debug_line    0x0000000000025a84      0xc29 ./USB_DEVICE/App/usb_device.o
 .debug_line    0x00000000000266ad      0xcc9 ./USB_DEVICE/App/usbd_desc.o
 .debug_line    0x0000000000027376      0xcc4 ./USB_DEVICE/App/usbd_storage_if.o
 .debug_line    0x000000000002803a     0x100b ./USB_DEVICE/Target/usbd_conf.o

.debug_str      0x0000000000000000    0xd6a6e
 .debug_str     0x0000000000000000    0xc90d2 ./Core/Src/fsmc.o
                                      0xc9439 (size before relaxing)
 .debug_str     0x00000000000c90d2       0x68 ./Core/Src/gpio.o
                                      0xc8ee7 (size before relaxing)
 .debug_str     0x00000000000c913a     0x5d33 ./Core/Src/main.o
                                      0xcec35 (size before relaxing)
 .debug_str     0x00000000000cee6d      0x348 ./Core/Src/rtc.o
                                      0xc911f (size before relaxing)
 .debug_str     0x00000000000cf1b5      0x220 ./Core/Src/sdio.o
                                      0xc937c (size before relaxing)
 .debug_str     0x00000000000cf3d5       0x2c ./Core/Src/stm32f4xx_hal_msp.o
                                      0xc8e1c (size before relaxing)
 .debug_str     0x00000000000cf401      0x443 ./Core/Src/stm32f4xx_it.o
                                      0xc91b8 (size before relaxing)
 .debug_str     0x00000000000cf844      0x4da ./Core/Src/sysmem.o
                                       0x5da9 (size before relaxing)
 .debug_str     0x00000000000cfd1e       0xdb ./Core/Src/system_stm32f4xx.o
                                      0xc8d91 (size before relaxing)
 .debug_str     0x00000000000cfdf9       0x36 ./Core/Startup/startup_stm32f407zgtx.o
                                         0x6b (size before relaxing)
 .debug_str     0x00000000000cfe2f      0x232 ./Drivers/BSP/Src/file_opera.o
                                      0xcdfbb (size before relaxing)
 .debug_str     0x00000000000d0061       0x54 ./Drivers/BSP/Src/keyled.o
                                      0xc8fa4 (size before relaxing)
 .debug_str     0x00000000000d00b5      0x359 ./Drivers/BSP/Src/lcd.o
                                      0xccc6c (size before relaxing)
 .debug_str     0x00000000000d040e      0xae2 ./Drivers/STM32F4xx_HAL_Driver/Src/stm32f4xx_hal.o
                                      0xc9915 (size before relaxing)
 .debug_str     0x00000000000d0ef0      0x348 ./Drivers/STM32F4xx_HAL_Driver/Src/stm32f4xx_hal_cortex.o
                                      0xc9648 (size before relaxing)
 .debug_str     0x00000000000d1238      0x10b ./Drivers/STM32F4xx_HAL_Driver/Src/stm32f4xx_hal_gpio.o
                                      0xc8f0c (size before relaxing)
 .debug_str     0x00000000000d1343      0x832 ./Drivers/STM32F4xx_HAL_Driver/Src/stm32f4xx_hal_pcd.o
                                      0xc9853 (size before relaxing)
 .debug_str     0x00000000000d1b75      0x115 ./Drivers/STM32F4xx_HAL_Driver/Src/stm32f4xx_hal_pcd_ex.o
                                      0xc9142 (size before relaxing)
 .debug_str     0x00000000000d1c8a      0x21f ./Drivers/STM32F4xx_HAL_Driver/Src/stm32f4xx_hal_rcc.o
                                      0xc91c5 (size before relaxing)
 .debug_str     0x00000000000d1ea9       0xf9 ./Drivers/STM32F4xx_HAL_Driver/Src/stm32f4xx_hal_rcc_ex.o
                                      0xc8ee3 (size before relaxing)
 .debug_str     0x00000000000d1fa2      0x279 ./Drivers/STM32F4xx_HAL_Driver/Src/stm32f4xx_hal_rtc.o
                                      0xc91fb (size before relaxing)
 .debug_str     0x00000000000d221b      0x94f ./Drivers/STM32F4xx_HAL_Driver/Src/stm32f4xx_hal_sd.o
                                      0xc9b0a (size before relaxing)
 .debug_str     0x00000000000d2b6a      0x1e5 ./Drivers/STM32F4xx_HAL_Driver/Src/stm32f4xx_hal_sram.o
                                      0xc938f (size before relaxing)
 .debug_str     0x00000000000d2d4f      0x5c1 ./Drivers/STM32F4xx_HAL_Driver/Src/stm32f4xx_ll_fsmc.o
                                      0xc95fc (size before relaxing)
 .debug_str     0x00000000000d3310      0x227 ./Drivers/STM32F4xx_HAL_Driver/Src/stm32f4xx_ll_sdmmc.o
                                      0xc9218 (size before relaxing)
 .debug_str     0x00000000000d3537      0x444 ./Drivers/STM32F4xx_HAL_Driver/Src/stm32f4xx_ll_usb.o
                                      0xc96bb (size before relaxing)
 .debug_str     0x00000000000d397b       0xdf ./FATFS/App/fatfs.o
                                      0xcdba8 (size before relaxing)
 .debug_str     0x00000000000d3a5a      0x164 ./FATFS/Target/bsp_driver_sd.o
                                      0xc9420 (size before relaxing)
 .debug_str     0x00000000000d3bbe       0x99 ./FATFS/Target/sd_diskio.o
                                      0xcc4cd (size before relaxing)
 .debug_str     0x00000000000d3c57     0x102a ./Middlewares/ST/STM32_USB_Device_Library/Class/MSC/Src/usbd_msc.o
                                      0xce716 (size before relaxing)
 .debug_str     0x00000000000d4c81      0x11c ./Middlewares/ST/STM32_USB_Device_Library/Class/MSC/Src/usbd_msc_bot.o
                                      0xce5ea (size before relaxing)
 .debug_str     0x00000000000d4d9d      0x13b ./Middlewares/ST/STM32_USB_Device_Library/Class/MSC/Src/usbd_msc_data.o
                                      0xcce5f (size before relaxing)
 .debug_str     0x00000000000d4ed8      0x1ba ./Middlewares/ST/STM32_USB_Device_Library/Class/MSC/Src/usbd_msc_scsi.o
                                      0xce76d (size before relaxing)
 .debug_str     0x00000000000d5092      0x341 ./Middlewares/ST/STM32_USB_Device_Library/Core/Src/usbd_core.o
                                      0xcde6a (size before relaxing)
 .debug_str     0x00000000000d53d3      0x124 ./Middlewares/ST/STM32_USB_Device_Library/Core/Src/usbd_ctlreq.o
                                      0xcdc95 (size before relaxing)
 .debug_str     0x00000000000d54f7       0x63 ./Middlewares/ST/STM32_USB_Device_Library/Core/Src/usbd_ioreq.o
                                      0xcdb6a (size before relaxing)
 .debug_str     0x00000000000d555a       0x57 ./Middlewares/Third_Party/FatFs/src/diskio.o
                                      0xcc3a0 (size before relaxing)
 .debug_str     0x00000000000d55b1      0xec3 ./Middlewares/Third_Party/FatFs/src/ff.o
                                      0xcd559 (size before relaxing)
 .debug_str     0x00000000000d6474       0x91 ./Middlewares/Third_Party/FatFs/src/ff_gen_drv.o
                                      0xcc3f1 (size before relaxing)
 .debug_str     0x00000000000d6505       0x4e ./Middlewares/Third_Party/FatFs/src/option/cc936.o
                                      0xcc17a (size before relaxing)
 .debug_str     0x00000000000d6553       0x43 ./Middlewares/Third_Party/FatFs/src/option/syscall.o
                                      0xcc17c (size before relaxing)
 .debug_str     0x00000000000d6596       0xe5 ./USB_DEVICE/App/usb_device.o
                                      0xce40a (size before relaxing)
 .debug_str     0x00000000000d667b      0x26b ./USB_DEVICE/App/usbd_desc.o
                                      0xcda67 (size before relaxing)
 .debug_str     0x00000000000d68e6      0x125 ./USB_DEVICE/App/usbd_storage_if.o
                                      0xce585 (size before relaxing)
 .debug_str     0x00000000000d6a0b       0x63 ./USB_DEVICE/Target/usbd_conf.o
                                      0xcf22b (size before relaxing)

.comment        0x0000000000000000       0x50
 .comment       0x0000000000000000       0x50 ./Core/Src/fsmc.o
                                         0x51 (size before relaxing)
 .comment       0x0000000000000050       0x51 ./Core/Src/gpio.o
 .comment       0x0000000000000050       0x51 ./Core/Src/main.o
 .comment       0x0000000000000050       0x51 ./Core/Src/rtc.o
 .comment       0x0000000000000050       0x51 ./Core/Src/sdio.o
 .comment       0x0000000000000050       0x51 ./Core/Src/stm32f4xx_hal_msp.o
 .comment       0x0000000000000050       0x51 ./Core/Src/stm32f4xx_it.o
 .comment       0x0000000000000050       0x51 ./Core/Src/sysmem.o
 .comment       0x0000000000000050       0x51 ./Core/Src/system_stm32f4xx.o
 .comment       0x0000000000000050       0x51 ./Drivers/BSP/Src/file_opera.o
 .comment       0x0000000000000050       0x51 ./Drivers/BSP/Src/keyled.o
 .comment       0x0000000000000050       0x51 ./Drivers/BSP/Src/lcd.o
 .comment       0x0000000000000050       0x51 ./Drivers/STM32F4xx_HAL_Driver/Src/stm32f4xx_hal.o
 .comment       0x0000000000000050       0x51 ./Drivers/STM32F4xx_HAL_Driver/Src/stm32f4xx_hal_cortex.o
 .comment       0x0000000000000050       0x51 ./Drivers/STM32F4xx_HAL_Driver/Src/stm32f4xx_hal_gpio.o
 .comment       0x0000000000000050       0x51 ./Drivers/STM32F4xx_HAL_Driver/Src/stm32f4xx_hal_pcd.o
 .comment       0x0000000000000050       0x51 ./Drivers/STM32F4xx_HAL_Driver/Src/stm32f4xx_hal_pcd_ex.o
 .comment       0x0000000000000050       0x51 ./Drivers/STM32F4xx_HAL_Driver/Src/stm32f4xx_hal_rcc.o
 .comment       0x0000000000000050       0x51 ./Drivers/STM32F4xx_HAL_Driver/Src/stm32f4xx_hal_rcc_ex.o
 .comment       0x0000000000000050       0x51 ./Drivers/STM32F4xx_HAL_Driver/Src/stm32f4xx_hal_rtc.o
 .comment       0x0000000000000050       0x51 ./Drivers/STM32F4xx_HAL_Driver/Src/stm32f4xx_hal_sd.o
 .comment       0x0000000000000050       0x51 ./Drivers/STM32F4xx_HAL_Driver/Src/stm32f4xx_hal_sram.o
 .comment       0x0000000000000050       0x51 ./Drivers/STM32F4xx_HAL_Driver/Src/stm32f4xx_ll_fsmc.o
 .comment       0x0000000000000050       0x51 ./Drivers/STM32F4xx_HAL_Driver/Src/stm32f4xx_ll_sdmmc.o
 .comment       0x0000000000000050       0x51 ./Drivers/STM32F4xx_HAL_Driver/Src/stm32f4xx_ll_usb.o
 .comment       0x0000000000000050       0x51 ./FATFS/App/fatfs.o
 .comment       0x0000000000000050       0x51 ./FATFS/Target/bsp_driver_sd.o
 .comment       0x0000000000000050       0x51 ./FATFS/Target/sd_diskio.o
 .comment       0x0000000000000050       0x51 ./Middlewares/ST/STM32_USB_Device_Library/Class/MSC/Src/usbd_msc.o
 .comment       0x0000000000000050       0x51 ./Middlewares/ST/STM32_USB_Device_Library/Class/MSC/Src/usbd_msc_bot.o
 .comment       0x0000000000000050       0x51 ./Middlewares/ST/STM32_USB_Device_Library/Class/MSC/Src/usbd_msc_data.o
 .comment       0x0000000000000050       0x51 ./Middlewares/ST/STM32_USB_Device_Library/Class/MSC/Src/usbd_msc_scsi.o
 .comment       0x0000000000000050       0x51 ./Middlewares/ST/STM32_USB_Device_Library/Core/Src/usbd_core.o
 .comment       0x0000000000000050       0x51 ./Middlewares/ST/STM32_USB_Device_Library/Core/Src/usbd_ctlreq.o
 .comment       0x0000000000000050       0x51 ./Middlewares/ST/STM32_USB_Device_Library/Core/Src/usbd_ioreq.o
 .comment       0x0000000000000050       0x51 ./Middlewares/Third_Party/FatFs/src/diskio.o
 .comment       0x0000000000000050       0x51 ./Middlewares/Third_Party/FatFs/src/ff.o
 .comment       0x0000000000000050       0x51 ./Middlewares/Third_Party/FatFs/src/ff_gen_drv.o
 .comment       0x0000000000000050       0x51 ./Middlewares/Third_Party/FatFs/src/option/cc936.o
 .comment       0x0000000000000050       0x51 ./Middlewares/Third_Party/FatFs/src/option/syscall.o
 .comment       0x0000000000000050       0x51 ./USB_DEVICE/App/usb_device.o
 .comment       0x0000000000000050       0x51 ./USB_DEVICE/App/usbd_desc.o
 .comment       0x0000000000000050       0x51 ./USB_DEVICE/App/usbd_storage_if.o
 .comment       0x0000000000000050       0x51 ./USB_DEVICE/Target/usbd_conf.o

.debug_frame    0x0000000000000000     0x666c
 .debug_frame   0x0000000000000000       0xbc ./Core/Src/fsmc.o
 .debug_frame   0x00000000000000bc       0x34 ./Core/Src/gpio.o
 .debug_frame   0x00000000000000f0       0x6c ./Core/Src/main.o
 .debug_frame   0x000000000000015c       0x80 ./Core/Src/rtc.o
 .debug_frame   0x00000000000001dc       0x78 ./Core/Src/sdio.o
 .debug_frame   0x0000000000000254       0x38 ./Core/Src/stm32f4xx_hal_msp.o
 .debug_frame   0x000000000000028c      0x120 ./Core/Src/stm32f4xx_it.o
 .debug_frame   0x00000000000003ac       0x34 ./Core/Src/sysmem.o
 .debug_frame   0x00000000000003e0       0x58 ./Core/Src/system_stm32f4xx.o
 .debug_frame   0x0000000000000438      0x184 ./Drivers/BSP/Src/file_opera.o
 .debug_frame   0x00000000000005bc       0x34 ./Drivers/BSP/Src/keyled.o
 .debug_frame   0x00000000000005f0      0x518 ./Drivers/BSP/Src/lcd.o
 .debug_frame   0x0000000000000b08      0x374 ./Drivers/STM32F4xx_HAL_Driver/Src/stm32f4xx_hal.o
 .debug_frame   0x0000000000000e7c      0x498 ./Drivers/STM32F4xx_HAL_Driver/Src/stm32f4xx_hal_cortex.o
 .debug_frame   0x0000000000001314      0x14c ./Drivers/STM32F4xx_HAL_Driver/Src/stm32f4xx_hal_gpio.o
 .debug_frame   0x0000000000001460      0x5bc ./Drivers/STM32F4xx_HAL_Driver/Src/stm32f4xx_hal_pcd.o
 .debug_frame   0x0000000000001a1c       0xb0 ./Drivers/STM32F4xx_HAL_Driver/Src/stm32f4xx_hal_pcd_ex.o
 .debug_frame   0x0000000000001acc      0x1f4 ./Drivers/STM32F4xx_HAL_Driver/Src/stm32f4xx_hal_rcc.o
 .debug_frame   0x0000000000001cc0       0xf0 ./Drivers/STM32F4xx_HAL_Driver/Src/stm32f4xx_hal_rcc_ex.o
 .debug_frame   0x0000000000001db0      0x3f4 ./Drivers/STM32F4xx_HAL_Driver/Src/stm32f4xx_hal_rtc.o
 .debug_frame   0x00000000000021a4      0x650 ./Drivers/STM32F4xx_HAL_Driver/Src/stm32f4xx_hal_sd.o
 .debug_frame   0x00000000000027f4      0x30c ./Drivers/STM32F4xx_HAL_Driver/Src/stm32f4xx_hal_sram.o
 .debug_frame   0x0000000000002b00      0x2dc ./Drivers/STM32F4xx_HAL_Driver/Src/stm32f4xx_ll_fsmc.o
 .debug_frame   0x0000000000002ddc      0x6d0 ./Drivers/STM32F4xx_HAL_Driver/Src/stm32f4xx_ll_sdmmc.o
 .debug_frame   0x00000000000034ac      0x7c0 ./Drivers/STM32F4xx_HAL_Driver/Src/stm32f4xx_ll_usb.o
 .debug_frame   0x0000000000003c6c       0x48 ./FATFS/App/fatfs.o
 .debug_frame   0x0000000000003cb4      0x25c ./FATFS/Target/bsp_driver_sd.o
 .debug_frame   0x0000000000003f10       0xe8 ./FATFS/Target/sd_diskio.o
 .debug_frame   0x0000000000003ff8      0x180 ./Middlewares/ST/STM32_USB_Device_Library/Class/MSC/Src/usbd_msc.o
 .debug_frame   0x0000000000004178      0x17c ./Middlewares/ST/STM32_USB_Device_Library/Class/MSC/Src/usbd_msc_bot.o
 .debug_frame   0x00000000000042f4      0x31c ./Middlewares/ST/STM32_USB_Device_Library/Class/MSC/Src/usbd_msc_scsi.o
 .debug_frame   0x0000000000004610      0x390 ./Middlewares/ST/STM32_USB_Device_Library/Core/Src/usbd_core.o
 .debug_frame   0x00000000000049a0      0x23c ./Middlewares/ST/STM32_USB_Device_Library/Core/Src/usbd_ctlreq.o
 .debug_frame   0x0000000000004bdc      0x10c ./Middlewares/ST/STM32_USB_Device_Library/Core/Src/usbd_ioreq.o
 .debug_frame   0x0000000000004ce8       0xec ./Middlewares/Third_Party/FatFs/src/diskio.o
 .debug_frame   0x0000000000004dd4      0xa0c ./Middlewares/Third_Party/FatFs/src/ff.o
 .debug_frame   0x00000000000057e0       0xc8 ./Middlewares/Third_Party/FatFs/src/ff_gen_drv.o
 .debug_frame   0x00000000000058a8       0x60 ./Middlewares/Third_Party/FatFs/src/option/cc936.o
 .debug_frame   0x0000000000005908       0x58 ./Middlewares/Third_Party/FatFs/src/option/syscall.o
 .debug_frame   0x0000000000005960       0x2c ./USB_DEVICE/App/usb_device.o
 .debug_frame   0x000000000000598c      0x160 ./USB_DEVICE/App/usbd_desc.o
 .debug_frame   0x0000000000005aec      0x114 ./USB_DEVICE/App/usbd_storage_if.o
 .debug_frame   0x0000000000005c00      0x47c ./USB_DEVICE/Target/usbd_conf.o
 .debug_frame   0x000000000000607c       0x20 c:/program files/stmicroelectronics/stm32cube/stm32cubeide_1.10.1/stm32cubeide/plugins/com.st.stm32cube.ide.mcu.externaltools.gnu-tools-for-stm32.10.3-2021.10.win32_1.0.0.202111181127/tools/bin/../lib/gcc/arm-none-eabi/10.3.1/../../../../arm-none-eabi/lib/thumb/v7e-m+fp/hard\libc_nano.a(lib_a-errno.o)
 .debug_frame   0x000000000000609c       0x2c c:/program files/stmicroelectronics/stm32cube/stm32cubeide_1.10.1/stm32cubeide/plugins/com.st.stm32cube.ide.mcu.externaltools.gnu-tools-for-stm32.10.3-2021.10.win32_1.0.0.202111181127/tools/bin/../lib/gcc/arm-none-eabi/10.3.1/../../../../arm-none-eabi/lib/thumb/v7e-m+fp/hard\libc_nano.a(lib_a-init.o)
 .debug_frame   0x00000000000060c8       0x30 c:/program files/stmicroelectronics/stm32cube/stm32cubeide_1.10.1/stm32cubeide/plugins/com.st.stm32cube.ide.mcu.externaltools.gnu-tools-for-stm32.10.3-2021.10.win32_1.0.0.202111181127/tools/bin/../lib/gcc/arm-none-eabi/10.3.1/../../../../arm-none-eabi/lib/thumb/v7e-m+fp/hard\libc_nano.a(lib_a-malloc.o)
 .debug_frame   0x00000000000060f8       0x20 c:/program files/stmicroelectronics/stm32cube/stm32cubeide_1.10.1/stm32cubeide/plugins/com.st.stm32cube.ide.mcu.externaltools.gnu-tools-for-stm32.10.3-2021.10.win32_1.0.0.202111181127/tools/bin/../lib/gcc/arm-none-eabi/10.3.1/../../../../arm-none-eabi/lib/thumb/v7e-m+fp/hard\libc_nano.a(lib_a-memset.o)
